:020000040800F2
:1000000000200020BD510008E94D0008EB4D00081C
:10001000ED4D0008EF4D0008F14D00080000000014
:10002000000000000000000000000000F34D000888
:10003000F54D000800000000F74D0008F94D0008DC
:100040000552000805520008055200080552000834
:100050000552000805520008055200080552000824
:10006000055200080552000805520008FD4D000821
:100070000552000805520008055200080552000804
:100080000552000805520008055200080000000053
:100090000000000000000000000000000552000801
:1000A00005520008055200080552000805520008D4
:1000B00005520008055200080552000805520008C4
:1000C0000552000800000000000000000552000872
:1000D00005520008014E00080552000805520008AC
:1000E00005520008055200080552000800000000F3
:1000F0000000000000000000000000000000000000
:1001000000000000000000000000000000000000EF
:1001100000000000000000005D4E00085F4E000877
:1001200000000000000000000000000000000000CF
:1001300000000000000000000000000000000000BF
:1001400000000000000000000000000000000000AF
:10015000000000000000000000000000000000009F
:10016000000000000000000000000000000000008F
:10017000000000000000000000000000000000007F
:10018000000000000000000000000000000000006F
:10019000000000000000000000000000000000005F
:1001A000000000000000000000000000000000004F
:1001B000000000000000000000000000000000003F
:1001C0000000000000000000000000005FF808F1DF
:1001D00010B5054C237833B9044B13B10448AFF381
:1001E00000800123237010BD940200200000000055
:1001F0008C56000808B5034B1BB103490348AFF305
:10020000008008BD00000000980200208C56000805
:100210000E4A1346D168C907FCD4D168890644BF89
:100220002021D1601A6942F002021A6158611A69EC
:1002300042F040021A61054BDA689206FCD5202292
:10024000DA601A6922F002021A6170470020024047
:10025000034B044A5A6002F188325A60704700BF6B
:100260000020024023016745024A136943F08003DE
:100270001361704700200240114B10B51A46DC682C
:10028000E407FCD4DC68A40644BF2024DC601369C6
:1002900043F0010313610A4A8BB203801346D4680A
:1002A000A406FCD52024090CD4604180DA689206AB
:1002B000FCD52022DA601A6922F001021A6110BD11
:1002C0000020024070B572B6FFF7C2FF124804F07A
:1002D00063FE124D00224FF4CE71114804F0A0FECF
:1002E0000D4804F059FE002229680E4804F098FEDB
:1002F0000D48FFF78DFF0C4C0C4E04F17843A3F52D
:10030000F2332046E9580434FFF7B6FFB442F4D183
:10031000FFF7AAFF62B670BD985A0008580800207F
:10032000A05A0008A75A000800E401089CE501084B
:1003300010B5074B074808491C6803F1784204339D
:10034000A2F5F2328B421450F6D1012010BD00BF4D
:1003500000E40108580800209CE50108F8B504688D
:1003600007468C420E4601D394421BD900250E4B02
:100370000E481D7004F010FE2A4639460C4804F061
:100380004FFE0A4804F008FE21462A46094804F0B8
:1003900047FE064804F000FE2A460749074804F0D5
:1003A0003FFE34462046F8BD00000020985A000861
:1003B000585A00086F5A000800EC0108815A0008DA
:1003C00010B5194C6068FFF723FFD4E90010FFF760
:1003D00053FFD4E90210FFF74FFFD4E90410FFF7F1
:1003E0004BFFD4E90610FFF747FFD4E90810FFF7E9
:1003F00043FFD4E90A10FFF73FFFD4E90C10FFF7E1
:100400003BFFD4E90E10FFF737FFD4E91010FFF7D8
:1004100033FFD4E91210FFF72FFF044804F0BCFDAE
:10042000034804F04FFD10BD04000020985A000856
:100430000158000810B5194C6068FFF7E9FED4E9CF
:100440000010FFF719FFD4E90210FFF715FFD4E9F8
:100450000410FFF711FFD4E90610FFF70DFFD4E9F0
:100460000810FFF709FFD4E90A10FFF705FFD4E9E8
:100470000C10FFF701FFD4E90E10FFF7FDFED4E9E1
:100480001010FFF7F9FED4E91210FFF7F5FE04484B
:1004900004F082FD034804F015FD10BD5400002057
:1004A000985A0008A457000838B5244C4FF48072BD
:1004B00000216068FFF752FF4FF47A72206000213C
:1004C000E068FFF74BFF4FF47A72A060002160698B
:1004D000FFF744FF1A4D20612A460A21E069FFF721
:1004E0003DFF2A46A0610A21606AFFF737FF2A46CE
:1004F00020620A21E06AFFF731FF2A46A0620A2142
:10050000606BFFF72BFF2A4620630A21E06BFFF7A1
:1005100025FFC822A0634621606CFFF71FFFC82299
:1005200020640A21E06CFFF719FFA064054804F07D
:1005300033FD054804F0C6FC38BD00BF04000020B0
:10054000A0860100985A0008C457000838B5244C0A
:100550004FF4807200216068FFF700FF4FF47A7259
:1005600020600021E068FFF7F9FE4FF47A72A06086
:1005700000216069FFF7F2FE1A4D20612A460A2128
:10058000E069FFF7EBFE2A46A0610A21606AFFF7E7
:10059000E5FE2A4620620A21E06AFFF7DFFE2A46CE
:1005A000A0620A21606BFFF7D9FE2A4620630A2168
:1005B000E06BFFF7D3FEC822A0634621606CFFF713
:1005C000CDFEC82220640A21E06CFFF7C7FEA064BC
:1005D000054804F0E1FC054804F074FC38BD00BF98
:1005E000A4000020A0860100985A0008DE570008E9
:1005F00010B5174C6068FFF70BFED4E90010FFF749
:100600003BFED4E90210FFF737FED4E90410FFF7F0
:1006100033FED4E90610FFF72FFED4E90810FFF7E8
:100620002BFED4E90A10FFF727FED4E90C10FFF7E0
:1006300023FED4E90E10FFF71FFED4E91010FFF7D8
:100640001BFE044804F0A8FC034804F03BFC10BD6A
:1006500054010020985A0008425A000810B5174C5F
:100660006068FFF7D5FDD4E90010FFF705FED4E977
:100670000210FFF701FED4E90410FFF7FDFDD4E9F5
:100680000610FFF7F9FDD4E90810FFF7F5FDD4E9EE
:100690000A10FFF7F1FDD4E90C10FFF7EDFDD4E9E6
:1006A0000E10FFF7E9FDD4E91010FFF7E5FD04484F
:1006B00004F072FC034804F005FC10BD9C0100200E
:1006C000985A0008EE59000810B5224C4FF4807279
:1006D00000216068FFF742FE0A2220600121E068E5
:1006E000FFF73CFE4FF47A72A06001216069FFF7CA
:1006F00035FE4FF47A6220610121E069FFF72EFE9A
:100700004FF47A62A0610121606AFFF727FE42F28E
:10071000107220620021E06AFFF720FE42F21072A0
:10072000A0620021606BFFF719FE642220630021A4
:10073000E06BFFF713FE0322A0630121606CFFF75B
:100740000DFE2064044804F027FC044804F0BAFBC2
:1007500010BD00BF54010020985A00080B5A000831
:1007600010B5224C4FF4807200216068FFF7F6FD4F
:100770000A2220600121E068FFF7F0FD4FF47A7251
:10078000A06001216069FFF7E9FD4FF47A62206102
:100790000121E069FFF7E2FD4FF47A62A0610121D7
:1007A000606AFFF7DBFD42F2107220620021E06A0E
:1007B000FFF7D4FD42F21072A0620021606BFFF7D8
:1007C000CDFD642220630021E06BFFF7C7FD03220B
:1007D000A0630121606CFFF7C1FD2064044804F0B0
:1007E000DBFB044804F06EFB10BD00BFE4010020F9
:1007F000985A0008225A000810B50D4C6068FFF79F
:1008000007FDD4E90010FFF737FDD4E90210FFF728
:1008100033FDD4E90410FFF72FFDD4E90610FFF7EC
:100820002BFD044804F0B8FB034804F04BFB10BD5B
:1008300014010020985A00086158000838B5114C7E
:100840004FF4807200216068FFF788FD0E4D206034
:100850002A460021E068FFF781FD2A46A0600021BA
:100860006069FFF77BFD012220610021E069FFF74D
:1008700075FDA061054804F08FFB054804F022FBDC
:1008800038BD00BFF400002000286BEE985A000825
:100890001A58000838B5114C4FF480720021606876
:1008A000FFF75CFD0E4D20602A460021E068FFF74F
:1008B00055FD2A46A06000216069FFF74FFD012227
:1008C00020610021E069FFF749FDA061054804F0BF
:1008D00063FB054804F0F6FA38BD00BF3401002080
:1008E00000286BEE985A00083958000870B50124AA
:1008F0000E4D2C7072B6FFF7A1FFFFF7E5FEFFF774
:10090000D3FD62B62E780A483EB904F045FB09488B
:1009100004F0D8FA2C70304670BD04F03DFB064858
:1009200004F0D0FA26462C70F5E700BF0000002046
:10093000985A0008BA590008D359000870B51546EE
:100940000C46C0B006464FF480720949684604F070
:1009500089FE2846013CE4B20134344416F8013BD8
:100960005840A6421DF80000F8D140B070BD00BF4D
:10097000A456000838B572B6144D00224C21284602
:10098000FFF7DCFF044645F8040CFFF761FCFFF7B6
:1009900017FDFFF7DBFD00224C210D48FFF7CEFFCE
:1009A00084420C4809D104F0F7FA0B4804F08AFAA3
:1009B000FFF75AFC62B6012038BD04F0EDFA074893
:1009C00004F080FAFFF7FCFCF2E700BF080000200B
:1009D000A8000020985A0008A1580008C65800082E
:1009E00038B572B6244D002244212846FFF7A6FFF1
:1009F0000446224804F0D0FA00222146204804F0A0
:100A00000FFB1E4804F0C8FA002244211D4804F0E0
:100A100007FB45F8044CFFF71BFCFFF7E9FDFFF768
:100A20009FFE002244211848FFF788FF054613481F
:100A300004F0B2FA00222946114804F0F1FA0F48F6
:100A400004F0AAFA0F480022442104F0E9FAAC426B
:100A50000A4809D104F0A0FA0C4804F033FAFFF771
:100A600003FC62B6012038BD04F096FA084804F091
:100A700029FAFFF7BDFDF2E758010020985A000857
:100A8000F658000801590008E80100200D59000837
:100A90002F59000838B54A4804F07EFA494804F056
:100AA00011FA72B6484DFFF7D3FB00224C212846BD
:100AB000FFF744FF044645F8040CFFF7BBFCFFF7C3
:100AC00045FD00224C214148FFF738FF84423C4855
:100AD0005DD104F061FA3E4804F0F4F93D4D002286
:100AE00044212846FFF72AFF0446354804F054FA0B
:100AF00000222146384804F093FA314804F04CFAB9
:100B000000224421354804F08BFA45F8044CFFF7E5
:100B1000A5FDFFF725FE002244213148FFF70EFF17
:100B20000546274804F038FA002229462A4804F0EE
:100B300077FA234804F030FA28480022442104F0D0
:100B40006FFAAC421E482AD104F026FA254804F078
:100B5000B9F9254D00221C212846FFF7EFFE044677
:100B600045F8040CFFF748FEFFF794FE00221C2115
:100B70001E48FFF7E3FE8442114818D104F00CFA36
:100B80001B4804F09FF9FFF76FFB62B638BD04F015
:100B900003FA184804F096F9FFF74CFC9EE704F0BE
:100BA000FBF9154804F08EF9FFF758FDD1E704F082
:100BB000F3F9124804F086F9FFF71EFEE3E700BFE1
:100BC000985A00088858000858000020A800002003
:100BD000A0580008A0010020F5580008005900089E
:100BE000E80100200C5900081801002038010020FD
:100BF0005B590008C55800082E590008855900089F
:100C0000164917482DE9F04142F2107C0D46044682
:100C1000144F01F11C06B1F900E0B1F90420B1F95B
:100C20000280A2EB0E020CFB02F2B1F90630043195
:100C3000A3EB080392FBF3F3436003FB08F393FB7E
:100C4000F7F38E427344C0F80080836000F10C001B
:100C5000E1D1B5F91E306365BDE8F0812C020020BA
:100C6000DC070020F0D8FFFF2DE9F843534C07467E
:100C7000206800F0AFFA0023266831018A19224467
:100C800010F803C01D460133DBB2BCF1000F16D1D2
:100C90008A19A01805443A20FF1A287117F803C0D2
:100CA000DDB2BCF1000F0ED120232A4403322244CE
:100CB0000F2D15D8013502F8013FEDB2F8E71544C4
:100CC00085F804C0DCE70F2D05D89818204480F87B
:100CD00004C00133E2E70022314421440B441A717D
:100CE000374804F059F900222946364804F098F9AB
:100CF000236803EB031222442A4400250133172BF7
:100D00001571236037D90A26A8464FF020092B4FCA
:100D1000284600F05FFA00232A0102EB050CA444E8
:100D200010F803E019460133DBB2BEF1000F2ED1FB
:100D30004FF03A0C50192044014481F804C006EBEE
:100D40000611214400EB030C9CF804E0BEF1000FF7
:100D500021D1013BDBB2D9B20F2929D92A4422443F
:100D6000013513440E2D83F8048007F1110706F1B5
:100D70000106CDD12560FFF7A5FA114804F00CF962
:100D800021680022BDE8F8430F4804F049B96144E6
:100D900081F804E0C4E701EB030E092D8CBF9EF837
:100DA00004E09EF805E001338CF804E0DBB2C9E70B
:100DB000F91881F804900133CDE700BF58080020EE
:100DC000985A0008FD5C0008025D00082DE9F04714
:100DD000534C804620680E4600F0FCF9002327683B
:100DE0003901CA19224410F803C01D460133DBB291
:100DF000BCF1000F16D1CA19A01805442E71A8EB3A
:100E0000030818F803C0DDB2BCF1000F0ED1202397
:100E10002A44033222440F2D15D8013502F8013F30
:100E2000EDB2F8E7154485F804C0DCE70F2D05D8CE
:100E30009818204480F804C00133E2E700223944C6
:100E400021440B441A71374804F0A6F800222946C1
:100E5000354804F0E5F8236803EB031222442A44E2
:100E600000250133172B1571236035D90A27A946B0
:100E70004FF0200ADFF8A880284600F0ABF90023E5
:100E80002A0102EB050CA44410F803E019460133D3
:100E9000DBB2BEF1000F2BD15019204401440E717A
:100EA00007EB0711214400EB030C9CF804E0BEF1B2
:100EB000000F21D1013BDBB2D9B20F2929D92A4435
:100EC0002244013513440E2D83F8049008F11108D3
:100ED00007F10107D0D12560FFF7F4F9114804F0BC
:100EE0005BF821680022BDE8F047104804F098B88C
:100EF000614481F804E0C7E701EB030E092D8CBFC4
:100F00009EF804E09EF805E001338CF804E0DBB2C3
:100F1000C9E708EB030181F804A00133CCE700BF67
:100F200058080020985A0008FD5C0008025D00087F
:100F3000002384B00128009301D1009005E002282D
:100F4000FBD003281BD112230093114B9A68019206
:100F5000019A02929A6803920399029A914204D3E9
:100F60005A6801990A4401320192039A0292019A45
:100F700003980099121A8A42ECD304B07047E4D95E
:100F8000044B054A1B680338B3FBF2F35843D4E71C
:100F900010E000E09002002040420F0007B50190F1
:100FA000019B13B903B05DF804FB4FF47A70FFF7AF
:100FB000BFFF019B013B0193F2E7000038B5684C8D
:100FC000684D204603F0E8FF29680022664804F0D7
:100FD00027F8204603F0E0FFA9680022634804F0E8
:100FE0001FF8204603F0D8FF29690022604804F06A
:100FF00017F8204603F0D0FFA96900225D4804F0ED
:101000000FF8204603F0C8FF296A00225A4804F06E
:1010100007F8204603F0C0FFA96A0022574803F0F2
:10102000FFFF204603F0B8FF296B0022544803F06D
:10103000F7FF204603F0B0FFA96B0022514803F0F0
:10104000EFFF204603F0A8FF296C00224E4803F072
:10105000E7FF204603F0A0FFA96C00224B484C4D4F
:1010600003F0DEFF3220FFF799FF204603F094FFE4
:1010700029680022474803F0D3FF204603F08CFF85
:10108000A9680022444803F0CBFF204603F084FF08
:1010900029690022414803F0C3FF204603F07CFF8A
:1010A000A96900223E4803F0BBFF204603F074FF0D
:1010B000296A00223B4803F0B3FF204603F06CFF8F
:1010C000A96B0022384803F0ABFF204603F064FF11
:1010D000A96A0022354803F0A3FF204603F05CFF15
:1010E000296B0022324803F09BFF204603F054FF97
:1010F000296C00222F4803F093FF2F4D3220FFF779
:101100004DFF204603F048FF296800222B4803F0DA
:1011100087FF204603F040FFA9680022284803F01B
:101120007FFF204603F038FF29690022254803F09D
:1011300077FF204603F030FFA9690022224803F020
:101140006FFF204603F028FF204B2148196800223A
:1011500003F066FFBDE838403220FFF71FBF00BF35
:10116000AD5A000804000020B45A0008C75A00080D
:10117000E55A0008045B0008245B0008455B000892
:10118000665B0008815B00089F5B0008BD5B000890
:1011900054010020D55B0008E95B0008025C0008F0
:1011A0000F5C00081C5C0008295C0008375C000824
:1011B000495C00085C5C0008F4000020795C0008D1
:1011C000955C0008BD5C0008DF5C00089002002010
:1011D000EB5C00087FB500220A2680EAE071A1EBF3
:1011E000E07104ADD4B22A4491FBF6F506FB15116B
:1011F000631C303102F8101C5BB2291E1A46F0DC69
:10120000002806DA04A90A442D21A31C02F8101CA8
:101210005BB2002204A919440A4C01F8102CD0B288
:10122000191A934249B204D100220648E25404B08C
:1012300070BD04AD294411F8111CA154421C52B2D6
:10124000EDE700BF44070020F0B500230A2780EA3D
:10125000E07485B0A4EBE07404AEDDB2334494FBDB
:10126000F7F607FB16446A1C303403F8104C52B2F0
:10127000341E1346F0DC002806DA04A803442D20AF
:10128000AA1C03F8100C52B2002304A8104400F862
:10129000103CDDB2541B9A4264B201EB030004D14E
:1012A00000230370084605B0F0BD04A8044414F8F8
:1012B000110CC8546B1C5BB2EBE70000F0B50023C7
:1012C0000A2780EAE0748BB0A4EBE0740AAEDDB2CA
:1012D000334494FBF7F607FB16446A1C303403F8DA
:1012E000284C52B2341E1346F0DC012AD8BF3022FB
:1012F0000AAC2344CFBF002403F8282CAA1C52B206
:10130000C8BF03F8284C022A08DC012906D930247A
:101310000AAB1344013203F8284C52B200242E26A3
:10132000234665B2AA420BDC002806DA0AA95A1C39
:101330000B442D2103F8141C53B20022124C19E067
:101340008B421D4605D10AAF01333D445BB205F81F
:10135000146C1DF804700AAD1D44013305F8147CAB
:101360005BB20134DDE70AAD294411F8151CA15424
:10137000421C52B2D0B2191A9A4249B2F3D1002398
:101380000148A3540BB0F0BD54070020002802D040
:10139000DCBF404200B270470023DAB2815C013307
:1013A0000029FAD11046704770B5002465B2435D3C
:1013B000661C4BB958B20D5C181940B216180133AF
:1013C0002DB93570104670BD53553446EEE71554AF
:1013D000F0E7F0B500277CB2055D7E1C8DB968B2E0
:1013E0007E190C5CF6B270B201356CB9214648B278
:1013F000145C701840B21D1801313CB92C701846AD
:10140000F0BD1D553746E6E71C54E8E71C54EEE7EF
:101410002DE9F04180464FF4616086B00D46B8FB7F
:10142000F0F001A9FFF710FF01A8FFF7B5FF0128B1
:1014300096BF012200223023144698BF2B70E6B2DB
:10144000B31A06A95BB20B4413F8141C2B19741CB5
:1014500064B2002945D13A221A703C23B8FBF3F25A
:10146000B2FBF3F001A903FB1020FFF7EDFE01A88A
:10147000FFF792FF01289FBF30232B55B41C64B2A5
:101480002646F7B23B1B06AA5BB2134413F8142C92
:10149000AB197E1C76B232BB3A221A703C23B8FBE1
:1014A000F3F001A903FB1080FFF7CEFE01A8FFF7C0
:1014B00073FF01289CBF3023AB554FF000039CBF46
:1014C000BE1C76B25AB206A90A4412F8141CF218CD
:1014D00052B2A818013341B90170284606B0BDE8E0
:1014E000F0811970ABE71A70CBE7A954EAE7F0B5C1
:1014F00007464FF4616087B00D46B7FBF0F001A9D5
:10150000FFF7A2FE01A8FFF747FF012896BF0122BF
:1015100000223023144698BF2B70E6B2B31A06A9F6
:101520005BB20B4413F8141C2B19741C64B229BB56
:101530003A221A703C23B7FBF3F7B7FBF3F001A98B
:1015400003FB1070FFF780FE01A8FFF725FF0128BD
:101550009CBF30232B554FF000039CBFB41C64B2DA
:101560005AB206A90A4412F8141CE21852B2A8187A
:10157000013329B90170284607B0F0BD1970CCE7D6
:10158000A954EDE702460D494B6808688B60834219
:10159000C1E9002007DC934203DC9042A8BF10465B
:1015A0007047834206DB904204DC9342A8BF134697
:1015B000184670479842A8BF184670472007002079
:1015C00002460D494B6808688B608342C1E90020E0
:1015D00007DC934203DC9042A8BF10467047834269
:1015E00006DB904204DC9342A8BF134618467047BE
:1015F0009842A8BF184670472C07002002460D49A4
:101600004B6808688B608342C1E9002007DC934285
:1016100003DC9042A8BF10467047834206DB90422D
:1016200004DC9342A8BF1346184670479842A8BFEF
:101630001846704738070020704770477047000011
:10164000014B1868704700BF4C020020094B10B5D1
:1016500098420DD060B1084A084C126820600AB167
:101660001830904723681B6913B1BDE81040184734
:1016700010BD00BF085D0008680700204C02002074
:10168000024B1860024B1868FFF7E0BF68070020A4
:101690004C020020044B054A1B68934203D013B14F
:1016A0005B6903B1184770474C020020085D0008D1
:1016B0004FF4804310B5064C02202361FFF738FC3D
:1016C0004FF0804302202361BDE81040FFF730BC9B
:1016D000000C014070B54FF07C454FF480560D4C26
:1016E00025612661FFF7E4FF0120FFF757FC256124
:1016F0002661FFF7DDFF0120FFF750FC4FF4806308
:1017000025612361FFF7D4FFBDE870400120FFF79A
:1017100045BC00BF000C01404FF07C42244B70B52B
:1017200004461A610E4611B14FF400421A61E206F6
:1017300044BF4FF400521A6114F0200F18BF4FF449
:1017400080521B4B18BF1A61650644BF4FF40062FC
:101750001A6114F0800F18BF4FF48063144D18BF46
:101760002B61FFF7A5FF4FF07053E0072B6144BFDB
:101770004FF400532B61A10742BF4FF480520C4B32
:101780001A61620742BF4FF40062094B1A612307D6
:1017900042BF4FF48062064B1A61FFF789FF0220B7
:1017A000FFF7FCFB1EB14FF00042014B1A6170BD08
:1017B000000C0140C00040F0400038B500F0F800D7
:1017C0000C460021FFF7A8FF651E073415F8010F2E
:1017D0000121FFF7A1FFA542F8D1BDE83840002163
:1017E0008020FFF799BF000073B51F4C1F4D69465D
:1017F0000020CDE900451E4EFFF7DCFF1D4B69467A
:101800000120CDE90036FFF7D5FF1B4B6946CDE936
:1018100000350220194DFFF7CDFF69460320CDE9C1
:101820000056FFF7C7FF69460420CDE90054FFF7D3
:10183000C1FF134A134B69460520CDE90023FFF78A
:10184000B9FF114B11490620CDE900136946FFF796
:10185000B1FF0F4B0F486946CDE900030720FFF7A2
:10186000A9FF02B070BD00BF04150E0400041F1FC5
:101870000000041F150E040000040E15040E1504CC
:101880000207070A0A1C1C08051509000F050505B3
:10189000010101001111111F064A1070064A117052
:1018A00019B940F08000FFF737BF002140F0C000B9
:1018B000F9E700BF6C0700206D07002070B50D46EA
:1018C0000446C64314F8010B00B970BD0121FFF7AF
:1018D00023FF012DF6D13319DBB2072BF2D12946B4
:1018E0000020FFF7D9FFEDE70121C0B2FFF714BFD9
:1018F0002DE9F8430F46DFF878801B4C1B4E451E40
:1019000015F8010F08B9BDE8F883B22819D10121F3
:101910004920FFF701FF237896F800900133DBB2EE
:101920002370B9F1000FEBD1082BE9D1022FE7D1D9
:1019300001214846FFF7B0FF012384F8009033707F
:10194000DEE7AF2802D101210320E2E7AA2802D175
:1019500001210220DDE7BF2889BF40440121012188
:1019600010F8C00CD5E700BF6C0700206D07002001
:101970005002002000210120FFF7CEBE08B56420F0
:10198000FFF70CFBFFF7A6FE00210E20FFF7C4FEB9
:10199000BDE80840FFF7EEBF0221FFF7A9BF10B571
:1019A000044608461146FFF777FF2046BDE8104081
:1019B0000221FFF79DBF08B5FFF7E0FFFFF7DAFF51
:1019C000BDE8084000210C20FFF7A6BE054B82B001
:1019D000DA690243DA61DB6918400190019B02B0C9
:1019E000704700BF00100240054B82B09A69024365
:1019F0009A619B6918400190019B02B0704700BF3B
:101A0000001002400022014B1A807047C8070020D6
:101A100008B5FEF7AFFFBDE808400148FFF724B95D
:101A2000325D000810B53B4C94F9001061B90846CE
:101A3000FFF732FF3848FFF7AFFF4FF48762374BAD
:101A40009A6140F2B4521A6294F90030012B0DD120
:101A500000210846FFF720FF3148FFF79DFF4FF4B4
:101A600096722E4B9A614FF4D2721A6294F900303A
:101A7000022B0DD100210846FFF70EFF2948FFF782
:101A80008BFF4FF48C72254B9A614FF4B9721A6236
:101A900094F90030032B0CD100210846FFF7FCFE1F
:101AA0002148FFF779FFA0221C4B9A614FF48C72FA
:101AB0001A6294F90030042B0DD100210846FFF77B
:101AC000EBFE1A48FFF768FF4FF44872134B9A6118
:101AD0004FF4AA621A6294F90030052B0CD1002150
:101AE0000846FFF7D9FE1248FFF756FF64220B4B5A
:101AF0009A614FF4FA621A6294F90030062B04BF1F
:101B000000232370FEF76CFFBDE810404FF4167001
:101B1000FFF744BA87070020F85E00085401002050
:101B2000095F00081A5F00082B5F00083C5F00088F
:101B30004D5F0008FEF754BF08B501210720FFF7ED
:101B4000ABFE0121FF20FFF7E7FDFEF749FF044B45
:101B5000C8209A68034B1A60BDE80840FFF71EBA18
:101B600054010020000A002008B501210720FFF7DA
:101B700093FE0121FF20FFF7CFFDFEF731FF044B5D
:101B8000C8201A6C034B1A60BDE80840FFF706BA7C
:101B900054010020F809002018B100221146FFF777
:101BA000FEBE704749F6AF2310B50E4C90B02268C8
:101BB0009A4215D90C4B0BA91868FFF798FC4FF403
:101BC0006163206801A9B0FBF3F0FFF73DFB074913
:101BD00006AB0BAAFFF7FDFB022106A8FFF7F6F8FC
:101BE00010B010BD740700208C070020455E00086F
:101BF00010B5164C90B0164803F0CEF900222168BB
:101C0000144803F00DFA49F6AF2322689A421BD913
:101C1000114B0BA91868FFF76AFC4FF46163206849
:101C200001A9B0FBF3F0FFF70FFB06AB0BAA0B49C2
:101C3000FFF7CFFB012106A8FFF7C8F8044803F01F
:101C4000ABF906A803F03EF910B010BD70070020F4
:101C5000985A0008C35D000880070020455E000810
:101C600008B501210720FFF717FEBDE80840012154
:101C7000FF20FFF751BD000070B54FF0007191FAE1
:101C8000A1F1B1FA81F3104C00F00071D94054F881
:101C9000215000F0F8704FF0F87292FAA2F3B3FA04
:101CA00083F392FAA2F20726B2FA82F220FA03F341
:101CB00006FA03F3D04025EA030306FA00F01843BE
:101CC00044F8210070BD00BF0C24014030B54FF432
:101CD000407393FAA3F34FF40072B3FA83F31F2413
:101CE000074DDA4055F8223000F01F00844001F023
:101CF0001F0123EA04038140194345F8221030BD37
:101D00002C240140002070470021012210B5044618
:101D10002A4B08461A70FFF7BFFD294B022118888D
:101D2000FFF7CCFAFFF738FE2648FFF735FE002113
:101D30000720FFF7B1FD244B188800B2FFF74AFADD
:101D4000FFF72AFE2148FFF727FE062C10D1FFF7E8
:101D500077FCC068FFF77AFCFFF772FC0068FFF7BA
:101D600075FCFFF76DFCBDE81040C068FFF76EBC66
:101D7000022C13D1164B174A198812880A4412B242
:101D80001A801A8812B2B2F5805F02DB40F6FF7249
:101D90001A801B88104A1BB2936010BD012CFCD125
:101DA0000B4B0C491A880988521A12B21A801A88E9
:101DB00012B2002AEDDC0022EAE700BF94070020FF
:101DC0004E080020745E00083E080020785E00087F
:101DD0008807002074020020007400400122334B69
:101DE000062810B51A70324C3CD1FFF729FCC068A8
:101DF000FFF72CFCFFF724FC4068FFF727FCFFF7F8
:101E00001FFCC068FFF722FC00210846FFF744FDD5
:101E1000284B02211888FFF751FAFFF7BDFD26482D
:101E2000FFF7BAFD00210720FFF736FD234B188886
:101E300000B2FFF7CFF9FFF7AFFD2148FFF7ACFD88
:101E400001210320FFF728FD1E48FFF7A5FD20888C
:101E500000B2FFF7BFF9FFF79FFDBDE810401A4839
:101E6000FFF79ABD022812D1184B22881B88134411
:101E70001BB2238023881BB2B3F5805F02DB40F6E0
:101E8000FF7323802388124A1BB25361BCE70128E9
:101E9000BAD10E4A238812889B1A1BB2238023884A
:101EA0001BB2002BEEDC0023EBE700BF9407002001
:101EB000720200204E080020495E00083E08002003
:101EC0004C5E0008525E0008845F00087402002027
:101ED000007400400122354B052810B51A70344CAF
:101EE00041D1FFF7ADFBC068FFF7B0FBFFF7A8FBE0
:101EF0004068FFF7ABFBFFF7A3FB4068FFF7A6FBCB
:101F0000FFF79EFBC068FFF7A1FB00210846FFF723
:101F1000C3FC284B02211888FFF7D0F9FFF73CFDDE
:101F20002548FFF739FD00210620FFF7B5FC234BBC
:101F3000188800B2FFF74EF9FFF72EFD2048FFF793
:101F40002BFD01210320FFF7A7FC1E48FFF724FD0E
:101F5000208800B2FFF73EF9FFF71EFDBDE81040F4
:101F60001948FFF719BD022812D1184B22881B8887
:101F700013441BB2238023881BB2B3F5805F02DBBE
:101F800040F6FF7323802388114A1BB29360BCE79D
:101F90000128BAD10D4A238812889B1A1BB22380CC
:101FA00023881BB2002BEEDC0023EBE79407002014
:101FB000880700204E080020745E0008B60200204A
:101FC000BE5D0008E65E0008845F00087402002021
:101FD00000740040002310B596B00446084611A9CD
:101FE0008DF804208DF80530FFF781FA4FF4616019
:101FF00002A9B4FBF0F0FFF727F907AB11AA0749D4
:10200000FFF7E7F90CAA07A901A8FFF7CDF904210A
:102010000CA8FEF7DBFE16B010BD00BF455E000841
:10202000022838B51F4C204D2AD123882A68013355
:102030001BB29342238001D3002323800021084652
:10204000FFF72AFC2868B4F900300138C01A00EB09
:10205000001004302844FFF79FFC144802F09CFF56
:10206000B4F900100022124802F0DAFF0F4802F023
:1020700093FF29680022BDE838400E4802F0D0BF27
:102080000128DBD12388013B1BB2002B2380BEBF7C
:102090002B6803F1FF332380B4F90030002BCDDA35
:1020A000CAE700BFC807002058080020985A000857
:1020B000545E0008615E0008002110B50446084621
:1020C000FFF7EAFB0A4B188800B2FFF783F8FFF727
:1020D00063FC0848FFF760FC022C08D1BDE8104003
:1020E000054B064A1B881BB29360FEF743BC10BD2C
:1020F0003E080020915D0008B60200200400002088
:10210000002110B504460846FFF7C6FB0A4B1888A5
:1021100000B2FFF75FF8FFF73FFC0848FFF73CFC11
:10212000022C08D1BDE81040054B064A1B881BB2A3
:102130001361FEF71FBC10BD3E080020915D000832
:10214000B8020020040000200122154B022810B51F
:102150001A70144C1ED1236A1344236200210846CE
:10216000FFF79AFB206AFFF735F8FFF715FC0E48DA
:10217000FFF712FC01210020FFF78EFB0B4B1888A4
:1021800000B2FFF727F8FFF707FCBDE8104008484A
:10219000FFF702BC0128E1D1236A013BDDE700BF64
:1021A0009407002004000020845F0008B80200208B
:1021B000A05D0008002110B504460846FFF76CFB3F
:1021C0001F48FFF7E9FB022C30D1FEF763FCFEF756
:1021D0008DFB002104460846FFF75EFB1948FFF718
:1021E000DBFB4FF4FA60FEF7D9FE00210846FFF74B
:1021F00053FB012C1BD11448FFF7CEFB1348FEF70D
:1022000033FD4FF4FA60FEF7C9FE114B1A69114B0A
:102210001A604FF46162104B19694A430F490A6012
:1022200099680F4A11601A6C0E4B1A6010BD0E4867
:10223000FFF7B2FBBDE810404FF47A60FEF7AEBE88
:102240003E5D00084F5D0008605D0008715D00089C
:10225000F40000207807002054010020FC09002031
:10226000000A0020F8090020805D0008022810B54F
:102270000E4C15D123690133236100210846FFF775
:102280000BFB2069FEF7A6FFFFF786FB0848FFF768
:1022900083FB4FF4616322695343064A136010BD08
:1022A0000128EAD12369013BE6E700BF5401002081
:1022B000615F0008FC09002010B5304C022894F939
:1022C000003052D101335BB2072B08BF00232370CB
:1022D00094F9001029B90846FFF7DEFA2848FFF7FD
:1022E0005BFB94F90030012B06D100210846FFF773
:1022F000D3FA2448FFF750FB94F90030022B06D1A3
:1023000000210846FFF7C8FA1F48FFF745FB94F97C
:102310000030032B06D100210846FFF7BDFA1B4809
:10232000FFF73AFB94F90030042B06D10021084650
:10233000FFF7B2FA1648FFF72FFB94F90030052B90
:1023400006D100210846FFF7A7FA1248FFF724FB41
:1023500094F90030062B10D100210846FFF79CFAB3
:10236000BDE810400C48FFF717BB0128B0D1013B76
:102370005BB2002BB8BF0623A9E710BD870700207A
:10238000835E0008945E0008A65E0008B75E000841
:10239000C75E0008D85E0008E85E0008022810B595
:1023A0000D4C14D1A3690A33A36100210846FFF73D
:1023B00073FA0A23A0690121B0FBF3F0FEF77EFF58
:1023C000FFF7EAFABDE810400448FFF7E5BA012834
:1023D000EBD1A3690A3BE7E754010020155F000831
:1023E000022810B50D4C14D1236A0A332362002150
:1023F0000846FFF751FA0A23206A0121B0FBF3F0E7
:10240000FEF75CFFFFF7C8FABDE810400448FFF78D
:10241000C3BA0128EBD1236A0A3BE7E75401002045
:10242000155F0008022810B50B4C10D1A36A0133C8
:10243000A36200210846FFF72FFAA06AFEF7CAFE42
:10244000FFF7AAFABDE810400448FFF7A5BA012833
:10245000EFD1A36A013BEBE75401002010600008B4
:10246000022810B50B4C10D1236B013323630021DC
:102470000846FFF711FA206BFEF7ACFEFFF78CFA67
:10248000BDE810400448FFF787BA0128EFD1236B5D
:10249000013BEBE75401002010600008022838B52A
:1024A0001A4C2DD1A36B0133A36300210A250846E2
:1024B000FFF7F2F9A06BFEF78DFEFFF76DFA1448F7
:1024C000FFF76AFA206A0121B0FBF5F0FEF7F6FE8D
:1024D000FFF762FA0F48FFF75FFA6422236AA06BE6
:1024E00001215843B0FBF2F0181AB0FBF5F0FEF7EB
:1024F000E5FEFFF751FABDE838400748FFF74CBA50
:102500000128D2D1A36B013BCEE700BF54010020CC
:102510005E5F0008495E0008155F0008044B9A687A
:10252000044B1B689A4201D1FFF79ABB704700BF6A
:1025300054010020000A0020044B1A6C044B1B6855
:102540009A4201D1FFF78CBB704700BF54010020B5
:10255000F8090020002110B504460846FFF79CF951
:10256000022C174B0FD19A680132082A08BF0122AA
:102570009A609A68013A062A1FD8DFE802F00B1227
:102580001416181A1C00012CF3D19A68013A08BFDE
:102590000722EDE70B48FFF7FFF9BDE81040FFF712
:1025A000BDBF0948F7E70948F5E70948F3E70948D7
:1025B000F1E70948EFE70948EDE701229A6010BD0D
:1025C00054010020995F0008AA5F0008BB5F000863
:1025D000CC5F0008DD5F0008EE5F0008FF5F0008C9
:1025E000002110B504460846FFF756F9022C124B9D
:1025F00013D11A6C0132042A08BF01221A641A6C22
:10260000022A11D0032A11D0012A11D10B48FFF759
:10261000C3F9BDE81040FFF78FBF012CEFD11A6C52
:10262000013A08BF0322E9E70548F0E70548EEE76D
:1026300001221A6410BD00BF54010020665F00082B
:10264000775F0008885F0008274A10B59368916893
:10265000DB43C9052549C3F3C023886858BF43F04D
:10266000020310F0100F22481ED08C68A40628D553
:102670008C68640627D58968090626D59268D243F6
:1026800012F4805223D102801A4A117801F003001B
:10269000834215D043EA8103DBB2E12B13701ED1D4
:1026A0000222154B1A700BE0032140F2DC54B0F902
:1026B0000020A2420DDD40F2B45303800E4B19708E
:1026C00010BD0521F1E70621EFE70721EDE708211D
:1026D000EBE7013212B2142A0280D5D1EEE7D22BF9
:1026E000EED1054B0122DDE700080140000C01405E
:1026F000C6070020CA070020C40700200022034BA1
:102700001A600122024B1A70704700BFB807002000
:102710009807002038B504464FF46160B4FBF0F030
:10272000FEF758FD0546FEF737FE012803D80121C4
:102730001148FFF7C3F801212846FFF7BFF8012130
:102740000E48FFF7BBF83C23B4FBF3F4B4FBF3F003
:1027500003FB1040FEF73EFD0446FEF71DFE012878
:1027600003D801210448FFF7A9F82046BDE8384006
:102770000121FFF7A3B800BF205D0008B15D00088C
:102780002DE9F04FC34A85B01378009003F0FF04A1
:102790000192DFF864A3DFF864B3DFF86493BE4FFF
:1027A000DFF86083BD4D002B3AD1BD4B1A88BD4B7D
:1027B0001B6A0533934215D921462046FFF76CF872
:1027C000B948FFF7E9F84FF4FA60FEF7E7FB214656
:1027D0002046FFF761F8B548FFF7DEF840F6B8305D
:1027E000FEF7DCFB01230021019A08461370B04A72
:1027F0008AF800108BF80010C9F8001039601160D9
:10280000AC4AC8F80010137029608AF80030FFF74E
:1028100043F8A948FFF7C0F84FF47A70FEF7BEFB03
:10282000A64C208800B2FEF7B1FD0528039440F3C2
:10283000CD81A34B9B4E1A88B169029391421CD95A
:102840009C4C2278022A18D19E4B1B68B3F57A7FE4
:1028500013D900238BF8003029689B4B994203D988
:1028600028683968FFF7B6FB0023C9F80030C8F8BC
:10287000003001238AF800302370029B326A1B88E3
:102880009A4208D28B4B1B78012B04D18D4B1B68CD
:10289000B3F57A7F09D88D4BD9F800201B689A428E
:1028A00021D9844B1B78012B1DD100238AF80030DD
:1028B000D8F80020844B9A4206D9D8F800000122AB
:1028C000D9F80010FFF786FB3A68794B1A602A683E
:1028D0007F4B9A6000233B602B60012302228BF820
:1028E0000030744B1A70009A7A4C022A94F9003026
:1028F00040F05B8101335BB2052B08BF00232370DE
:1029000094F90030002B32D1194618460093FEF797
:10291000C3FF029B02211888FEF7D0FCFFF73CF8AA
:102920006D48FFF739F8039B188800B2FEF752FC98
:10293000FFF732F86948FFF72FF801210620FEF76C
:10294000ABFF01210420FEF7CFFF654A009B127800
:10295000012A40F034811146072002930092FEF7CD
:102960009BFF009A029B11461846FEF7BDFF94F9A3
:102970000030012B28D1002108460093FEF78CFF80
:102980003069FEF727FCFFF707F85648FFF704F811
:102990000A22009BB0691946B0FBF2F00293009244
:1029A000FEF78CFCFEF7F8FF4B48FEF7F5FF029BA5
:1029B000009A306A1946B0FBF2F0FEF77FFCFEF792
:1029C000EBFF4948FEF7E8FF94F90060022E21D1A1
:1029D00000210846FEF760FF01213046FEF784FF24
:1029E00000210120FEF758FF4048FEF7D5FF4FF4C5
:1029F00061632868B0FBF3F0FEF7ECFBFEF7CCFF59
:102A00003B48FEF7C9FF03200121FEF745FF386868
:102A1000FFF780FE94F90060032E23D100210846C1
:102A2000FEF73AFF01210020FEF75EFF00210120A2
:102A3000FEF732FF2D48FEF7AFFF4FF46163D8F881
:102A40000000B0FBF3F0FEF7C5FBFEF7A5FF28483A
:102A5000FEF7A2FF30460121FEF71EFFD9F8000065
:102A6000FFF758FE94F90030042B5ED10021084690
:102A7000FEF712FF01210220FEF736FF00210120A0
:102A8000FEF70AFF1B48FEF787FF114B98684FF4CB
:102A9000616339E0940700208C0700207407002050
:102AA0005408002054010020216000083260000812
:102AB0009007002070020020436000083E080020BC
:102AC0004E080020B40700204F8C0500FC090020B0
:102AD000F400002085070020495E000854600008CB
:102AE0009707002036580008575F0008865F0008E7
:102AF0005C600008666000087E0700208A070020EE
:102B00008007002070070020B0FBF3F0FEF762FBA7
:102B1000FEF742FF3448FEF73FFF03200121FEF796
:102B2000BBFE324B1868FFF7F5FD314802F034FA6E
:102B3000019B002219782F4802F072FA2C4802F00B
:102B40002BFA9AF8001000222B4802F069FA284864
:102B500002F022FAD9F800100022284802F060FAA8
:102B6000234802F019FAD8F800100022244802F095
:102B700057FA1F4802F010FA9BF800100022214873
:102B800002F04EFA1A4802F007FA396800221E488D
:102B900002F046FA164802F0FFF9002229681B48A5
:102BA00005B0BDE8F04F02F03BBA009A012A7FF46D
:102BB000A7AE013B5BB2002BB8BF04239FE6012107
:102BC0000720FEF769FE01210220CEE6104B1B68AC
:102BD000B3F57A7FA9D900210846FEF75DFE0D48BE
:102BE000FEF7DAFEA1E700BF696000089007002049
:102BF000985A00088360000898600008AD600008DB
:102C0000BD600008D5600008ED60000800610008A4
:102C1000B4070020726000080021F8B50646084697
:102C2000FEF73AFE0122644B1A70644B197811B911
:102C30001A70FFF763FD6249624C0B68A26A9A4200
:102C40000FD3614B226A1B889A420AD25F4B1B68E2
:102C5000B3F5C87F05D9FFF751FDA26A0B6813448D
:102C60000B600B68A26A9A420BD2574BA2691B8871
:102C70009A4206D9554B1B68B3F5C87F01D9FFF7B7
:102C80003DFD0A68A36A216B0B44934201D2FFF712
:102C900035FD4F4D022E95F900307DD101335BB2E9
:102CA000032B08BF00232B7095F900605EBB3146F3
:102CB0003046FEF7F1FD444B02211888FEF7FEFA7C
:102CC000FEF76AFE4348FEF767FE434B188800B2E2
:102CD000FEF780FAFEF760FE4048FEF75DFE012138
:102CE0000620FEF7D9FD01210520FEF7FDFD3C4B36
:102CF0001F78012F58D139460720FEF7CDFD394600
:102D00003046FEF7F1FD95F90060012E22D1002139
:102D10000A270846FEF7C0FD2069FEF75BFAFEF7BA
:102D20003BFE3048FEF738FEA0693146B0FBF7F0B5
:102D3000FEF7C4FAFEF730FE2648FEF72DFE206AA5
:102D40003146B0FBF7F0FEF7B9FAFEF725FE26484C
:102D5000FEF722FE95F90030022B2CD10021084607
:102D6000FEF79AFDA06AFEF735FAFEF715FE1F483A
:102D7000FEF712FE206BFEF72DFAFEF70DFE1C4843
:102D8000FEF70AFE03200121FEF786FD194B1868A5
:102D9000BDE8F840FFF7BEBC012E85D1013B5BB218
:102DA000002BB8BF02237EE701210720FEF774FD48
:102DB00001210220A5E7F8BD940700209507002017
:102DC000B8070020540100204E080020B40700205E
:102DD00085070020495E00083E0800205460000876
:102DE0009707002036580008575F0008D75D000895
:102DF000196000088C07002001212DE9F843894D56
:102E0000894E2B783170894A4BB9297088491370E3
:102E10000B7088490B7088490B6088490B608849A2
:102E2000884C0B88884F9BB22380BC698946A3429B
:102E3000C0F0F080002313708449854B09681B683B
:102E4000DFF8F0815B1A032B04D9137813B1002348
:102E500088F8003002287F4C40F0C7807E4B1B78FA
:102E6000002B40F0C080012388F8003094F9001056
:102E700061BB0846FEF710FD0221B9F80000FEF71D
:102E80001DFAFEF789FD7548FEF786FD744BDFF8E5
:102E90001892188800B2FEF79DF9FEF77DFD714883
:102EA000FEF77AFD6C4B01211B780720002B40F0C8
:102EB000A780FEF7F1FC01210220FEF715FD99F82D
:102EC00000300A2B84BF002389F8003094F9009069
:102ED000B9F1010F12D100210846FEF7DDFC62486E
:102EE000FEF75AFD0A23B8694946B0FBF3F0FEF736
:102EF000E5F9FEF751FD5D48FEF74EFD94F900300F
:102F0000022B1BD100210846FEF7C6FC5848FEF7ED
:102F100043FD584B98684FF46163B0FBF3F0FEF744
:102F200059F9FEF739FD5448FEF736FD032001211B
:102F3000FEF7B2FC514B1868FFF7ECFB94F90070F8
:102F40003E4C032F1AD100210846FEF7A5FC4C4841
:102F5000FEF722FD384B18684FF46163B0FBF3F0C5
:102F6000FEF738F9FEF718FD4648FEF715FD38461E
:102F70000121FEF791FC2068FFF7CCFB424802F0EC
:102F80000BF829780022414802F04AF83E4802F046
:102F900003F8317800223E4802F042F83A4801F046
:102FA000FBFF234B002219783A4802F039F83648E3
:102FB00001F0F2FF384B00221968384802F030F86F
:102FC000314801F0E9FF98F800100022344802F07F
:102FD00027F82D4801F0E0FF21680022BDE8F84302
:102FE000304802F01DB800233EE701287FF43EAFD1
:102FF0002378013B5BB2002BB8BF0323237035E776
:1030000099F80030052B7FF654AFFEF745FC0121FF
:10301000032052E713781BB90D4B19680B4B19604D
:10302000012308E795070020940700207C07002073
:103030007E0700208A070020740700208C070020EC
:103040004E080020BC07002054010020C0070020CB
:10305000CC0700208507002096070020495E000865
:103060003E080020195E0008225E0008155F000877
:1030700066600008F40000202E5E00089007002023
:103080002F5D000869600008985A0008375E000844
:10309000836000089860000880070020AD60000889
:1030A000D5600008ED6000087D0700202DE9F04F95
:1030B0007E4A85B01378834603F0FF080192DFF85B
:1030C00038A27B4EDFF834927A4D7B4F7B4C002B3D
:1030D0003ED17B4B1A887B4B1B6A0533934215D933
:1030E00041464046FEF7D8FB7748FEF755FC4FF4C3
:1030F000FA60FDF753FF41464046FEF7CDFB7348AB
:10310000FEF74AFC40F6B830FDF748FF4FF00108E3
:103110000021019B084683F800806D4B8AF800105F
:1031200019706C4B3160C9F8001019606A4B296046
:1031300083F8008039608AF80080FEF7ADFB6748AD
:10314000FEF72AFC4FF47A70FDF728FF84F8008020
:1031500094F90030032B00F3F181DFF8A481B8F873
:10316000000000B2FEF712F90528CDF8088040F300
:103170009A815B4B534A1988906990468842039321
:1031800026D9554B1A78022A22D1564B1B68B3F523
:103190007A7F1DD900234E490B703968524B9942F2
:1031A00004D93868D9F80010FEF714FFD9F80020C8
:1031B000484B1A603A684D4B9A60012200238AF806
:1031C00000202B603360237813442370424B1A7025
:1031D000434BD8F820201B889A4208D23E4B1B78DC
:1031E000012B04D13F4B1B68B3F57A7F08D8404BC5
:1031F00032681B689A4220D9374B1B78012B1CD1AF
:1032000094F90030022B18DC00238AF800302A6879
:10321000354B9A4204D9286801223168FEF7DAFE5C
:1032200001232B4A1370002302223B60C9F80030AF
:10323000237801332370284B1A70294BD8F82020AB
:103240001B889A4208D2244B1B78012B04D1254BB2
:103250001B68B3F57A7F08D8254B32681B689A4201
:1032600050D91D4B1B78012B4CD194F90030022B07
:1032700048DD0023164A8AF8003013702A681A4B7A
:103280009A4204D9286801223168FEF7A3FE02227F
:103290002378934503F101032370164B1A7040F015
:1032A000EE800322134B1A7038E000BF9407002011
:1032B000800700207007002074070020840700208A
:1032C00054080020540100202160000832600008EA
:1032D0008A07002090070020700200204360000849
:1032E0004E080020B40700204F8C0500F400002099
:1032F000FC090020850700207E0700208C070020A5
:103300003E080020BBF1020F40F0B980C64A137896
:1033100001335BB2042B08BF00231370C24C94F935
:1033200000B0BBF1000F2ED159465846FEF7B4FA53
:10333000039B02211888FDF7C1FFFEF72DFBBB4858
:10334000FEF72AFB029B188800B2FDF743FFFEF749
:1033500023FBB748FEF720FB01210620FEF79CFA6D
:1033600001210420FEF7C0FAB24B1B78012B40F07C
:103370009380194607200293FEF78EFA029B584667
:103380001946FEF7B1FA94F900B0BBF1010F27D14D
:1033900000210846FEF780FAD8F81000FDF71AFF62
:1033A000FEF7FAFAA448FEF7F7FA0A23D8F818004D
:1033B0005946B0FBF3F00293FDF780FFFEF7ECFAFD
:1033C0009A48FEF7E9FA5946D8F82000029BB0FB6C
:1033D000F3F0FDF773FFFEF7DFFA9848FEF7DCFA2B
:1033E00094F90080B8F1020F22D100210846FEF7BF
:1033F00053FA01214046FEF777FA00210120FEF73B
:103400004BFA8F48FEF7C8FA4FF461633868B0FB97
:10341000F3F0FDF7DFFEFEF7BFFA8A48FEF7BCFACD
:1034200003200121FEF738FAD9F80000FFF772F9FE
:1034300094F90040032C42D100210846FEF72CFAF3
:1034400001210020FEF750FA00210120FEF724FAA6
:103450007B48FEF7A1FA4FF461632868B0FBF3F0F4
:10346000FDF7B8FEFEF798FA7648FEF795FA204683
:103470000121FEF711FA3068FFF74CF91FE0BBF1AC
:10348000010F7FF44BAF684A1378013B5BB2002B0E
:103490001370BFF643AF04E701210720FEF7FCF9E4
:1034A000012102206DE7684B1B68B3F57A7F06D9CE
:1034B00000210846FEF7F0F96448FEF76DFA64480B
:1034C00001F06AFD019B00221978624801F0A8FD15
:1034D0005F4801F061FD9AF8001000225E4801F09B
:1034E0009FFD5B4801F058FD316800225B4801F008
:1034F00097FD574801F050FD29680022584801F017
:103500008FFD534801F048FD564B0022197856486C
:1035100001F086FD4E4801F03FFDD9F80010002271
:10352000524801F07DFD4A4801F036FD002239681D
:103530004F4805B0BDE8F04F01F072BD3A4CBBF109
:10354000020F94F900305FD101335BB2042B08BF46
:103550000023237094F90080B8F1000F2DD141466B
:103560004046FEF799F9434B02211888FDF7A6FE65
:10357000FEF712FA2D48FEF70FFA3F4B188800B2FB
:10358000FDF728FEFEF708FA2948FEF705FA0121A3
:103590000620FEF781F901210420FEF7A5F9254B4D
:1035A00093F800B0BBF1010F37D159460720FEF761
:1035B00073F959464046FEF797F994F90080B8F13F
:1035C000010F7FF40DAF0021DFF8B0B00846FEF721
:1035D00063F9DBF81000FDF7FDFDFEF7DDF9164895
:1035E000FEF7DAF90A23DBF818004146B0FBF3F0E6
:1035F0000293FDF763FEFEF7CFF90C48FEF7CCF916
:10360000DBF820004146E1E6BBF1010FA2D1013B0E
:103610005BB2002BB8BF03239BE701210720FEF715
:103620003BF901210220C6E785070020495E00081A
:10363000546000089707002036580008575F0008BC
:10364000865F00085C600008B40700207260000814
:10365000985A00088360000898600008AD60000870
:10366000BD6000088A070020D5600008ED600008F2
:10367000006100084E0800203E0800205401002090
:103680004FF40032064B1A614FF48032A3F5806389
:103690001A610023034A1370034A1370704700BF76
:1036A000000C014096070020970700200222054BDE
:1036B0001A610123044A1370044A1370044A136107
:1036C000704700BF000C01409607002097070020BC
:1036D00000080140094908B50B68022B03D1FFF728
:1036E000E5FF01230B600B68032B06D1044B98699F
:1036F000012802D1FFF7DAFF086008BD7802002038
:10370000F400002001222DE9F84FB64EB64B357873
:1037100082461A709846B54CDFF84093B44F2DBBE3
:10372000B44B1A88B44B1B6A0533934215D929460A
:103730002846FEF7B1F8B148FEF72EF94FF4FA60CB
:10374000FDF72CFC29462846FEF7A6F8AC48FEF704
:1037500023F940F6B830FDF721FC0023A94A237075
:1037600089F80030136001223B603270A64B3A6842
:103770001B689A4240F2F78000232370FFF7AAFFEC
:10378000BAF1020FA14D40F00381A14B1B78002B31
:1037900040F0FC800123237095F90010A1BB08467E
:1037A000FEF77AF89A4BDFF8A8A21A789B46002A0F
:1037B00040F0FA808F4B02211888FDF77FFDFEF75D
:1037C000EBF89448FEF7E8F80221BAF80000FDF79C
:1037D00075FDFEF7E1F89048FEF7DEF89BF8003043
:1037E000DFF87CA201210720002B40F0F080FEF7DB
:1037F00053F801210020FEF777F89AF800300A2BE1
:1038000084BF00238AF8003095F900A0BAF1010FB7
:103810001ED10021DFF8E0B10846FEF73DF87F48F1
:10382000FEF7BAF8DBF81000FDF7D4FCFEF7B4F8A9
:103830007B48FEF7B1F80A23DBF820005146B0FBC5
:10384000F3F0FDF73BFDFEF7A7F87348FEF7A4F889
:1038500095F90030022B2FD100214FF00A0ADFF832
:1038600098B10846FEF718F8DBF83800FDF7B2FC0F
:10387000FEF792F86B48FEF78FF8DBF82000012185
:10388000B0FBFAF0FDF71AFDFEF786F86148FEF787
:1038900083F86422DBF82030DBF83800012158433C
:1038A000B0FBF2F0181AB0FBFAF0FDF707FDFEF7D7
:1038B00073F85948FEF770F895F90050032D1AD1A6
:1038C00000210846FDF7E8FF5748FEF765F84D4B25
:1038D00018684FF46163B0FBF3F0FDF77BFCFEF773
:1038E0005BF85248FEF758F828460121FDF7D4FF4F
:1038F0003868FEF70FFF6420FDF750FB4C4801F0DD
:103900004BFB317800224B4801F08AFB484801F01C
:1039100043FB98F800100022474801F081FB44481F
:1039200001F03AFB21780022444801F079FB40483D
:1039300001F032FB39680022414801F071FB3C483C
:1039400001F02AFB99F8001000223E4801F068FBC4
:10395000374801F021FB3C4B002219683B48BDE889
:10396000F84F01F05DBB3A49234A0888136A834245
:10397000FFF402AF6420926B09885A43B2FBF0F265
:103980009B1A8B427FF6FAAE0123F6E6002302E78C
:10399000BAF1010F7FF400AF2B78013B5BB2002B33
:1039A000B8BF03232B70F7E60221BAF80000FDF739
:1039B00085FCFDF7F1FF1748FDF7EEFF254B188852
:1039C00000B2FDF707FCFDF7E7FF234804E79AF88C
:1039D0000030052B7FF60BAFFDF75EFF0121084697
:1039E00009E700BF95070020940700207E0700200C
:1039F00080070020540800205401002021600008A6
:103A00003260000870070020FC09002085070020B4
:103A100096070020495E0008155F0008B05D0008A9
:103A2000B35D00085E5F0008BB5D000869600008C8
:103A3000985A0008375E0008836000089860000804
:103A4000AD600008D56000088C070020ED6000081C
:103A50004E0800203E080020195E00088A0700205A
:103A60007D0700200122164B10B51A70FFF71EFECD
:103A70000228144C1ED1A3690133A361002108461A
:103A8000FDF70AFFA069FDF7A5FBFDF785FF0E48CE
:103A9000FDF782FF01210020FDF7FEFE0B4B188889
:103AA00000B2FDF797FBFDF777FFBDE8104008482F
:103AB000FDF772BF0128E1D1A369013BDDE700BF3B
:103AC0009407002004000020845F0008B602002054
:103AD000A05D00080122164B10B51A70FFF7E6FD35
:103AE0000228144C1ED1A36A0133A36200210846A8
:103AF000FDF7D2FEA06AFDF76DFBFDF74DFF0E4806
:103B0000FDF74AFF01210020FDF7C6FE0B4B022105
:103B10001888FDF7D3FBFDF73FFFBDE810400848CC
:103B2000FDF73ABF0128E1D1A36A013BDDE700BF01
:103B30009407002004000020845F0008540800203F
:103B4000745E00080122164B10B51A70FFF7AEFD27
:103B50000228144C1ED1236B013323630021084635
:103B6000FDF79AFE206BFDF735FBFDF715FF0E48BC
:103B7000FDF712FF01210020FDF78EFE0B4B022105
:103B80001888FDF79BFBFDF707FFBDE810400848CC
:103B9000FDF702BF0128E1D1236B013BDDE700BF48
:103BA0009407002004000020845F00084E080020D5
:103BB000745E00080122164B10B51A70FFF776FDEF
:103BC0000228144C1ED1A36B0133A36300210846C5
:103BD000FDF762FEA06BFDF7FDFAFDF7DDFE0E4876
:103BE000FDF7DAFE01210020FDF756FE0B4B022106
:103BF0001888FDF763FBFDF7CFFEBDE810400848CD
:103C0000FDF7CABE0128E1D1A36B013BDDE700BF90
:103C10009407002004000020845F00083C08002076
:103C2000745E00080122F8B5294B2A4E1A70FFF77E
:103C30003DFD02282ED13388013333800021084610
:103C4000FDF72AFE02213088FDF738FB224F234C76
:103C5000FDF7A2FE2248FDF79FFE3B8822889BB21B
:103C600012B2002A1F4D1ADC46232B64286CFDF784
:103C7000B1FAFDF791FE1C48FDF78EFE1B4B1B8829
:103C80003A8821889BB209B2002992B214DC0A2337
:103C9000AB64F8BD0128D1D13388013BCDE7328830
:103CA00021889B1A42F210721BB223EAE37353433A
:103CB00009B293FBF1F3D8E79B1A42F210721BB2E0
:103CC00023EAE3735343218809B293FBF1F3DFE75F
:103CD000940700207C020020C00200203E08002043
:103CE000495E000804000020A55D0008540800207B
:103CF00000212DE9F04101262A4B2B4D07460846AD
:103D00001E70FDF7C9FD2B78284C03F0FF082BBB74
:103D1000274B02211888FDF7D1FAFDF73DFE254813
:103D2000FDF73AFE41460720FDF7B6FD208800B2B8
:103D3000FDF750FAFDF730FE1F48FDF72DFE052078
:103D40003146FDF7A9FD1D48FDF726FE022F26D1BD
:103D50002B7803BBBDE8F041FFF7A8BC184B02214C
:103D60001888FDF7ABFAFDF717FE1248FDF714FEB1
:103D700000210720FDF790FD208800B2FDF72AFA08
:103D8000FDF70AFE0F48FDF707FE06203146FDF756
:103D900083FD0D48D8E7BDE8F041FFF771BCBDE8F1
:103DA000F08100BF94070020960700203E08002005
:103DB00054080020745E00084C5E0008225D000874
:103DC0004E080020275D00082E5D000801222DE925
:103DD000F041934B934C02281A7086B094F900304E
:103DE00040F0148113445BB2082B08BF00232370FA
:103DF00094F90010E1B90846FDF74EFD8A48FDF739
:103E0000CBFD8A4B012118880A23B0FBF3F0FDF7A4
:103E100055FAFDF7C1FD8648FDF7BEFD854B022131
:103E20001888FDF74BFAFDF7B7FD8348FDF7B4FDA1
:103E300094F90030012B19D100210846FDF72CFD23
:103E40007E48FDF7A9FD7E4B02211888FDF736FA62
:103E5000FDF7A2FD7B48FDF79FFD7B4BD888FDF762
:103E6000B9F9FDF799FD7948FDF796FD94F90050F1
:103E7000022D1BD1FFF71AFC00210846FDF70CFDAF
:103E80007348FDF789FD734B29461888FDF716FA2C
:103E9000FDF782FD6B48FDF77FFD6B4B9888FDF7C2
:103EA00099F9FDF779FD6948FDF776FD94F9003041
:103EB000032B1BD1FFF7FAFB00210846FDF7ECFCB2
:103EC0006548FDF769FD654B188800B2FDF782F97A
:103ED000FDF762FD6248FDF75FFD5B4B5888FDF71B
:103EE00079F9FDF759FD5948FDF756FD94F9003071
:103EF000042B1BD1FFF7DAFB00210846FDF7CCFCB1
:103F00005848FDF749FD584B188800B2FDF762F993
:103F1000FDF742FD5248FDF73FFD4B4B1888FDF77A
:103F200059F9FDF739FD5148FDF736FD94F9003098
:103F3000052B3AD1424F4E4EFFF7B8FB3B883188F4
:103F4000DFF81881591A42F210734B43B8F8002079
:103F5000002112B293FBF2F3464D0846AB64FDF725
:103F60009BFC4548FDF718FD286CFDF733F9FDF77C
:103F700013FD4248FDF710FDA86CFDF72BF9FDF786
:103F80000BFD3F48FDF708FDB8F8000000223D4951
:103F900000B201F0FBF8388802223B4901F0F6F844
:103FA00030880222394901F0F1F894F90030062BEB
:103FB0000DD100210846FDF76FFC354B01A91868AB
:103FC000FDF726FAFDF7E8FC3248FDF7E5FC94F929
:103FD0000030072B17D1FFF769FB00210846FDF7DA
:103FE0005BFC2D48FDF7D8FC2C4B1868FDF7F2F868
:103FF000FDF7D2FC2A48FDF7CFFC134BD888FDF71C
:10400000E9F8FDF7C9FC06B0BDE8F08101287FF4AE
:10401000EFAE013B5BB2002BB8BF0723E7E600BF62
:104020009407002086070020CB5D00083C08002094
:10403000D05D00084C080020835F0008D55D0008B3
:1040400054080020495E000840080020815F0008F5
:10405000DA5D00084E080020E05D00083E08002000
:10406000E55D0008E95D0008B8020020805F0008F7
:10407000C002002004000020EF5D0008F25D00088F
:10408000F75D0008FF5D0008035E00080A5E000897
:10409000CC0700207F5F0008125E0008BC020020F1
:1040A000155E00087FB500254FF4F023494C0095BC
:1040B0000195029503956289474E93FBF2F3474AB7
:1040C0009BB21380A188336B62894B43B3FBF2F33D
:1040D00000930098FDF792FA02900298FDF7AEFA6D
:1040E0003F4A40491368184410600B8801331BB2E3
:1040F0000B800B881BB21F2B0DDD2020136893FB58
:10410000F0F339489BB20380384B0D8015601A8854
:10411000022A98BF1D800A23B069618843434B433C
:104120006289B3FBF2F301930198FDF72BFA039038
:104130000398FDF781FA2E4A2E491368184410603F
:104140000B8801331BB20B800B881BB21F2B09DDC0
:104150002020136893FBF0F327481BB20380002351
:104160000B8013600A23306A218843434B436289E2
:10417000B3FBF2F301930198FDF722FA0390039841
:10418000FDF75BFA1D4A1E491368184410600B883E
:104190001C4801331BB20B800B881BB21F2B08DDA0
:1041A0002024136893FBF4F31BB2038000230B80DD
:1041B00013600388144A1BB2B3F57A7FC9BF0E4B54
:1041C00003881B8803EB8303C4BF5B001BB213800F
:1041D00004B070BD40080020040000204C080020FE
:1041E000AC070020B00700204E0800205408002033
:1041F0009C070020A0070020B6020020A407002092
:10420000A8070020B80200203E080020F8B5FEF7FD
:104210001BFA354A354E136801331360344B1A8844
:10422000B2F57A7F82BF0121324A11611B88B3F552
:10423000617F3EBF4FF480322E4B1A613388092BC9
:1042400003D900233380FFF72DFF2B4D2B4C2B88F8
:10425000632B84BF00232B802388B3F57A7F36D36A
:104260000023274F23803B881BB2012B07DC3888B3
:1042700000B2FDF78BF8234A1368184410603B889E
:104280001BB2022B07DD388800B2FDF77FF81E4A0B
:104290001368184410601D4B1B78012B01BF1C4A8A
:1042A0001368013313601B4B1B78012B01BF1A4AA3
:1042B000136801331360194B1B78012B01BF184A97
:1042C000136801331360174A13680133136033888E
:1042D00001339BB233802B8801339BB22B80238820
:1042E00001339BB22380F8BDB4070020B402002044
:1042F0004E080020000C0140B2020020B002002055
:104300003E08002074070020700700207E07002070
:10431000800700208A0700208C07002098070020D3
:10432000B8070020CC07002010B51D4C236843F4CB
:104330008033236023689A03FCD5636823F47C13DD
:1043400043F4A0236360E36A23F00F03E36223686E
:1043500043F08073236023689B01FCD5636823F0DE
:10436000F0036360636823F4E0636360636823F4CD
:1043700060536360636823F0030343F002036360E8
:10438000636803F00C03082BFAD1064801F032F9F8
:10439000044801F03DF9636823F44043636010BDB5
:1043A0000010024000366E012DE9F04F012095B05B
:1043B000DFF88893FDF718FB4FF08050FDF706FB00
:1043C000D9F80C20C94B22F4E0621204120C1343FA
:1043D000C9F80C30C64BC74E5A68002422F0E06280
:1043E0005A605A68012542F000725A60FFF79CFF3C
:1043F000142200210DA801F040F92020FDF7F4FA65
:104400000420FDF7F1FA0820FDF7EEFA48F2010367
:1044100073614FF6035302274FF004084FF0080B67
:10442000DFF81CA30DA9CAF81430B34B3046CDE910
:104430000D35CDE90F7400F046FFB04B0DA9504685
:10444000CDE90D35CDE90F7400F03DFFAC4B0DA962
:104450005046CDE90D35CDF840800F9700F033FF81
:10446000A84B0DA93046CDE90D3B119500F02BFF6F
:104470004FF2F0030DA95046CDE90D3B119500F028
:1044800022FFA14B5A692A435A615B692B4005936D
:10449000059BD9F80C009D4DC0F30220FDF732FCBE
:1044A0004FF4006300FA08F0C0B285F80B031C2239
:1044B0002B6021460DA801F0E0F81422214608A83F
:1044C00001F0DBF84FF48040FDF78EFA4046FDF72F
:1044D0008BFA09238E4A08A9CDE908230323304625
:1044E000CDE90A3400F0EFFE8A4B08A93046CDE949
:1044F000083800F0E8FED9F80C004FF48079C0F3DA
:104500000220FDF7FFFB202300FA08F0C0B285F877
:1045100025036B60804D0DA9EB68284643F08003AE
:10452000EB604FF41643CDE90D340C23CDE90F4475
:10453000CDE91134139400F0EFFF2B69142223F41A
:1045400090432B616B69214623F02A036B61EB6872
:1045500008A843F40053EB60CDE9064401F08DF860
:10456000142221460DA801F088F84FF40070FDF7E1
:104570003BFA4046FDF738FA44F64E630DA9304643
:10458000CDE90D3400F09FFE644BDFF8B8811A6866
:10459000A5F5A05522F4804222F010021A601A6894
:1045A00006A922F4405242F400521A601A682846C2
:1045B00042F020021A601A6822F040021A601A685B
:1045C00042F080021A601A6822F4407242F480724B
:1045D0001A601A6822F4406242F480621A60504AFB
:1045E0009A60C3F80C805A68120C120442F006025A
:1045F0005A601A6842F001021A600694CDF81C90C5
:1046000000F001FE4FF4A0034FF460212846CDE9ED
:10461000081308A9CDE90A47CDF8309000F008FE4C
:1046200040494FF40070FDF751FB3E48FDF724FB75
:104630003D4940F20520FDF749FB3B48FDF71CFBD7
:104640003A4940F20A20FDF741FB3848FDF714FBD8
:10465000374940F20F20FDF739FB3548FDF70CFBD9
:1046600034494FF40570FDF731FB3248FDF704FB88
:10467000AB68314943F40003AB6040F21920FDF709
:1046800025FB2D48FDF7F8FAAB68642043F40003DE
:10469000AB60AB6843F00103AB60FCF77FFCAB6839
:1046A00043F00403AB60CDE90168AC6814F0040486
:1046B000FBD1AB68102243F4A003AB60214608A8ED
:1046C00000F0DBFF142221460DA800F0D6FF4FF0CA
:1046D0000050FDF77BF90420FDF786F943F2300323
:1046E000164E0DA90348CDE90D342DE00003FA055F
:1046F000000001400008014081018004030301041F
:10470000FC00FC04190019040010024000E100E064
:1047100002000204040004040038014008000240C2
:104720004C240140010030020200600203009002AC
:1047300006002003100020811100508100ED00E0F0
:10474000000C01404008002000F0BDFDF0684FF46F
:104750008008C0F30220FDF7D5FA3823B34DB44FDB
:104760000001C0B287F8360308AAC7F80480B1492F
:104770002846CDE908340B9400F07CFD2B6808AA8C
:1047800023F004032B60AC49284600F073FD2B682E
:10479000142223F480232B602B68214643F001036D
:1047A0002B602B680DA843F480332B60AC606C61E8
:1047B00000F063FF1020FDF709F9F0684FF4166967
:1047C000C0F30220FDF79EFA0001C0B287F836035D
:1047D000C7F804804FF00A08A5F5C84528460DA97A
:1047E000ADF834900E94CDF83C8000F045FE2B6877
:1047F000142223F080032B606B68214623F07003A2
:104800006B60AB680DA823F08003AB6000F035FF50
:104810002020FDF7DBF8F06805F58065C0F3022085
:10482000FDF770FA4FF400030001C0B287F83703B8
:104830000DA97B602846ADF83490CDE90E4800F014
:104840001BFE2B6823F080032B606B6823F0700342
:104850006B60AB6823F08003AB60FDF7ACF800F051
:1048600001FB4FF47A72754B1B68B3FBF2F3013B0B
:10487000B3F1807F07D2724A5360F02386F8233069
:1048800007239460136000246E4D6F482C60FDF781
:1048900083F8FCF793FB6D4800F07EFB6A4800F05C
:1048A00011FBFCF7A1FF21462046FCF7F5FF4FF472
:1048B0007A70FCF773FBFBF73BFD2B68172B88BF67
:1048C0002C60FCF713F80446002840F08F804FF46A
:1048D0007A70FCF763FBFCF709F804465B4800F0CC
:1048E0005BFB5B4800F0EEFA002C7FD15948FDF7E6
:1048F00053F84FF47A60FCF751FB5748FCF7B4F9D2
:10490000524800F049FB524800F0DCFA534B544C3B
:104910001A69544B544D1A604FF461632269534332
:10492000524A1360A268524B1A60236C514A2B60A2
:104930001360FCF765F94FF47A70FCF72FFBFDF775
:1049400019F84D48FCF79CFEA3680395012B54D140
:104950004A48FCF77BFE0123494D4FF480722B70CF
:104960001423484E00273380474BBB461A6140F65C
:10497000B832464B46491A804FF47F720A801B8832
:104980002A4A1BB253610B88DFF834911BB2DFF85F
:10499000348193603F4A99F80040137889F800B059
:1049A00001331370019B9B681B0505D4404600F042
:1049B000F3FA394800F086FA404600F0EDFA029B1F
:1049C00000229988354800F02BFB404600F0E4FABD
:1049D00000222146324800F023FB631E062B78D8C4
:1049E000DFE803F0729A9EA57777A900012C8DD19C
:1049F000164800F0D1FA2B4886E7022B01D12A484D
:104A0000A7E7032B01D12948A3E7042B01D12848AC
:104A10009FE7052B01D127489BE7062B01D12648AC
:104A200097E7072B94D1254893E700BF0074004017
:104A300000E100E001001002120043159002002086
:104A400010E000E0580800207E020020AD5A000867
:104A5000996B0008B16B0008C26B0008F4000020DD
:104A6000540100207807002078020020FC09002073
:104A7000000A0020F8090020991B00085868000867
:104A8000F409002074020020000C01407202002092
:104A9000880700207D070020D06B0008D86B000835
:104AA000DD6B0008D3590008B068000808690008E9
:104AB00060690008B8690008686A0008C06A0008F0
:104AC000C4070020985A0008FCF7BAFD4068FCF7BC
:104AD000BDFDFCF7B5FDA24BDFF808A383423CD136
:104AE0002046FDF711F9082C06D19E4B1B78002BB0
:104AF00040F03281FEF7DAFD9AF8002002F0FF0361
:104B000032B9994A1370994A13700123039A1360BA
:104B10006420FCF743FA3DE7FCF792FD0068D6E716
:104B20000220FCF7B7FDFCF78BFDC068CFE7FCF770
:104B300087FD8068CBE72A788D4B3AB91422328002
:104B40004FF480721A6101232B70C2E7C8223280B1
:104B50004FF080722F701A61BBE7FCF771FD854B37
:104B6000834203D12046FDF739F9BCE7FCF768FD25
:104B7000814B834203D12046FDF7ACF9B3E7FCF744
:104B80005FFD7E4B834203D12046FEF7BBFDAAE7C3
:104B9000FCF756FD7A4B834203D12046FEF72CF9F1
:104BA000A1E7FCF74DFD774B834203D12046FEF78A
:104BB0007DFA98E7FCF744FD734B834203D120460E
:104BC000FDF7DEFD8FE7FCF73BFD704B834203D121
:104BD0002046FEF721F886E7FCF732FD6C4B834256
:104BE00003D12046FFF784F87DE7FCF729FD694BE8
:104BF000834203D12046FFF7E9F874E7FCF720FD74
:104C0000654B834203D12046FDF70AFA6BE7FCF7B8
:104C100017FD624B834203D12046FDF771FA62E72C
:104C2000FCF70EFD5E4B834203D12046FDF744FAAC
:104C300059E7FCF705FD5B4B834203D12046FDF7A6
:104C400083FA50E7FCF7FCFC574B834203D1204624
:104C5000FEF708FF47E7FCF7F3FC544B834203D110
:104C60002046FEF7A7FF3EE7FCF7EAFC504B8342E5
:104C700003D12046FEF766FF35E7FCF7E1FC4D4B1C
:104C8000834203D12046FEF725FF2CE7FCF7D8FC32
:104C9000494B834203D12046FEF7C4FF23E7FCF7CC
:104CA000CFFC464B834203D12046FDF783FA1AE737
:104CB000FCF7C6FC424B834203D12046FDF7D6FAEF
:104CC00011E7FCF7BDFC3F4B834203D12046FDF7C3
:104CD000F3FA08E7FCF7B4FC3B4B834203D12046D0
:104CE000FDF75CFBFFE6FCF7ABFC384B834203D1DE
:104CF0002046FDF775FBF6E6FCF7A2FC344B834239
:104D000003D12046FDF78EFBEDE6FCF799FC314B15
:104D1000834203D12046FDF7A3FBE4E6FCF790FCB9
:104D20002D4B834203D12046FDF7B8FBDBE6FCF7B1
:104D300087FC2A4B834203D12046FDF70BFCD2E6C9
:104D4000FCF77EFC264B834203D12046FDF748FC4E
:104D5000C9E68AF80070C6E6FEF792FCCCE600BF12
:104D60005868000896070020950700208507002056
:104D7000000C0140B068000808690008606900087C
:104D8000B8690008E4690008686A0008C06A000899
:104D9000186B0008706B0008BC6400082C620008E7
:104DA000D4610008DC62000884620008E463000843
:104DB0008C630008346300082C64000874640008E5
:104DC0001465000840650008C46500081C660008FA
:104DD00074660008CC6600082467000800680008B4
:104DE000D4670008940700207047FEE7FEE7FEE75F
:104DF000FEE7704770477047FFF708BA704700003A
:104E000014490B681B0624D5134BB3F8582492B2EF
:104E1000DAB1B3F85824013A92B2A3F85824B3F89F
:104E2000562492B2501C80B2A3F856041A4492F849
:104E30006C20D2B24A60B3F8562492B2B2F57A7FAF
:104E400007D10022A3F856247047CB6823F08003D3
:104E5000CB60704700380140C202002070477047A5
:104E600070470000124A10B55368124903F00C0352
:104E7000082B0AD0104B0B605368104AC3F303137E
:104E8000D25C0B68D3400B6010BD53685068C3F30D
:104E90008343C00341BFD06A074C00F00F000130CC
:104EA0004CBFB4FBF0F0064802334343E3E700BFD6
:104EB000001002409002002000127A00E66B000809
:104EC00000093D00324A30B5134640F2C934B2F809
:104ED00058148C42FBD32F49CA6822F08002CA6062
:104EE0000021027802F0FF044ABBB3F8542492B2C6
:104EF000511C89B2A3F854140A211A4482F86C1088
:104F0000B3F8542492B2B2F57A7F08BFA3F85444A0
:104F1000B3F85824013292B2A3F85824B3F85A24B3
:104F2000B3F85814914282BFB3F8582492B2A3F850
:104F30005A24184AD36843F08003D36030BDB3F8D5
:104F40005424441C92B2551CADB2A3F854540078BA
:104F50001A44C0B282F86C00B3F8542492B2B2F58D
:104F60007A7F08BFA3F85414B3F85824013292B2E0
:104F7000A3F85824B3F85A24B3F85804904288BFD1
:104F8000B3F85824204684BF92B2A3F85A24A8E765
:104F9000C2020020003801401F4A30B5134640F2DB
:104FA000C934B2F858148C42FBD31C49CA6822F0A9
:104FB0008002CA60002102782AB9184AD36843F0F7
:104FC0008003D36030BDB3F85424441C92B2551C06
:104FD000ADB2A3F8545400781A44C0B282F86C0001
:104FE000B3F8542492B2B2F57A7F08BFA3F85414F0
:104FF000B3F85824013292B2A3F85824B3F85A24D3
:10500000B3F85804904288BFB3F85824204684BFB0
:1050100092B2A3F85A24CEE7C20200200038014021
:1050200073B501918DF803209DF803300446019873
:10503000002B44D1FCF7CEF8494A40F2C93513465B
:10504000B2F858148D42FBD300254649CA6822F0B5
:105050008002CA60227802F0FF01002A34D10138B0
:10506000B3F8542410F8014F92B2002C55D1511CC2
:1050700089B2A3F854140A211A4482F86C10B3F8C8
:10508000542492B2B2F57A7F08BFA3F85444B3F81F
:105090005824013292B2A3F85824B3F85A24B3F832
:1050A0005814914282BFB3F8582492B2A3F85A24FC
:1050B0002C4AD36843F08003D36002B070BD9DF8E2
:1050C0000310FCF7FBF8B7E7B3F85424611C92B265
:1050D000561CB6B2A3F8546424781A44E4B282F899
:1050E0006C40B3F8542492B2B2F57A7F08BFA3F8AB
:1050F0005454B3F85824013292B2A3F85824B3F8A8
:105100005A24B3F85844944288BFB3F858240C4644
:1051100084BF92B2A3F85A249CE7541CA4B2A3F80B
:10512000544404781A4482F86C40B3F8542492B280
:10513000B2F57A7F08BFA3F85414B3F858240132AB
:1051400092B2A3F85824B3F85A24B3F858449442BE
:1051500082BFB3F8582492B2A3F85A2480E700BF64
:10516000C202002000380140024B1A681206FCD52A
:10517000586070470038014008B5037803B908BD8E
:10518000411C0078FFF7F0FF0846F6E737B50190BD
:105190000D46019872B9FCF71DF804462846FFF742
:1051A000EBFF2046FFF7E8FF0A2003B0BDE83040E0
:1051B000FFF7DABF1146FCF781F8EEE7002103E0C4
:1051C0000B4B5B58435004310A480B4B42189A4230
:1051D000F6D30A4A02E0002342F8043B084B9A4205
:1051E000F9D3FFF73DFE00F019FAFFF7DDF870473D
:1051F000086C0008000000209402002094020020A7
:10520000040A0020FEE7836810B513F001030DD1F6
:1052100042684C6822F480722243426082680968C6
:1052200022F400620A438260184610BD0120FCE7A8
:10523000836810B5DB071BD443684A6823F46843CE
:1052400012B18C6813432343436083680C6823F4D2
:10525000602323F481732343CC68096923430B4300
:105260008360C36A23F470031343C362002010BD3C
:105270000120FCE7012370B501F01001056803FA75
:1052800001F4AC431DD0D2E90043D6687BB123437F
:1052900040F6FA7492683343056813438B4004FA6E
:1052A00001F125EA010119430160002070BDFA25D2
:1052B00002688D40344322EA050204FA01F11143E9
:1052C000F2E71846F2E72DE9F04F0C68C4F30F241B
:1052D00094FAA4F24FF00F0AB2FA82F24FF00309E7
:1052E00004274FF0011C40F2011E34FA02F302D1F0
:1052F0001846BDE8F08F0123934023425ED0072A71
:1053000085BFA2F108030CFA03F30EFA02F343F08F
:105310008063C5681E0A96FAA6F8B8FA88F825EAE6
:1053200006060D6905FA08F53543C5604FEA1368AE
:1053300093FAA3F6B6FA86F693FAA3FBBBFA8BFBB5
:10534000B6000AFA06F550F808604FEA8B0B26EA19
:1053500005064D6805FA0BFB46EA0B0640F80860A7
:105360004D6825F00805012D28D193FAA3F5B5FA6B
:1053700085F593FAA3FBBBFA8BFBAD0009FA05F5A3
:1053800026EA05068D684FEA8B0B05FA0BFB46EA09
:105390000B0640F8086093FAA3F5B5FA85F593FA81
:1053A000A3F3B3FA83F3AD0007FA05F526EA050582
:1053B000CE689B009E402E4340F80860013294E77F
:1053C000034B044A5B68C3F30313D35CD8407047B4
:1053D00000100240E66B0008034B044A5B68C3F30D
:1053E0000223D35CD840704700100240F66B0008DF
:1053F000034B044A5B68C3F3C223D35CD8407047B5
:1054000000100240F66B0008094B5A6802F4803223
:1054100062B1D86A074A00F00F000130B2FBF0F029
:105420005B68C3F383430233584370470248F7E78E
:105430000010024000127A0000093D00044B5B6836
:1054400003F00C03082B01D1FFF7DEBF01487047C2
:105450000010024000127A0008B50146FFF7EEFF87
:105460000860FFF7ADFF4860FFF7B6FF8860486847
:10547000FFF7BEFFC86008BD254A036890420AD006
:10548000B0F1804F07D0A2F59432904203D002F5DC
:105490008062904211D14A6823F0700313431C4A82
:1054A000904215D0B0F1804F12D0A2F594329042C4
:1054B0000ED002F5806290420AD0164A904207D080
:1054C00002F58062904203D002F58062904203D1DF
:1054D000CA6823F44073134303608B68C3620B886C
:1054E00083620B4B98420BD003F5A053984207D030
:1054F00003F58063984203D003F58063984201D19D
:105500000B690363436943F0010343610020704763
:10551000002C01400040014030B5C36885B09B04B9
:1055200004460D4602D5012005B030BD4B68C96860
:10553000C2680B43296922F416420B43A96922F081
:105540000C020B431343C3600369AA6823F440535E
:105550001343036143696A6923F44073134343614E
:105560006846FFF779FF204B9C4225D1039900291B
:10557000D9D02A68002AD6D019234B43A969B1F59E
:10558000004F4FF0640120D15200B3FBF2F3B3FBA4
:10559000F1F001FB1033DB003233B3FBF1F39BB2CC
:1055A00003F007025B0002EB001203F4F8731344EC
:1055B0009BB2A3600020B7E70C4B9C4201D102993B
:1055C000D5E70B4B9C42AED1F9E79200B3FBF2F367
:1055D000B3FBF1F201FB12331B013233B3FBF1F3E6
:1055E00003EB0213E4E700BF003801400044004031
:1055F000004800404FF47A73B0FBF3F00022034BF5
:10560000013858609A6005221A60704710E000E087
:10561000014B1860704700BF9002002070B5002554
:105620000C4E0D4CA41BA410A54209D100F02EF87D
:1056300000250A4E0A4CA41BA410A54205D170BD3A
:1056400056F8253098470135EEE756F8253098474B
:105650000135F2E7006C0008006C0008006C0008DF
:10566000046C000810B5431E0A44914200D110BDDD
:1056700011F8014B03F8014FF7E703460244934248
:1056800000D1704703F8011BF9E70000F8B500BF2F
:10569000F8BC08BC9E467047F8B500BFF8BC08BC13
:0456A0009E4670476B
:1056A40000070E091C1B1215383F363124232A2DFE
:1056B40070777E796C6B6265484F464154535A5DEE
:1056C400E0E7EEE9FCFBF2F5D8DFD6D1C4C3CACDDE
:1056D40090979E998C8B8285A8AFA6A1B4B3BABDCE
:1056E400C7C0C9CEDBDCD5D2FFF8F1F6E3E4EDEABE
:1056F400B7B0B9BEABACA5A28F88818693949D9AAE
:105704002720292E3B3C35321F18111603040D0A9D
:105714005750595E4B4C45426F68616673747D7A8D
:10572400898E878095929B9CB1B6BFB8ADAAA3A47D
:10573400F9FEF7F0E5E2EBECC1C6CFC8DDDAD3D46D
:10574400696E676075727B7C51565F584D4A43445D
:10575400191E171005020B0C21262F283D3A33344D
:105764004E49404752555C5B7671787F6A6D64633D
:105774003E39303722252C2B0601080F1A1D14132D
:10578400AEA9A0A7B2B5BCBB9691989F8A8D84831D
:10579400DED9D0D7C2C5CCCBE6E1E8EFFAFDF4F30D
:1057A40043616C6962726174696F6E466163746FA0
:1057B40072795772697465546F466C61736820001E
:1057C40043616C6962726174696F6E5265616446AB
:1057D400726F6D466C617368200043616C6962721C
:1057E4006174696F6E5265616446726F6D466C6177
:1057F4007368466F72566572696679200043616CFE
:105804006962726174696F6E5772697465546F4628
:105814006C6173682000446174615768656E506FF1
:105824007765724F66665265616446726F6D466C49
:105834006173682000446174615768656E506F77C6
:1058440065724F66665265616446726F6D466C613F
:105854007368466F72566572696679200044617494
:10586400615768656E506F7765724F66665F466113
:1058740063746F72795F5772697465546F466C61B3
:1058840073682000466163746F7279577269746536
:10589400546F466C6173685F435243004643616CC6
:1058A4006962726174696F6E2077726974652074BD
:1058B4006F20466C6173682073756363657373202E
:1058C400004643616C6962726174696F6E2077721D
:1058D40069746520746F20466C6173682046616941
:1058E4006C2C2074727920616761696E2E2E2E20D3
:1058F4000046435243206973203A20004653697A94
:1059040065206973203A20004653657474696E6794
:105914007320777269746520746F20466C617368B4
:1059240020737563636573732000465365747469EB
:105934006E677320777269746520746F20466C619A
:105944007368204661696C2C2074727920616761E8
:10595400696E2E2E2E200046446174615768656E70
:10596400506F7765724F666620777269746520742C
:105974006F20466C6173682073756363657373206D
:105984000046446174615768656E506F7765724F65
:10599400666620777269746520746F20466C617343
:1059A40068204661696C2C20747279206167616992
:1059B4006E2E2E2E2000526561642066726F6D205B
:1059C400454570726F6D202D204641494C20005290
:1059D4006561642066726F6D20454570726F6D203D
:1059E4002D20535543434553530053657474696ED6
:1059F4006773466163746F72795772697465546F23
:105A0400466C617368200053657474696E677352E1
:105A140065616446726F6D466C61736820005365FE
:105A24007474696E67735265616446726F6D466C17
:105A3400617368466F7256657269667920005365B2
:105A44007474696E67735772697465546F466C61D8
:105A5400736820004661696C20746F20726561640C
:105A640020616464726573733A2000454570726FF7
:105A74006D56616C7565206973203A2000464C416F
:105A840053485F424153452B313032342A3132334B
:105A9400203A200044454255473A200073697A650C
:105AA4003A200076616C3A2000494E464F3A200075
:105AB4004352432843616C6962726174696F6E2951
:105AC400203D0043616C6962726174696F6E305687
