:020000040800F2
:100000000020002021580008A1540008A354000833
:10001000A5540008A7540008A954000800000000D7
:10002000000000000000000000000000AB540008C9
:10003000AD54000800000000AF540008B15400089F
:10004000695800086958000869580008695800088C
:10005000695800086958000869580008695800087C
:10006000695800086958000869580008B554000824
:10007000695800086958000869580008695800085C
:100080006958000869580008695800080000000015
:100090000000000000000000000000006958000897
:1000A000695800086958000869580008695800082C
:1000B000695800086958000869580008695800081C
:1000C000695800080000000000000000695800089E
:1000D00069580008B95400086958000869580008B0
:1000E00069580008695800086958000800000000B5
:1000F0000000000000000000000000000000000000
:1001000000000000000000000000000000000000EF
:1001100000000000000000001555000817550008F9
:1001200000000000000000000000000000000000CF
:1001300000000000000000000000000000000000BF
:1001400000000000000000000000000000000000AF
:10015000000000000000000000000000000000009F
:10016000000000000000000000000000000000008F
:10017000000000000000000000000000000000007F
:10018000000000000000000000000000000000006F
:10019000000000000000000000000000000000005F
:1001A000000000000000000000000000000000004F
:1001B000000000000000000000000000000000003F
:1001C0000000000000000000000000005FF808F1DF
:1001D00010B5054C237833B9044B13B10448AFF381
:1001E00000800123237010BD900200200000000059
:1001F000F05C000808B5034B1BB103490348AFF39B
:10020000008008BD0000000094020020F05C00089F
:100210000E4A1346D168C907FCD4D168890644BF89
:100220002021D1601A6942F002021A6158611A69EC
:1002300042F040021A61054BDA689206FCD5202292
:10024000DA601A6922F002021A6170470020024047
:10025000034B044A5A6002F188325A60704700BF6B
:100260000020024023016745024A136943F08003DE
:100270001361704700200240114B10B51A46DC682C
:10028000E407FCD4DC68A40644BF2024DC601369C6
:1002900043F0010313610A4A8BB203801346D4680A
:1002A000A406FCD52024090CD4604180DA689206AB
:1002B000FCD52022DA601A6922F001021A6110BD11
:1002C0000020024070B572B6FFF7C2FF124805F079
:1002D000BFF9124D00224FF4CE71114805F0FCF920
:1002E0000D4805F0B5F9002229680E4805F0F4F92B
:1002F0000D48FFF78DFF0C4C0C4E04F17843A3F52D
:10030000F2332046E9580434FFF7B6FFB442F4D183
:10031000FFF7AAFF62B670BD3561000880080020B3
:100320003D6100084461000800E401089CE5010803
:1003300010B5074B074808491C6803F1784204339D
:10034000A2F5F2328B421450F6D1012010BD00BF4D
:1003500000E40108800800209CE50108F8B5046865
:1003600007468C420E4601D394421BD900250E4B02
:100370000E481D7005F06CF92A4639460C4805F008
:10038000ABF90A4805F064F921462A46094805F008
:10039000A3F9064805F05CF92A460749074805F025
:1003A0009BF934462046F8BD000000203561000866
:1003B000F56000080C61000800EC01081E610008EF
:1003C00010B5194C6068FFF723FFD4E90010FFF760
:1003D00053FFD4E90210FFF74FFFD4E90410FFF7F1
:1003E0004BFFD4E90610FFF747FFD4E90810FFF7E9
:1003F00043FFD4E90A10FFF73FFFD4E90C10FFF7E1
:100400003BFFD4E90E10FFF737FFD4E91010FFF7D8
:1004100033FFD4E91210FFF72FFF044805F018F955
:10042000034805F0ABF810BD04000020356100085A
:10043000655E000810B5194C6068FFF7E9FED4E965
:100440000010FFF719FFD4E90210FFF715FFD4E9F8
:100450000410FFF711FFD4E90610FFF70DFFD4E9F0
:100460000810FFF709FFD4E90A10FFF705FFD4E9E8
:100470000C10FFF701FFD4E90E10FFF7FDFED4E9E1
:100480001010FFF7F9FED4E91210FFF7F5FE04484B
:1004900005F0DEF8034805F071F810BD54000020A7
:1004A00035610008085E000838B5244C4FF48072AE
:1004B00000216068FFF752FF4FF47A72206000213C
:1004C000E068FFF74BFF4FF47A72A060002160698B
:1004D000FFF744FF1A4D20612A460A21E069FFF721
:1004E0003DFF2A46A0610A21606AFFF737FF2A46CE
:1004F00020620A21E06AFFF731FF2A46A0620A2142
:10050000606BFFF72BFF2A4620630A21E06BFFF7A1
:1005100025FFC822A0634621606CFFF71FFFC82299
:1005200020640A21E06CFFF719FFA064054805F07C
:100530008FF8054805F022F838BD00BF0400002000
:10054000A086010035610008285E000838B5244CFB
:100550004FF4807200216068FFF700FF4FF47A7259
:1005600020600021E068FFF7F9FE4FF47A72A06086
:1005700000216069FFF7F2FE1A4D20612A460A2128
:10058000E069FFF7EBFE2A46A0610A21606AFFF7E7
:10059000E5FE2A4620620A21E06AFFF7DFFE2A46CE
:1005A000A0620A21606BFFF7D9FE2A4620630A2168
:1005B000E06BFFF7D3FEC822A0634621606CFFF713
:1005C000CDFEC82220640A21E06CFFF7C7FEA064BC
:1005D000054805F03DF8054804F0D0FF38BD00BFE0
:1005E000A4000020A086010035610008425E0008DA
:1005F00010B5174C6068FFF70BFED4E90010FFF749
:100600003BFED4E90210FFF737FED4E90410FFF7F0
:1006100033FED4E90610FFF72FFED4E90810FFF7E8
:100620002BFED4E90A10FFF727FED4E90C10FFF7E0
:1006300023FED4E90E10FFF71FFED4E91010FFF7D8
:100640001BFE044805F004F8034804F097FF10BDB2
:100650005401002035610008DF60000810B5174C18
:100660006068FFF7D5FDD4E90010FFF705FED4E977
:100670000210FFF701FED4E90410FFF7FDFDD4E9F5
:100680000610FFF7F9FDD4E90810FFF7F5FDD4E9EE
:100690000A10FFF7F1FDD4E90C10FFF7EDFDD4E9E6
:1006A0000E10FFF7E9FDD4E91010FFF7E5FD04484F
:1006B00004F0CEFF034804F061FF10BD9C01002050
:1006C000356100088B60000810B5224C4FF4807231
:1006D00000216068FFF742FE0A2220600121E068E5
:1006E000FFF73CFE4FF47A72A06001216069FFF7CA
:1006F00035FE4FF47A6220610121E069FFF72EFE9A
:100700004FF47A62A0610121606AFFF727FE42F28E
:10071000107220620021E06AFFF720FE42F21072A0
:10072000A0620021606BFFF719FE642220630021A4
:10073000E06BFFF713FE0322A0630121606CFFF75B
:100740000DFE2064044804F083FF044804F016FF03
:1007500010BD00BF5401002035610008A8600008EA
:1007600010B5224C4FF4807200216068FFF7F6FD4F
:100770000A2220600121E068FFF7F0FD4FF47A7251
:10078000A06001216069FFF7E9FD4FF47A62206102
:100790000121E069FFF7E2FD4FF47A62A0610121D7
:1007A000606AFFF7DBFD42F2107220620021E06A0E
:1007B000FFF7D4FD42F21072A0620021606BFFF7D8
:1007C000CDFD642220630021E06BFFF7C7FD03220B
:1007D000A0630121606CFFF7C1FD2064044804F0B0
:1007E00037FF044804F0CAFE10BD00BFE40100203A
:1007F00035610008BF60000838B5124D124C28461C
:1008000004F026FF0022A168104804F065FF60682C
:10081000FFF7FEFCD4E90010FFF72EFDD4E902102B
:10082000FFF72AFDD4E90410FFF726FDD4E90610EE
:10083000FFF722FD284604F00BFF054804F09EFE5A
:1008400038BD00BF35610008F4000020C55E000817
:10085000D45E000810B50D4C6068FFF7D9FCD4E9F0
:100860000010FFF709FDD4E90210FFF705FDD4E9F8
:100870000410FFF701FDD4E90610FFF7FDFC044862
:1008800004F0E6FE034804F079FE10BD14010020D8
:1008900035610008FE5E000838B5114C4FF48072D7
:1008A00000216068FFF75AFD0E4D20602A460021A6
:1008B000E068FFF753FD2A46A06000216069FFF75A
:1008C0004DFD012220610021E069FFF747FDA06195
:1008D000054804F0BDFE054804F050FE38BD00BFD9
:1008E000F400002000286BEE356100087E5E0008F1
:1008F00038B5114C4FF4807200216068FFF72EFD6F
:100900000E4D20602A460021E068FFF727FD2A46A9
:10091000A06000216069FFF721FD01222061002114
:10092000E069FFF71BFDA061054804F091FE054852
:1009300004F024FE38BD00BF3401002000286BEE17
:10094000356100089D5E000870B501240E4D2C70C5
:1009500072B6FFF7A1FFFFF7B7FEFFF7A5FD62B67E
:100960002E780A483EB904F073FE094804F006FEEA
:100970002C70304670BD04F06BFE064804F0FEFD9E
:1009800026462C70F5E700BF000000203561000806
:10099000576000087060000870B515460C46C0B07E
:1009A00006464FF480720949684605F08DF92846DD
:1009B000013CE4B20134344416F8013B5840A642ED
:1009C0001DF80000F8D140B070BD00BF085D000800
:1009D00038B572B6144D00224C212846FFF7DCFFD3
:1009E000044645F8040CFFF733FCFFF7E9FCFFF77A
:1009F000ADFD00224C210D48FFF7CEFF84420C488C
:100A000009D104F025FE0B4804F0B8FDFFF72CFCDB
:100A100062B6012038BD04F01BFE074804F0AEFDAD
:100A2000FFF7CEFCF2E700BF08000020A80000207E
:100A3000356100083E5F0008635F000838B572B694
:100A4000244D002244212846FFF7A6FF04462248F1
:100A500004F0FEFD00222146204804F03DFE1E4821
:100A600004F0F6FD002244211D4804F035FE45F84F
:100A7000044CFFF7EDFBFFF7BBFDFFF771FE002213
:100A800044211848FFF788FF0546134804F0E0FDAD
:100A900000222946114804F01FFE0F4804F0D8FD3B
:100AA0000F480022442104F017FEAC420A4809D145
:100AB00004F0CEFD0C4804F061FDFFF7D5FB62B6F3
:100AC000012038BD04F0C4FD084804F057FDFFF7CD
:100AD0008FFDF2E75801002035610008935F0008A0
:100AE0009E5F0008E8010020AA5F0008CC5F0008B4
:100AF00070B572B61C4C00221C212046FFF74CFF3B
:100B0000054644F8040CFFF7A3FBFFF775FEFFF75B
:100B1000EFFE164804F09CFD616900221448154C54
:100B200004F0DAFD114804F093FD0022A169104899
:100B300004F0D2FD00221C21201DFFF72DFF85426D
:100B40000A4809D104F084FD0B4804F017FDFFF7B3
:100B50008BFB62B6012070BD04F07AFD074804F0FB
:100B60000DFDFFF749FEF2E7F800002035610008AF
:100B7000F25E000834010020F95F000823600008DD
:100B800038B54A4804F064FD494804F0F7FC72B6F1
:100B9000484DFFF75DFB00224C212846FFF7FCFE85
:100BA000044645F8040CFFF745FCFFF7CFFC002294
:100BB0004C214148FFF7F0FE84423C485DD104F0EF
:100BC00047FD3E4804F0DAFC3D4D00224421284612
:100BD000FFF7E2FE0446354804F03AFD00222146C4
:100BE000384804F079FD314804F032FD00224421F8
:100BF000354804F071FD45F8044CFFF72FFDFFF771
:100C0000AFFD002244213148FFF7C6FE05462748C4
:100C100004F01EFD002229462A4804F05DFD234809
:100C200004F016FD28480022442104F055FDAC4292
:100C30001E482AD104F00CFD254804F09FFC254DE8
:100C400000221C212846FFF7A7FE044645F8040CA5
:100C5000FFF700FEFFF74CFE00221C211E48FFF7A5
:100C60009BFE8442114818D104F0F2FC1B4804F0AA
:100C700085FCFFF7F9FA62B638BD04F0E9FC1848C4
:100C800004F07CFCFFF7D6FB9EE704F0E1FC15487E
:100C900004F074FCFFF7E2FCD1E704F0D9FC124841
:100CA00004F06CFCFFF7D6FDE3E700BF35610008F8
:100CB000255F000858000020A80000203D5F0008C4
:100CC000A0010020925F00089D5F0008E80100205D
:100CD000A95F00081801002038010020F85F000813
:100CE000625F0008CB5F00082260000816491748C1
:100CF0002DE9F04142F2107C0D460446144F01F1FB
:100D00001C06B1F900E0B1F90420B1F90280A2EBB0
:100D10000E020CFB02F2B1F906300431A3EB08031A
:100D200092FBF3F3436003FB08F393FBF7F38E426C
:100D30007344C0F80080836000F10C00E1D1B5F984
:100D40001E306365BDE8F0812C0200200008002001
:100D5000F0D8FFFF104A30B51368834218DB00213A
:100D60000C2505FB01F3D418D35883420BDBE36851
:100D7000834208DA6368584342F2107390FBF3F041
:100D8000A368184430BD01310729EAD1C820F9E72A
:100D90006FF00900F6E700BF000800202DE9F843D6
:100DA000534C0746206800F0AFFA00232668310153
:100DB0008A19224410F803C01D460133DBB2BCF18E
:100DC000000F16D18A19A01805443A20FF1A28717D
:100DD00017F803C0DDB2BCF1000F0ED120232A4466
:100DE000033222440F2D15D8013502F8013FEDB230
:100DF000F8E7154485F804C0DCE70F2D05D89818EE
:100E0000204480F804C00133E2E700223144214449
:100E10000B441A71374804F01BFC0022294636485F
:100E200004F05AFC236803EB031222442A440025F1
:100E30000133172B1571236037D90A26A8464FF0C6
:100E400020092B4F284600F05FFA00232A0102EB0D
:100E5000050CA44410F803E019460133DBB2BEF1DF
:100E6000000F2ED14FF03A0C50192044014481F864
:100E700004C006EB0611214400EB030C9CF804E0CF
:100E8000BEF1000F21D1013BDBB2D9B20F2929D924
:100E90002A442244013513440E2D83F8048007F1BF
:100EA000110706F10106CDD12560FFF70BFA1148B5
:100EB00004F0CEFB21680022BDE8F8430F4804F09F
:100EC0000BBC614481F804E0C4E701EB030E092D7B
:100ED0008CBF9EF804E09EF805E001338CF804E036
:100EE000DBB2C9E7F91881F804900133CDE700BF00
:100EF00080080020356100089363000898630008AB
:100F00002DE9F047534C804620680E4600F0FCF96E
:100F1000002327683901CA19224410F803C01D466E
:100F20000133DBB2BCF1000F16D1CA19A018054479
:100F30002E71A8EB030818F803C0DDB2BCF1000F56
:100F40000ED120232A44033222440F2D15D8013517
:100F500002F8013FEDB2F8E7154485F804C0DCE77C
:100F60000F2D05D89818204480F804C00133E2E71B
:100F70000022394421440B441A71374804F068FBBD
:100F800000222946354804F0A7FB236803EB03122F
:100F900022442A4400250133172B1571236035D9CB
:100FA0000A27A9464FF0200ADFF8A880284600F05B
:100FB000ABF900232A0102EB050CA44410F803E06E
:100FC00019460133DBB2BEF1000F2BD1501920447A
:100FD00001440E7107EB0711214400EB030C9CF850
:100FE00004E0BEF1000F21D1013BDBB2D9B20F29E1
:100FF00029D92A442244013513440E2D83F8049044
:1010000008F1110807F10107D0D12560FFF75AF95F
:10101000114804F01DFB21680022BDE8F04710488C
:1010200004F05ABB614481F804E0C7E701EB030E0A
:10103000092D8CBF9EF804E09EF805E001338CF882
:1010400004E0DBB2C9E708EB030181F804A0013337
:10105000CCE700BF800800203561000893630008DA
:1010600098630008002384B00128009301D1009008
:1010700005E00228FBD003281BD112230093114B5B
:101080009A680192019A02929A6803920399029ACD
:10109000914204D35A6801990A4401320192039A99
:1010A0000292019A03980099121A8A42ECD304B072
:1010B0007047E4D9044B054A1B680338B3FBF2F3CD
:1010C0005843D4E710E000E08C02002040420F00BB
:1010D00007B50190019B13B903B05DF804FB4FF411
:1010E0007A70FFF7BFFF019B013B0193F2E700001D
:1010F00038B5684C684D204604F0AAFA29680022E9
:10110000664804F0E9FA204604F0A2FAA968002231
:10111000634804F0E1FA204604F09AFA29690022B3
:10112000604804F0D9FA204604F092FAA969002236
:101130005D4804F0D1FA204604F08AFA296A0022B8
:101140005A4804F0C9FA204604F082FAA96A00223B
:10115000574804F0C1FA204604F07AFA296B0022BD
:10116000544804F0B9FA204604F072FAA96B002240
:10117000514804F0B1FA204604F06AFA296C0022C2
:101180004E4804F0A9FA204604F062FAA96C002245
:101190004B484C4D04F0A0FA3220FFF799FF20464F
:1011A00004F056FA29680022474804F095FA2046D0
:1011B00004F04EFAA9680022444804F08DFA204653
:1011C00004F046FA29690022414804F085FA2046D5
:1011D00004F03EFAA96900223E4804F07DFA204658
:1011E00004F036FA296A00223B4804F075FA2046DA
:1011F00004F02EFAA96B0022384804F06DFA20465C
:1012000004F026FAA96A0022354804F065FA20465F
:1012100004F01EFA296B0022324804F05DFA2046E1
:1012200004F016FA296C00222F4804F055FA2F4DCD
:101230003220FFF74DFF204604F00AFA2968002209
:101240002B4804F049FA204604F002FAA96800226B
:10125000284804F041FA204604F0FAF929690022EE
:10126000254804F039FA204604F0F2F9A969002271
:10127000224804F031FA204604F0EAF9204B2148D4
:101280001968002204F028FABDE838403220FFF740
:101290001FBF00BF4A610008040000205161000820
:1012A0006461000882610008A1610008BE61000855
:1012B000DC610008F9610008176200083562000867
:1012C00053620008540100206B6200087F6200082E
:1012D00098620008A5620008B2620008BF620008B8
:1012E000CD620008DF620008F2620008F40000200E
:1012F0000F6300082B630008536300087563000840
:101300008C020020816300087FB500220A2680EA53
:10131000E071A1EBE07104ADD4B22A4491FBF6F583
:1013200006FB1511631C303102F8101C5BB2291E3C
:101330001A46F0DC002806DA04A90A442D21A31C71
:1013400002F8101C5BB2002204A919440A4C01F8EF
:10135000102CD0B2191A934249B204D10022064887
:10136000E25404B070BD04AD294411F8111CA1541D
:10137000421C52B2EDE700BF50070020F0B5002339
:101380000A2780EAE07485B0A4EBE07404AEDDB215
:10139000334494FBF7F607FB16446A1C303403F819
:1013A000104C52B2341E1346F0DC002806DA04A8B2
:1013B00003442D20AA1C03F8100C52B2002304A8E9
:1013C000104400F8103CDDB2541B9A4264B201EBA9
:1013D000030004D100230370084605B0F0BD04A843
:1013E000044414F8110CC8546B1C5BB2EBE700000A
:1013F000F0B500230A2780EAE0748BB0A4EBE07418
:101400000AAEDDB2334494FBF7F607FB16446A1CC0
:10141000303403F8284C52B2341E1346F0DC012A53
:10142000D8BF30220AAC2344CFBF002403F8282CB5
:10143000AA1C52B2C8BF03F8284C022A08DC0129B2
:1014400006D930240AAB1344013203F8284C52B2B7
:1014500000242E26234665B2AA420BDC002806DAB9
:101460000AA95A1C0B442D2103F8141C53B2002264
:10147000124C19E08B421D4605D10AAF01333D44A1
:101480005BB205F8146C1DF804700AAD1D440133FD
:1014900005F8147C5BB20134DDE70AAD294411F88C
:1014A000151CA154421C52B2D0B2191A9A4249B228
:1014B000F3D100230148A3540BB0F0BD6007002016
:1014C00000234FF00A0CF0B580EAE0758BB0A5EB75
:1014D000E0750AAFDEB23B4495FBFCF70CFB1755F9
:1014E000741C303503F8285C64B23D1E2346F0DCE2
:1014F000012CD8BF30240AAD2B44CFBF002503F800
:10150000284CB41C64B2C8BF03F8285C022C08DC69
:10151000012A06D930250AAB2344013403F8285C9C
:1015200064B200252E272B466EB2A6420ADB0028A5
:1015300006DA0AA85A1C03442D2003F8140C53B2EF
:1015400000221AE093421E4606D10DF1280C013309
:1015500066445BB206F8147C1DF805C00AAE1E4452
:10156000013306F814CC5BB20135DDE70AAD2C443B
:1015700014F8154C8C54421C52B2D0B21C1A9A4228
:1015800064B201EB0205F1D1002308462B700BB0C9
:10159000F0BD002802D0DCBF404200B270470023FB
:1015A000DAB2815C01330029FAD11046704770B578
:1015B000002465B2435D661C4BB958B20D5C181926
:1015C00040B2161801332DB93570104670BD535511
:1015D0003446EEE71554F0E7F0B500277CB2055D20
:1015E0007E1C8DB968B27E190C5CF6B270B2013502
:1015F0006CB9214648B2145C701840B21D18013114
:101600003CB92C701846F0BD1D553746E6E71C5412
:10161000E8E71C54EEE72DE9F04180464FF46160A5
:1016200086B00D46B8FBF0F001A9FFF7A7FE01A8B0
:10163000FFF7B5FF012896BF012200223023144690
:1016400098BF2B70E6B2B31A06A95BB20B4413F82D
:10165000141C2B19741C64B2002945D13A221A704B
:101660003C23B8FBF3F2B2FBF3F001A903FB10201B
:10167000FFF784FE01A8FFF792FF01289FBF3023E8
:101680002B55B41C64B22646F7B23B1B06AA5BB2CC
:10169000134413F8142CAB197E1C76B232BB3A22D9
:1016A0001A703C23B8FBF3F001A903FB1080FFF78D
:1016B00065FE01A8FFF773FF01289CBF3023AB55DF
:1016C0004FF000039CBFBE1C76B25AB206A90A4472
:1016D00012F8141CF21852B2A818013341B9017063
:1016E000284606B0BDE8F0811970ABE71A70CBE769
:1016F000A954EAE7F0B507464FF4616087B00D469C
:10170000B7FBF0F001A9FFF739FE01A8FFF747FF8B
:10171000012896BF012200223023144698BF2B7067
:10172000E6B2B31A06A95BB20B4413F8141C2B19CA
:10173000741C64B229BB3A221A703C23B7FBF3F73E
:10174000B7FBF3F001A903FB1070FFF717FE01A828
:10175000FFF725FF01289CBF30232B554FF00003D6
:101760009CBFB41C64B25AB206A90A4412F8141CF5
:10177000E21852B2A818013329B90170284607B0FF
:10178000F0BD1970CCE7A954EDE7000002460D4901
:101790004B6808688B608342C1E9002007DC9342F4
:1017A00003DC9042A8BF10467047834206DB90429C
:1017B00004DC9342A8BF1346184670479842A8BF5E
:1017C000184670471407002002460D494B68086808
:1017D0008B608342C1E9002007DC934203DC904226
:1017E000A8BF10467047834206DB904204DC934258
:1017F000A8BF1346184670479842A8BF18467047BE
:101800002007002002460D494B6808688B60834220
:10181000C1E9002007DC934203DC9042A8BF1046D8
:101820007047834206DB904204DC9342A8BF134614
:10183000184670479842A8BF184670472C070020EA
:1018400002460D494B6808688B608342C1E900205D
:1018500007DC934203DC9042A8BF104670478342E6
:1018600006DB904204DC9342A8BF1346184670473B
:101870009842A8BF184670473807002002460D4915
:101880004B6808688B608342C1E9002007DC934203
:1018900003DC9042A8BF10467047834206DB9042AB
:1018A00004DC9342A8BF1346184670479842A8BF6D
:1018B00018467047440700207047704770477047CC
:1018C00070470000014B1868704700BF4C020020B1
:1018D000094B10B598420DD060B1084A084C126807
:1018E00020600AB11830904723681B6913B1BDE826
:1018F0001040184710BD00BF9C630008740700200B
:101900004C020020024B1860024B1868FFF7E0BF42
:10191000740700204C020020044B054A1B689342C8
:1019200003D013B15B6903B1184770474C02002024
:101930009C6300084FF4804310B5064C02202361DD
:10194000FFF790FB4FF0804302202361BDE8104079
:10195000FFF788BB000C014070B54FF07C454FF499
:1019600080560D4C25612661FFF7E4FF0120FFF74B
:10197000AFFB25612661FFF7DDFF0120FFF7A8FB24
:101980004FF4806325612361FFF7D4FFBDE8704009
:101990000120FFF79DBB00BF000C01404FF07C42CF
:1019A000244B70B504461A610E4611B14FF4004243
:1019B0001A61E20644BF4FF400521A6114F0200F7E
:1019C00018BF4FF480521B4B18BF1A61650644BF05
:1019D0004FF400621A6114F0800F18BF4FF4806357
:1019E000144D18BF2B61FFF7A5FF4FF07053E007B0
:1019F0002B6144BF4FF400532B61A10742BF4FF44A
:101A000080520C4B1A61620742BF4FF40062094BCF
:101A10001A61230742BF4FF48062064B1A61FFF739
:101A200089FF0220FFF754FB1EB14FF00042014B2B
:101A30001A6170BD000C0140C00040F0400038B594
:101A400000F0F8000C460021FFF7A8FF651E0734E0
:101A500015F8010F0121FFF7A1FFA542F8D1BDE85C
:101A6000384000218020FFF799BF000073B51F4C5C
:101A70001F4D69460020CDE900451E4EFFF7DCFFF3
:101A80001D4B69460120CDE90036FFF7D5FF1B4B02
:101A90006946CDE900350220194DFFF7CDFF6946B3
:101AA0000320CDE90056FFF7C7FF69460420CDE9C2
:101AB0000054FFF7C1FF134A134B69460520CDE9D7
:101AC0000023FFF7B9FF114B11490620CDE90013A0
:101AD0006946FFF7B1FF0F4B0F486946CDE9000398
:101AE0000720FFF7A9FF02B070BD00BF04150E0468
:101AF00000041F1F0000041F150E040000040E1533
:101B0000040E15040207070A0A1C1C080515090023
:101B10000F050505010101001111111F064A107082
:101B2000064A117019B940F08000FFF737BF002155
:101B300040F0C000F9E700BF7807002079070020D7
:101B400070B50D460446C64314F8010B00B970BDCC
:101B50000121FFF723FF012DF6D13319DBB2072B4B
:101B6000F2D129460020FFF7D9FFEDE70121C0B2ED
:101B7000FFF714BF2DE9F8430F46DFF878801B4CC0
:101B80001B4E451E15F8010F08B9BDE8F883B228B1
:101B900019D101214920FFF701FF237896F8009021
:101BA0000133DBB22370B9F1000FEBD1082BE9D17F
:101BB000022FE7D101214846FFF7B0FF012384F847
:101BC00000903370DEE7AF2802D101210320E2E765
:101BD000AA2802D101210220DDE7BF2889BF4044A5
:101BE0000121012110F8C00CD5E700BF78070020C3
:101BF000790700205002002000210120FFF7CEBE0F
:101C000008B56420FFF764FAFFF7A6FE00210E2056
:101C1000FFF7C4FEBDE80840FFF7EEBF0221FFF763
:101C2000A9BF10B5044608461146FFF777FF2046C6
:101C3000BDE810400221FFF79DBF08B5FFF7E0FFA8
:101C4000FFF7DAFFBDE8084000210C20FFF7A6BE31
:101C5000054B82B0DA690243DA61DB691840019012
:101C6000019B02B0704700BF00100240054B82B0DC
:101C70009A6902439A619B6918400190019B02B0E6
:101C8000704700BF001002400022014B1A807047CD
:101C9000EA07002008B5FEF79BFEBDE808400148B2
:101CA000FFF77CB8CD63000810B53B4C94F90010E9
:101CB00061B90846FFF732FF3848FFF7AFFF4FF42E
:101CC0008762374B9A6140F2B4521A6294F900303D
:101CD000012B0DD100210846FFF720FF3148FFF707
:101CE0009DFF4FF496722E4B9A614FF4D2721A6296
:101CF00094F90030022B0DD100210846FFF70EFFAA
:101D00002948FFF78BFF4FF48C72254B9A614FF4F3
:101D1000B9721A6294F90030032B0CD100210846E5
:101D2000FFF7FCFE2148FFF779FFA0221C4B9A61C8
:101D30004FF48C721A6294F90030042B0DD10021FB
:101D40000846FFF7EBFE1A48FFF768FF4FF44872AA
:101D5000134B9A614FF4AA621A6294F90030052B72
:101D60000CD100210846FFF7D9FE1248FFF756FFB5
:101D700064220B4B9A614FF4FA621A6294F90030B4
:101D8000062B04BF00232370FEF758FEBDE8104069
:101D90004FF41670FFF79CB9930700208B6500087D
:101DA000540100209C650008AD650008BE65000870
:101DB000CF650008E0650008FEF740BE08B50121C8
:101DC0000720FFF7ABFE0121FF20FFF7E7FDFEF73D
:101DD00035FE044BC8209A68034B1A60BDE80840E2
:101DE000FFF776B954010020240A002008B501212C
:101DF0000720FFF793FE0121FF20FFF7CFFDFEF73D
:101E00001DFE044BC8201A6C034B1A60BDE8084045
:101E1000FFF75EB9540100201C0A002018B100220F
:101E20001146FFF7FEBE704749F6AF2310B50E4CC2
:101E300090B022689A4215D90C4B0BA91868FFF78D
:101E400059FC4FF46163206801A9B0FBF3F0FFF780
:101E500095FA074906AB0BAAFFF7BEFB022106A8BD
:101E6000FFF74EF810B010BD800700209807002043
:101E7000DD64000810B5164C90B0164803F0E8FB7E
:101E800000222168144803F027FC49F6AF2322689A
:101E90009A421BD9114B0BA91868FFF72BFC4FF482
:101EA0006163206801A9B0FBF3F0FFF767FA06ABA6
:101EB0000BAA0B49FFF790FB012106A8FFF720F8BA
:101EC000044803F0C5FB06A803F058FB10B010BD92
:101ED0007C07002035610008796400088C07002029
:101EE000DD64000808B501210720FFF717FEBDE8F3
:101EF00008400121FF20FFF751BD000070B54FF0F1
:101F0000007191FAA1F1B1FA81F3104C00F0007167
:101F1000D94054F8215000F0F8704FF0F87292FA5E
:101F2000A2F3B3FA83F392FAA2F20726B2FA82F28C
:101F300020FA03F306FA03F3D04025EA030306FA76
:101F400000F0184344F8210070BD00BF0C2401408C
:101F500030B54FF4407393FAA3F34FF40072B3FA21
:101F600083F31F24074DDA4055F8223000F01F009C
:101F7000844001F01F0123EA04038140194345F81E
:101F8000221030BD2C24014000207047002310B5E2
:101F900096B00446084611A98DF804208DF8053046
:101FA000FFF7A8FB4FF4616002A9B4FBF0F0FFF764
:101FB000E5F907AB11AA0749FFF70EFB0CAA07A921
:101FC00001A8FFF7F4FA04210CA8FEF799FF16B058
:101FD00010BD00BFDD640008022838B51F4C204D3D
:101FE0002AD123882A6801331BB29342238001D36C
:101FF0000023238000210846FFF790FD2868B4F9EC
:1020000000300138C01A00EB001004302844FFF7FC
:1020100005FE144803F01CFBB4F90010002212481E
:1020200003F05AFB0F4803F013FB29680022BDE8B8
:1020300038400E4803F050BB0128DBD12388013B18
:102040001BB2002B2380BEBF2B6803F1FF3323801C
:10205000B4F90030002BCDDACAE700BFEA07002050
:102060008008002035610008E1640008EE64000883
:10207000002110B504460846FFF750FD0A4B1888AA
:1020800000B2FFF741F9FFF7C9FD0848FFF7C6FDA9
:10209000022C08D1BDE81040054B064A1B881BB234
:1020A0009360FEF795BC10BD620800203164000803
:1020B000B202002004000020002110B504460846AA
:1020C000FFF72CFD0A4B188800B2FFF71DF9FFF748
:1020D000A5FD0848FFF7A2FD022C08D1BDE810407D
:1020E000054B064A1B881BB21361FEF771BC10BD7D
:1020F0006208002031640008B402002004000020BF
:10210000002110B504460846FFF708FD1F48FFF7F9
:1021100085FD022C30D1FEF733FDFEF715FC0021C2
:1021200004460846FFF7FAFC1948FFF777FD4FF41D
:10213000FA60FEF7CDFF00210846FFF7EFFC012C07
:102140001BD11448FFF76AFD1348FEF727FE4FF432
:10215000FA60FEF7BDFF114B1A69114B1A604FF47C
:102160006162104B19694A430F490A6099680F4A26
:1021700011601A6C0E4B1A6010BD0E48FFF74EFD31
:10218000BDE810404FF47A60FEF7A2BFD9630008A3
:10219000EA630008FB6300080C640008F4000020F8
:1021A0008407002054010020200A0020240A002077
:1021B0001C0A00201B640008022810B50E4C15D123
:1021C00023690133236100210846FFF7A7FC20693A
:1021D000FFF79AF8FFF722FD0848FFF71FFD4FF4BD
:1021E000616322695343064A136010BD0128EAD196
:1021F0002369013BE6E700BF54010020F7650008B2
:10220000200A002010B5304C022894F9003052D139
:1022100001335BB2072B08BF0023237094F9001031
:1022200029B90846FFF77AFC2848FFF7F7FC94F92C
:102230000030012B06D100210846FFF76FFC24482F
:10224000FFF7ECFC94F90030022B06D10021084680
:10225000FFF764FC1F48FFF7E1FC94F90030032B03
:1022600006D100210846FFF759FC1B48FFF7D6FCB2
:1022700094F90030042B06D100210846FFF74EFCEC
:102280001648FFF7CBFC94F90030052B06D100214E
:102290000846FFF743FC1248FFF7C0FC94F90030F2
:1022A000062B10D100210846FFF738FCBDE810408E
:1022B0000C48FFF7B3BC0128B0D1013B5BB2002B47
:1022C000B8BF0623A9E710BD9307002016650008D4
:1022D00027650008396500084A6500085A65000846
:1022E0006B6500087B650008022810B50D4C14D101
:1022F000A3690A33A36100210846FFF70FFC0A23F4
:10230000A0690121B0FBF3F0FFF772F8FFF786FC3C
:10231000BDE810400448FFF781BC0128EBD1A36958
:102320000A3BE7E754010020A8650008022810B521
:102330000D4C14D1236A0A33236200210846FFF7AB
:10234000EDFB0A23206A0121B0FBF3F0FFF750F800
:10235000FFF764FCBDE810400448FFF75FBC0128AC
:10236000EBD1236A0A3BE7E754010020A865000887
:10237000022810B50B4C10D1A36A0133A3620021CF
:102380000846FFF7CBFBA06AFEF7BEFFFFF746FC4F
:10239000BDE810400448FFF741BC0128EFD1A36A13
:1023A000013BEBE754010020A6660008022810B5A7
:1023B0000B4C10D1236B0133236300210846FFF738
:1023C000ADFB206BFEF7A0FFFFF728FCBDE8104037
:1023D0000448FFF723BC0128EFD1236B013BEBE757
:1023E00054010020A6660008022838B51A4C2DD1E9
:1023F000A36B0133A36300210A250846FFF78EFB78
:10240000A06BFEF781FFFFF709FC1448FFF706FCFD
:10241000206A0121B0FBF5F0FEF7EAFFFFF7FEFBB3
:102420000F48FFF7FBFB6422236AA06B012158438E
:10243000B0FBF2F0181AB0FBF5F0FEF7D9FFFFF78A
:10244000EDFBBDE838400748FFF7E8BB0128D2D1D3
:10245000A36B013BCEE700BF54010020F1650008EB
:10246000F4650008A8650008044B9A68044B1B68D3
:102470009A4201D1FFF736BD704700BF54010020DA
:10248000240A0020044B1A6C044B1B689A4201D1A9
:10249000FFF728BD704700BF540100201C0A002030
:1024A000002110B504460846FFF738FB022C174BF5
:1024B0000FD19A680132082A08BF01229A609A68EF
:1024C000013A062A1FD8DFE802F00B121416181A78
:1024D0001C00012CF3D19A68013A08BF0722EDE7EE
:1024E0000B48FFF79BFBBDE81040FFF7BDBF094855
:1024F000F7E70948F5E70948F3E70948F1E709482C
:10250000EFE70948EDE701229A6010BD5401002071
:102510002F660008406600085166000862660008E1
:10252000736600088466000895660008002110B5EF
:1025300004460846FFF7F2FA022C124B13D11A6C2C
:102540000132042A08BF01221A641A6C022A11D02F
:10255000032A11D0012A11D10B48FFF75FFBBDE818
:102560001040FFF78FBF012CEFD11A6C013A08BF62
:102570000322E9E70548F0E70548EEE701221A647F
:1025800010BD00BF54010020FC6500080D66000866
:102590001E660008154B16499A6812F0100F0CD0F1
:1025A0009A68900616D59A68520615D59B68DB4343
:1025B00013F0800312D10B807047032240F2DC50ED
:1025C000B1F9003083420BDD40F2B4530B80094B6C
:1025D0001A700AE00222F1E70122EFE70422EDE798
:1025E00001331BB2142B0B80F1D07047000C01405B
:1025F000E8070020EC070020044B187810B10021F8
:10260000034A116000221A70704700BFEC070020D7
:10261000A40700200022034B1A600122024B1A700B
:10262000704700BFD8070020AA07002038B504462D
:102630004FF46160B4FBF0F0FEF766FE0546FEF76E
:10264000AEFF012803D801211148FFF779FA0121D3
:102650002846FFF775FA01210E48FFF771FA3C236F
:10266000B4FBF3F4B4FBF3F003FB1040FEF74CFEB5
:102670000446FEF794FF012803D801210448FFF720
:102680005FFA2046BDE838400121FFF759BA00BF84
:10269000CB630008556400084FF48032064B1A6182
:1026A0004FF08072A3F580631A610023034A137010
:1026B000034A1370704700BF000C0140A2070020BE
:1026C000A90700200123054A1361054A1370054A32
:1026D00013704FF48072044B1A617047000C014074
:1026E000A2070020A907002000080140094908B5F9
:1026F0000B68022B03D1FFF7E5FF01230B600B688A
:10270000032B06D1044B9869012802D1FFF7DAFFA9
:10271000086008BD74020020F400002000212DE9AB
:10272000F0410126294B2A4D074608461E70FFF747
:10273000F5F92B78274C03F0FF083BBB264B022111
:102740001888FEF755FEFFF769FA2448FFF766FA86
:1027500041460720FFF7E2F9208800B2FEF7D4FDDA
:10276000FFF75CFA1E48FFF759FA05203146FFF7DC
:10277000D5F91C48FFF752FA022F03D12B7813BB6F
:10278000FFF7A0FFBDE8F041FFF7B0BF164B0221F5
:102790001888FEF72DFEFFF741FA1048FFF73EFAC2
:1027A00000210720FFF7BAF9208800B2FEF7ACFD40
:1027B000FFF734FA0D48FFF731FA06203146FFF7EC
:1027C000ADF90B48D6E7FFF767FFDBE7A00700206E
:1027D000A2070020620800207C0800200165000894
:1027E00005650008BE630008760800200B65000838
:1027F000126500080122164B10B51A70FFF762FF30
:102800000228144C1ED1A3690133A361002108469C
:10281000FFF784F9A069FEF777FDFFF7FFF90E488F
:10282000FFF7FCF901210020FFF778F90B4B18881E
:1028300000B2FEF769FDFFF7F1F9BDE81040084866
:10284000FFF7ECB90128E1D1A369013BDDE700BF47
:10285000A0070020040000201A660008620800207B
:102860002C6400080122164B10B51A70FFF72AFFDE
:102870000228144C1ED1A36A0133A362002108462A
:10288000FFF74CF9A06AFEF73FFDFFF7C7F90E48C6
:10289000FFF7C4F901210020FFF740F90B4B02219B
:1028A0001888FEF7A5FDFFF7B9F9BDE81040084804
:1028B000FFF7B4B90128E1D1A36A013BDDE700BF0E
:1028C000A0070020040000201A6600087C080020F1
:1028D000016500080122164B10B51A70FFF7F2FED1
:1028E0000228144C1ED1236B0133236300210846B8
:1028F000FFF714F9206BFEF707FDFFF78FF90E487D
:10290000FFF78CF901210020FFF708F90B4B02219A
:102910001888FEF76DFDFFF781F9BDE81040084803
:10292000FFF77CB90128E1D1236B013BDDE700BF54
:10293000A0070020040000201A6600087608002086
:10294000016500080122164B10B51A70FFF7BAFE98
:102950000228144C1ED1A36B0133A3630021084647
:10296000FFF7DCF8A06BFEF7CFFCFFF757F90E4836
:10297000FFF754F901210020FFF7D0F80B4B02219B
:102980001888FEF735FDFFF749F9BDE81040084803
:10299000FFF744B90128E1D1A36B013BDDE700BF9C
:1029A000A0070020040000201A660008600800202C
:1029B000016500080122F8B5294B2A4E1A70FFF76D
:1029C00081FE02282ED1338801333380002108464E
:1029D000FFF7A4F802213088FEF70AFD224F234CAE
:1029E000FFF71CF92248FFF719F93B8822889BB2B0
:1029F00012B2002A1F4D1ADC46232B64286CFEF706
:102A000083FCFFF70BF91C48FFF708F91B4B1B88E9
:102A10003A8821889BB209B2002992B214DC0A23B9
:102A2000AB64F8BD0128D1D13388013BCDE73288B2
:102A300021889B1A42F210721BB223EAE3735343BC
:102A400009B293FBF1F3D8E79B1A42F210721BB262
:102A500023EAE3735343218809B293FBF1F3DFE7E1
:102A6000A007002078020020B602002062080020A3
:102A7000F465000804000020406400087C08002081
:102A80000222064B1A610123054A1370054A13708E
:102A90004FF40062044B1A61704700BF000C014004
:102AA000A2070020A80700200008014008B5FFF792
:102AB000F3FDFFF7E5FFBDE808403220FEF708BB55
:102AC00038B501220546154B154C1A70FFF7EEFF7D
:102AD000022D1ED1236A0133236200210846FFF72D
:102AE0001DF8206AFEF710FCFFF798F80D48FFF775
:102AF00095F801210020FFF711F80B4B188800B260
:102B0000FEF702FCFFF78AF8BDE838400748FFF7F8
:102B100085B8012DE1D1236A013BDDE7A007002044
:102B2000040000201A660008620800202C640008D7
:102B300008B50D4B93F90020022A13D002221A7017
:102B4000FFF7AAFDFFF79CFF0022084B32201A6016
:102B5000FEF7BEFA064802F07BFDBDE808400548D6
:102B600002F00CBD08BD00BF8A070020D40700207A
:102B7000356100082D7200084FF40032074B1A61CE
:102B80000023074A1370074A13704FF0006203F1E5
:102B9000804303F584331A61704700BF000C014085
:102BA000A2070020A80700200122234B022810B50D
:102BB0001A70224C03D1237873BBFFF761FF002109
:102BC0000846FEF7ABFF1E4B02211888FEF710FCEB
:102BD000FFF724F81B48FFF721F81B4B188800B2B9
:102BE000FEF792FBFFF71AF81848FFF717F823785B
:102BF0000121174C062093B9FEF790FF0121022016
:102C0000FEF7B4FF01210220FEF7B0FF23780A2B64
:102C100084BF0023237010BDFFF7AEFFCFE72378FA
:102C2000052BE9D9FEF77AFF01210320FEF79EFF6D
:102C300001210320E8E700BFA0070020A207002031
:102C400076080020F4650008620800200B65000883
:102C50008907002000212DE9F04101262C4B2D4D44
:102C6000074608461E70FEF759FF2B782A4C03F0E2
:102C7000FF083BBB294B02211888FEF7B9FBFEF782
:102C8000CDFF2748FEF7CAFF41460720FEF746FF63
:102C9000208800B2FEF738FBFEF7C0FF2148FEF7A0
:102CA000BDFF05203146FEF739FF1F48FEF7B6FF8E
:102CB000022F2AD12B7813BBFFF704FDBDE8F041AA
:102CC000FFF7DEBE194B02211888FEF791FBFEF7D5
:102CD000A5FF1348FEF7A2FF00210720FEF71EFF05
:102CE000208800B2FEF710FBFEF798FF1048FEF7B1
:102CF00095FF06203146FEF711FF0E48D6E7FFF795
:102D0000CBFCBDE8F041FFF737BFBDE8F08100BF65
:102D1000A0070020A2070020620800207C080020F5
:102D20000165000805650008BE63000876080020FC
:102D30000B6500081265000808B5FFF71DFFFFF7D7
:102D4000C1FCBDE808403220FEF7C2B908B50D4B02
:102D500093F90020012A13D001221A70FFF70CFF0B
:102D6000FFF7B0FC0022084B32201A60FEF7B0F9E2
:102D7000064802F06DFCBDE80840054802F0FEBBC5
:102D800008BD00BF8A070020D40700203561000875
:102D9000307200082DE9F04FBC4A87B013780190DB
:102DA00003F0FF040292DFF844A3DFF844B3DFF836
:102DB0004493B74FDFF84083B64D002B3DD1B64B5F
:102DC0001A88B64B1B6A0533934215D92146204613
:102DD000FEF7A4FEB248FEF721FF4FF4FA60FEF7BB
:102DE00077F921462046FEF799FEAE48FEF716FF1A
:102DF00040F6B830FEF76CF901260024029B1E70E5
:102E0000A94B8AF800408BF80040C9F800403C60AC
:102E10001C60C8F800402C608AF80060FFF796FF3D
:102E2000A24B214620461E70FEF778FEA048FEF712
:102E3000F5FE4FF47A70FEF74BF99E4C208800B2F5
:102E4000FEF7A7FB0528049440F3D1819A4B934EDB
:102E50001A88B1690393914220D9944C2278022AAE
:102E60001CD1964B1B68B3F57A7F17D900238BF8DA
:102E700000302968924B994203D928683968FFF7D6
:102E800085F80023C9F80030C8F8003001238AF81B
:102E900000300593FFF75AFF059B2370039B326AAE
:102EA0001B889A4208D2814B1B78012B04D1834B9B
:102EB0001B68B3F57A7F09D8824BD9F800201B68CC
:102EC0009A4223D9794B1B78012B1FD100238AF812
:102ED0000030D8F800207A4B9A4206D9D8F8000082
:102EE0000122D9F80010FFF751F83A686E4B1A60CA
:102EF0002A68754B9A6000233B602B6001238BF896
:102F00000030FFF715FE0222684B1A70019A6F4CD1
:102F1000022A94F9003040F0598101335BB2052B4D
:102F200008BF0023237094F90030002B32D11946DA
:102F300018460193FEF7F2FD039B02211888FEF765
:102F400057FAFEF76BFE6248FEF768FE049B18888E
:102F500000B2FEF7D9F9FEF761FE5E48FEF75EFEAD
:102F600001210620FEF7DAFD01210420FEF7FEFD17
:102F7000594A019B1278012A40F0328111460720FC
:102F800003930192FEF7CAFD019A039B114618466E
:102F9000FEF7ECFD94F90030012B28D10021084602
:102FA0000193FEF7BBFD3069FEF7AEF9FEF736FE82
:102FB0004A48FEF733FE0A22019BB0691946B0FB6E
:102FC000F2F003930192FEF713FAFEF727FE404852
:102FD000FEF724FE039B019A306A1946B0FBF2F01B
:102FE000FEF706FAFEF71AFE3D48FEF717FE94F9C3
:102FF0000060022E21D100210846FEF78FFD01213D
:103000003046FEF7B3FD00210120FEF787FD35486D
:10301000FEF704FE4FF461632868B0FBF3F0FEF79F
:1030200073F9FEF7FBFD3048FEF7F8FD03200121A0
:10303000FEF774FD3868FFF7F9FA94F90060032E83
:103040005CD100210846FEF769FD01210020FEF752
:103050008DFD00210120FEF761FD2248FEF7DEFD17
:103060004FF46163D8F80000B0FBF3F0FEF74CF9C1
:10307000FEF7D4FD1C48FEF7D1FD30460121FEF7D6
:103080004DFDD9F80000FFF7D1FA37E0A007002086
:1030900098070020800700207C08002054010020B1
:1030A000B7660008C86600089C0700207002002070
:1030B000D96600086208002076080020D4070020A6
:1030C0004F8C0500200A0020F4000020910700200A
:1030D000F4650008EA660008A90700209A5E000867
:1030E000EA6500081C660008F26600088B070020ED
:1030F000940700208C0700207C07002094F9003002
:10310000042B23D100210846FEF708FD01210220EF
:10311000FEF72CFD00210120FEF700FD3A48FEF7E6
:103120007DFD3A4B98684FF46163B0FBF3F0FEF716
:10313000EBF8FEF773FD3648FEF770FD0320012122
:10314000FEF7ECFC334B1868FFF770FA324802F0D8
:103150007FFA029B00221978304802F0BDFA2E480F
:1031600002F076FA9AF8001000222D4802F0B4FA24
:10317000294802F06DFAD9F800100022294802F01F
:10318000ABFA254802F064FAD8F80010002226486D
:1031900002F0A2FA204802F05BFA9BF8001000222D
:1031A000224802F099FA1C4802F052FA39680022CB
:1031B0001F4802F091FA184802F04AFA00222968E2
:1031C0001C4807B0BDE8F04F02F086BA019A012A08
:1031D0007FF4A9AE013B5BB2002BB8BF0423A1E68C
:1031E00001210720FEF79AFC01210220D0E6124BB4
:1031F0001B68B3F57A7FA9D900210846FEF78EFC3B
:103200000E48FEF70BFDA1E7FC660008F400002065
:10321000FF6600089C070020356100081967000858
:103220002E67000843670008536700086B670008B3
:103230008367000896670008D40700200867000825
:103240000021F8B506460846FEF768FC0122664BE9
:103250001A70664B197811B91A70FFF7DBF9644DD3
:10326000644C2B68A26A9A4211D3FFF76FFD624B40
:10327000226A1B889A420AD2604B1B68B3F5C87F4A
:1032800005D9FFF7C7F92B68A26A13442B602B6896
:10329000A26A9A420DD2FFF74BFC574BA2691B88DA
:1032A0009A4206D9554B1B68B3F5C87F01D9FFF781
:1032B000B1F9A36A216B2A680B44934201D2FFF74C
:1032C000A9F94F4D022E95F900307DD101335BB243
:1032D000032B08BF00232B7095F900605EBB3146BD
:1032E0003046FEF71BFC444B02211888FEF780F89D
:1032F000FEF794FC4348FEF791FC434B188800B25C
:10330000FEF702F8FEF78AFC4048FEF787FC012131
:103310000620FEF703FC01210520FEF727FC3C4BAD
:103320001F78012F58D139460720FEF7F7FB3946A1
:103330003046FEF71BFC95F90060012E22D10021DA
:103340000A270846FEF7EAFB2069FDF7DDFFFEF7D6
:1033500065FC3048FEF762FCA0693146B0FBF7F02F
:10336000FEF746F8FEF75AFC2648FEF757FC206A9F
:103370003146B0FBF7F0FEF73BF8FEF74FFC26486E
:10338000FEF74CFC95F90030022B2CD100210846A9
:10339000FEF7C4FBA06AFDF7B7FFFEF73FFC1F482E
:1033A000FEF73CFC206BFDF7AFFFFEF737FC1C4837
:1033B000FEF734FC03200121FEF7B0FB194B18681F
:1033C000BDE8F840FFF732B9012E85D1013B5BB271
:1033D000002BB8BF02237EE701210720FEF79EFBEA
:1033E00001210220A5E7F8BDA0070020A1070020C9
:1033F000D80700205401002076080020D4070020C0
:1034000091070020F465000862080020EA660008C1
:10341000A90700209A5E0008EA6500088D6400088C
:10342000AF6600089807002008B5FFF7A5FBBDE8C8
:103430000840FFF731B9000001222DE9F84F964E00
:10344000964B347882461A709846954DDFF8C092B4
:10345000944F2CBB944B1A88944B1B6A05339342B0
:1034600015D921462046FEF759FB9148FEF7D6FBB9
:103470004FF4FA60FDF72CFE21462046FEF74EFB86
:103480008C48FEF7CBFB40F6B830FDF721FE002359
:10349000894A2B7089F80030136001223B6032703A
:1034A000864B3A681B689A4205D8854B7F4A1B8831
:1034B000126A9A4203D2FFF7B7FF00232B70FFF77F
:1034C00015F9BAF1020F7F4C40F0BD807E4B1B789E
:1034D000002B40F0B480FFF72FFC01232B7094F9F0
:1034E0000010A1BB0846FEF719FB774BDFF8D0A10F
:1034F0001A789B46002A40F0B2806B4B0221188854
:10350000FDF776FFFEF78AFB7048FEF787FB022186
:10351000BAF80000FDF76CFFFEF780FB6C48FEF781
:103520007DFB9BF80030DFF8ECA101210720002B88
:1035300040F0A880FEF7F2FA01210020FEF716FB0A
:103540009AF800300A2B84BF00238AF8003094F9DF
:1035500000A0BAF1010F1ED10021DFF850B10846DA
:10356000FEF7DCFA5B48FEF759FBDBF81000FDF7CD
:10357000CBFEFEF753FB5848FEF750FB0A23DBF85F
:1035800020005146B0FBF3F0FDF732FFFEF746FB9B
:103590005248FEF743FB94F90030022B1AD1002168
:1035A0000846FEF7BBFA4E48FEF738FB424B186858
:1035B0004FF46163B0FBF3F0FDF7A6FEFEF72EFBC0
:1035C0004848FEF72BFB03200121FEF7A7FA3868D5
:1035D000FFF72CF8444802F03BF8317800224348CA
:1035E00002F07AF8404802F033F898F80010002210
:1035F0003F4802F071F83C4802F02AF8297800228E
:103600003C4802F069F8384802F022F83968002294
:10361000394802F061F8344802F01AF899F80010BD
:103620000022364802F058F82F4802F011F8344BC7
:10363000002219683348BDE8F84F02F04DB8FFF793
:10364000F3FE00234AE7BAF1010F7FF448AF237875
:10365000013B5BB2002BB8BF022323703FE702217E
:10366000BAF80000FDF7C4FEFEF7D8FA1748FEF7D7
:10367000D5FA254B188800B2FDF746FEFEF7CEFAC4
:1036800022484CE79AF80030052B7FF653AFFEF73F
:1036900045FA0121084651E7A1070020A0070020B4
:1036A0008B0700208C0700207C080020540100209C
:1036B000B7660008C86600087C070020200A0020C2
:1036C0007608002091070020A2070020F46500087A
:1036D000EA6500085464000857640008A8650008FB
:1036E0005F64000862640008356100086B640008CC
:1036F000196700082E670008436700086B67000819
:10370000980700208367000862080020EA66000826
:10371000940700208907002001222DE9F84FBA4EB6
:10372000BA4B357882461A709846B94CDFF85093F8
:10373000B84F2DBBB84B1A88B84B1B6A0533934260
:1037400015D929462846FEF7E9F9B548FEF766FA85
:103750004FF4FA60FDF7BCFC29462846FEF7DEF977
:10376000B048FEF75BFA40F6B830FDF7B1FC002335
:10377000AD4A237089F80030136001223B6032703B
:10378000AA4B3A681B689A4240F2FB80FFF74CFE56
:1037900000232370FEF7AAFFBAF1020FA44D40F0F8
:1037A0000981A44B1B78002B40F00081FFF7C4FA7D
:1037B0000123237095F90010A1BB0846FEF7AEF96E
:1037C0009C4BDFF8B0A21A789B46002A40F0FE809E
:1037D000914B02211888FDF70BFEFEF71FFA964861
:1037E000FEF71CFA0221BAF80000FDF701FEFEF711
:1037F00015FA9248FEF712FA9BF80030DFF884A21F
:1038000001210720002B40F0F480FEF787F9012109
:103810000020FEF7ABF99AF800300A2B84BF002392
:103820008AF8003095F900A0BAF1010F1ED10021ED
:10383000DFF8E8B10846FEF771F98148FEF7EEF9C6
:10384000DBF81000FDF760FDFEF7E8F97D48FEF7B4
:10385000E5F90A23DBF820005146B0FBF3F0FDF751
:10386000C7FDFEF7DBF97548FEF7D8F995F900308A
:10387000022B2FD100214FF00A0ADFF8A0B1084631
:10388000FEF74CF9DBF83800FDF73EFDFEF7C6F910
:103890006D48FEF7C3F9DBF820000121B0FBFAF018
:1038A000FDF7A6FDFEF7BAF96348FEF7B7F9642203
:1038B000DBF82030DBF8380001215843B0FBF2F090
:1038C000181AB0FBFAF0FDF793FDFEF7A7F95B4875
:1038D000FEF7A4F995F90050032D1AD100210846EE
:1038E000FEF71CF95948FEF799F94F4B18684FF449
:1038F0006163B0FBF3F0FDF707FDFEF78FF9544865
:10390000FEF78CF928460121FEF708F93868FEF722
:103910008DFE6420FDF7DCFB4E4801F099FE317806
:1039200000224D4801F0D8FE4A4801F091FE98F877
:1039300000100022494801F0CFFE464801F088FE01
:1039400021780022464801F0C7FE424801F080FE7F
:1039500039680022434801F0BFFE3E4801F078FE7E
:1039600099F800100022404801F0B6FE394801F0F5
:103970006FFE3E4B002219683D48BDE8F84F01F04C
:10398000ABBE3C49254A0888136A8342FFF4FEAE69
:103990006420926B09885A43B2FBF0F29B1A8B4267
:1039A0007FF6F8AEFFF7C8F90123F2E6FFF73CFD1A
:1039B0000023FEE6BAF1010F7FF4FCAE2B78013B49
:1039C0005BB2002BB8BF03232B70F3E60221BAF8D9
:1039D0000000FDF70DFDFEF721F91748FEF71EF96F
:1039E000254B188800B2FDF78FFCFEF717F9234826
:1039F00000E79AF80030052B7FF607AFFEF78EF848
:103A00000121084605E700BFA1070020A00700200C
:103A10008B0700208C0700207C0800205401002028
:103A2000B7660008C86600087C070020200A00204E
:103A300091070020A2070020F4650008A86500088F
:103A40005464000857640008F16500085F640008CA
:103A5000FF660008356100086B64000819670008FC
:103A60002E670008436700086B670008980700206E
:103A70008367000876080020620800204B64000875
:103A8000940700208907002001212DE9F8438A4D81
:103A90008A4E2B7831708A4A4BB929708949137044
:103AA0000B7089490B7089490B6089490B60894FFC
:103AB00089493B889BB20B8088498C698846A34220
:103AC000C0F0F180002313708549864B09681B689C
:103AD000DFF8F4915B1A032B06D9137823B1FFF7B3
:103AE000A3FC002389F8003002287F4C40F0C780F7
:103AF0007E4B1B78002B40F0BE80FEF7D7FF0123E2
:103B000089F8003094F9001041BB0846FEF706F82A
:103B100002213888FDF76CFCFEF780F87448FEF748
:103B20007DF8744B744F188800B2FDF7EDFBFEF77B
:103B300075F87248FEF772F86C4B01211B7807206C
:103B4000002B40F0A780FDF7E9FF01210220FEF7DE
:103B50000DF83B780A2B84BF00233B7094F900706A
:103B6000012F13D100210846FDF7D8FF6448FEF766
:103B700055F80A23D8F818003946B0FBF3F0FDF7E2
:103B800037FCFEF74BF85F48FEF748F894F9003031
:103B9000022B1BD100210846FDF7C0FF5A48FEF753
:103BA0003DF85A4B98684FF46163B0FBF3F0FDF7B2
:103BB000ABFBFEF733F85648FEF730F8032001213F
:103BC000FDF7ACFF534B1868FEF730FD94F9007019
:103BD0003F4C032F1AD100210846FDF79FFF4E48A6
:103BE000FEF71CF8394B18684FF46163B0FBF3F033
:103BF000FDF78AFBFEF712F84848FEF70FF8384643
:103C00000121FDF78BFF2068FEF710FD444801F00D
:103C10001FFD29780022434801F05EFD404801F075
:103C200017FD31780022404801F056FD3C4801F074
:103C30000FFD244B002219783C4801F04DFD384817
:103C400001F006FD3A4B002219683A4801F044FDA4
:103C5000334801F0FDFC99F800100022364801F0CD
:103C60003BFD2F4801F0F4FC21680022BDE8F84339
:103C7000324801F031BDFFF7D7FB002340E70128B0
:103C80007FF440AF2378013B5BB2002BB8BF032326
:103C9000237037E73B78052B7FF655AFFDF73EFFE6
:103CA0000121032053E713781BB90E4B19680C4B05
:103CB0001960012307E700BFA1070020A00700202B
:103CC000880700208B070020940700208007002031
:103CD0009807002076080020DC070020540100200F
:103CE000E0070020F007002091070020A207002035
:103CF000F465000862080020890700204B64000872
:103D0000D1640008A8650008FC660008F4000020E3
:103D1000626400089C07002013650008FF66000825
:103D2000356100086B640008196700082E670008F9
:103D30008C070020436700086B6700088367000852
:103D40002DE9F04F864A85B01378834603F0FF08CB
:103D50000092DFF858A2834EDFF85492824D834FD1
:103D6000834C002B46D1834B1A88834B1B6A053347
:103D7000934215D941464046FDF7D0FE7F48FDF7F6
:103D80004DFF4FF4FA60FDF7A3F941464046FDF7B9
:103D9000C5FE7B48FDF742FF40F6B830FDF798F9C5
:103DA00001234FF00008009A01931370754A8AF8B6
:103DB000008082F80080744AC6F80080C9F800804C
:103DC000C2F80080C5F80080C7F800808AF800308B
:103DD000FEF7BCFF019B6D4A414640461370FDF75C
:103DE0009DFE6B48FDF71AFF4FF47A70FDF770F9EE
:103DF000019B237094F90030032B00F3F981DFF865
:103E0000B481B8F8000000B2FDF7C3FB0528CDF877
:103E1000048040F3A2815F4B574A1988906990460D
:103E2000884202932AD9594B1A78022A26D15A4B32
:103E30001B68B3F57A7F21D9002352490B7039688A
:103E4000564B994204D93868D9F80010FEF79EF80D
:103E5000D9F800204C4B1A603A68514B9A60012205
:103E600000238AF8002003922B603360FEF76EFF78
:103E70002378039A01332370444B1A70454BD8F8CA
:103E800020201B889A4208D2404B1B78012B04D17A
:103E9000414B1B68B3F57A7F08D8424B32681B68E8
:103EA0009A4222D9394B1B78012B1ED194F900304C
:103EB000022B1ADC00238AF800302A68374B9A421A
:103EC00004D9286801223168FEF760F801232D4AE1
:103ED000137000233B60C9F80030FEF729FE022270
:103EE000237801332370294B1A702A4BD8F82020ED
:103EF0001B889A4208D2254B1B78012B04D1264BF4
:103F00001B68B3F57A7F08D8264B32681B689A4243
:103F100052D91E4B1B78012B4ED194F90030022B45
:103F20004ADDFFF781FA0023164A8AF80030137041
:103F30002A681A4B9A4204D9286801223168FEF790
:103F400025F802222378934503F101032370164BD1
:103F50001A7040F0EE800322134B1A7038E000BF55
:103F6000A00700208C0700207C070020800700208D
:103F7000900700207C08002054010020B76600084C
:103F8000C8660008940700209C07002070020020EB
:103F9000D966000876080020D40700204F8C050061
:103FA000F4000020200A0020910700208B07002049
:103FB0009807002062080020BBF1020F40F0B98092
:103FC000C64A137801335BB2042B08BF0023137079
:103FD000C24C94F900B0BBF1000F2ED1594658469F
:103FE000FDF79CFD029B02211888FDF701FAFDF701
:103FF00015FEBB48FDF712FE019B188800B2FDF7C5
:1040000083F9FDF70BFEB748FDF708FE01210620F6
:10401000FDF784FD01210420FDF7A8FDB24B1B78BC
:10402000012B40F09380194607200193FDF776FDA0
:10403000019B58461946FDF799FD94F900B0BBF174
:10404000010F27D100210846FDF768FDD8F81000C0
:10405000FDF75AF9FDF7E2FDA448FDF7DFFD0A235D
:10406000D8F818005946B0FBF3F00193FDF7C0F9FA
:10407000FDF7D4FD9A48FDF7D1FD5946D8F8200048
:10408000019BB0FBF3F0FDF7B3F9FDF7C7FD9848CE
:10409000FDF7C4FD94F90080B8F1020F22D1002190
:1040A0000846FDF73BFD01214046FDF75FFD00217D
:1040B0000120FDF733FD8F48FDF7B0FD4FF461633C
:1040C0003868B0FBF3F0FDF71FF9FDF7A7FD8A484C
:1040D000FDF7A4FD03200121FDF720FDD9F8000024
:1040E000FEF7A4FA94F90040032C42D100210846BF
:1040F000FDF714FD01210020FDF738FD002101200E
:10410000FDF70CFD7B48FDF789FD4FF461632868DE
:10411000B0FBF3F0FDF7F8F8FDF780FD7648FDF70A
:104120007DFD20460121FDF7F9FC3068FEF77EFA9F
:104130001FE0BBF1010F7FF44BAF684A1378013BDE
:104140005BB2002B1370BFF643AF04E701210720D9
:10415000FDF7E4FC012102206DE7684B1B68B3F515
:104160007A7F06D900210846FDF7D8FC6448FDF7A0
:1041700055FD644801F06CFA009B002219786248F2
:1041800001F0AAFA5F4801F063FA9AF800100022E1
:104190005E4801F0A1FA5B4801F05AFA316800224A
:1041A0005B4801F099FA574801F052FA2968002259
:1041B000584801F091FA534801F04AFA564B002250
:1041C0001978564801F088FA4E4801F041FAD9F8BA
:1041D00000100022524801F07FFA4A4801F038FAF4
:1041E000002239684F4805B0BDE8F04F01F074BABD
:1041F0003A4CBBF1020F94F900305FD101335BB24E
:10420000042B08BF0023237094F90080B8F1000F3D
:104210002DD141464046FDF781FC434B02211888D1
:10422000FDF7E6F8FDF7FAFC2D48FDF7F7FC3F4BEC
:10423000188800B2FDF768F8FDF7F0FC2948FDF793
:10424000EDFC01210620FDF769FC01210420FDF7AA
:104250008DFC254B93F800B0BBF1010F37D15946C7
:104260000720FDF75BFC59464046FDF77FFC94F9BB
:104270000080B8F1010F7FF40DAF0021DFF8B0B07E
:104280000846FDF74BFCDBF81000FDF73DF8FDF7A5
:10429000C5FC1648FDF7C2FC0A23DBF818004146AE
:1042A000B0FBF3F00193FDF7A3F8FDF7B7FC0C4862
:1042B000FDF7B4FCDBF820004146E1E6BBF1010F5D
:1042C000A2D1013B5BB2002BB8BF03239BE70121C6
:1042D0000720FDF723FC01210220C6E791070020FB
:1042E000F4650008EA660008A90700209A5E000845
:1042F000EA6500081C660008F2660008D407002082
:104300000867000835610008196700082E67000873
:104310004367000853670008940700206B67000894
:10432000836700089667000876080020620800206E
:1043300054010020F0B5344D91B02B883349B3F5CA
:10434000E16F5DD2324B1B68062B59D9314B324C91
:104350009B6813F0010318BF0123A361FFF764F802
:104360000B78002B4AD101232C4E0B70336823614C
:10437000FCF7BEFB2A4801F06BF9022221692948AB
:1043800001F0AAF949F6AF2332689A4215D9264BB3
:104390000BA91868FDF7AEF94FF46163206901A914
:1043A000B0FBF3F0FCF7EAFF204906AB0BAAFDF7E0
:1043B00013F9022106A8FCF7A3FD0A23288801228D
:1043C000B0FBF3F001A9FDF77BF806AA01461848F7
:1043D000FDF7EDF8FCF7E2FC0524114F154E3846C9
:1043E00001F036F929880222304601F075F9013CC6
:1043F0003220FCF76DFE14F0FF04F0D111B0F0BDD7
:1044000000230B70FAE700BF600800207102002053
:10441000F0070020000C0140F4000020800700207D
:1044200035610008B463000898070020DD640008C7
:10443000B9630008C363000801222DE9F041A14BD4
:10444000A14C02281A7086B094F9003040F03081F7
:1044500013445BB2082B08BF0023237094F90010AB
:10446000F1B9FEF7E1FF0846FDF758FB9748FDF765
:10447000D5FB974B012118880A23B0FBF3F0FCF71A
:10448000B7FFFDF7CBFB9348FDF7C8FB924B02212A
:104490001888FCF7ADFFFDF7C1FB9048FDF7BEFBA8
:1044A00094F90030012B1BD1FEF7BEFF0021084616
:1044B000FDF734FB8A48FDF7B1FB8A4B02211888CF
:1044C000FCF796FFFDF7AAFB8748FDF7A7FB874B94
:1044D000D888FCF719FFFDF7A1FB8548FDF79EFB87
:1044E00094F90050022D1BD1FEF7ECF8002108468C
:1044F000FDF714FB7F48FDF791FB7F4B2946188899
:10450000FCF776FFFDF78AFB7748FDF787FB774BD3
:104510009888FCF7F9FEFDF781FB7548FDF77EFBF7
:1045200094F90030032B1DD1FEF726FBFEF7CAF8E5
:1045300000210846FDF7F2FA7048FDF76FFB704B5B
:10454000188800B2FCF7E0FEFDF768FB6D48FDF748
:1045500065FB664B5888FCF7D7FEFDF75FFB6448A8
:10456000FDF75CFB94F90030042B1DD1FEF794F8A5
:10457000FEF786FA00210846FDF7D0FA6248FDF7FB
:104580004DFB624B188800B2FCF7BEFEFDF746FB00
:104590005C48FDF743FB554B1888FCF7B5FEFDF76B
:1045A0003DFB5B48FDF73AFB94F90030052B45D104
:1045B0004C4F584EFEF7E0FAFEF784F83B883188FE
:1045C000DFF83C81591A42F210734B43B8F80020CF
:1045D000002112B293FBF2F34F4D0846AB64FDF796
:1045E0009DFA4E48FDF71AFB286CFCF78DFEFDF78F
:1045F00015FB4B48FDF712FBA86CFCF785FEFDF799
:104600000DFB4848FDF70AFB474801F021F8B8F8D0
:104610000010002209B2454801F05EF8424801F05E
:1046200017F839880222424801F056F83E4801F056
:104630000FF8318802223F4801F04EF894F900301B
:10464000062B0FD1FEF7F0FE00210846FDF766FAB3
:10465000394B01A91868FCF7DEFFFDF7DFFA374890
:10466000FDF7DCFA94F90030072B1ED1FEF784FA2F
:10467000FEF728F800210846FDF750FA3048FDF70C
:10468000CDFA304B1868FCF765FBFCF73DFEFDF7F3
:10469000C5FA2D48FDF7C2FA144B5889FCF734FED1
:1046A000FDF7BCFA0D48FDF7B9FA06B0BDE8F08198
:1046B00001287FF4D3AE013B5BB2002BB8BF0723C8
:1046C000CBE600BFA007002092070020816400080D
:1046D000600800208664000874080020196600083D
:1046E0008B6400087C080020F46500086408002042
:1046F0001766000890640008760800209664000899
:10470000620800209C640008A0640008B402002035
:1047100016660008B602002004000020A664000807
:10472000A9640008AE64000835610008B66400089A
:10473000BA640008C1640008F0070020156600088C
:10474000C964000878080020CC640008F0B5002691
:104750004FF4F02385B07C4C0096019602960396A8
:10476000E2897A4D93FBF2F3794A9BB21380E18898
:10477000AB6AE2894B43B3FBF2F300930098FDF779
:1047800041F802900298FDF799F8724A724913684D
:10479000184410600B8801331BB20B800B881BB2CE
:1047A0001F2B0CDD2020136893FBF0F36B489BB2AA
:1047B00003800E8016600388022B98BF0680A188B4
:1047C0002B6BE2894B43B3FBF2F300930098FDF7A8
:1047D00037F802900298FDF772F8614F614E3B681E
:1047E00018443860338801331BB233802189AB6BA6
:1047F000E2894B43B3FBF2F300930098FDF73EF8D8
:1048000002900298FDF75CF8574A5849136818441B
:1048100010600B8801331BB20B800B881BB21F2B5F
:1048200009DD2020136893FBF0F351489BB203800D
:1048300000230B8013600A23A869618843434B431C
:10484000E289B3FBF2F301930198FCF79FFF039019
:104850000398FDF731F8474A474913681844106038
:104860000B8801331BB20B800B881BB21F2B09DD99
:104870002020136893FBF0F340481BB20380002311
:104880000B8013600A23286A218843434B43E28943
:10489000B3FBF2F301930198FCF796FF03900398A2
:1048A000FDF70BF8364A37491368184410600B8837
:1048B00001331BB20B800B881BB21F2B09DD20209C
:1048C000136893FBF0F330481BB2038000230B8086
:1048D00013602E4B2E499B6813F0020F15BF2A4B15
:1048E000264B1A881B8814BF2B69AA689B1A1BB217
:1048F0000B8033881BB2092B24DD0A223B68254C30
:1049000093FBF2F3244A136000233B60338010686A
:1049100080B2208010680228D8BF136008880988F8
:104920002B6C09B24B431D48146893FBF0F32344EE
:1049300013601368022BDCBF002313601368184A4E
:104940009BB2138005B0F0BD640800200400002075
:1049500074080020BC070020C00700207C0800204D
:10496000C4070020C8070020CC070020D007002083
:1049700060080020AC070020B0070020B202002031
:10498000B4070020B8070020B4020020000C01404A
:1049900062080020B6020020E4070020F0D8FFFFE4
:1049A00076080020F8B5FDF7F5FDFFF7C3FC324AA5
:1049B000324E1368013313603388092B03D9002367
:1049C0003380FFF7C3FE2E4D2E4C2B88632B84BF04
:1049D00000232B802388B3F57A7F40D300232A4F0E
:1049E00023803B881BB2012B07DC388800B2FCF720
:1049F000D0FD264A1368184410603B881BB2022B76
:104A000007DD388800B2FCF7C4FD214A136818445A
:104A10001060204B1B78012B01BF1F4A1368013324
:104A200013601E4B1B78012B01BF1D4A1368013315
:104A300013601C4B1B78012B01BF1B4A1368013309
:104A400013601A4B1A6801321A601B6813F0010FC9
:104A50000CBF4FF400424FF00042154B1A613388EF
:104A600001339BB233802B8801339BB22B80238888
:104A700001339BB22380F8BDD4070020B002002090
:104A8000AE020020AC020020620800208007002057
:104A90007C0700208B0700208C0700209407002053
:104AA00098070020AA070020D8070020F007002060
:104AB0000008014010B51D4C236843F48033236087
:104AC00023689A03FCD5636823F47C1343F4A02382
:104AD0006360E36A23F00F03E362236843F08073AB
:104AE000236023689B01FCD5636823F0F0036360B7
:104AF000636823F4E0636360636823F46053636076
:104B0000636823F0030343F002036360636803F008
:104B10000C03082BFAD1064801F09EF8044801F076
:104B2000A9F8636823F44043636010BD001002409D
:104B300000366E012DE9F04F012091B0DFF88C9323
:104B4000FDF794F84FF08050FDF782F8D9F80C206B
:104B5000C94B22F4E0621204120C1343C9F80C3062
:104B6000C64BC74E5A68002422F0E0625A605A6869
:104B7000012542F000725A60FFF79CFF14220021C9
:104B800009A801F0ACF82020FDF770F80420FDF72B
:104B90006DF80820FDF76AF848F2010373614FF6DB
:104BA000035302274FF004084FF0080BDFF820A34F
:104BB00009A9CAF81430B34B3046CDE90935CDE91F
:104BC0000B7400F0B2FEB04B09A95046CDE909358F
:104BD000CDE90B7400F0A9FEAC4B09A95046CDE914
:104BE0000935CDF830800B9700F09FFEA84B09A93E
:104BF0003046CDE9093B0D9500F097FE4FF2F003EA
:104C000009A95046CDE9093B0D9500F08EFEA14B58
:104C10005A692A435A615B692B400193019BD9F879
:104C20000C009D4DC0F30220FDF7AEF94FF4006378
:104C300000FA08F0C0B285F80B031C222B60214655
:104C400009A801F04CF81422214604A801F047F805
:104C50004FF48040FDF70AF84046FDF707F80923B6
:104C60008E4A04A9CDE9042303233046CDE9063456
:104C700000F05BFE8A4B04A93046CDE9043800F011
:104C800054FED9F80C00C0F30220FDF77DF9202373
:104C900000FA08F0C0B285F825036B60814D09A9C0
:104CA000EB68284643F08003EB604FF41643CDE9F0
:104CB00009340C23CDE90B44CDE90D340F9400F0F9
:104CC0005DFF2B69142223F490432B616B6921460D
:104CD00023F02A036B61EB6804A843F40053EB60F4
:104CE000CDE9024400F0FBFF1422214609A800F0A0
:104CF000F6FF4FF40070FCF7B9FF4046FCF7B6FF33
:104D000044F64E6309A93046CDE9093400F00DFEA2
:104D1000654B4FF480781A68A5F5A05522F48042BF
:104D200022F010021A601A680DEB0B0122F44052B7
:104D300042F400521A601A68284642F020021A60B3
:104D40001A6822F040021A601A6842F080021A6063
:104D50001A6822F4407242F480721A601A6822F4CF
:104D6000406242F480621A60504A9A60504ADA60A7
:104D70005A68120C120442EA0B025A601A6842F096
:104D800001021A600294CDF80C8000F06EFD4FF421
:104D9000A0034FF460212846CDE9041304A9CDE90E
:104DA0000647CDF8208000F075FD42494FF40070B1
:104DB000FDF7CEF83F48FDF7A1F83F4940F2052046
:104DC000FDF7C6F83C48FDF799F83C4940F20A2047
:104DD000FDF7BEF83948FDF791F8394940F20F2048
:104DE000FDF7B6F83648FDF789F836494FF40570F7
:104DF000FDF7AEF83348FDF781F8AB68324943F46C
:104E00000003AB6040F21920FDF7A2F82E48FDF731
:104E100075F8AB68642043F40003AB60AB6843F003
:104E20000103AB60FCF754F9AB6843F00403AB60DB
:104E3000AC6814F00404FBD11022AB68214643F4A3
:104E4000A003AB600DEB020000F049FF14222146E5
:104E500009A800F044FF4FF00050FCF7F9FE0420D1
:104E6000FCF704FF43F23003184F09A90448CDE9C9
:104E7000093400F05AFD2DE00003FA05000001405E
:104E8000000801408101800403030104FC00FC04CC
:104E9000190019040010024000E100E002000204C1
:104EA0000400040400380140080002404C24014082
:104EB000640800200100300202006002030090023A
:104EC00006002003100020811100508100ED00E059
:104ED000000C0140F8684FF48009C0F30220FDF790
:104EE00053F83823B34DDFF854830001C0B288F87B
:104EF000360304AAC8F80490AF492846CDE9043423
:104F0000079400F0E9FC2B6804AA23F004032B604B
:104F1000AA49284600F0E0FC2B68142223F48023E1
:104F20002B60214609A800F0DAFE1020FCF790FE65
:104F3000F8684FF4166AC0F30220FDF725F8000167
:104F4000C0B288F83603C8F804904FF00A09A5F5F6
:104F5000C845284609A9ADF824A00A94CDF82C909C
:104F600000F0BCFD2B68142223F080032B606B68DB
:104F7000214623F070036B60AB6809A823F080031F
:104F8000AB6000F0ACFE2020FCF762FEF86805F58F
:104F90008065C0F30220FCF7F7FF4FF40003000127
:104FA000C0B288F8370309A9C8F804302846ADF81C
:104FB00024A0CDE90A4900F091FD2B6823F080037D
:104FC0002B606B6823F070036B60AB6823F0800389
:104FD000AB60FCF732FE00F0A1FA4FF47A72784B26
:104FE0001B68B3FBF2F3013BB3F1807F07D2754A34
:104FF0005360F02387F823300723946013604FF445
:10500000004300243361704DFEF70EFA6F482C60A8
:10501000FCF704FEFCF76CF86D4800F019FB6B48D8
:1050200000F0ACFAFCF722FD21462046FCF776FDA5
:105030004FF47A70FCF74CF8FBF77AF92B68172BD2
:1050400088BF2C60FBF780FC0446002854D14FF445
:105050007A70FCF73DF8FBF777FC04465C4800F0FB
:10506000F7FA5C4800F08AFA002C45D15A48FCF760
:10507000D5FD4FF47A60FCF72BF85848FBF78EFE0D
:10508000534800F0E5FA534800F078FA544D554B78
:105090002A69554C1A604FF461632269534E534399
:1050A000534A1360A268534B1A60236C524A336010
:1050B0001360FBF71BFE4FF47A70FCF709F8FCF75E
:1050C0009BFD4E48FCF71EFCA368012B1BD14C48EE
:1050D000FCF7FEFB4B4FDFF82891DFF864813B784B
:1050E00001333B70FDF788FA431E0446032B27D893
:1050F000DFE803F021474B52012CC7D1344800F0C0
:10510000A7FA4148C0E7022B01D14048E0E7032B52
:1051100001D13F48DCE7042B01D13E48D8E7052BFD
:1051200001D13D48D4E7062B01D13C48D0E7072BFD
:10513000CDD13B48CCE7FCF7C5FB4068FCF7C8FB8A
:10514000FCF7C0FB81452BD12046FDF7E7FA98F824
:10515000003003F0FF0183B9FEF766F9314B197097
:10516000314B1970314B1B68AB60314B1A68314BB6
:105170001A60314B1970012333606420FBF7A8FFDC
:10518000ADE7FCF79FFB0068D8E70220FCF7C4FB03
:10519000FCF798FBC068D1E7FCF794FB8068CDE78B
:1051A000FCF790FB194B83424CD12046FDF7FCFCE9
:1051B000CDE700BF0074004001001002120043154B
:1051C0008C02002010E000E0800800207A0200201D
:1051D0004A610008377200084F72000860720008C8
:1051E000F4000020840700205401002074020020F5
:1051F000200A0020240A00201C0A00201D1E00088E
:10520000EC6E00088907002070600008446F0008F9
:105210009C6F0008F46F00084C700008FC700008D8
:1052200054710008A107002091070020800700208A
:10523000980700209C0700208A07002000E100E07A
:10524000A0070020FCF73EFB7A4B834203D12046A7
:10525000FEF7F2F87BE7FCF735FB774B834203D18F
:105260002046FEF759FA72E7FCF72CFB734B83429A
:1052700003D12046FEF708FC69E7FCF723FB704BDF
:10528000834203D12046FEF75BFD60E7FCF71AFB83
:105290006C4B834203D12046FDF77CFD57E7FCF7BA
:1052A00011FB694B834203D12046FDF7C9FF4EE74E
:1052B000FCF708FB654B834203D12046FDF7CAFC8F
:1052C00045E7FCF7FFFA624B834203D12046FFF724
:1052D000B3F83CE7FCF7F6FA5E4B834203D1204675
:1052E000FCF77AFE33E7FCF7EDFA5B4B834203D120
:1052F0002046FCF7E1FE2AE7FCF7E4FA574B83422D
:1053000003D12046FCF7B4FE21E7FCF7DBFA544B4F
:10531000834203D12046FDF7D3FB18E7FCF7D2FA0E
:10532000504B834203D12046FDF764FA0FE7FCF7A8
:10533000C9FA4D4B834203D12046FDF703FB06E734
:10534000FCF7C0FA494B834203D12046FDF7C2FA6D
:10535000FDE6FCF7B7FA464B834203D12046FDF742
:1053600081FAF4E6FCF7AEFA424B834203D12046C1
:10537000FDF720FBEBE6FCF7A5FA3F4B834203D198
:105380002046FCF7BDFEE2E6FCF79CFA3B4B83426D
:1053900003D12046FCF710FFD9E6FCF793FA384B0F
:1053A000834203D12046FCF72DFFD0E6FCF78AFAB2
:1053B000344B834203D12046FCF796FFC7E6FCF747
:1053C00081FA314B834203D12046FCF7AFFFBEE6A2
:1053D000FCF778FA2D4B834203D12046FCF7C8FF37
:1053E000B5E6FCF76FFA2A4B834203D12046FCF75F
:1053F000DDFFACE6FCF766FA264B834203D120467C
:10540000FCF7F2FFA3E6FCF75DFA234B834203D1DE
:105410002046FDF745F89AE6FCF754FA1F4B834205
:1054200003D12046FDF782F891E6002388F800308A
:105430008DE600BF9C6F0008F46F00084C700008F8
:1054400078700008FC70000854710008AC71000806
:1054500004720008506B0008C06800086868000803
:105460007069000818690008786A0008206A000856
:10547000C8690008C06A0008086B0008A86B00082B
:10548000D46B0008586C0008B06C0008086D000868
:10549000606D0008B86D0008946E0008686E000822
:1054A0007047FEE7FEE7FEE7FEE77047704770478C
:1054B000FFF778BA7047000014490B681B0624D523
:1054C000134BB3F8582492B2DAB1B3F85824013A26
:1054D00092B2A3F85824B3F8562492B2501C80B26A
:1054E000A3F856041A4492F86C20D2B24A60B3F87A
:1054F000562492B2B2F57A7F07D10022A3F856243F
:105500007047CB6823F08003CB60704700380140C0
:10551000B80200207047704770470000124A10B56B
:105520005368124903F00C03082B0AD0104B0B6090
:105530005368104AC3F30313D25C0B68D3400B606B
:1055400010BD53685068C3F38343C00341BFD06AA2
:10555000074C00F00F0001304CBFB4FBF0F00648E0
:1055600002334343E3E700BF001002408C020020F7
:1055700000127A006E72000800093D00324A30B510
:10558000134640F2C934B2F858148C42FBD32F4969
:10559000CA6822F08002CA600021027802F0FF048B
:1055A0004ABBB3F8542492B2511C89B2A3F85414E4
:1055B0000A211A4482F86C10B3F8542492B2B2F55E
:1055C0007A7F08BFA3F85444B3F85824013292B24A
:1055D000A3F85824B3F85A24B3F85814914282BF60
:1055E000B3F8582492B2A3F85A24184AD36843F067
:1055F0008003D36030BDB3F85424441C92B2551CD0
:10560000ADB2A3F8545400781A44C0B282F86C00CA
:10561000B3F8542492B2B2F57A7F08BFA3F85414B9
:10562000B3F85824013292B2A3F85824B3F85A249C
:10563000B3F85804904288BFB3F85824204684BF7A
:1056400092B2A3F85A24A8E7B8020020003801401B
:105650001F4A30B5134640F2C934B2F858148C4290
:10566000FBD31C49CA6822F08002CA60002102787C
:105670002AB9184AD36843F08003D36030BDB3F829
:105680005424441C92B2551CADB2A3F85454007873
:105690001A44C0B282F86C00B3F8542492B2B2F546
:1056A0007A7F08BFA3F85414B3F85824013292B299
:1056B000A3F85824B3F85A24B3F85804904288BF8A
:1056C000B3F85824204684BF92B2A3F85A24CEE7F8
:1056D000B80200200038014073B501918DF8032015
:1056E0009DF8033004460198002B44D1FBF70CFED3
:1056F000494A40F2C9351346B2F858148D42FBD3DB
:1057000000254649CA6822F08002CA60227802F069
:10571000FF01002A34D10138B3F8542410F8014FA6
:1057200092B2002C55D1511C89B2A3F854140A210D
:105730001A4482F86C10B3F8542492B2B2F57A7F0E
:1057400008BFA3F85444B3F85824013292B2A3F826
:105750005824B3F85A24B3F85814914282BFB3F8CE
:10576000582492B2A3F85A242C4AD36843F08003F9
:10577000D36002B070BD9DF80310FBF739FEB7E7A8
:10578000B3F85424611C92B2561CB6B2A3F8546408
:1057900024781A44E4B282F86C40B3F8542492B2EC
:1057A000B2F57A7F08BFA3F85454B3F858240132F5
:1057B00092B2A3F85824B3F85A24B3F85844944248
:1057C00088BFB3F858240C4684BF92B2A3F85A2479
:1057D0009CE7541CA4B2A3F8544404781A4482F8F9
:1057E0006C40B3F8542492B2B2F57A7F08BFA3F8A4
:1057F0005414B3F85824013292B2A3F85824B3F8E1
:105800005A24B3F85844944282BFB3F8582492B251
:10581000A3F85A2480E700BFB802002000380140F6
:10582000002103E00B4B5B58435004310A480B4BFB
:1058300042189A42F6D30A4A02E0002342F8043B97
:10584000084B9A42F9D3FFF767FE00F019FAFFF709
:1058500071F970479072000800000020900200204B
:1058600090020020280A0020FEE7836810B513F09C
:1058700001030DD142684C6822F4807222434260D9
:105880008268096822F400620A438260184610BDEB
:105890000120FCE7836810B5DB071BD443684A6826
:1058A00023F4684312B18C68134323434360836835
:1058B0000C6823F4602323F481732343CC680969C3
:1058C00023430B438360C36A23F470031343C3620F
:1058D000002010BD0120FCE7012370B501F010018C
:1058E000056803FA01F4AC431DD0D2E90043D66841
:1058F0007BB1234340F6FA7492683343056813433F
:105900008B4004FA01F125EA0101194301600020EE
:1059100070BDFA2502688D40344322EA050204FA7C
:1059200001F11143F2E71846F2E72DE9F04F0C6858
:10593000C4F30F2494FAA4F24FF00F0AB2FA82F2E1
:105940004FF0030904274FF0011C40F2011E34FA06
:1059500002F302D11846BDE8F08F012393402342A1
:105960005ED0072A85BFA2F108030CFA03F30EFAF2
:1059700002F343F08063C5681E0A96FAA6F8B8FAE7
:1059800088F825EA06060D6905FA08F53543C5606D
:105990004FEA136893FAA3F6B6FA86F693FAA3FBD6
:1059A000BBFA8BFBB6000AFA06F550F808604FEA1E
:1059B0008B0B26EA05064D6805FA0BFB46EA0B063B
:1059C00040F808604D6825F00805012D28D193FAAC
:1059D000A3F5B5FA85F593FAA3FBBBFA8BFBAD00F3
:1059E00009FA05F526EA05068D684FEA8B0B05FADC
:1059F0000BFB46EA0B0640F8086093FAA3F5B5FAEC
:105A000085F593FAA3F3B3FA83F3AD0007FA05F52E
:105A100026EA0505CE689B009E402E4340F80860AC
:105A2000013294E7034B044A5B68C3F30313D35C6E
:105A3000D8407047001002406E720008034B044AC1
:105A40005B68C3F30223D35CD84070470010024068
:105A50007E720008034B044A5B68C3F3C223D35C25
:105A6000D8407047001002407E720008094B5A6807
:105A700002F4803262B1D86A074A00F00F000130A8
:105A8000B2FBF0F05B68C3F38343023358437047C3
:105A90000248F7E70010024000127A0000093D00BA
:105AA000044B5B6803F00C03082B01D1FFF7DEBF4A
:105AB000014870470010024000127A0008B5014604
:105AC000FFF7EEFF0860FFF7ADFF4860FFF7B6FF96
:105AD00088604868FFF7BEFFC86008BD254A0368B4
