:020000040800F2
:100000000020002075530008A14F0008A34F0008EE
:10001000A54F0008A74F0008A94F000800000000E6
:10002000000000000000000000000000AB4F0008CE
:10003000AD4F000800000000AF4F0008B14F0008AE
:10004000BD530008BD530008BD530008BD53000850
:10005000BD530008BD530008BD530008BD53000840
:10006000BD530008BD530008BD530008B54F00083C
:10007000BD530008BD530008BD530008BD53000820
:10008000BD530008BD530008BD5300080000000028
:10009000000000000000000000000000BD53000848
:1000A000BD530008BD530008BD530008BD530008F0
:1000B000BD530008BD530008BD530008BD530008E0
:1000C000BD5300080000000000000000BD53000800
:1000D000BD530008B94F0008BD530008BD530008C8
:1000E000BD530008BD530008BD53000800000000C8
:1000F0000000000000000000000000000000000000
:1001000000000000000000000000000000000000EF
:100110000000000000000000155000081750000803
:1001200000000000000000000000000000000000CF
:1001300000000000000000000000000000000000BF
:1001400000000000000000000000000000000000AF
:10015000000000000000000000000000000000009F
:10016000000000000000000000000000000000008F
:10017000000000000000000000000000000000007F
:10018000000000000000000000000000000000006F
:10019000000000000000000000000000000000005F
:1001A000000000000000000000000000000000004F
:1001B000000000000000000000000000000000003F
:1001C0000000000000000000000000005FF808F1DF
:1001D00010B5054C237833B9044B13B10448AFF381
:1001E00000800123237010BD940200200000000055
:1001F0004458000808B5034B1BB103490348AFF34B
:10020000008008BD0000000098020020445800084B
:100210000E4A1346D168C907FCD4D168890644BF89
:100220002021D1601A6942F002021A6158611A69EC
:1002300042F040021A61054BDA689206FCD5202292
:10024000DA601A6922F002021A6170470020024047
:10025000034B044A5A6002F188325A60704700BF6B
:100260000020024023016745024A136943F08003DE
:100270001361704700200240114B10B51A46DC682C
:10028000E407FCD4DC68A40644BF2024DC601369C6
:1002900043F0010313610A4A8BB203801346D4680A
:1002A000A406FCD52024090CD4604180DA689206AB
:1002B000FCD52022DA601A6922F001021A6110BD11
:1002C0000020024070B572B6FFF7C2FF124804F07A
:1002D0003FFF124D00224FF4CE71114804F07CFF15
:1002E0000D4804F035FF002229680E4804F074FF21
:1002F0000D48FFF78DFF0C4C0C4E04F17843A3F52D
:10030000F2332046E9580434FFF7B6FFB442F4D183
:10031000FFF7AAFF62B670BD505C000858080020C5
:10032000585C00085F5C000800E401089CE50108D7
:1003300010B5074B074808491C6803F1784204339D
:10034000A2F5F2328B421450F6D1012010BD00BF4D
:1003500000E40108580800209CE50108F8B504688D
:1003600007468C420E4601D394421BD900250E4B02
:100370000E481D7004F0ECFE2A4639460C4804F085
:100380002BFF0A4804F0E4FE21462A46094804F0FF
:1003900023FF064804F0DCFE2A460749074804F01C
:1003A0001BFF34462046F8BD00000020505C0008CA
:1003B000105C0008275C000800EC0108395C0008AC
:1003C00010B5194C6068FFF723FFD4E90010FFF760
:1003D00053FFD4E90210FFF74FFFD4E90410FFF7F1
:1003E0004BFFD4E90610FFF747FFD4E90810FFF7E9
:1003F00043FFD4E90A10FFF73FFFD4E90C10FFF7E1
:100400003BFFD4E90E10FFF737FFD4E91010FFF7D8
:1004100033FFD4E91210FFF72FFF044804F098FED1
:10042000034804F02BFE10BD04000020505C0008BF
:10043000B959000810B5194C6068FFF7E9FED4E916
:100440000010FFF719FFD4E90210FFF715FFD4E9F8
:100450000410FFF711FFD4E90610FFF70DFFD4E9F0
:100460000810FFF709FFD4E90A10FFF705FFD4E9E8
:100470000C10FFF701FFD4E90E10FFF7FDFED4E9E1
:100480001010FFF7F9FED4E91210FFF7F5FE04484B
:1004900004F05EFE034804F0F1FD10BD540000209E
:1004A000505C00085C59000838B5244C4FF4807249
:1004B00000216068FFF752FF4FF47A72206000213C
:1004C000E068FFF74BFF4FF47A72A060002160698B
:1004D000FFF744FF1A4D20612A460A21E069FFF721
:1004E0003DFF2A46A0610A21606AFFF737FF2A46CE
:1004F00020620A21E06AFFF731FF2A46A0620A2142
:10050000606BFFF72BFF2A4620630A21E06BFFF7A1
:1005100025FFC822A0634621606CFFF71FFFC82299
:1005200020640A21E06CFFF719FFA064054804F07D
:100530000FFE054804F0A2FD38BD00BF04000020F6
:10054000A0860100505C00087C59000838B5244C96
:100550004FF4807200216068FFF700FF4FF47A7259
:1005600020600021E068FFF7F9FE4FF47A72A06086
:1005700000216069FFF7F2FE1A4D20612A460A2128
:10058000E069FFF7EBFE2A46A0610A21606AFFF7E7
:10059000E5FE2A4620620A21E06AFFF7DFFE2A46CE
:1005A000A0620A21606BFFF7D9FE2A4620630A2168
:1005B000E06BFFF7D3FEC822A0634621606CFFF713
:1005C000CDFEC82220640A21E06CFFF7C7FEA064BC
:1005D000054804F0BDFD054804F050FD38BD00BFDE
:1005E000A4000020A0860100505C00089659000875
:1005F00010B5174C6068FFF70BFED4E90010FFF749
:100600003BFED4E90210FFF737FED4E90410FFF7F0
:1006100033FED4E90610FFF72FFED4E90810FFF7E8
:100620002BFED4E90A10FFF727FED4E90C10FFF7E0
:1006300023FED4E90E10FFF71FFED4E91010FFF7D8
:100640001BFE044804F084FD034804F017FD10BDB0
:1006500054010020505C0008FA5B000810B5174CEC
:100660006068FFF7D5FDD4E90010FFF705FED4E977
:100670000210FFF701FED4E90410FFF7FDFDD4E9F5
:100680000610FFF7F9FDD4E90810FFF7F5FDD4E9EE
:100690000A10FFF7F1FDD4E90C10FFF7EDFDD4E9E6
:1006A0000E10FFF7E9FDD4E91010FFF7E5FD04484F
:1006B00004F04EFD034804F0E1FC10BD9C01002055
:1006C000505C0008A65B000810B5224C4FF4807205
:1006D00000216068FFF742FE0A2220600121E068E5
:1006E000FFF73CFE4FF47A72A06001216069FFF7CA
:1006F00035FE4FF47A6220610121E069FFF72EFE9A
:100700004FF47A62A0610121606AFFF727FE42F28E
:10071000107220620021E06AFFF720FE42F21072A0
:10072000A0620021606BFFF719FE642220630021A4
:10073000E06BFFF713FE0322A0630121606CFFF75B
:100740000DFE2064044804F003FD044804F096FC08
:1007500010BD00BF54010020505C0008C35B0008BE
:1007600010B5224C4FF4807200216068FFF7F6FD4F
:100770000A2220600121E068FFF7F0FD4FF47A7251
:10078000A06001216069FFF7E9FD4FF47A62206102
:100790000121E069FFF7E2FD4FF47A62A0610121D7
:1007A000606AFFF7DBFD42F2107220620021E06A0E
:1007B000FFF7D4FD42F21072A0620021606BFFF7D8
:1007C000CDFD642220630021E06BFFF7C7FD03220B
:1007D000A0630121606CFFF7C1FD2064044804F0B0
:1007E000B7FC044804F04AFC10BD00BFE40100203F
:1007F000505C0008DA5B000810B50D4C6068FFF72C
:1008000007FDD4E90010FFF737FDD4E90210FFF728
:1008100033FDD4E90410FFF72FFDD4E90610FFF7EC
:100820002BFD044804F094FC034804F027FC10BDA1
:1008300014010020505C0008195A000838B5114C0A
:100840004FF4807200216068FFF788FD0E4D206034
:100850002A460021E068FFF781FD2A46A0600021BA
:100860006069FFF77BFD012220610021E069FFF74D
:1008700075FDA061054804F06BFC054804F0FEFB23
:1008800038BD00BFF400002000286BEE505C00086B
:10089000D259000838B5114C4FF4807200216068BD
:1008A000FFF75CFD0E4D20602A460021E068FFF74F
:1008B00055FD2A46A06000216069FFF74FFD012227
:1008C00020610021E069FFF749FDA061054804F0BF
:1008D0003FFC054804F0D2FB38BD00BF34010020C6
:1008E00000286BEE505C0008F159000870B5012437
:1008F0000E4D2C7072B6FFF7A1FFFFF7E5FEFFF774
:10090000D3FD62B62E780A483EB904F021FC0948AE
:1009100004F0B4FB2C70304670BD04F019FC06489E
:1009200004F0ACFB26462C70F5E700BF0000002069
:10093000505C0008725B00088B5B000870B51546C0
:100940000C46C0B006464FF480720949684604F070
:1009500065FF2846013CE4B20134344416F8013BFB
:100960005840A6421DF80000F8D140B070BD00BF4D
:100970005C58000838B572B6144D00224C21284648
:10098000FFF7DCFF044645F8040CFFF761FCFFF7B6
:1009900017FDFFF7DBFD00224C210D48FFF7CEFFCE
:1009A00084420C4809D104F0D3FB0B4804F066FBE9
:1009B000FFF75AFC62B6012038BD04F0C9FB0748B6
:1009C00004F05CFBFFF7FCFCF2E700BF080000202E
:1009D000A8000020505C0008595A00087E5A000800
:1009E00038B572B6244D002244212846FFF7A6FFF1
:1009F0000446224804F0ACFB00222146204804F0C3
:100A0000EBFB1E4804F0A4FB002244211D4804F027
:100A1000E3FB45F8044CFFF71BFCFFF7E9FDFFF78C
:100A20009FFE002244211848FFF788FF054613481F
:100A300004F08EFB00222946114804F0CDFB0F483C
:100A400004F086FB0F480022442104F0C5FBAC42B1
:100A50000A4809D104F07CFB0C4804F00FFBFFF7B7
:100A600003FC62B6012038BD04F072FB084804F0B4
:100A700005FBFFF7BDFDF2E758010020505C0008C0
:100A8000AE5A0008B95A0008E8010020C55A00080B
:100A9000E75A000838B54A4804F05AFB494804F0C0
:100AA000EDFA72B6484DFFF7D3FB00224C212846E1
:100AB000FFF744FF044645F8040CFFF7BBFCFFF7C3
:100AC00045FD00224C214148FFF738FF84423C4855
:100AD0005DD104F03DFB3E4804F0D0FA3D4D0022CC
:100AE00044212846FFF72AFF0446354804F030FB2E
:100AF00000222146384804F06FFB314804F028FBFF
:100B000000224421354804F067FB45F8044CFFF708
:100B1000A5FDFFF725FE002244213148FFF70EFF17
:100B20000546274804F014FB002229462A4804F011
:100B300053FB234804F00CFB28480022442104F016
:100B40004BFBAC421E482AD104F002FB254804F0BE
:100B500095FA254D00221C212846FFF7EFFE04469A
:100B600045F8040CFFF748FEFFF794FE00221C2115
:100B70001E48FFF7E3FE8442114818D104F0E8FA5A
:100B80001B4804F07BFAFFF76FFB62B638BD04F038
:100B9000DFFA184804F072FAFFF74CFC9EE704F005
:100BA000D7FA154804F06AFAFFF758FDD1E704F0C8
:100BB000CFFA124804F062FAFFF71EFEE3E700BF27
:100BC000505C0008405A000858000020A80000208F
:100BD000585A0008A0010020AD5A0008B85A000871
:100BE000E8010020C45A0008180100203801002044
:100BF000135B00087D5A0008E65A00083D5B0008B8
:100C0000164917482DE9F04142F2107C0D46044682
:100C1000144F01F11C06B1F900E0B1F90420B1F95B
:100C20000280A2EB0E020CFB02F2B1F90630043195
:100C3000A3EB080392FBF3F3436003FB08F393FB7E
:100C4000F7F38E427344C0F80080836000F10C001B
:100C5000E1D1B5F91E306365BDE8F0812C020020BA
:100C6000DC070020F0D8FFFF2DE9F843534C07467E
:100C7000206800F0AFFA0023266831018A19224467
:100C800010F803C01D460133DBB2BCF1000F16D1D2
:100C90008A19A01805443A20FF1A287117F803C0D2
:100CA000DDB2BCF1000F0ED120232A4403322244CE
:100CB0000F2D15D8013502F8013FEDB2F8E71544C4
:100CC00085F804C0DCE70F2D05D89818204480F87B
:100CD00004C00133E2E70022314421440B441A717D
:100CE000374804F035FA00222946364804F074FAF1
:100CF000236803EB031222442A4400250133172BF7
:100D00001571236037D90A26A8464FF020092B4FCA
:100D1000284600F05FFA00232A0102EB050CA444E8
:100D200010F803E019460133DBB2BEF1000F2ED1FB
:100D30004FF03A0C50192044014481F804C006EBEE
:100D40000611214400EB030C9CF804E0BEF1000FF7
:100D500021D1013BDBB2D9B20F2929D92A4422443F
:100D6000013513440E2D83F8048007F1110706F1B5
:100D70000106CDD12560FFF7A5FA114804F0E8F986
:100D800021680022BDE8F8430F4804F025BA614409
:100D900081F804E0C4E701EB030E092D8CBF9EF837
:100DA00004E09EF805E001338CF804E0DBB2C9E70B
:100DB000F91881F804900133CDE700BF58080020EE
:100DC000505C0008B55E0008BA5E00082DE9F047E7
:100DD000534C804620680E4600F0FCF9002327683B
:100DE0003901CA19224410F803C01D460133DBB291
:100DF000BCF1000F16D1CA19A01805442E71A8EB3A
:100E0000030818F803C0DDB2BCF1000F0ED1202397
:100E10002A44033222440F2D15D8013502F8013F30
:100E2000EDB2F8E7154485F804C0DCE70F2D05D8CE
:100E30009818204480F804C00133E2E700223944C6
:100E400021440B441A71374804F082F900222946E4
:100E5000354804F0C1F9236803EB031222442A4405
:100E600000250133172B1571236035D90A27A946B0
:100E70004FF0200ADFF8A880284600F0ABF90023E5
:100E80002A0102EB050CA44410F803E019460133D3
:100E9000DBB2BEF1000F2BD15019204401440E717A
:100EA00007EB0711214400EB030C9CF804E0BEF1B2
:100EB000000F21D1013BDBB2D9B20F2929D92A4435
:100EC0002244013513440E2D83F8049008F11108D3
:100ED00007F10107D0D12560FFF7F4F9114804F0BC
:100EE00037F921680022BDE8F047104804F074B9D2
:100EF000614481F804E0C7E701EB030E092D8CBFC4
:100F00009EF804E09EF805E001338CF804E0DBB2C3
:100F1000C9E708EB030181F804A00133CCE700BF67
:100F200058080020505C0008B55E0008BA5E000852
:100F3000002384B00128009301D1009005E002282D
:100F4000FBD003281BD112230093114B9A68019206
:100F5000019A02929A6803920399029A914204D3E9
:100F60005A6801990A4401320192039A0292019A45
:100F700003980099121A8A42ECD304B07047E4D95E
:100F8000044B054A1B680338B3FBF2F35843D4E71C
:100F900010E000E09002002040420F0007B50190F1
:100FA000019B13B903B05DF804FB4FF47A70FFF7AF
:100FB000BFFF019B013B0193F2E7000038B5684C8D
:100FC000684D204604F0C4F829680022664804F001
:100FD00003F9204604F0BCF8A9680022634804F035
:100FE000FBF8204604F0B4F829690022604804F0B8
:100FF000F3F8204604F0ACF8A96900225D4804F03B
:10100000EBF8204604F0A4F8296A00225A4804F0BC
:10101000E3F8204604F09CF8A96A0022574804F03F
:10102000DBF8204604F094F8296B0022544804F0C1
:10103000D3F8204604F08CF8A96B0022514804F044
:10104000CBF8204604F084F8296C00224E4804F0C6
:10105000C3F8204604F07CF8A96C00224B484C4DA4
:1010600004F0BAF83220FFF799FF204604F070F838
:1010700029680022474804F0AFF8204604F068F8D9
:10108000A9680022444804F0A7F8204604F060F85C
:1010900029690022414804F09FF8204604F058F8DE
:1010A000A96900223E4804F097F8204604F050F861
:1010B000296A00223B4804F08FF8204604F048F8E3
:1010C000A96B0022384804F087F8204604F040F865
:1010D000A96A0022354804F07FF8204604F038F869
:1010E000296B0022324804F077F8204604F030F8EB
:1010F000296C00222F4804F06FF82F4D3220FFF7A3
:101100004DFF204604F024F8296800222B4804F003
:1011100063F8204604F01CF8A9680022284804F06F
:101120005BF8204604F014F829690022254804F0F1
:1011300053F8204604F00CF8A9690022224804F074
:101140004BF8204604F004F8204B2148196800228F
:1011500004F042F8BDE838403220FFF71FBF00BF5F
:10116000655C0008040000206C5C00087F5C0008DF
:101170009D5C0008BC5C0008DC5C0008FD5C0008AD
:101180001E5D0008395D0008575D0008755D0008A8
:10119000540100208D5D0008A15D0008BA5D0008C3
:1011A000C75D0008D45D0008E15D0008EF5D000840
:1011B000015E0008145E0008F4000020315E0008A3
:1011C0004D5E0008755E0008975E000890020020E2
:1011D000A35E00087FB500220A2680EAE071A1EB39
:1011E000E07104ADD4B22A4491FBF6F506FB15116B
:1011F000631C303102F8101C5BB2291E1A46F0DC69
:10120000002806DA04A90A442D21A31C02F8101CA8
:101210005BB2002204A919440A4C01F8102CD0B288
:10122000191A934249B204D100220648E25404B08C
:1012300070BD04AD294411F8111CA154421C52B2D6
:10124000EDE700BF44070020F0B500230A2780EA3D
:10125000E07485B0A4EBE07404AEDDB2334494FBDB
:10126000F7F607FB16446A1C303403F8104C52B2F0
:10127000341E1346F0DC002806DA04A803442D20AF
:10128000AA1C03F8100C52B2002304A8104400F862
:10129000103CDDB2541B9A4264B201EB030004D14E
:1012A00000230370084605B0F0BD04A8044414F8F8
:1012B000110CC8546B1C5BB2EBE70000F0B50023C7
:1012C0000A2780EAE0748BB0A4EBE0740AAEDDB2CA
:1012D000334494FBF7F607FB16446A1C303403F8DA
:1012E000284C52B2341E1346F0DC012AD8BF3022FB
:1012F0000AAC2344CFBF002403F8282CAA1C52B206
:10130000C8BF03F8284C022A08DC012906D930247A
:101310000AAB1344013203F8284C52B200242E26A3
:10132000234665B2AA420BDC002806DA0AA95A1C39
:101330000B442D2103F8141C53B20022124C19E067
:101340008B421D4605D10AAF01333D445BB205F81F
:10135000146C1DF804700AAD1D44013305F8147CAB
:101360005BB20134DDE70AAD294411F8151CA15424
:10137000421C52B2D0B2191A9A4249B2F3D1002398
:101380000148A3540BB0F0BD54070020002802D040
:10139000DCBF404200B270470023DAB2815C013307
:1013A0000029FAD11046704770B5002465B2435D3C
:1013B000661C4BB958B20D5C181940B216180133AF
:1013C0002DB93570104670BD53553446EEE71554AF
:1013D000F0E7F0B500277CB2055D7E1C8DB968B2E0
:1013E0007E190C5CF6B270B201356CB9214648B278
:1013F000145C701840B21D1801313CB92C701846AD
:10140000F0BD1D553746E6E71C54E8E71C54EEE7EF
:101410002DE9F04180464FF4616086B00D46B8FB7F
:10142000F0F001A9FFF710FF01A8FFF7B5FF0128B1
:1014300096BF012200223023144698BF2B70E6B2DB
:10144000B31A06A95BB20B4413F8141C2B19741CB5
:1014500064B2002945D13A221A703C23B8FBF3F25A
:10146000B2FBF3F001A903FB1020FFF7EDFE01A88A
:10147000FFF792FF01289FBF30232B55B41C64B2A5
:101480002646F7B23B1B06AA5BB2134413F8142C92
:10149000AB197E1C76B232BB3A221A703C23B8FBE1
:1014A000F3F001A903FB1080FFF7CEFE01A8FFF7C0
:1014B00073FF01289CBF3023AB554FF000039CBF46
:1014C000BE1C76B25AB206A90A4412F8141CF218CD
:1014D00052B2A818013341B90170284606B0BDE8E0
:1014E000F0811970ABE71A70CBE7A954EAE7F0B5C1
:1014F00007464FF4616087B00D46B7FBF0F001A9D5
:10150000FFF7A2FE01A8FFF747FF012896BF0122BF
:1015100000223023144698BF2B70E6B2B31A06A9F6
:101520005BB20B4413F8141C2B19741C64B229BB56
:101530003A221A703C23B7FBF3F7B7FBF3F001A98B
:1015400003FB1070FFF780FE01A8FFF725FF0128BD
:101550009CBF30232B554FF000039CBFB41C64B2DA
:101560005AB206A90A4412F8141CE21852B2A8187A
:10157000013329B90170284607B0F0BD1970CCE7D6
:10158000A954EDE702460D494B6808688B60834219
:10159000C1E9002007DC934203DC9042A8BF10465B
:1015A0007047834206DB904204DC9342A8BF134697
:1015B000184670479842A8BF184670472007002079
:1015C00002460D494B6808688B608342C1E90020E0
:1015D00007DC934203DC9042A8BF10467047834269
:1015E00006DB904204DC9342A8BF134618467047BE
:1015F0009842A8BF184670472C07002002460D49A4
:101600004B6808688B608342C1E9002007DC934285
:1016100003DC9042A8BF10467047834206DB90422D
:1016200004DC9342A8BF1346184670479842A8BFEF
:101630001846704738070020704770477047000011
:10164000014B1868704700BF4C020020094B10B5D1
:1016500098420DD060B1084A084C126820600AB167
:101660001830904723681B6913B1BDE81040184734
:1016700010BD00BFC05E0008680700204C020020BB
:10168000024B1860024B1868FFF7E0BF68070020A4
:101690004C020020044B054A1B68934203D013B14F
:1016A0005B6903B1184770474C020020C05E000818
:1016B0004FF4804310B5064C02202361FFF738FC3D
:1016C0004FF0804302202361BDE81040FFF730BC9B
:1016D000000C014070B54FF07C454FF480560D4C26
:1016E00025612661FFF7E4FF0120FFF757FC256124
:1016F0002661FFF7DDFF0120FFF750FC4FF4806308
:1017000025612361FFF7D4FFBDE870400120FFF79A
:1017100045BC00BF000C01404FF07C42244B70B52B
:1017200004461A610E4611B14FF400421A61E206F6
:1017300044BF4FF400521A6114F0200F18BF4FF449
:1017400080521B4B18BF1A61650644BF4FF40062FC
:101750001A6114F0800F18BF4FF48063144D18BF46
:101760002B61FFF7A5FF4FF07053E0072B6144BFDB
:101770004FF400532B61A10742BF4FF480520C4B32
:101780001A61620742BF4FF40062094B1A612307D6
:1017900042BF4FF48062064B1A61FFF789FF0220B7
:1017A000FFF7FCFB1EB14FF00042014B1A6170BD08
:1017B000000C0140C00040F0400038B500F0F800D7
:1017C0000C460021FFF7A8FF651E073415F8010F2E
:1017D0000121FFF7A1FFA542F8D1BDE83840002163
:1017E0008020FFF799BF000073B51F4C1F4D69465D
:1017F0000020CDE900451E4EFFF7DCFF1D4B69467A
:101800000120CDE90036FFF7D5FF1B4B6946CDE936
:1018100000350220194DFFF7CDFF69460320CDE9C1
:101820000056FFF7C7FF69460420CDE90054FFF7D3
:10183000C1FF134A134B69460520CDE90023FFF78A
:10184000B9FF114B11490620CDE900136946FFF796
:10185000B1FF0F4B0F486946CDE900030720FFF7A2
:10186000A9FF02B070BD00BF04150E0400041F1FC5
:101870000000041F150E040000040E15040E1504CC
:101880000207070A0A1C1C08051509000F050505B3
:10189000010101001111111F064A1070064A117052
:1018A00019B940F08000FFF737BF002140F0C000B9
:1018B000F9E700BF6C0700206D07002070B50D46EA
:1018C0000446C64314F8010B00B970BD0121FFF7AF
:1018D00023FF012DF6D13319DBB2072BF2D12946B4
:1018E0000020FFF7D9FFEDE70121C0B2FFF714BFD9
:1018F0002DE9F8430F46DFF878801B4C1B4E451E40
:1019000015F8010F08B9BDE8F883B22819D10121F3
:101910004920FFF701FF237896F800900133DBB2EE
:101920002370B9F1000FEBD1082BE9D1022FE7D1D9
:1019300001214846FFF7B0FF012384F8009033707F
:10194000DEE7AF2802D101210320E2E7AA2802D175
:1019500001210220DDE7BF2889BF40440121012188
:1019600010F8C00CD5E700BF6C0700206D07002001
:101970005002002000210120FFF7CEBE08B56420F0
:10198000FFF70CFBFFF7A6FE00210E20FFF7C4FEB9
:10199000BDE80840FFF7EEBF0221FFF7A9BF10B571
:1019A000044608461146FFF777FF2046BDE8104081
:1019B0000221FFF79DBF08B5FFF7E0FFFFF7DAFF51
:1019C000BDE8084000210C20FFF7A6BE054B82B001
:1019D000DA690243DA61DB6918400190019B02B0C9
:1019E000704700BF00100240054B82B09A69024365
:1019F0009A619B6918400190019B02B0704700BF3B
:101A0000001002400022014B1A807047C8070020D6
:101A100008B5FEF7AFFFBDE808400148FFF724B95D
:101A2000EA5E000810B53B4C94F9001061B9084615
:101A3000FFF732FF3848FFF7AFFF4FF48762374BAD
:101A40009A6140F2B4521A6294F90030012B0DD120
:101A500000210846FFF720FF3148FFF79DFF4FF4B4
:101A600096722E4B9A614FF4D2721A6294F900303A
:101A7000022B0DD100210846FFF70EFF2948FFF782
:101A80008BFF4FF48C72254B9A614FF4B9721A6236
:101A900094F90030032B0CD100210846FFF7FCFE1F
:101AA0002148FFF779FFA0221C4B9A614FF48C72FA
:101AB0001A6294F90030042B0DD100210846FFF77B
:101AC000EBFE1A48FFF768FF4FF44872134B9A6118
:101AD0004FF4AA621A6294F90030052B0CD1002150
:101AE0000846FFF7D9FE1248FFF756FF64220B4B5A
:101AF0009A614FF4FA621A6294F90030062B04BF1F
:101B000000232370FEF76CFFBDE810404FF4167001
:101B1000FFF744BA87070020B06000085401002096
:101B2000C1600008D2600008E3600008F4600008AB
:101B300005610008FEF754BF08B501210720FFF733
:101B4000ABFE0121FF20FFF7E7FDFEF749FF044B45
:101B5000C8209A68034B1A60BDE80840FFF71EBA18
:101B600054010020000A002008B501210720FFF7DA
:101B700093FE0121FF20FFF7CFFDFEF731FF044B5D
:101B8000C8201A6C034B1A60BDE80840FFF706BA7C
:101B900054010020F809002018B100221146FFF777
:101BA000FEBE704749F6AF2310B50E4C90B02268C8
:101BB0009A4215D90C4B0BA91868FFF798FC4FF403
:101BC0006163206801A9B0FBF3F0FFF73DFB074913
:101BD00006AB0BAAFFF7FDFB022106A8FFF7F6F8FC
:101BE00010B010BD740700208C070020FD5F0008B6
:101BF00010B5164C90B0164803F0AAFA00222168DE
:101C0000144803F0E9FA49F6AF2322689A421BD937
:101C1000114B0BA91868FFF76AFC4FF46163206849
:101C200001A9B0FBF3F0FFF70FFB06AB0BAA0B49C2
:101C3000FFF7CFFB012106A8FFF7C8F8044803F01F
:101C400087FA06A803F01AFA10B010BD700700203A
:101C5000505C0008925F000880070020FD5F0008CC
:101C600008B501210720FFF717FEBDE80840012154
:101C7000FF20FFF751BD000070B54FF0007191FAE1
:101C8000A1F1B1FA81F3104C00F00071D94054F881
:101C9000215000F0F8704FF0F87292FAA2F3B3FA04
:101CA00083F392FAA2F20726B2FA82F220FA03F341
:101CB00006FA03F3D04025EA030306FA00F01843BE
:101CC00044F8210070BD00BF0C24014030B54FF432
:101CD000407393FAA3F34FF40072B3FA83F31F2413
:101CE000074DDA4055F8223000F01F00844001F023
:101CF0001F0123EA04038140194345F8221030BD37
:101D00002C240140002070470021012210B5044618
:101D10002A4B08461A70FFF7BFFD294B022118888D
:101D2000FFF7CCFAFFF738FE2648FFF735FE002113
:101D30000720FFF7B1FD244B188800B2FFF74AFADD
:101D4000FFF72AFE2148FFF727FE062C10D1FFF7E8
:101D500077FCC068FFF77AFCFFF772FC0068FFF7BA
:101D600075FCFFF76DFCBDE81040C068FFF76EBC66
:101D7000022C13D1164B174A198812880A4412B242
:101D80001A801A8812B2B2F5805F02DB40F6FF7249
:101D90001A801B88104A1BB2936010BD012CFCD125
:101DA0000B4B0C491A880988521A12B21A801A88E9
:101DB00012B2002AEDDC0022EAE700BF94070020FF
:101DC0004E0800202C6000083E080020306000080B
:101DD0008807002074020020007400400122334B69
:101DE000062810B51A70324C3CD1FFF729FCC068A8
:101DF000FFF72CFCFFF724FC4068FFF727FCFFF7F8
:101E00001FFCC068FFF722FC00210846FFF744FDD5
:101E1000284B02211888FFF751FAFFF7BDFD26482D
:101E2000FFF7BAFD00210720FFF736FD234B188886
:101E300000B2FFF7CFF9FFF7AFFD2148FFF7ACFD88
:101E400001210320FFF728FD1E48FFF7A5FD20888C
:101E500000B2FFF7BFF9FFF79FFDBDE810401A4839
:101E6000FFF79ABD022812D1184B22881B88134411
:101E70001BB2238023881BB2B3F5805F02DB40F6E0
:101E8000FF7323802388124A1BB25361BCE70128E9
:101E9000BAD10E4A238812889B1A1BB2238023884A
:101EA0001BB2002BEEDC0023EBE700BF9407002001
:101EB000720200204E080020016000083E08002049
:101EC000046000080A6000083C61000874020020F9
:101ED000007400400122354B052810B51A70344CAF
:101EE00041D1FFF7ADFBC068FFF7B0FBFFF7A8FBE0
:101EF0004068FFF7ABFBFFF7A3FB4068FFF7A6FBCB
:101F0000FFF79EFBC068FFF7A1FB00210846FFF723
:101F1000C3FC284B02211888FFF7D0F9FFF73CFDDE
:101F20002548FFF739FD00210620FFF7B5FC234BBC
:101F3000188800B2FFF74EF9FFF72EFD2048FFF793
:101F40002BFD01210320FFF7A7FC1E48FFF724FD0E
:101F5000208800B2FFF73EF9FFF71EFDBDE81040F4
:101F60001948FFF719BD022812D1184B22881B8887
:101F700013441BB2238023881BB2B3F5805F02DBBE
:101F800040F6FF7323802388114A1BB29360BCE79D
:101F90000128BAD10D4A238812889B1A1BB22380CC
:101FA00023881BB2002BEEDC0023EBE79407002014
:101FB000880700204E0800202C600008B602002090
:101FC0008D5F00089E6000083C61000874020020DC
:101FD00000740040002310B596B00446084611A9CD
:101FE0008DF804208DF80530FFF781FA4FF4616019
:101FF00002A9B4FBF0F0FFF727F907AB11AA0749D4
:10200000FFF7E7F90CAA07A901A8FFF7CDF904210A
:102010000CA8FEF7DBFE16B010BD00BFFD5F000888
:10202000022838B51F4C204D2AD123882A68013355
:102030001BB29342238001D3002323800021084652
:10204000FFF72AFC2868B4F900300138C01A00EB09
:10205000001004302844FFF79FFC144803F078F880
:10206000B4F900100022124803F0B6F80F4803F04C
:102070006FF829680022BDE838400E4803F0ACB87C
:102080000128DBD12388013B1BB2002B2380BEBF7C
:102090002B6803F1FF332380B4F90030002BCDDA35
:1020A000CAE700BFC807002058080020505C00089D
:1020B0000C60000819600008002110B504460846AD
:1020C000FFF7EAFB0A4B188800B2FFF783F8FFF727
:1020D00063FC0848FFF760FC022C08D1BDE8104003
:1020E000054B064A1B881BB29360FEF743BC10BD2C
:1020F0003E0800204E5F0008B602002004000020C9
:10210000002110B504460846FFF7C6FB0A4B1888A5
:1021100000B2FFF75FF8FFF73FFC0848FFF73CFC11
:10212000022C08D1BDE81040054B064A1B881BB2A3
:102130001361FEF71FBC10BD3E0800204E5F000873
:10214000B802002004000020002110B50446084613
:10215000FFF7A2FB1F48FFF71FFC022C30D1FEF750
:1021600099FCFEF7C3FB002104460846FFF794FBE9
:102170001948FFF711FC4FF4FA60FEF70FFF00213A
:102180000846FFF789FB012C1BD11448FFF704FC1C
:102190001348FEF769FD4FF4FA60FEF7FFFE114B9E
:1021A0001A69114B1A604FF46162104B19694A4366
:1021B0000F490A6099680F4A11601A6C0E4B1A6039
:1021C00010BD0E48FFF7E8FBBDE810404FF47A6001
:1021D000FEF7E4BEF65E0008075F0008185F00081F
:1021E000295F0008F4000020780700205401002037
:1021F000FC090020000A0020F8090020385F0008D0
:10220000022810B50E4C15D123690133236100213A
:102210000846FFF741FB2069FEF7DCFFFFF7BCFB38
:102220000848FFF7B9FB4FF4616322695343064A3C
:10223000136010BD0128EAD12369013BE6E700BF26
:102240005401002019610008FC09002010B5304C31
:10225000022894F9003052D101335BB2072B08BF3A
:102260000023237094F9001029B90846FFF714FBE6
:102270002848FFF791FB94F90030012B06D100218B
:102280000846FFF709FB2448FFF786FB94F9003066
:10229000022B06D100210846FFF7FEFA1F48FFF780
:1022A0007BFB94F90030032B06D100210846FFF791
:1022B000F3FA1B48FFF770FB94F90030042B06D1AA
:1022C00000210846FFF7E8FA1648FFF765FB94F986
:1022D0000030052B06D100210846FFF7DDFA124831
:1022E000FFF75AFB94F90030062B10D10021084665
:1022F000FFF7D2FABDE810400C48FFF74DBB0128AC
:10230000B0D1013B5BB2002BB8BF0623A9E710BDDB
:10231000870700203B6000084C6000085E600008F2
:102320006F6000087F60000890600008A0600008EF
:10233000022810B50D4C14D1A3690A33A361002102
:102340000846FFF7A9FA0A23A0690121B0FBF3F0C0
:10235000FEF7B4FFFFF720FBBDE810400448FFF78D
:102360001BBB0128EBD1A3690A3BE7E7540100201E
:10237000CD600008022810B50D4C14D1236A0A3331
:10238000236200210846FFF787FA0A23206A012109
:10239000B0FBF3F0FEF792FFFFF7FEFABDE8104046
:1023A0000448FFF7F9BA0128EBD1236A0A3BE7E7B3
:1023B00054010020CD600008022810B50B4C10D14C
:1023C000A36A0133A36200210846FFF765FAA06AF9
:1023D000FEF700FFFFF7E0FABDE810400448FFF702
:1023E000DBBA0128EFD1A36A013BEBE754010020DF
:1023F000C8610008022810B50B4C10D1236B0133C3
:10240000236300210846FFF747FA206BFEF7E2FE40
:10241000FFF7C2FABDE810400448FFF7BDBA012833
:10242000EFD1236B013BEBE754010020C8610008AA
:10243000022838B51A4C2DD1A36B0133A3630021B8
:102440000A250846FFF728FAA06BFEF7C3FEFFF740
:10245000A3FA1448FFF7A0FA206A0121B0FBF5F0B7
:10246000FEF72CFFFFF798FA0F48FFF795FA642262
:10247000236AA06B01215843B0FBF2F0181AB0FB9D
:10248000F5F0FEF71BFFFFF787FABDE83840074875
:10249000FFF782BA0128D2D1A36B013BCEE700BF80
:1024A000540100201661000801600008CD6000089A
:1024B000044B9A68044B1B689A4201D1FFF7D0BBCA
:1024C000704700BF54010020000A0020044B1A6C22
:1024D000044B1B689A4201D1FFF7C2BB704700BF93
:1024E00054010020F8090020002110B504460846D8
:1024F000FFF7D2F9022C174B0FD19A680132082A44
:1025000008BF01229A609A68013A062A1FD8DFE8BC
:1025100002F00B121416181A1C00012CF3D19A6841
:10252000013A08BF0722EDE70B48FFF735FABDE88F
:102530001040FFF7BDBF0948F7E70948F5E709482C
:10254000F3E70948F1E70948EFE70948EDE7012219
:102550009A6010BD540100205161000862610008BA
:10256000736100088461000895610008A661000895
:10257000B7610008002110B504460846FFF78CF942
:10258000022C124B13D11A6C0132042A08BF01220B
:102590001A641A6C022A11D0032A11D0012A11D10F
:1025A0000B48FFF7F9F9BDE81040FFF78FBF012C8A
:1025B000EFD11A6C013A08BF0322E9E70548F0E7BA
:1025C0000548EEE701221A6410BD00BF5401002047
:1025D0001E6100082F61000840610008274A10B5FD
:1025E00093689168DB43C9052549C3F3C023886814
:1025F00058BF43F0020310F0100F22481ED08C6821
:10260000A40628D58C68640627D58968090626D5CE
:102610009268D24312F4805223D102801A4A117870
:1026200001F00300834215D043EA8103DBB2E12BC2
:1026300013701ED10222154B1A700BE0032140F2D9
:10264000DC54B0F90020A2420DDD40F2B453038007
:102650000E4B197010BD0521F1E70621EFE70721A8
:10266000EDE70821EBE7013212B2142A0280D5D13E
:10267000EEE7D22BEED1054B0122DDE70008014049
:10268000000C0140C6070020CA070020C407002034
:102690000022034B1A600122024B1A70704700BFE0
:1026A000B80700209907002038B504464FF4616050
:1026B000B4FBF0F0FEF78EFD0546FEF76DFE012837
:1026C00003D801211148FFF7F9F801212846FFF747
:1026D000F5F801210E48FFF7F1F83C23B4FBF3F4C1
:1026E000B4FBF3F003FB1040FEF774FD0446FEF765
:1026F00053FE012803D801210448FFF7DFF82046E4
:10270000BDE838400121FFF7D9B800BFD85E000806
:10271000725F00084FF40032064B1A614FF48032AA
:10272000A3F580631A610023034A1370034A1370F0
:10273000704700BF000C014096070020980700205A
:102740000222054B1A610123044A1370044A1370D4
:10275000044A1361704700BF000C01409607002037
:102760009807002000080140094908B50B68022BB2
:1027700003D1FFF7E5FF01230B600B68032B06D1A4
:10278000044B9869012802D1FFF7DAFF086008BD01
:1027900078020020F40000200122164B10B51A70B8
:1027A000FFF7CEFF0228144C1ED1A3690133A361A9
:1027B00000210846FFF770F8A069FEF70BFDFFF750
:1027C000EBF80E48FFF7E8F801210020FFF764F866
:1027D0000B4B188800B2FEF7FDFCFFF7DDF8BDE8F3
:1027E00010400848FFF7D8B80128E1D1A369013BA0
:1027F000DDE700BF94070020040000203C610008D2
:10280000B6020020495F00080122164B10B51A706D
:10281000FFF796FF0228144C1ED1A36A0133A3626E
:1028200000210846FFF738F8A06AFEF7D3FCFFF74F
:10283000B3F80E48FFF7B0F801210020FFF72CF89D
:102840000B4B02211888FEF739FDFFF7A5F8BDE80C
:1028500010400848FFF7A0B80128E1D1A36A013B66
:10286000DDE700BF94070020040000203C61000861
:10287000540800202C6000080122164B10B51A7075
:10288000FFF75EFF0228144C1ED1236B0133236334
:1028900000210846FFF700F8206BFEF79BFCFFF7CE
:1028A0007BF80E48FFF778F801210020FEF7F4FFCF
:1028B0000B4B02211888FEF701FDFFF76DF8BDE80C
:1028C00010400848FFF768B80128E1D1236B013BAD
:1028D000DDE700BF94070020040000203C610008F1
:1028E0004E0800202C6000080122164B10B51A700B
:1028F000FFF726FF0228144C1ED1A36B0133A363FC
:1029000000210846FEF7C8FFA06BFEF763FCFFF747
:1029100043F80E48FFF740F801210020FEF7BCFF06
:102920000B4B02211888FEF7C9FCFFF735F8BDE80C
:1029300010400848FFF730B80128E1D1A36B013BF4
:10294000DDE700BF94070020040000203C61000880
:102950003C0800202C6000080122F8B5294B2A4EC3
:102960001A70FFF7EDFE02282ED133880133338031
:1029700000210846FEF790FF02213088FEF79EFCFA
:10298000224F234CFFF708F82248FFF705F83B8851
:1029900022889BB212B2002A1F4D1ADC46232B64F8
:1029A000286CFEF717FCFEF7F7FF1C48FEF7F4FF54
:1029B0001B4B1B883A8821889BB209B2002992B22E
:1029C00014DC0A23AB64F8BD0128D1D13388013B64
:1029D000CDE7328821889B1A42F210721BB223EA9B
:1029E000E373534309B293FBF1F3D8E79B1A42F226
:1029F00010721BB223EAE3735343218809B293FB9D
:102A0000F1F3DFE7940700207C020020C0020020E1
:102A10003E08002001600008040000205D5F0008FF
:102A2000540800200222064B1A610123054A137044
:102A3000054A13704FF40062044B1A61704700BFDF
:102A4000000C014096070020970700200008014075
:102A500008B5FFF75FFEFFF7E5FFBDE8084032204D
:102A6000FEF79CBA38B501220546154B154C1A7075
:102A7000FFF7EEFF022D1ED1236A013323620021EE
:102A80000846FEF709FF206AFEF7A4FBFEF784FF65
:102A90000D48FEF781FF01210020FEF7FDFE0B4BE4
:102AA000188800B2FEF796FBFEF776FFBDE83840C7
:102AB0000748FEF771BF012DE1D1236A013BDDE735
:102AC00094070020040000203C610008B8020020A8
:102AD000495F000808B50D4B93F90020022A13D076
:102AE00002221A70FFF716FEFFF79CFF0022084B28
:102AF00032201A60FEF752FA064802F029FBBDE8C0
:102B00000840054802F0BABA08BD00BF7E070020A1
:102B1000B4070020505C0008516D00084FF40032EB
:102B2000074B1A610023074A1370074A13704FF0CE
:102B3000006203F1804303F584331A61704700BFDC
:102B4000000C0140960700209707002000212DE986
:102B5000F04101262C4B2D4D074608461E70FEF70E
:102B60009BFE2B782A4C03F0FF083BBB294B02212C
:102B70001888FEF7A3FBFEF70FFF2748FEF70CFFB0
:102B800041460720FEF788FE208800B2FEF722FBB0
:102B9000FEF702FF2148FEF7FFFE05203146FEF753
:102BA0007BFE1F48FEF7F8FE022F2AD12B7813BBBD
:102BB000FFF7C6FDBDE8F041FFF734BF194B022116
:102BC0001888FEF77BFBFEF7E7FE1348FEF7E4FEEE
:102BD00000210720FEF760FE208800B2FEF7FAFA17
:102BE000FEF7DAFE1048FEF7D7FE06203146FEF764
:102BF00053FE0E48D6E7FFF78DFDBDE8F041FFF725
:102C00008DBFBDE8F08100BF94070020960700202B
:102C10003E080020540800202C60000804600008D2
:102C2000DA5E00084E080020DF5E0008E65E00085D
:102C300008B5FFF773FFFFF783FDBDE808403220BA
:102C4000FEF7ACB908B50D4B93F90020012A13D05B
:102C500001221A70FFF762FFFFF772FD0022084B96
:102C600032201A60FEF79AF9064802F071FABDE8C0
:102C70000840054802F002BA08BD00BF7E070020E8
:102C8000B4070020505C0008546D00082DE9F04F97
:102C9000BC4A87B01378019003F0FF040292DFF87A
:102CA00044A3DFF844B3DFF84493B74FDFF8408321
:102CB000B64D002B3DD1B64B1A88B64B1B6A053377
:102CC000934215D921462046FEF7E6FDB248FEF7AD
:102CD00063FE4FF4FA60FEF761F921462046FEF7E5
:102CE000DBFDAE48FEF758FE40F6B830FEF756F969
:102CF00001260024029B1E70A94B8AF800408BF825
:102D00000040C9F800403C601C60C8F800402C60DE
:102D10008AF80060FFF796FFA24B214620461E70FE
:102D2000FEF7BAFDA048FEF737FE4FF47A70FEF7C3
:102D300035F99E4C208800B2FEF728FB0528049444
:102D400040F3D1819A4B934E1A88B1690393914213
:102D500020D9944C2278022A1CD1964B1B68B3F5DB
:102D60007A7F17D900238BF800302968924B99425B
:102D700003D928683968FFF72DF90023C9F8003016
:102D8000C8F8003001238AF800300593FFF75AFF96
:102D9000059B2370039B326A1B889A4208D2814BA1
:102DA0001B78012B04D1834B1B68B3F57A7F09D8BC
:102DB000824BD9F800201B689A4223D9794B1B78A3
:102DC000012B1FD100238AF80030D8F800207A4B5D
:102DD0009A4206D9D8F800000122D9F80010FFF76E
:102DE000F9F83A686E4B1A602A68754B9A600023AE
:102DF0003B602B6001238BF80030FFF76BFE022253
:102E0000684B1A70019A6F4C022A94F9003040F016
:102E1000598101335BB2052B08BF0023237094F95D
:102E20000030002B32D1194618460193FEF734FDCD
:102E3000039B02211888FEF741FAFEF7ADFD6248B8
:102E4000FEF7AAFD049B188800B2FEF7C3F9FEF74F
:102E5000A3FD5E48FEF7A0FD01210620FEF71CFD44
:102E600001210420FEF740FD594A019B1278012AF6
:102E700040F032811146072003930192FEF70CFDCA
:102E8000019A039B11461846FEF72EFD94F9003077
:102E9000012B28D1002108460193FEF7FDFC306983
:102EA000FEF798F9FEF778FD4A48FEF775FD0A220D
:102EB000019BB0691946B0FBF2F003930192FEF753
:102EC000FDF9FEF769FD4048FEF766FD039B019A98
:102ED000306A1946B0FBF2F0FEF7F0F9FEF75CFD40
:102EE0003D48FEF759FD94F90060022E21D10021E2
:102EF0000846FEF7D1FC01213046FEF7F5FC002123
:102F00000120FEF7C9FC3548FEF746FD4FF461632A
:102F10002868B0FBF3F0FEF75DF9FEF73DFD3048A1
:102F2000FEF73AFD03200121FEF7B6FC3868FFF7F3
:102F3000BBFB94F90060032E5CD100210846FEF72C
:102F4000ABFC01210020FEF7CFFC00210120FEF7A1
:102F5000A3FC2248FEF720FD4FF46163D8F800007F
:102F6000B0FBF3F0FEF736F9FEF716FD1C48FEF74E
:102F700013FD30460121FEF78FFCD9F80000FFF762
:102F800093FB37E0940700208C0700207407002093
:102F90005408002054010020D9610008EA610008AB
:102FA0009007002070020020FB6100083E0800200E
:102FB0004E080020B40700204F8C0500FC090020BB
:102FC000F400002085070020016000080C62000862
:102FD00098070020EE5900080F6100083E610008C4
:102FE000146200087F0700208A0700208007002065
:102FF0007007002094F90030042B23D100210846EB
:10300000FEF74AFC01210220FEF76EFC00210120A0
:10301000FEF742FC3A48FEF7BFFC3A4B98684FF483
:103020006163B0FBF3F0FEF7D5F8FEF7B5FC364868
:10303000FEF7B2FC03200121FEF72EFC334B18688B
:10304000FFF732FB324802F083F8029B0022197826
:10305000304802F0C1F82E4802F07AF89AF80010D1
:1030600000222D4802F0B8F8294802F071F8D9F88A
:1030700000100022294802F0AFF8254802F068F855
:10308000D8F800100022264802F0A6F8204802F0E6
:103090005FF89BF800100022224802F09DF81C48BF
:1030A00002F056F8396800221F4802F095F81848D7
:1030B00002F04EF8002229681C4807B0BDE8F04F26
:1030C00002F08AB8019A012A7FF4A9AE013B5BB2F3
:1030D000002BB8BF0423A1E601210720FEF7DCFB8B
:1030E00001210220D0E6124B1B68B3F57A7FA9D9E3
:1030F00000210846FEF7D0FB0E48FEF74DFCA1E785
:103100001E620008F40000202162000890070020E1
:10311000505C00083B6200085062000865620008CD
:10312000756200088D620008A5620008B862000898
:10313000B40700202A6200080021F8B506460846B8
:10314000FEF7AAFB0122664B1A70664B197811B97B
:103150001A70FFF79DFA644D644C2B68A26A9A427C
:1031600011D3FFF76FFD624B226A1B889A420AD285
:10317000604B1B68B3F5C87F05D9FFF789FA2B6848
:10318000A26A13442B602B68A26A9A420DD2FFF701
:10319000A1FC574BA2691B889A4206D9554B1B6864
:1031A000B3F5C87F01D9FFF773FAA36A216B2A68C8
:1031B0000B44934201D2FFF76BFA4F4D022E95F963
:1031C00000307DD101335BB2032B08BF00232B708D
:1031D00095F900605EBB31463046FEF75DFB444B1F
:1031E00002211888FEF76AF8FEF7D6FB4348FEF77F
:1031F000D3FB434B188800B2FDF7ECFFFEF7CCFB86
:103200004048FEF7C9FB01210620FEF745FB0121DE
:103210000520FEF769FB3C4B1F78012F58D139463A
:103220000720FEF739FB39463046FEF75DFB95F97E
:103230000060012E22D100210A270846FEF72CFB50
:103240002069FDF7C7FFFEF7A7FB3048FEF7A4FB98
:10325000A0693146B0FBF7F0FEF730F8FEF79CFBB3
:103260002648FEF799FB206A3146B0FBF7F0FEF7DF
:1032700025F8FEF791FB2648FEF78EFB95F9003006
:10328000022B2CD100210846FEF706FBA06AFDF7B1
:10329000A1FFFEF781FB1F48FEF77EFB206BFDF7C9
:1032A00099FFFEF779FB1C48FEF776FB032001210E
:1032B000FEF7F2FA194B1868BDE8F840FFF7F4B9C9
:1032C000012E85D1013B5BB2002BB8BF02237EE704
:1032D00001210720FEF7E0FA01210220A5E7F8BD51
:1032E0009407002095070020B80700205401002013
:1032F0004E080020B4070020850700200160000868
:103300003E0800200C62000898070020EE590008D3
:103310000F610008A65F0008D16100088C0700203B
:1033200008B5FFF7FBFBBDE80840FFF7F3B9000065
:1033300001222DE9F84FBA4EBA4B357882461A7001
:103340009846B94CDFF85093B84F2DBBB84B1A884C
:10335000B84B1B6A0533934215D929462846FEF718
:103360009BFAB548FEF718FB4FF4FA60FDF716FE1E
:1033700029462846FEF790FAB048FEF70DFB40F6C6
:10338000B830FDF70BFE0023AD4A237089F80030FA
:10339000136001223B603270AA4B3A681B689A4264
:1033A00040F2FB80FFF7BCFF00232370FFF7DCF93E
:1033B000BAF1020FA44D40F00981A44B1B78002BF9
:1033C00040F00081FFF734FC0123237095F90010D1
:1033D000A1BB0846FEF760FA9C4BDFF8B0A21A7852
:1033E0009B46002A40F0FE80914B02211888FDF791
:1033F00065FFFEF7D1FA9648FEF7CEFA0221BAF839
:103400000000FDF75BFFFEF7C7FA9248FEF7C4FA2B
:103410009BF80030DFF884A201210720002B40F048
:10342000F480FEF739FA01210020FEF75DFA9AF8E0
:1034300000300A2B84BF00238AF8003095F900A0E1
:10344000BAF1010F1ED10021DFF8E8B10846FEF7FE
:1034500023FA8148FEF7A0FADBF81000FDF7BAFE68
:10346000FEF79AFA7D48FEF797FA0A23DBF8200068
:103470005146B0FBF3F0FDF721FFFEF78DFA7548DA
:10348000FEF78AFA95F90030022B2FD100214FF078
:103490000A0ADFF8A0B10846FEF7FEF9DBF83800AB
:1034A000FDF798FEFEF778FA6D48FEF775FADBF83F
:1034B00020000121B0FBFAF0FDF700FFFEF76CFAE7
:1034C0006348FEF769FA6422DBF82030DBF8380045
:1034D00001215843B0FBF2F0181AB0FBFAF0FDF7E7
:1034E000EDFEFEF759FA5B48FEF756FA95F90050E3
:1034F000032D1AD100210846FEF7CEF95948FEF7F0
:103500004BFA4F4B18684FF46163B0FBF3F0FDF7D3
:1035100061FEFEF741FA5448FEF73EFA28460121C3
:10352000FEF7BAF93868FFF7BFF86420FDF736FDFB
:103530004E4801F00DFE317800224D4801F04CFE5E
:103540004A4801F005FE98F800100022494801F0B1
:1035500043FE464801F0FCFD21780022464801F078
:103560003BFE424801F0F4FD39680022434801F077
:1035700033FE3E4801F0ECFD99F80010002240486F
:1035800001F02AFE394801F0E3FD3E4B00221968A4
:103590003D48BDE8F84F01F01FBE3C49254A088868
:1035A000136A8342FFF4FEAE6420926B09885A438B
:1035B000B2FBF0F29B1A8B427FF6F8AEFFF738FBB6
:1035C0000123F2E6FFF7ACFE0023FEE6BAF1010F9D
:1035D0007FF4FCAE2B78013B5BB2002BB8BF03231A
:1035E0002B70F3E60221BAF80000FDF767FEFEF744
:1035F000D3F91748FEF7D0F9254B188800B2FDF72C
:10360000E9FDFEF7C9F9234800E79AF80030052BD9
:103610007FF607AFFEF740F90121084605E700BF36
:1036200095070020940700207F07002080070020D6
:103630005408002054010020D9610008EA61000804
:1036400070070020FC090020850700209607002055
:1036500001600008CD600008715F0008745F000819
:10366000166100087C5F000821620008505C0008B9
:103670007F5F00083B620008506200086562000836
:103680008D6200088C070020A56200084E0800200B
:103690003E080020685F00088A0700207D070020A0
:1036A00001212DE9F8438A4D8A4E2B7831708A4AE0
:1036B0004BB92970894913700B7089490B7089497E
:1036C0000B6089490B60894F89493B889BB20B800D
:1036D00088498C698846A342C0F0F18000231370AA
:1036E0008549864B09681B68DFF8F4915B1A032B48
:1036F00006D9137823B1FFF713FE002389F80030B1
:1037000002287F4C40F0C7807E4B1B78002B40F096
:10371000BE80FFF79DF9012389F8003094F900106D
:1037200041BB0846FEF7B8F802213888FDF7C6FD10
:10373000FEF732F97448FEF72FF9744B744F18886E
:1037400000B2FDF747FDFEF727F97248FEF724F9AE
:103750006C4B01211B780720002B40F0A780FEF75F
:103760009BF801210220FEF7BFF83B780A2B84BFAB
:1037700000233B7094F90070012F13D100210846FB
:10378000FEF78AF86448FEF707F90A23D8F818000C
:103790003946B0FBF3F0FDF791FDFEF7FDF85F4809
:1037A000FEF7FAF894F90030022B1BD100210846ED
:1037B000FEF772F85A48FEF7EFF85A4B98684FF444
:1037C0006163B0FBF3F0FDF705FDFEF7E5F8564841
:1037D000FEF7E2F803200121FEF75EF8534B18686C
:1037E000FEF762FF94F900703F4C032F1AD10021BD
:1037F0000846FEF751F84E48FEF7CEF8394B1868E8
:103800004FF46163B0FBF3F0FDF7E4FCFEF7C4F89E
:103810004848FEF7C1F838460121FEF73DF8206818
:10382000FEF742FF444801F093FC29780022434808
:1038300001F0D2FC404801F08BFC31780022404876
:1038400001F0CAFC3C4801F083FC244B00221978AB
:103850003C4801F0C1FC384801F07AFC3A4B0022A8
:1038600019683A4801F0B8FC334801F071FC99F846
:1038700000100022364801F0AFFC2F4801F068FC30
:1038800021680022BDE8F843324801F0A5BCFFF7EB
:1038900047FD002340E701287FF440AF2378013B38
:1038A0005BB2002BB8BF0323237037E73B78052BAF
:1038B0007FF655AFFDF7F0FF0121032053E71378A2
:1038C0001BB90E4B19680C4B1960012307E700BFA9
:1038D00095070020940700207C0700207F07002028
:1038E0008A070020740700208C0700204E08002063
:1038F000BC07002054010020C0070020CC07002096
:103900008507002096070020016000083E0800207F
:103910007D070020685F0008E85F0008CD600008B0
:103920001E620008F4000020F45F000890070020E9
:10393000E75E000821620008505C00087F5F000815
:103940003B620008506200088007002065620008A2
:103950008D620008A56200082DE9F04F864A85B007
:103960001378834603F0FF080092DFF858A2834ED5
:10397000DFF85492824D834F834C002B46D1834B0A
:103980001A88834B1B6A0533934215D9414640463A
:10399000FDF782FF7F48FDF7FFFF4FF4FA60FDF768
:1039A000FDFA41464046FDF777FF7B48FDF7F4FFFF
:1039B00040F6B830FDF7F2FA01234FF00008009A04
:1039C00001931370754A8AF8008082F80080744A67
:1039D000C6F80080C9F80080C2F80080C5F80080F1
:1039E000C7F800808AF80030FFF72CF9019B6D4A78
:1039F000414640461370FDF74FFF6B48FDF7CCFF83
:103A00004FF47A70FDF7CAFA019B237094F90030E5
:103A1000032B00F3F981DFF8B481B8F8000000B29D
:103A2000FDF7B4FC0528CDF8048040F3A2815F4B7C
:103A3000574A198890699046884202932AD9594B6F
:103A40001A78022A26D15A4B1B68B3F57A7F21D9FE
:103A5000002352490B703968564B994204D9386893
:103A6000D9F80010FEF7B6FAD9F800204C4B1A60CE
:103A70003A68514B9A60012200238AF80020039291
:103A80002B603360FFF7DEF82378039A013323704D
:103A9000444B1A70454BD8F820201B889A4208D214
:103AA000404B1B78012B04D1414B1B68B3F57A7F47
:103AB00008D8424B32681B689A4222D9394B1B788E
:103AC000012B1ED194F90030022B1ADC00238AF856
:103AD00000302A68374B9A4204D92868012231689D
:103AE000FEF778FA01232D4A137000233B60C9F8D2
:103AF0000030FEF7EFFF0222237801332370294BB9
:103B00001A702A4BD8F820201B889A4208D2254BDD
:103B10001B78012B04D1264B1B68B3F57A7F08D89C
:103B2000264B32681B689A4252D91E4B1B78012BD8
:103B30004ED194F90030022B4ADDFFF7F1FB002350
:103B4000164A8AF8003013702A681A4B9A4204D930
:103B5000286801223168FEF73DFA02222378934556
:103B600003F101032370164B1A7040F0EE8003221C
:103B7000134B1A7038E000BF940700208007002024
:103B800070070020740700208407002054080020DC
:103B900054010020D9610008EA6100088A0700206A
:103BA0009007002070020020FB6100084E080020F2
:103BB000B40700204F8C0500F4000020FC09002011
:103BC000850700207F0700208C0700203E0800208A
:103BD000BBF1020F40F0B980C64A137801335BB2E3
:103BE000042B08BF00231370C24C94F900B0BBF142
:103BF000000F2ED159465846FDF74EFE029B02217A
:103C00001888FDF75BFBFDF7C7FEBB48FDF7C4FE58
:103C1000019B188800B2FDF7DDFAFDF7BDFEB7483D
:103C2000FDF7BAFE01210620FDF736FE0121042032
:103C3000FDF75AFEB24B1B78012B40F093801946DA
:103C400007200193FDF728FE019B58461946FDF712
:103C50004BFE94F900B0BBF1010F27D100210846BB
:103C6000FDF71AFED8F81000FDF7B4FAFDF794FE40
:103C7000A448FDF791FE0A23D8F818005946B0FB76
:103C8000F3F00193FDF71AFBFDF786FE9A48FDF766
:103C900083FE5946D8F82000019BB0FBF3F0FDF7F6
:103CA0000DFBFDF779FE9848FDF776FE94F900804C
:103CB000B8F1020F22D100210846FDF7EDFD0121E8
:103CC0004046FDF711FE00210120FDF7E5FD8F487C
:103CD000FDF762FE4FF461633868B0FBF3F0FDF767
:103CE00079FAFDF759FE8A48FDF756FE03200121B7
:103CF000FDF7D2FDD9F80000FEF7D6FC94F900409C
:103D0000032C42D100210846FDF7C6FD0121002009
:103D1000FDF7EAFD00210120FDF7BEFD7B48FDF720
:103D20003BFE4FF461632868B0FBF3F0FDF752FAF5
:103D3000FDF732FE7648FDF72FFE20460121FDF704
:103D4000ABFD3068FEF7B0FC1FE0BBF1010F7FF464
:103D50004BAF684A1378013B5BB2002B1370BFF680
:103D600043AF04E701210720FDF796FD0121022062
:103D70006DE7684B1B68B3F57A7F06D900210846CA
:103D8000FDF78AFD6448FDF707FE644801F0E0F99D
:103D9000009B00221978624801F01EFA5F4801F08A
:103DA000D7F99AF8001000225E4801F015FA5B4836
:103DB00001F0CEF9316800225B4801F00DFA574856
:103DC00001F0C6F929680022584801F005FA534865
:103DD00001F0BEF9564B00221978564801F0FCF963
:103DE0004E4801F0B5F9D9F800100022524801F010
:103DF000F3F94A4801F0ACF9002239684F4805B0A0
:103E0000BDE8F04F01F0E8B93A4CBBF1020F94F96C
:103E100000305FD101335BB2042B08BF0023237055
:103E200094F90080B8F1000F2DD141464046FDF7CE
:103E300033FD434B02211888FDF740FAFDF7ACFD36
:103E40002D48FDF7A9FD3F4B188800B2FDF7C2F9D8
:103E5000FDF7A2FD2948FDF79FFD01210620FDF792
:103E60001BFD01210420FDF73FFD254B93F800B019
:103E7000BBF1010F37D159460720FDF70DFD59461B
:103E80004046FDF731FD94F90080B8F1010F7FF451
:103E90000DAF0021DFF8B0B00846FDF7FDFCDBF800
:103EA0001000FDF797F9FDF777FD1648FDF774FD53
:103EB0000A23DBF818004146B0FBF3F00193FDF74D
:103EC000FDF9FDF769FD0C48FDF766FDDBF8200004
:103ED0004146E1E6BBF1010FA2D1013B5BB2002BF1
:103EE000B8BF03239BE701210720FDF7D5FC012183
:103EF0000220C6E785070020016000080C62000868
:103F000098070020EE5900080F6100083E61000884
:103F100014620008B40700202A620008505C000800
:103F20003B62000850620008656200087562000884
:103F30008A0700208D620008A5620008B8620008A8
:103F40004E0800203E0800205401002001222DE9E7
:103F5000F041974B974C02281A7086B094F90030C4
:103F600040F01C8113445BB2082B08BF0023237070
:103F700094F90010F1B9FFF7D3F90846FDF78CFC6E
:103F80008D48FDF709FD8D4B012118880A23B0FBF0
:103F9000F3F0FDF793F9FDF7FFFC8948FDF7FCFC12
:103FA000884B02211888FDF789F9FDF7F5FC864852
:103FB000FDF7F2FC94F90030012B1BD1FFF7B0F9AB
:103FC00000210846FDF768FC8048FDF7E5FC804BC2
:103FD00002211888FDF772F9FDF7DEFC7D48FDF738
:103FE000DBFC7D4BD888FDF7F5F8FDF7D5FC7B4869
:103FF000FDF7D2FC94F90050022D1BD1FEF7A0FB77
:1040000000210846FDF748FC7548FDF7C5FC754BD7
:1040100029461888FDF752F9FDF7BEFC6D48FDF7FB
:10402000BBFC6D4B9888FDF7D5F8FDF7B5FC6B48E8
:10403000FDF7B2FC94F90030032B1BD1FEF780FB97
:1040400000210846FDF728FC6748FDF7A5FC674BF3
:10405000188800B2FDF7BEF8FDF79EFC6448FDF736
:104060009BFC5D4B5888FDF7B5F8FDF795FC5B4868
:10407000FDF792FC94F90030042B1BD1FEF760FB96
:1040800000210846FDF708FC5A48FDF785FC5A4B0D
:10409000188800B2FDF79EF8FDF77EFC5448FDF746
:1040A0007BFC4D4B1888FDF795F8FDF775FC5348E0
:1040B000FDF772FC94F90030052B3CD1444F504E73
:1040C000FEF72CFDFEF73CFB3B883188DFF81C81B6
:1040D000591A42F210734B43B8F80020002112B273
:1040E00093FBF2F3474D0846AB64FDF7D5FB46481A
:1040F000FDF752FC286CFDF76DF8FDF74DFC4348C9
:10410000FDF74AFCA86CFDF765F8FDF745FC404853
:10411000FDF742FCB8F8000000223E4900B201F071
:1041200011F9388802223C4901F00CF9308802224A
:104130003A4901F007F994F90030062B0FD1FFF747
:10414000EFF800210846FDF7A7FB354B01A91868D9
:10415000FDF75EF9FDF720FC3248FDF71DFC94F9F0
:104160000030072B17D1FEF7EBFA00210846FDF7C8
:1041700093FB2D48FDF710FC2C4B1868FDF72AF82F
:10418000FDF70AFC2A48FDF707FC134BD888FDF71A
:1041900021F8FDF701FC06B0BDE8F08101287FF4AD
:1041A000E7AE013B5BB2002BB8BF0723DFE600BFE1
:1041B00094070020860700209A5F00083C08002032
:1041C0009F5F00084C0800203B610008A45F0008C6
:1041D00054080020016000084008002039610008F0
:1041E000A95F00084E080020AF5F00083E080020CD
:1041F000B45F0008B85F0008B8020020386100080A
:10420000C002002004000020BE5F0008C15F00085B
:10421000C65F0008CE5F0008D25F0008D95F0008C3
:10422000CC07002037610008E15F0008BC020020D5
:10423000E45F00087FB500254FF4F023494C00955A
:104240000195029503956289474E93FBF2F3474A25
:104250009BB21380A188336B62894B43B3FBF2F3AB
:1042600000930098FDF7CAF902900298FDF7E6F96D
:104270003F4A40491368184410600B8801331BB251
:104280000B800B881BB21F2B0DDD2020136893FBC6
:10429000F0F339489BB20380384B0D8015601A88C3
:1042A000022A98BF1D800A23B069618843434B43AB
:1042B0006289B3FBF2F301930198FDF763F9039070
:1042C0000398FDF7B9F92E4A2E4913681844106077
:1042D0000B8801331BB20B800B881BB21F2B09DD2F
:1042E0002020136893FBF0F327481BB203800023C0
:1042F0000B8013600A23306A218843434B43628951
:10430000B3FBF2F301930198FDF75AF90390039878
:10431000FDF793F91D4A1E491368184410600B8875
:104320001C4801331BB20B800B881BB21F2B08DD0E
:104330002024136893FBF4F31BB2038000230B804B
:1043400013600388144A1BB2B3F57A7FC9BF0E4BC2
:1043500003881B8803EB8303C4BF5B001BB213807D
:1043600004B070BD40080020040000204C0800206C
:10437000AC070020B00700204E08002054080020A1
:104380009C070020A0070020B6020020A407002000
:10439000A8070020B80200203E080020F8B5FEF76C
:1043A0001DF9354A354E136801331360344B1A88B2
:1043B000B2F57A7F82BF0121324A11611B88B3F5C1
:1043C000617F3EBF4FF480322E4B1A613388092B38
:1043D00003D900233380FFF72DFF2B4D2B4C2B8867
:1043E000632B84BF00232B802388B3F57A7F36D3D9
:1043F0000023274F23803B881BB2012B07DC388822
:1044000000B2FCF7C3FF234A1368184410603B88CE
:104410001BB2022B07DD388800B2FCF7B7FF1E4A3B
:104420001368184410601D4B1B78012B01BF1C4AF8
:104430001368013313601B4B1B78012B01BF1A4A11
:10444000136801331360194B1B78012B01BF184A05
:10445000136801331360174A1368013313603388FC
:1044600001339BB233802B8801339BB22B8023888E
:1044700001339BB22380F8BDB4070020B4020020B2
:104480004E080020000C0140B2020020B0020020C3
:104490003E08002074070020700700207F070020DE
:1044A000800700208A0700208C0700209907002041
:1044B000B8070020CC07002010B51D4C236843F43A
:1044C0008033236023689A03FCD5636823F47C134C
:1044D00043F4A0236360E36A23F00F03E3622368DD
:1044E00043F08073236023689B01FCD5636823F04D
:1044F000F0036360636823F4E0636360636823F43C
:1045000060536360636823F0030343F00203636056
:10451000636803F00C03082BFAD1064801F046F952
:10452000044801F051F9636823F44043636010BD0F
:104530000010024000366E012DE9F04F012095B0C9
:10454000DFF88893FDF750FA4FF08050FDF73EFA00
:10455000D9F80C20C94B22F4E0621204120C134368
:10456000C9F80C30C64BC74E5A68002422F0E062EE
:104570005A605A68012542F000725A60FFF79CFFAA
:10458000142200210DA801F054F92020FDF72CFA87
:104590000420FDF729FA0820FDF726FA48F2010366
:1045A00073614FF6035302274FF004084FF0080BD6
:1045B000DFF81CA30DA9CAF81430B34B3046CDE97F
:1045C0000D35CDE90F7400F05AFFB04B0DA95046E0
:1045D000CDE90D35CDE90F7400F051FFAC4B0DA9BD
:1045E0005046CDE90D35CDF840800F9700F047FFDC
:1045F000A84B0DA93046CDE90D3B119500F03FFFCA
:104600004FF2F0030DA95046CDE90D3B119500F096
:1046100036FFA14B5A692A435A615B692B400593C7
:10462000059BD9F80C009D4DC0F30220FDF76AFBF5
:104630004FF4006300FA08F0C0B285F80B031C22A7
:104640002B6021460DA801F0F4F81422214608A899
:1046500001F0EFF84FF48040FDF7C6F94046FDF752
:10466000C3F909238E4A08A9CDE90823032330465C
:10467000CDE90A3400F003FF8A4B08A93046CDE9A2
:10468000083800F0FCFED9F80C004FF48079C0F334
:104690000220FDF737FB202300FA08F0C0B285F8AE
:1046A00025036B60804D0DA9EB68284643F080031D
:1046B000EB604FF41643CDE90D340C23CDE90F44E4
:1046C000CDE91134139401F003F82B69142223F47B
:1046D00090432B616B69214623F02A036B61EB68E1
:1046E00008A843F40053EB60CDE9064401F0A1F8BB
:1046F000142221460DA801F09CF84FF40070FDF73C
:1047000073F94046FDF770F944F64E630DA9304643
:10471000CDE90D3400F0B3FE644BDFF8B8811A68C0
:10472000A5F5A05522F4804222F010021A601A6802
:1047300006A922F4405242F400521A601A68284630
:1047400042F020021A601A6822F040021A601A68C9
:1047500042F080021A601A6822F4407242F48072B9
:104760001A601A6822F4406242F480621A60504A69
:104770009A60C3F80C805A68120C120442F00602C8
:104780005A601A6842F001021A600694CDF81C9033
:1047900000F015FE4FF4A0034FF460212846CDE948
:1047A000081308A9CDE90A47CDF8309000F01CFEA7
:1047B00040494FF40070FDF789FA3E48FDF75CFA76
:1047C0003D4940F20520FDF781FA3B48FDF754FAD8
:1047D0003A4940F20A20FDF779FA3848FDF74CFAD9
:1047E000374940F20F20FDF771FA3548FDF744FADA
:1047F00034494FF40570FDF769FA3248FDF73CFA89
:10480000AB68314943F40003AB6040F21920FDF777
:104810005DFA2D48FDF730FAAB68642043F40003DD
:10482000AB60AB6843F00103AB60FCF7B7FBAB6870
:1048300043F00403AB60CDE90068AC6814F00404F5
:10484000FBD1AB68102243F4A003AB60214608A85B
:1048500000F0EFFF142221460DA800F0EAFF4FF010
:104860000050FDF7B3F80420FDF7BEF843F2300323
:10487000164E0DA90348CDE90D342DE00003FA05CD
:10488000000001400008014081018004030301048D
:10489000FC00FC04190019040010024000E100E0D3
:1048A0000200020404000404003801400800024031
:1048B0004C2401400100300202006002030090021B
:1048C00006002003100020811100508100ED00E05F
:1048D000000C01404008002000F0D1FDF0684FF4CA
:1048E0008008C0F30220FDF70DFA3823B44DB54F10
:1048F0000001C0B287F8360308AAC7F80480B2499D
:104900002846CDE908340B9400F090FD2B6808AAE6
:1049100023F004032B60AD49284600F087FD2B6887
:10492000142223F480232B602B68214643F00103DB
:104930002B602B680DA843F480332B60AC606C6156
:1049400000F077FF1020FDF741F8F0684FF416698A
:10495000C0F30220FDF7D6F90001C0B287F8360394
:10496000C7F804804FF00A08A5F5C84528460DA9E8
:10497000ADF834900E94CDF83C8000F059FE2B68D1
:10498000142223F080032B606B68214623F0700310
:104990006B60AB680DA823F08003AB6000F049FFAB
:1049A0002020FDF713F8F06805F58065C0F30220BC
:1049B000FDF7A8F94FF400030001C0B287F83703F0
:1049C0000DA97B602846ADF83490CDE90E4800F083
:1049D0002FFE2B6823F080032B606B6823F070039D
:1049E0006B60AB6823F08003AB60FCF7E4FF00F082
:1049F00015FB4FF47A72764B1B68B3FBF2F3013B65
:104A0000B3F1807F07D2734A5360F02386F82330D6
:104A100007239460136000246F4D70482C60FCF7EE
:104A2000BBFFFCF7CBFA6E4800F092FB6B4800F03E
:104A300025FBFCF7D9FE21462046FCF72DFF4FF45D
:104A40007A70FCF7ABFAFBF773FC2B68172B88BF67
:104A50002C60FBF74BFF0446002840F091804FF498
:104A60007A70FCF79BFAFBF741FF04465C4800F0C4
:104A70006FFB5C4800F002FB002C40F081805A483C
:104A8000FCF78AFF4FF47A60FCF788FA5748FCF786
:104A9000EBF8534800F05CFB524800F0EFFA544E3C
:104AA000544B3269544C1A604FF461632269534D80
:104AB0005343534A1360A268524B1A60236C524A04
:104AC0002B601360FCF79CF84FF47A70FCF766FAE1
:104AD000FCF750FF4D48FCF7D3FDA368CDE9026514
:104AE000012B54D14A48FCF7B1FD0123494D4FF445
:104AF00080722B701423484E00273380474BBB46EF
:104B00001A6140F6B832464B46491A804FF47F721C
:104B10000A801B882A4A1BB253610B88DFF8349144
:104B20001BB2DFF8348193603F4A99F80040137854
:104B300089F800B001331370009B9B681B0505D4F6
:104B4000404600F005FB394800F098FA404600F076
:104B5000FFFA019B00229988354800F03DFB404652
:104B600000F0F6FA00222146324800F035FB631EC1
:104B7000062B78D8DFE803F072A4A8AF7777B300EC
:104B8000012C8CD1164800F0E3FA2B4885E7022B64
:104B900001D12A48A7E7032B01D12948A3E7042B19
:104BA00001D128489FE7052B01D127489BE7062B19
:104BB00001D1264897E7072B94D1254893E700BFFA
:104BC0000074004000E100E00100100212004315F3
:104BD0009002002010E000E0580800207E02002033
:104BE000655C00085B6D0008736D0008846D00084B
:104BF000F4000020780700205401002078020020F3
:104C0000FC090020000A0020F8090020991B000878
:104C1000106A0008F409002074020020000C014012
:104C200072020020880700207D070020926D000896
:104C30009A6D00089F6D00088B5B0008686A000889
:104C4000C06A0008186B0008706B0008206C000830
:104C5000786C0008C4070020505C0008FCF7F0FCEA
:104C60004068FCF7F3FCFCF7EBFCA74BDFF82CA348
:104C7000834246D12046FDF747F8082C06D1A34BC6
:104C80001B78002B40F03C81FDF75AFD9AF800207C
:104C900002F0FF0382B99E4A029913709D4A137075
:104CA0009D4A12688A609D4A11689D4A11609D4A1A
:104CB00013700123039A13606420FCF76FF933E744
:104CC000FCF7BEFC0068CCE70220FCF7E3FCFCF735
:104CD000B7FCC068C5E7FCF7B3FC8068C1E72A7879
:104CE000914B3AB9142232804FF480721A61012339
:104CF0002B70B8E7C82232804FF080722F701A6193
:104D0000B1E7FCF79DFC894B834203D12046FDF7B8
:104D100065F8B2E7FCF794FC854B834203D120464B
:104D2000FDF7D8F8A9E7FCF78BFC824B834203D14F
:104D30002046FEF7FDFAA0E7FCF782FC7E4B83429B
:104D400003D12046FEF7ACFC97E7FCF779FC7B4BE0
:104D5000834203D12046FEF7FFFD8EE7FCF770FC8F
:104D6000774B834203D12046FDF790FF85E7FCF7A0
:104D700067FC744B834203D12046FEF7DDF97CE7E4
:104D8000FCF75EFC704B834203D12046FDF7DEFE4C
:104D900073E7FCF755FC6D4B834203D12046FFF7C8
:104DA000D5F86AE7FCF74CFC694B834203D12046F7
:104DB000FDF736F961E7FCF743FC664B834203D10C
:104DC0002046FDF79DF958E7FCF73AFC624B834219
:104DD00003D12046FDF770F94FE7FCF731FC5F4B3C
:104DE000834203D12046FDF73DFE46E7FCF728FC51
:104DF0005B4B834203D12046FDF7CEFC3DE7FCF739
:104E00001FFC584B834203D12046FDF76DFD34E76C
:104E1000FCF716FC544B834203D12046FDF72CFDD2
:104E20002BE7FCF70DFC514B834203D12046FDF7E5
:104E3000EBFC22E7FCF704FC4D4B834203D12046F8
:104E4000FDF78AFD19E7FCF7FBFB4A4B834203D1D0
:104E50002046FDF779F910E7FCF7F2FB464B834259
:104E600003D12046FDF7CCF907E7FCF7E9FB434BFC
:104E7000834203D12046FDF7E9F9FEE6FCF7E0FBAB
:104E80003F4B834203D12046FDF752FAF5E6FCF78B
:104E9000D7FB3C4B834203D12046FDF76BFAECE68F
:104EA000FCF7CEFB384B834203D12046FDF784FA52
:104EB000E3E6FCF7C5FB354B834203D12046FDF703
:104EC00099FADAE6FCF7BCFB314B834203D120466A
:104ED000FDF7AEFAD1E6FCF7B3FB2E4B834203D1CC
:104EE0002046FDF701FBC8E6FCF7AAFB2A4B8342EC
:104EF00003D12046FDF73EFBBFE68AF80070BCE612
:104F0000FDF708FCC2E600BF106A00089607002003
:104F10009507002085070020740700208C070020DB
:104F2000900700207E070020000C0140686A0008FE
:104F3000C06A0008186B0008706B00089C6B0008C2
:104F4000206C0008786C0008D06C0008286D000800
:104F500074660008E46300088C6300089464000829
:104F60003C6400089C65000844650008EC64000887
:104F7000E46500082C660008CC660008F8660008A6
:104F80007C670008D46700082C6800088468000863
:104F9000DC680008B86900088C69000894070020E4
:104FA0007047FEE7FEE7FEE7FEE770477047704791
:104FB000FFF7F4B97047000014490B681B0624D5AD
:104FC000134BB3F8582492B2DAB1B3F85824013A2B
:104FD00092B2A3F85824B3F8562492B2501C80B26F
:104FE000A3F856041A4492F86C20D2B24A60B3F87F
:104FF000562492B2B2F57A7F07D10022A3F8562444
:105000007047CB6823F08003CB60704700380140C5
:10501000C20200207047704770470000124A10B566
:105020005368124903F00C03082B0AD0104B0B6095
:105030005368104AC3F30313D25C0B68D3400B6070
:1050400010BD53685068C3F38343C00341BFD06AA7
:10505000074C00F00F0001304CBFB4FBF0F00648E5
:1050600002334343E3E700BF0010024090020020F8
:1050700000127A00A86D000800093D00324A30B5E0
:10508000134640F2C934B2F858148C42FBD32F496E
:10509000CA6822F08002CA600021027802F0FF0490
:1050A0004ABBB3F8542492B2511C89B2A3F85414E9
:1050B0000A211A4482F86C10B3F8542492B2B2F563
:1050C0007A7F08BFA3F85444B3F85824013292B24F
:1050D000A3F85824B3F85A24B3F85814914282BF65
:1050E000B3F8582492B2A3F85A24184AD36843F06C
:1050F0008003D36030BDB3F85424441C92B2551CD5
:10510000ADB2A3F8545400781A44C0B282F86C00CF
:10511000B3F8542492B2B2F57A7F08BFA3F85414BE
:10512000B3F85824013292B2A3F85824B3F85A24A1
:10513000B3F85804904288BFB3F85824204684BF7F
:1051400092B2A3F85A24A8E7C20200200038014016
:105150001F4A30B5134640F2C934B2F858148C4295
:10516000FBD31C49CA6822F08002CA600021027881
:105170002AB9184AD36843F08003D36030BDB3F82E
:105180005424441C92B2551CADB2A3F85454007878
:105190001A44C0B282F86C00B3F8542492B2B2F54B
:1051A0007A7F08BFA3F85414B3F85824013292B29E
:1051B000A3F85824B3F85A24B3F85804904288BF8F
:1051C000B3F85824204684BF92B2A3F85A24CEE7FD
:1051D000C20200200038014073B501918DF8032010
:1051E0009DF8033004460198002B44D1FBF7F2FFF1
:1051F000494A40F2C9351346B2F858148D42FBD3E0
:1052000000254649CA6822F08002CA60227802F06E
:10521000FF01002A34D10138B3F8542410F8014FAB
:1052200092B2002C55D1511C89B2A3F854140A2112
:105230001A4482F86C10B3F8542492B2B2F57A7F13
:1052400008BFA3F85444B3F85824013292B2A3F82B
:105250005824B3F85A24B3F85814914282BFB3F8D3
:10526000582492B2A3F85A242C4AD36843F08003FE
:10527000D36002B070BD9DF80310FCF71FF8B7E7CC
:10528000B3F85424611C92B2561CB6B2A3F854640D
:1052900024781A44E4B282F86C40B3F8542492B2F1
:1052A000B2F57A7F08BFA3F85454B3F858240132FA
:1052B00092B2A3F85824B3F85A24B3F8584494424D
:1052C00088BFB3F858240C4684BF92B2A3F85A247E
:1052D0009CE7541CA4B2A3F8544404781A4482F8FE
:1052E0006C40B3F8542492B2B2F57A7F08BFA3F8A9
:1052F0005414B3F85824013292B2A3F85824B3F8E6
:105300005A24B3F85844944282BFB3F8582492B256
:10531000A3F85A2480E700BFC202002000380140F1
:10532000024B1A681206FCD55860704700380140DD
:1053300008B5037803B908BD411C0078FFF7F0FFFA
:105340000846F6E737B501900D46019872B9FBF7AC
:1053500041FF04462846FFF7EBFF2046FFF7E8FF32
:105360000A2003B0BDE83040FFF7DABF1146FBF773
:10537000A5FFEEE7002103E00B4B5B5843500431DF
:105380000A480B4B42189A42F6D30A4A02E000231D
:1053900042F8043B084B9A42F9D3FFF73DFE00F078
:1053A00019FAFFF7C9F87047C86D0008000000201F
:1053B0009402002094020020040A0020FEE7836883
:1053C00010B513F001030DD142684C6822F48072CD
:1053D000224342608268096822F400620A438260C4
:1053E000184610BD0120FCE7836810B5DB071BD40D
:1053F00043684A6823F4684312B18C68134323431B
:10540000436083680C6823F4602323F4817323438F
:10541000CC68096923430B438360C36A23F4700398
:105420001343C362002010BD0120FCE7012370B5C7
:1054300001F01001056803FA01F4AC431DD0D2E974
:105440000043D6687BB1234340F6FA749268334335
:10545000056813438B4004FA01F125EA0101194361
:105460000160002070BDFA2502688D40344322EAB5
:10547000050204FA01F11143F2E71846F2E72DE9BB
:10548000F04F0C68C4F30F2494FAA4F24FF00F0A03
:10549000B2FA82F24FF0030904274FF0011C40F2E8
:1054A000011E34FA02F302D11846BDE8F08F012341
:1054B000934023425ED0072A85BFA2F108030CFA6D
:1054C00003F30EFA02F343F08063C5681E0A96FAEE
:1054D000A6F8B8FA88F825EA06060D6905FA08F56F
:1054E0003543C5604FEA136893FAA3F6B6FA86F619
:1054F00093FAA3FBBBFA8BFBB6000AFA06F550F849
:1055000008604FEA8B0B26EA05064D6805FA0BFB8F
:1055100046EA0B0640F808604D6825F00805012DA5
:1055200028D193FAA3F5B5FA85F593FAA3FBBBFA54
:105530008BFBAD0009FA05F526EA05068D684FEAF2
:105540008B0B05FA0BFB46EA0B0640F8086093FA52
:10555000A3F5B5FA85F593FAA3F3B3FA83F3AD0097
:1055600007FA05F526EA0505CE689B009E402E4306
:1055700040F80860013294E7034B044A5B68C3F3C8
:105580000313D35CD840704700100240A86D000898
:10559000034B044A5B68C3F30223D35CD8407047D3
:1055A00000100240B86D0008034B044A5B68C3F367
:1055B000C223D35CD840704700100240B86D000889
:1055C000094B5A6802F4803262B1D86A074A00F087
:1055D0000F000130B2FBF0F05B68C3F3834302338A
:1055E000584370470248F7E70010024000127A0063
:1055F00000093D00044B5B6803F00C03082B01D14C
:10560000FFF7DEBF014870470010024000127A0029
:1056100008B50146FFF7EEFF0860FFF7ADFF4860F1
:10562000FFF7B6FF88604868FFF7BEFFC86008BD97
:10563000254A036890420AD0B0F1804F07D0A2F506
:105640009432904203D002F58062904211D14A68B0
:1056500023F0700313431C4A904215D0B0F1804FE1
:1056600012D0A2F5943290420ED002F580629042A0
:105670000AD0164A904207D002F58062904203D0C9
:1056800002F58062904203D1CA6823F44073134349
:1056900003608B68C3620B8883620B4B98420BD00C
:1056A00003F5A053984207D003F58063984203D0D6
:1056B00003F58063984201D10B690363436943F0AA
:1056C0000103436100207047002C0140004001406D
:1056D00030B5C36885B09B0404460D4602D5012051
:1056E00005B030BD4B68C968C2680B43296922F414
:1056F00016420B43A96922F00C020B431343C3600B
:105700000369AA6823F440531343036143696A6938
:1057100023F44073134343616846FFF779FF204B3E
:105720009C4225D103990029D9D02A68002AD6D0D5
:1057300019234B43A969B1F5004F4FF0640120D103
:105740005200B3FBF2F3B3FBF1F001FB1033DB00CB
:105750003233B3FBF1F39BB203F007025B0002EBC1
:10576000001203F4F87313449BB2A3600020B7E760
:105770000C4B9C4201D10299D5E70B4B9C42AED118
:10578000F9E79200B3FBF2F3B3FBF1F201FB123342
:105790001B013233B3FBF1F303EB0213E4E700BF69
:1057A0000038014000440040004800404FF47A7344
:1057B000B0FBF3F00022034B013858609A600522D9
:1057C0001A60704710E000E0014B1860704700BF9E
:1057D0009002002070B500250C4E0D4CA41BA410A7
:1057E000A54209D100F02EF800250A4E0A4CA41B50
:1057F000A410A54205D170BD56F825309847013553
:10580000EEE756F8253098470135F2E7C06D0008FD
:10581000C06D0008C06D0008C46D000810B5431EBF
:105820000A44914200D110BD11F8014B03F8014F19
:10583000F7E703460244934200D1704703F8011B87
:10584000F9E70000F8B500BFF8BC08BC9E467047F9
:0C585000F8B500BFF8BC08BC9E467047CD
:10585C0000070E091C1B1215383F363124232A2D44
:10586C0070777E796C6B6265484F464154535A5D34
:10587C00E0E7EEE9FCFBF2F5D8DFD6D1C4C3CACD24
:10588C0090979E998C8B8285A8AFA6A1B4B3BABD14
:10589C00C7C0C9CEDBDCD5D2FFF8F1F6E3E4EDEA04
:1058AC00B7B0B9BEABACA5A28F88818693949D9AF4
:1058BC002720292E3B3C35321F18111603040D0AE4
:1058CC005750595E4B4C45426F68616673747D7AD4
:1058DC00898E878095929B9CB1B6BFB8ADAAA3A4C4
:1058EC00F9FEF7F0E5E2EBECC1C6CFC8DDDAD3D4B4
:1058FC00696E676075727B7C51565F584D4A4344A4
:10590C00191E171005020B0C21262F283D3A333493
:10591C004E49404752555C5B7671787F6A6D646383
:10592C003E39303722252C2B0601080F1A1D141373
:10593C00AEA9A0A7B2B5BCBB9691989F8A8D848363
:10594C00DED9D0D7C2C5CCCBE6E1E8EFFAFDF4F353
:10595C0043616C6962726174696F6E466163746FE6
:10596C0072795772697465546F466C617368200064
:10597C0043616C6962726174696F6E5265616446F1
:10598C00726F6D466C617368200043616C69627262
:10599C006174696F6E5265616446726F6D466C61BD
:1059AC007368466F72566572696679200043616C44
:1059BC006962726174696F6E5772697465546F466F
:1059CC006C6173682000446174615768656E506F38
:1059DC007765724F66665265616446726F6D466C90
:1059EC006173682000446174615768656E506F770D
:1059FC0065724F66665265616446726F6D466C6186
:105A0C007368466F725665726966792000446174DA
:105A1C00615768656E506F7765724F66665F466159
:105A2C0063746F72795F5772697465546F466C61F9
:105A3C0073682000466163746F727957726974657C
:105A4C00546F466C6173685F435243004643616C0C
:105A5C006962726174696F6E207772697465207403
:105A6C006F20466C61736820737563636573732074
:105A7C00004643616C6962726174696F6E20777263
:105A8C0069746520746F20466C6173682046616987
:105A9C006C2C2074727920616761696E2E2E2E2019
:105AAC000046435243206973203A20004653697ADA
:105ABC0065206973203A20004653657474696E67DB
:105ACC007320777269746520746F20466C617368FB
