:020000040800F2
:1000000000200020D5560008515300085353000823
:1000100055530008575300085953000800000000CA
:100020000000000000000000000000005B5300081A
:100030005D530008000000005F5300086153000892
:100040001D5700081D5700081D5700081D570008C0
:100050001D5700081D5700081D5700081D570008B0
:100060001D5700081D5700081D5700086F53000852
:100070001D5700081D5700081D5700081D57000890
:100080001D5700081D5700081D57000800000000FC
:100090000000000000000000000000001D570008E4
:1000A0001D5700081D5700081D5700081D57000860
:1000B0001D5700081D5700081D5700081D57000850
:1000C0001D57000800000000000000001D57000838
:1000D0001D570008715300081D5700081D570008E0
:1000E0001D5700081D5700081D570008000000009C
:1000F0000000000000000000000000000000000000
:1001000000000000000000000000000000000000EF
:1001100000000000000000001D5700081D570008E7
:1001200000000000000000000000000000000000CF
:1001300000000000000000000000000000000000BF
:1001400000000000000000000000000000000000AF
:10015000000000000000000000000000000000009F
:10016000000000000000000000000000000000008F
:10017000000000000000000000000000000000007F
:10018000000000000000000000000000000000006F
:10019000000000000000000000000000000000005F
:1001A000000000000000000000000000000000004F
:1001B000000000000000000000000000000000003F
:1001C0000000000000000000000000005FF808F1DF
:1001D00010B5054C237833B9044B13B10448AFF381
:1001E00000800123237010BD980200200000000051
:1001F000D85B000808B5034B1BB103490348AFF3B4
:10020000008008BD000000009C020020D85B0008B0
:100210000E4A1346D168C907FCD4D168890644BF89
:100220002021D1601A6942F002021A6158611A69EC
:1002300042F040021A61054BDA689206FCD5202292
:10024000DA601A6922F002021A6170470020024047
:10025000034B044A5A6002F188325A60704700BF6B
:100260000020024023016745024A136943F08003DE
:100270001361704700200240114B10B51A46DC682C
:10028000E407FCD4DC68A40644BF2024DC601369C6
:1002900043F0010313610A4A8BB203801346D4680A
:1002A000A406FCD52024090CD4604180DA689206AB
:1002B000FCD52022DA601A6922F001021A6110BD11
:1002C0000020024070B572B6FFF7C2FF124805F079
:1002D00019F9124D00224FF4CE71114805F056F96C
:1002E0000D4805F00FF9002229680E4805F04EF977
:1002F0000D48FFF78DFF0C4C0C4E04F17843A3F52D
:10030000F2332046E9580434FFF7B6FFB442F4D183
:10031000FFF7AAFF62B670BD1D60000888080020C4
:10032000256000082C60000800E401089CE5010835
:1003300010B5074B074808491C6803F1784204339D
:10034000A2F5F2328B421450F6D1012010BD00BF4D
:1003500000E40108880800209CE50108F8B504685D
:1003600007468C420E4601D394421BD900250E4B02
:100370000E481D7005F0C6F82A4639460C4805F0AF
:1003800005F90A4805F0BEF821462A46094805F055
:10039000FDF8064805F0B6F82A460749074805F073
:1003A000F5F834462046F8BD000000201D60000826
:1003B000DD5F0008F45F000800EC0108066000083B
:1003C00010B5194C6068FFF723FFD4E90010FFF760
:1003D00053FFD4E90210FFF74FFFD4E90410FFF7F1
:1003E0004BFFD4E90610FFF747FFD4E90810FFF7E9
:1003F00043FFD4E90A10FFF73FFFD4E90C10FFF7E1
:100400003BFFD4E90E10FFF737FFD4E91010FFF7D8
:1004100033FFD4E91210FFF72FFF044805F072F8FC
:10042000034805F005F810BD040000201D60000819
:100430004D5D000810B5194C6068FFF7E9FED4E97E
:100440000010FFF719FFD4E90210FFF715FFD4E9F8
:100450000410FFF711FFD4E90610FFF70DFFD4E9F0
:100460000810FFF709FFD4E90A10FFF705FFD4E9E8
:100470000C10FFF701FFD4E90E10FFF7FDFED4E9E1
:100480001010FFF7F9FED4E91210FFF7F5FE04484B
:1004900005F038F8034804F0CBFF10BD54000020ED
:1004A0001D600008F05C000838B5244C4FF48072E1
:1004B00000216068FFF752FF4FF47A72206000213C
:1004C000E068FFF74BFF4FF47A72A060002160698B
:1004D000FFF744FF1A4D20612A460A21E069FFF721
:1004E0003DFF2A46A0610A21606AFFF737FF2A46CE
:1004F00020620A21E06AFFF731FF2A46A0620A2142
:10050000606BFFF72BFF2A4620630A21E06BFFF7A1
:1005100025FFC822A0634621606CFFF71FFFC82299
:1005200020640A21E06CFFF719FFA064054804F07D
:10053000E9FF054804F07CFF38BD00BF040000203F
:10054000A08601001D600008105D000838B5244C2D
:100550004FF4807200216068FFF700FF4FF47A7259
:1005600020600021E068FFF7F9FE4FF47A72A06086
:1005700000216069FFF7F2FE1A4D20612A460A2128
:10058000E069FFF7EBFE2A46A0610A21606AFFF7E7
:10059000E5FE2A4620620A21E06AFFF7DFFE2A46CE
:1005A000A0620A21606BFFF7D9FE2A4620630A2168
:1005B000E06BFFF7D3FEC822A0634621606CFFF713
:1005C000CDFEC82220640A21E06CFFF7C7FEA064BC
:1005D000054804F097FF054804F02AFF38BD00BF26
:1005E000A4000020A08601001D6000082A5D00080C
:1005F00010B5174C6068FFF70BFED4E90010FFF749
:100600003BFED4E90210FFF737FED4E90410FFF7F0
:1006100033FED4E90610FFF72FFED4E90810FFF7E8
:100620002BFED4E90A10FFF727FED4E90C10FFF7E0
:1006300023FED4E90E10FFF71FFED4E91010FFF7D8
:100640001BFE044804F05EFF034804F0F1FE10BDF9
:10065000540100201D600008C75F000810B5174C4A
:100660006068FFF7D5FDD4E90010FFF705FED4E977
:100670000210FFF701FED4E90410FFF7FDFDD4E9F5
:100680000610FFF7F9FDD4E90810FFF7F5FDD4E9EE
:100690000A10FFF7F1FDD4E90C10FFF7EDFDD4E9E6
:1006A0000E10FFF7E9FDD4E91010FFF7E5FD04484F
:1006B00004F028FF034804F0BBFE10BD9C0100209D
:1006C0001D600008735F000810B5224C4FF4807263
:1006D00000216068FFF742FE0A2220600121E068E5
:1006E000FFF73CFE4FF47A72A06001216069FFF7CA
:1006F00035FE4FF47A6220610121E069FFF72EFE9A
:100700004FF47A62A0610121606AFFF727FE42F28E
:10071000107220620021E06AFFF720FE42F21072A0
:10072000A0620021606BFFF719FE642220630021A4
:10073000E06BFFF713FE0322A0630121606CFFF75B
:100740000DFE2064044804F0DDFE044804F070FE51
:1007500010BD00BF540100201D600008905F00081C
:1007600010B5224C4FF4807200216068FFF7F6FD4F
:100770000A2220600121E068FFF7F0FD4FF47A7251
:10078000A06001216069FFF7E9FD4FF47A62206102
:100790000121E069FFF7E2FD4FF47A62A0610121D7
:1007A000606AFFF7DBFD42F2107220620021E06A0E
:1007B000FFF7D4FD42F21072A0620021606BFFF7D8
:1007C000CDFD642220630021E06BFFF7C7FD03220B
:1007D000A0630121606CFFF7C1FD2064044804F0B0
:1007E00091FE044804F024FE10BD00BFE401002087
:1007F0001D600008A75F000838B5124D124C28464E
:1008000004F080FE0022A168104804F0BFFE60687A
:10081000FFF7FEFCD4E90010FFF72EFDD4E902102B
:10082000FFF72AFDD4E90410FFF726FDD4E90610EE
:10083000FFF722FD284604F065FE054804F0F8FDA8
:1008400038BD00BF1D600008F4000020AD5D000849
:10085000BC5D000810B50D4C6068FFF7D9FCD4E909
:100860000010FFF709FDD4E90210FFF705FDD4E9F8
:100870000410FFF701FDD4E90610FFF7FDFC044862
:1008800004F040FE034804F0D3FD10BD1401002025
:100890001D600008E65D000838B5114C4FF4807209
:1008A00000216068FFF75AFD0E4D20602A460021A6
:1008B000E068FFF753FD2A46A06000216069FFF75A
:1008C0004DFD012220610021E069FFF747FDA06195
:1008D000054804F017FE054804F0AAFD38BD00BF26
:1008E000F400002000286BEE1D600008665D000823
:1008F00038B5114C4FF4807200216068FFF72EFD6F
:100900000E4D20602A460021E068FFF727FD2A46A9
:10091000A06000216069FFF721FD01222061002114
:10092000E069FFF71BFDA061054804F0EBFD0548F9
:1009300004F07EFD38BD00BF3401002000286BEEBE
:100940001D600008855D000870B501240E4D2C70F7
:1009500072B6FFF7A1FFFFF7B7FEFFF7A5FD62B67E
:100960002E780A483EB904F0CDFD094804F060FD38
:100970002C70304670BD04F0C5FD064804F058FDEB
:1009800026462C70F5E700BF000000201D6000081F
:100990003F5F0008585F000870B515460C46C0B0B0
:1009A00006464FF480720949684605F001F9284669
:1009B000013CE4B20134344416F8013B5840A642ED
:1009C0001DF80000F8D140B070BD00BFF05B00081A
:1009D00038B572B6144D00224C212846FFF7DCFFD3
:1009E000044645F8040CFFF733FCFFF7E9FCFFF77A
:1009F000ADFD00224C210D48FFF7CEFF84420C488C
:100A000009D104F07FFD0B4804F012FDFFF72CFC28
:100A100062B6012038BD04F075FD074804F008FDFA
:100A2000FFF7CEFCF2E700BF08000020A80000207E
:100A30001D600008265E00084B5E000838B572B6DF
:100A4000244D002244212846FFF7A6FF04462248F1
:100A500004F058FD00222146204804F097FD1E486E
:100A600004F050FD002244211D4804F08FFD45F89C
:100A7000044CFFF7EDFBFFF7BBFDFFF771FE002213
:100A800044211848FFF788FF0546134804F03AFD53
:100A900000222946114804F079FD0F4804F032FD88
:100AA0000F480022442104F071FDAC420A4809D1EC
:100AB00004F028FD0C4804F0BBFCFFF7D5FB62B640
:100AC000012038BD04F01EFD084804F0B1FCFFF71A
:100AD0008FFDF2E7580100201D6000087B5E0008D2
:100AE000865E0008E8010020925E0008B45E0008FF
:100AF00070B572B61C4C00221C212046FFF74CFF3B
:100B0000054644F8040CFFF7A3FBFFF775FEFFF75B
:100B1000EFFE164804F0F6FC616900221448154CFB
:100B200004F034FD114804F0EDFC0022A1691048E6
:100B300004F02CFD00221C21201DFFF72DFF854213
:100B40000A4809D104F0DEFC0B4804F071FCFFF701
:100B50008BFB62B6012070BD04F0D4FC074804F0A2
:100B600067FCFFF749FEF2E7F80000201D6000086F
:100B7000DA5D000834010020E15E00080B5F000828
:100B800038B54A4804F0BEFC494804F051FC72B63E
:100B9000484DFFF75DFB00224C212846FFF7FCFE85
:100BA000044645F8040CFFF745FCFFF7CFFC002294
:100BB0004C214148FFF7F0FE84423C485DD104F0EF
:100BC000A1FC3E4804F034FC3D4D0022442128465F
:100BD000FFF7E2FE0446354804F094FC002221466B
:100BE000384804F0D3FC314804F08CFC0022442146
:100BF000354804F0CBFC45F8044CFFF72FFDFFF718
:100C0000AFFD002244213148FFF7C6FE05462748C4
:100C100004F078FC002229462A4804F0B7FC234857
:100C200004F070FC28480022442104F0AFFCAC42E0
:100C30001E482AD104F066FC254804F0F9FB254D36
:100C400000221C212846FFF7A7FE044645F8040CA5
:100C5000FFF700FEFFF74CFE00221C211E48FFF7A5
:100C60009BFE8442114818D104F04CFC1B4804F050
:100C7000DFFBFFF7F9FA62B638BD04F043FC184811
:100C800004F0D6FBFFF7D6FB9EE704F03BFC1548CB
:100C900004F0CEFBFFF7E2FCD1E704F033FC12488E
:100CA00004F0C6FBFFF7D6FDE3E700BF1D600008B8
:100CB0000D5E000858000020A8000020255E0008F6
:100CC000A00100207A5E0008855E0008E80100208F
:100CD000915E00081801002038010020E05E000845
:100CE0004A5E0008B35E00080A5F0008164917480C
:100CF0002DE9F04142F2107C0D460446144F01F1FB
:100D00001C06B1F900E0B1F90420B1F90280A2EBB0
:100D10000E020CFB02F2B1F906300431A3EB08031A
:100D200092FBF3F3436003FB08F393FBF7F38E426C
:100D30007344C0F80080836000F10C00E1D1B5F984
:100D40001E306365BDE8F0812C02002008080020F9
:100D5000F0D8FFFF104A30B51368834218DB00213A
:100D60000C2505FB01F3D418D35883420BDBE36851
:100D7000834208DA6368584342F2107390FBF3F041
:100D8000A368184430BD01310729EAD1C820F9E72A
:100D90006FF00900F6E700BF080800202DE9F843CE
:100DA000534C0746206800F0AFFA00232668310153
:100DB0008A19224410F803C01D460133DBB2BCF18E
:100DC000000F16D18A19A01805443A20FF1A28717D
:100DD00017F803C0DDB2BCF1000F0ED120232A4466
:100DE000033222440F2D15D8013502F8013FEDB230
:100DF000F8E7154485F804C0DCE70F2D05D89818EE
:100E0000204480F804C00133E2E700223144214449
:100E10000B441A71374804F075FB00222946364806
:100E200004F0B4FB236803EB031222442A44002598
:100E30000133172B1571236037D90A26A8464FF0C6
:100E400020092B4F284600F05FFA00232A0102EB0D
:100E5000050CA44410F803E019460133DBB2BEF1DF
:100E6000000F2ED14FF03A0C50192044014481F864
:100E700004C006EB0611214400EB030C9CF804E0CF
:100E8000BEF1000F21D1013BDBB2D9B20F2929D924
:100E90002A442244013513440E2D83F8048007F1BF
:100EA000110706F10106CDD12560FFF70BFA1148B5
:100EB00004F028FB21680022BDE8F8430F4804F045
:100EC00065BB614481F804E0C4E701EB030E092D22
:100ED0008CBF9EF804E09EF805E001338CF804E036
:100EE000DBB2C9E7F91881F804900133CDE700BF00
:100EF000880800201D6000087B62000880620008EE
:100F00002DE9F047534C804620680E4600F0FCF96E
:100F1000002327683901CA19224410F803C01D466E
:100F20000133DBB2BCF1000F16D1CA19A018054479
:100F30002E71A8EB030818F803C0DDB2BCF1000F56
:100F40000ED120232A44033222440F2D15D8013517
:100F500002F8013FEDB2F8E7154485F804C0DCE77C
:100F60000F2D05D89818204480F804C00133E2E71B
:100F70000022394421440B441A71374804F0C2FA64
:100F800000222946354804F001FB236803EB0312D5
:100F900022442A4400250133172B1571236035D9CB
:100FA0000A27A9464FF0200ADFF8A880284600F05B
:100FB000ABF900232A0102EB050CA44410F803E06E
:100FC00019460133DBB2BEF1000F2BD1501920447A
:100FD00001440E7107EB0711214400EB030C9CF850
:100FE00004E0BEF1000F21D1013BDBB2D9B20F29E1
:100FF00029D92A442244013513440E2D83F8049044
:1010000008F1110807F10107D0D12560FFF75AF95F
:10101000114804F077FA21680022BDE8F047104833
:1010200004F0B4BA614481F804E0C7E701EB030EB1
:10103000092D8CBF9EF804E09EF805E001338CF882
:1010400004E0DBB2C9E708EB030181F804A0013337
:10105000CCE700BF880800201D6000087B62000804
:1010600080620008002384B00128009301D1009021
:1010700005E00228FBD003281BD112230093114B5B
:101080009A680192019A02929A6803920399029ACD
:10109000914204D35A6801990A4401320192039A99
:1010A0000292019A03980099121A8A42ECD304B072
:1010B0007047E4D9044B054A1B680338B3FBF2F3CD
:1010C0005843D4E710E000E08C02002040420F00BB
:1010D00007B50190019B13B903B05DF804FB4FF411
:1010E0007A70FFF7BFFF019B013B0193F2E700001D
:1010F00038B5684C684D204604F004FA296800228F
:10110000664804F043FA204604F0FCF9A96800227E
:10111000634804F03BFA204604F0F4F92969002200
:10112000604804F033FA204604F0ECF9A969002283
:101130005D4804F02BFA204604F0E4F9296A002205
:101140005A4804F023FA204604F0DCF9A96A002288
:10115000574804F01BFA204604F0D4F9296B00220A
:10116000544804F013FA204604F0CCF9A96B00228D
:10117000514804F00BFA204604F0C4F9296C00220F
:101180004E4804F003FA204604F0BCF9A96C002292
:101190004B484C4D04F0FAF93220FFF799FF2046F6
:1011A00004F0B0F929680022474804F0EFF920461E
:1011B00004F0A8F9A9680022444804F0E7F92046A1
:1011C00004F0A0F929690022414804F0DFF9204623
:1011D00004F098F9A96900223E4804F0D7F92046A6
:1011E00004F090F9296A00223B4804F0CFF9204628
:1011F00004F088F9A96B0022384804F0C7F92046AA
:1012000004F080F9A96A0022354804F0BFF92046AD
:1012100004F078F9296B0022324804F0B7F920462F
:1012200004F070F9296C00222F4804F0AFF92F4D1B
:101230003220FFF74DFF204604F064F929680022B0
:101240002B4804F0A3F9204604F05CF9A9680022B9
:10125000284804F09BF9204604F054F9296900223B
:10126000254804F093F9204604F04CF9A9690022BE
:10127000224804F08BF9204604F044F9204B214821
:101280001968002204F082F9BDE838403220FFF7E7
:101290001FBF00BF32600008040000203960000852
:1012A0004C6000086A60000889600008A6600008B9
:1012B000C4600008E1600008FF6000081D610008CC
:1012C0003B61000854010020536100086761000879
:1012D000806100088D6100089A610008A76100081C
:1012E000B5610008C7610008DA610008F400002059
:1012F000F7610008136200083B6200085D620008A5
:101300008C020020696200087FB500220A2680EA6C
:10131000E071A1EBE07104ADD4B22A4491FBF6F583
:1013200006FB1511631C303102F8101C5BB2291E3C
:101330001A46F0DC002806DA04A90A442D21A31C71
:1013400002F8101C5BB2002204A919440A4C01F8EF
:10135000102CD0B2191A934249B204D10022064887
:10136000E25404B070BD04AD294411F8111CA1541D
:10137000421C52B2EDE700BF58070020F0B5002331
:101380000A2780EAE07485B0A4EBE07404AEDDB215
:10139000334494FBF7F607FB16446A1C303403F819
:1013A000104C52B2341E1346F0DC002806DA04A8B2
:1013B00003442D20AA1C03F8100C52B2002304A8E9
:1013C000104400F8103CDDB2541B9A4264B201EBA9
:1013D000030004D100230370084605B0F0BD04A843
:1013E000044414F8110CC8546B1C5BB2EBE700000A
:1013F000F0B500230A2780EAE0748BB0A4EBE07418
:101400000AAEDDB2334494FBF7F607FB16446A1CC0
:10141000303403F8284C52B2341E1346F0DC012A53
:10142000D8BF30220AAC2344CFBF002403F8282CB5
:10143000AA1C52B2C8BF03F8284C022A08DC0129B2
:1014400006D930240AAB1344013203F8284C52B2B7
:1014500000242E26234665B2AA420BDC002806DAB9
:101460000AA95A1C0B442D2103F8141C53B2002264
:10147000124C19E08B421D4605D10AAF01333D44A1
:101480005BB205F8146C1DF804700AAD1D440133FD
:1014900005F8147C5BB20134DDE70AAD294411F88C
:1014A000151CA154421C52B2D0B2191A9A4249B228
:1014B000F3D100230148A3540BB0F0BD680700200E
:1014C00000234FF00A0CF0B580EAE0758BB0A5EB75
:1014D000E0750AAFDEB23B4495FBFCF70CFB1755F9
:1014E000741C303503F8285C64B23D1E2346F0DCE2
:1014F000012CD8BF30240AAD2B44CFBF002503F800
:10150000284CB41C64B2C8BF03F8285C022C08DC69
:10151000012A06D930250AAB2344013403F8285C9C
:1015200064B200252E272B466EB2A6420ADB0028A5
:1015300006DA0AA85A1C03442D2003F8140C53B2EF
:1015400000221AE093421E4606D10DF1280C013309
:1015500066445BB206F8147C1DF805C00AAE1E4452
:10156000013306F814CC5BB20135DDE70AAD2C443B
:1015700014F8154C8C54421C52B2D0B21C1A9A4228
:1015800064B201EB0205F1D1002308462B700BB0C9
:10159000F0BD002802D0DCBF404200B270470023FB
:1015A000DAB2815C01330029FAD11046704770B578
:1015B000002465B2435D661C4BB958B20D5C181926
:1015C00040B2161801332DB93570104670BD535511
:1015D0003446EEE71554F0E7F0B500277CB2055D20
:1015E0007E1C8DB968B27E190C5CF6B270B2013502
:1015F0006CB9214648B2145C701840B21D18013114
:101600003CB92C701846F0BD1D553746E6E71C5412
:10161000E8E71C54EEE72DE9F04180464FF46160A5
:1016200086B00D46B8FBF0F001A9FFF7A7FE01A8B0
:10163000FFF7B5FF012896BF012200223023144690
:1016400098BF2B70E6B2B31A06A95BB20B4413F82D
:10165000141C2B19741C64B2002945D13A221A704B
:101660003C23B8FBF3F2B2FBF3F001A903FB10201B
:10167000FFF784FE01A8FFF792FF01289FBF3023E8
:101680002B55B41C64B22646F7B23B1B06AA5BB2CC
:10169000134413F8142CAB197E1C76B232BB3A22D9
:1016A0001A703C23B8FBF3F001A903FB1080FFF78D
:1016B00065FE01A8FFF773FF01289CBF3023AB55DF
:1016C0004FF000039CBFBE1C76B25AB206A90A4472
:1016D00012F8141CF21852B2A818013341B9017063
:1016E000284606B0BDE8F0811970ABE71A70CBE769
:1016F000A954EAE7F0B507464FF4616087B00D469C
:10170000B7FBF0F001A9FFF739FE01A8FFF747FF8B
:10171000012896BF012200223023144698BF2B7067
:10172000E6B2B31A06A95BB20B4413F8141C2B19CA
:10173000741C64B229BB3A221A703C23B7FBF3F73E
:10174000B7FBF3F001A903FB1070FFF717FE01A828
:10175000FFF725FF01289CBF30232B554FF00003D6
:101760009CBFB41C64B25AB206A90A4412F8141CF5
:10177000E21852B2A818013329B90170284607B0FF
:10178000F0BD1970CCE7A954EDE7000002460D4901
:101790004B6808688B608342C1E9002007DC9342F4
:1017A00003DC9042A8BF10467047834206DB90429C
:1017B00004DC9342A8BF1346184670479842A8BF5E
:1017C000184670471C07002002460D494B68086800
:1017D0008B608342C1E9002007DC934203DC904226
:1017E000A8BF10467047834206DB904204DC934258
:1017F000A8BF1346184670479842A8BF18467047BE
:101800002807002002460D494B6808688B60834218
:10181000C1E9002007DC934203DC9042A8BF1046D8
:101820007047834206DB904204DC9342A8BF134614
:10183000184670479842A8BF1846704734070020E2
:1018400002460D494B6808688B608342C1E900205D
:1018500007DC934203DC9042A8BF104670478342E6
:1018600006DB904204DC9342A8BF1346184670473B
:101870009842A8BF184670474007002002460D490D
:101880004B6808688B608342C1E9002007DC934203
:1018900003DC9042A8BF10467047834206DB9042AB
:1018A00004DC9342A8BF1346184670479842A8BF6D
:1018B000184670474C0700207047704770477047C4
:1018C00070470000014B1868704700BF4C020020B1
:1018D000094B10B598420DD060B1084A084C126807
:1018E00020600AB11830904723681B6913B1BDE826
:1018F0001040184710BD00BF846200087C0700201C
:101900004C020020024B1860024B1868FFF7E0BF42
:101910007C0700204C020020044B054A1B689342C0
:1019200003D013B15B6903B1184770474C02002024
:10193000846200084FF4804310B5064C02202361F6
:10194000FFF790FB4FF0804302202361BDE8104079
:10195000FFF788BB000C014070B54FF07C454FF499
:1019600080560D4C25612661FFF7E4FF0120FFF74B
:10197000AFFB25612661FFF7DDFF0120FFF7A8FB24
:101980004FF4806325612361FFF7D4FFBDE8704009
:101990000120FFF79DBB00BF000C01404FF07C42CF
:1019A000244B70B504461A610E4611B14FF4004243
:1019B0001A61E20644BF4FF400521A6114F0200F7E
:1019C00018BF4FF480521B4B18BF1A61650644BF05
:1019D0004FF400621A6114F0800F18BF4FF4806357
:1019E000144D18BF2B61FFF7A5FF4FF07053E007B0
:1019F0002B6144BF4FF400532B61A10742BF4FF44A
:101A000080520C4B1A61620742BF4FF40062094BCF
:101A10001A61230742BF4FF48062064B1A61FFF739
:101A200089FF0220FFF754FB1EB14FF00042014B2B
:101A30001A6170BD000C0140C00040F0400038B594
:101A400000F0F8000C460021FFF7A8FF651E0734E0
:101A500015F8010F0121FFF7A1FFA542F8D1BDE85C
:101A6000384000218020FFF799BF000073B51F4C5C
:101A70001F4D69460020CDE900451E4EFFF7DCFFF3
:101A80001D4B69460120CDE90036FFF7D5FF1B4B02
:101A90006946CDE900350220194DFFF7CDFF6946B3
:101AA0000320CDE90056FFF7C7FF69460420CDE9C2
:101AB0000054FFF7C1FF134A134B69460520CDE9D7
:101AC0000023FFF7B9FF114B11490620CDE90013A0
:101AD0006946FFF7B1FF0F4B0F486946CDE9000398
:101AE0000720FFF7A9FF02B070BD00BF04150E0468
:101AF00000041F1F0000041F150E040000040E1533
:101B0000040E15040207070A0A1C1C080515090023
:101B10000F050505010101001111111F064A107082
:101B2000064A117019B940F08000FFF737BF002155
:101B300040F0C000F9E700BF8007002081070020C7
:101B400070B50D460446C64314F8010B00B970BDCC
:101B50000121FFF723FF012DF6D13319DBB2072B4B
:101B6000F2D129460020FFF7D9FFEDE70121C0B2ED
:101B7000FFF714BF2DE9F8430F46DFF878801B4CC0
:101B80001B4E451E15F8010F08B9BDE8F883B228B1
:101B900019D101214920FFF701FF237896F8009021
:101BA0000133DBB22370B9F1000FEBD1082BE9D17F
:101BB000022FE7D101214846FFF7B0FF012384F847
:101BC00000903370DEE7AF2802D101210320E2E765
:101BD000AA2802D101210220DDE7BF2889BF4044A5
:101BE0000121012110F8C00CD5E700BF80070020BB
:101BF000810700205002002000210120FFF7CEBE07
:101C000008B56420FFF764FAFFF7A6FE00210E2056
:101C1000FFF7C4FEBDE80840FFF7EEBF0221FFF763
:101C2000A9BF10B5044608461146FFF777FF2046C6
:101C3000BDE810400221FFF79DBF08B5FFF7E0FFA8
:101C4000FFF7DAFFBDE8084000210C20FFF7A6BE31
:101C5000054B82B09A6902439A619B6918400190D2
:101C6000019B02B0704700BF001002400022014BF0
:101C70001A807047F207002008B5FEF7A9FEBDE8FC
:101C800008400148FFF78AB8B562000810B53B4C20
:101C900094F9001061B90846FFF740FF3848FFF794
:101CA000BDFF4FF48762374B9A6140F2B4521A621B
:101CB00094F90030012B0DD100210846FFF72EFFCB
:101CC0003148FFF7ABFF4FF496722E4B9A614FF4F9
:101CD000D2721A6294F90030022B0DD1002108460D
:101CE000FFF71CFF2948FFF799FF4FF48C72254B33
:101CF0009A614FF4B9721A6294F90030032B0CD137
:101D000000210846FFF70AFF2148FFF787FFA022BE
:101D10001C4B9A614FF48C721A6294F90030042BB8
:101D20000DD100210846FFF7F9FE1A48FFF776FFAC
:101D30004FF44872134B9A614FF4AA621A6294F9F5
:101D40000030052B0CD100210846FFF7E7FE1248B2
:101D5000FFF764FF64220B4B9A614FF4FA621A6238
:101D600094F90030062B04BF00232370FEF766FEB3
:101D7000BDE810404FF41670FFF7AAB99B0700208A
:101D8000736400085401002084640008956400080E
:101D9000A6640008B7640008C8640008FEF74EBED9
:101DA00008B501210720FFF7B9FE0121FF20FFF749
:101DB000F5FDFEF743FE044BC8209A68034B1A60FA
:101DC000BDE80840FFF784B9540100202C0A002028
:101DD00008B501210720FFF7A1FE0121FF20FFF731
:101DE000DDFDFEF72BFE044BC8201A6C034B1A6076
:101DF000BDE80840FFF76CB954010020240A002018
:101E000018B100221146FFF70CBF704749F6AF2307
:101E100010B50E4C90B022689A4215D90C4B0BA904
:101E20001868FFF767FC4FF46163206801A9B0FBF5
:101E3000F3F0FFF7A3FA074906AB0BAAFFF7CCFBB9
:101E4000022106A8FFF75CF810B010BD880700203B
:101E5000A0070020C563000810B5164C90B01648C6
:101E600003F050FB00222168144803F08FFB49F671
:101E7000AF2322689A421BD9114B0BA91868FFF7B0
:101E800039FC4FF46163206801A9B0FBF3F0FFF760
:101E900075FA06AB0BAA0B49FFF79EFB012106A8BA
:101EA000FFF72EF8044803F02DFB06A803F0C0FA54
:101EB00010B010BD840700201D6000086163000899
:101EC00094070020C563000808B501210720FFF72B
:101ED00025FEBDE808400121FF20FFF75FBD00009F
:101EE00070B54FF0007191FAA1F1B1FA81F3104C85
:101EF00000F00071D94054F8215000F0F8704FF014
:101F0000F87292FAA2F3B3FA83F392FAA2F20726D6
:101F1000B2FA82F220FA03F306FA03F3D04025EA7C
:101F2000030306FA00F0184344F8210070BD00BF17
:101F30000C24014030B54FF4407393FAA3F3B3FA85
:101F400083F31F2400F44072074DDA4055F8223025
:101F500000F01F00844001F01F0123EA04038140C8
:101F6000194345F8221030BD2C2401400020704751
:101F7000002310B596B00446084611A98DF8042038
:101F80008DF80530FFF7B6FB4FF4616002A9B4FB92
:101F9000F0F0FFF7F3F907AB11AA0749FFF71CFBB5
:101FA0000CAA07A901A8FFF702FB04210CA8FEF761
:101FB000A7FF16B010BD00BFC5630008022838B5E2
:101FC0001F4C204D2AD123882A6801331BB293422B
:101FD000238001D30023238000210846FFF79EFDC4
:101FE0002868B4F900300138C01A00EB0010043042
:101FF0002844FFF713FE144803F084FAB4F90010E4
:102000000022124803F0C2FA0F4803F07BFA296855
:102010000022BDE838400E4803F0B8BA0128DBD1F1
:102020002388013B1BB2002B2380BEBF2B6803F12A
:10203000FF332380B4F90030002BCDDACAE700BFAC
:10204000F2070020880800201D600008C96300080E
:10205000D6630008002110B504460846FFF75EFD70
:102060000A4B188800B2FFF74FF9FFF7D7FD084871
:10207000FFF7D4FD022C08D1BDE81040054B064AFD
:102080001B881BB29360FEF7A3BC10BD6A0800203A
:1020900019630008BA02002004000020002110B5D6
:1020A00004460846FFF73AFD0A4B188800B2FFF7CE
:1020B0002BF9FFF7B3FD0848FFF7B0FD022C08D15C
:1020C000BDE81040054B064A1B881BB21361FEF7A2
:1020D0007FBC10BD6A08002019630008BC02002004
:1020E00004000020002110B504460846FFF716FD45
:1020F0001F48FFF793FD022C30D1FEF741FDFEF79C
:1021000023FC002104460846FFF708FD1948FFF7A5
:1021100085FD4FF4FA60FEF7DBFF00210846FFF76C
:10212000FDFC012C1BD11448FFF778FD1348FEF786
:1021300035FE4FF4FA60FEF7CBFF114B1A69114BD5
:102140001A604FF46162104B19694A430F490A60E3
:1021500099680F4A11601A6C0E4B1A6010BD0E4838
:10216000FFF75CFDBDE810404FF47A60FEF7B0BFAA
:10217000C1620008D2620008E3620008F46200084D
:10218000F40000208C07002054010020280A0020C1
:102190002C0A0020240A002003630008022810B53E
:1021A0000E4C15D123690133236100210846FFF746
:1021B000B5FC2069FFF7A8F8FFF730FD0848FFF7E6
:1021C0002DFD4FF4616322695343064A136010BD2D
:1021D0000128EAD12369013BE6E700BF5401002052
:1021E000DF640008280A002010B5304C022894F95A
:1021F000003052D101335BB2072B08BF002323709C
:1022000094F9001029B90846FFF788FC2848FFF721
:1022100005FD94F90030012B06D100210846FFF797
:102220007DFC2448FFF7FAFC94F90030022B06D11C
:1022300000210846FFF772FC1F48FFF7EFFC94F9F6
:102240000030032B06D100210846FFF767FC1B482E
:10225000FFF7E4FC94F90030042B06D10021084676
:10226000FFF75CFC1648FFF7D9FC94F90030052B0A
:1022700006D100210846FFF751FC1248FFF7CEFCBB
:1022800094F90030062B10D100210846FFF746FCD8
:10229000BDE810400C48FFF7C1BC0128B0D1013B9C
:1022A0005BB2002BB8BF0623A9E710BD9B07002037
:1022B000FE6300080F64000821640008326400080F
:1022C000426400085364000863640008022810B5E3
:1022D0000D4C14D1A3690A33A36100210846FFF70E
:1022E0001DFC0A23A0690121B0FBF3F0FFF780F881
:1022F000FFF794FCBDE810400448FFF78FBC0128AD
:10230000EBD1A3690A3BE7E7540100209064000881
:10231000022810B50D4C14D1236A0A332362002120
:102320000846FFF7FBFB0A23206A0121B0FBF3F00C
:10233000FFF75EF8FFF772FCBDE810400448FFF7B6
:102340006DBC0128EBD1236A0A3BE7E7540100206A
:1023500090640008022810B50B4C10D1A36A013319
:10236000A36200210846FFF7D9FBA06AFEF7CCFF65
:10237000FFF754FCBDE810400448FFF74FBC0128AC
:10238000EFD1A36A013BEBE7540100208E65000802
:10239000022810B50B4C10D1236B013323630021AD
:1023A0000846FFF7BBFB206BFEF7AEFFFFF736FCDE
:1023B000BDE810400448FFF731BC0128EFD1236B82
:1023C000013BEBE7540100208E650008022838B578
:1023D0001A4C2DD1A36B0133A36300210A250846B3
:1023E000FFF79CFBA06BFEF78FFFFFF717FC14486D
:1023F000FFF714FC206A0121B0FBF5F0FEF7F8FFAF
:10240000FFF70CFC0F48FFF709FC6422236AA06B5E
:1024100001215843B0FBF2F0181AB0FBF5F0FEF7BB
:10242000E7FFFFF7FBFBBDE838400748FFF7F6BBC7
:102430000128D2D1A36B013BCEE700BF540100209D
:10244000D9640008DC64000890640008044B9A68B2
:10245000044B1B689A4201D1FFF736BD704700BF9D
:10246000540100202C0A0020044B1A6C044B1B68FA
:102470009A4201D1FFF728BD704700BF54010020E8
:10248000240A0020002110B504460846FFF746FB49
:10249000022C174B0FD19A680132082A08BF01227B
:1024A0009A609A68013A062A1FD8DFE802F00B12F8
:1024B0001416181A1C00012CF3D19A68013A08BFAF
:1024C0000722EDE70B48FFF7A9FBBDE81040FFF737
:1024D000BDBF0948F7E70948F5E70948F3E70948A8
:1024E000F1E70948EFE70948EDE701229A6010BDDE
:1024F00054010020176500082865000839650008A8
:102500004A6500085B6500086C6500087D65000889
:10251000002110B504460846FFF700FB022C124BC1
:1025200013D11A6C0132042A08BF01221A641A6CF2
:10253000022A11D0032A11D0012A11D10B48FFF72A
:102540006DFBBDE81040FFF78FBF012CEFD11A6C77
:10255000013A08BF0322E9E70548F0E70548EEE73E
:1025600001221A6410BD00BF54010020E464000879
:10257000F564000806650008154B16499A6812F0C4
:10258000100F0CD09A68900616D59A68520615D589
:102590009B68DB4313F0800312D10B80704703224A
:1025A00040F2DC50B1F9003083420BDD40F2B4530D
:1025B0000B80094B1A700AE00222F1E70122EFE7D3
:1025C0000422EDE701331BB2142B0B80F1D07047CE
:1025D000000C0140F0070020F4070020044B18789D
:1025E00010B10021034A116000221A70704700BF29
:1025F000F4070020AC0700200022034B1A600122E0
:10260000024B1A70704700BFE0070020B20700209D
:1026100038B504464FF46160B4FBF0F0FEF774FE89
:102620000546FEF7BCFF012803D801211148FFF73A
:1026300087FA01212846FFF783FA01210E48FFF7A8
:102640007FFA3C23B4FBF3F4B4FBF3F003FB10403C
:10265000FEF75AFE0446FEF7A2FF012803D8012127
:102660000448FFF76DFA2046BDE838400121FFF726
:1026700067BA00BFB36200083D6300084FF48032C0
:10268000064B1A614FF08072A3F580631A61002334
:10269000034A1370034A1370704700BF000C0140D7
:1026A000AA070020B10700200123054A1361054A4B
:1026B0001370054A13704FF48072044B1A6170470F
:1026C000000C0140AA070020B107002000080140CB
:1026D000094908B50B68022B03D1FFF7E5FF012379
:1026E0000B600B68032B06D1044B9869012802D1BB
:1026F000FFF7DAFF086008BD74020020F400002034
:1027000000212DE9F0410126294B2A4D07460846B4
:102710001E70FFF703FA2B78274C03F0FF083BBB32
:10272000264B02211888FEF763FEFFF777FA24484C
:10273000FFF774FA41460720FFF7F0F9208800B24E
:10274000FEF7E2FDFFF76AFA1E48FFF767FA052079
:102750003146FFF7E3F91C48FFF760FA022F03D177
:102760002B7813BBFFF7A0FFBDE8F041FFF7B0BF28
:10277000164B02211888FEF73BFEFFF74FFA104870
:10278000FFF74CFA00210720FFF7C8F9208800B2B4
:10279000FEF7BAFDFFF742FA0D48FFF73FFA0620B1
:1027A0003146FFF7BBF90B48D6E7FFF767FFDBE7DA
:1027B000A8070020AA0700206A080020840800203B
:1027C000E9630008ED630008A66200087E080020A7
:1027D000F3630008FA6300080122164B10B51A7063
:1027E000FFF762FF0228144C1ED1A3690133A361D5
:1027F00000210846FFF792F9A069FEF785FDFFF773
:102800000DFA0E48FFF70AFA01210020FFF786F9BA
:102810000B4B188800B2FEF777FDFFF7FFF9BDE814
:1028200010400848FFF7FAB90128E1D1A369013B3C
:10283000DDE700BFA80700200400002002650008B3
:102840006A080020146300080122164B10B51A70A4
:10285000FFF72AFF0228144C1ED1A36A0133A3629A
:1028600000210846FFF75AF9A06AFEF74DFDFFF771
:10287000D5F90E48FFF7D2F901210020FFF74EF9F4
:102880000B4B02211888FEF7B3FDFFF7C7F9BDE82F
:1028900010400848FFF7C2B90128E1D1A36A013B03
:1028A000DDE700BFA8070020040000200265000843
:1028B00084080020E96300080122164B10B51A7045
:1028C000FFF7F2FE0228144C1ED1236B0133236361
:1028D00000210846FFF722F9206BFEF715FDFFF7F0
:1028E0009DF90E48FFF79AF901210020FFF716F92C
:1028F0000B4B02211888FEF77BFDFFF78FF9BDE82F
:1029000010400848FFF78AB90128E1D1236B013B49
:10291000DDE700BFA80700200400002002650008D2
:102920007E080020E96300080122164B10B51A70DA
:10293000FFF7BAFE0228144C1ED1A36B0133A36328
:1029400000210846FFF7EAF8A06BFEF7DDFCFFF771
:1029500065F90E48FFF762F901210020FFF7DEF864
:102960000B4B02211888FEF743FDFFF757F9BDE82E
:1029700010400848FFF752B90128E1D1A36B013B91
:10298000DDE700BFA8070020040000200265000862
:1029900068080020E96300080122F8B5294B2A4E97
:1029A0001A70FFF781FE02282ED13388013333805D
:1029B00000210846FFF7B2F802213088FEF718FD23
:1029C000224F234CFFF72AF92248FFF727F93B88CB
:1029D00022889BB212B2002A1F4D1ADC46232B64B8
:1029E000286CFEF791FCFFF719F91C48FFF716F960
:1029F0001B4B1B883A8821889BB209B2002992B2EE
:102A000014DC0A23AB64F8BD0128D1D13388013B23
:102A1000CDE7328821889B1A42F210721BB223EA5A
:102A2000E373534309B293FBF1F3D8E79B1A42F2E5
:102A300010721BB223EAE3735343218809B293FB5C
:102A4000F1F3DFE7A807002078020020BE02002093
:102A50006A080020DC6400080400002028630008E5
:102A6000840800200222064B1A610123054A1370D4
:102A7000054A13704FF40062044B1A61704700BF9F
:102A8000000C0140AA070020B00700200008014008
:102A900008B5FFF7F3FDFFF7E5FFBDE8084032207A
:102AA000FEF716BB38B501220546154B154C1A70BA
:102AB000FFF7EEFF022D1ED1236A013323620021AE
:102AC0000846FFF72BF8206AFEF71EFCFFF7A6F872
:102AD0000D48FFF7A3F801210020FFF71FF80B4B6B
:102AE000188800B2FEF710FCFFF798F8BDE83840F0
:102AF0000748FFF793B8012DE1D1236A013BDDE7D9
:102B0000A807002004000020026500086A080020D1
:102B10001463000808B50D4B93F90020022A13D066
:102B200002221A70FFF7AAFDFFF79CFF0022084B54
:102B300032201A60FEF7CCFA064802F0E3FCBDE84A
:102B40000840054802F074BC08BD00BF9207002091
:102B5000DC0700201D600008157100084FF40032EA
:102B6000074B1A610023074A1370074A13704FF08E
:102B7000006203F1804303F584331A61704700BF9C
:102B8000000C0140AA070020B00700200122234BBF
:102B9000022810B51A70224C03D1237873BBFFF7BB
:102BA00061FF00210846FEF7B9FF1E4B022118887D
:102BB000FEF71EFCFFF732F81B48FFF72FF81B4B00
:102BC000188800B2FEF7A0FBFFF728F81848FFF7B7
:102BD00025F823780121174C062093B9FEF79EFFB4
:102BE00001210220FEF7C2FF01210220FEF7BEFFF5
:102BF00023780A2B84BF0023237010BDFFF7AEFF9C
:102C0000CFE72378052BE9D9FEF788FF01210320C0
:102C1000FEF7ACFF01210320E8E700BFA807002072
:102C2000AA0700207E080020DC6400086A08002053
:102C3000F36300089107002000212DE9F0410126EF
:102C40002C4B2D4D074608461E70FEF767FF2B786C
:102C50002A4C03F0FF083BBB294B02211888FEF7E2
:102C6000C7FBFEF7DBFF2748FEF7D8FF41460720EA
:102C7000FEF754FF208800B2FEF746FBFEF7CEFFBA
:102C80002148FEF7CBFF05203146FEF747FF1F48DE
:102C9000FEF7C4FF022F2AD12B7813BBFFF704FDE8
:102CA000BDE8F041FFF7DEBE194B02211888FEF7A0
:102CB0009FFBFEF7B3FF1348FEF7B0FF002107208C
:102CC000FEF72CFF208800B2FEF71EFBFEF7A6FFE2
:102CD0001048FEF7A3FF06203146FEF71FFF0E48FF
:102CE000D6E7FFF7CBFCBDE8F041FFF737BFBDE803
:102CF000F08100BFA8070020AA0700206A08002072
:102D000084080020E9630008ED630008A66200085B
:102D10007E080020F3630008FA63000808B5FFF797
:102D20001DFFFFF7C1FCBDE808403220FEF7D0B917
:102D300008B50D4B93F90020012A13D001221A7017
:102D4000FFF70CFFFFF7B0FC0022084B32201A609F
:102D5000FEF7BEF9064802F0D5FBBDE8084005487D
:102D600002F066BB08BD00BF92070020DC07002010
:102D70001D600008187100082DE9F04FBC4A87B0AB
:102D80001378019003F0FF040292DFF844A3DFF808
:102D900044B3DFF84493B74FDFF84083B64D002BC0
:102DA0003DD1B64B1A88B64B1B6A0533934215D9F1
:102DB00021462046FEF7B2FEB248FEF72FFF4FF441
:102DC000FA60FEF785F921462046FEF7A7FEAE48D9
:102DD000FEF724FF40F6B830FEF77AF9012600240A
:102DE000029B1E70A94B8AF800408BF80040C9F87E
:102DF00000403C601C60C8F800402C608AF800600D
:102E0000FFF796FFA24B214620461E70FEF786FE76
:102E1000A048FEF703FF4FF47A70FEF759F99E4C75
:102E2000208800B2FEF7B5FB0528049440F3D18159
:102E30009A4B934E1A88B1690393914220D9944CCE
:102E40002278022A1CD1964B1B68B3F57A7F17D9DA
:102E500000238BF800302968924B994203D92868E7
:102E60003968FFF785F80023C9F80030C8F800304A
:102E700001238AF800300593FFF75AFF059B237062
:102E8000039B326A1B889A4208D2814B1B78012B24
:102E900004D1834B1B68B3F57A7F09D8824BD9F8EC
:102EA00000201B689A4223D9794B1B78012B1FD134
:102EB00000238AF80030D8F800207A4B9A4206D9CD
:102EC000D8F800000122D9F80010FFF751F83A684D
:102ED0006E4B1A602A68754B9A6000233B602B602A
:102EE00001238BF80030FFF715FE0222684B1A70A1
:102EF000019A6F4C022A94F9003040F05981013355
:102F00005BB2052B08BF0023237094F90030002B1F
:102F100032D1194618460193FEF700FE039B0221A9
:102F20001888FEF765FAFEF779FE6248FEF776FE2E
:102F3000049B188800B2FEF7E7F9FEF76FFE5E48C3
:102F4000FEF76CFE01210620FEF7E8FD01210420BA
:102F5000FEF70CFE594A019B1278012A40F032819B
:102F60001146072003930192FEF7D8FD019A039BB7
:102F700011461846FEF7FAFD94F90030012B28D1CE
:102F8000002108460193FEF7C9FD3069FEF7BCF940
:102F9000FEF744FE4A48FEF741FE0A22019BB06953
:102FA0001946B0FBF2F003930192FEF721FAFEF707
:102FB00035FE4048FEF732FE039B019A306A1946FF
:102FC000B0FBF2F0FEF714FAFEF728FE3D48FEF7DC
:102FD00025FE94F90060022E21D100210846FEF75B
:102FE0009DFD01213046FEF7C1FD00210120FEF7C5
:102FF00095FD3548FEF712FE4FF461632868B0FB7B
:10300000F3F0FEF781F9FEF709FE3048FEF706FE01
:1030100003200121FEF782FD3868FFF7F9FA94F9E1
:103020000060032E5CD100210846FEF777FD0121E8
:103030000020FEF79BFD00210120FEF76FFD2248D6
:10304000FEF7ECFD4FF46163D8F80000B0FBF3F03D
:10305000FEF75AF9FEF7E2FD1C48FEF7DFFD3046A9
:103060000121FEF75BFDD9F80000FFF7D1FA37E048
:10307000A8070020A007002088070020840800205F
:10308000540100209F650008B0650008A4070020D7
:1030900070020020C16500086A0800207E08002038
:1030A000DC0700204F8C0500280A0020F4000020D7
:1030B00099070020DC640008D2650008B1070020F1
:1030C000825D0008D264000804650008DA65000823
:1030D000930700209C07002094070020840700200D
:1030E00094F90030042B23D100210846FEF716FD89
:1030F00001210220FEF73AFD00210120FEF70EFD1E
:103100003A48FEF78BFD3A4B98684FF46163B0FB89
:10311000F3F0FEF7F9F8FEF781FD3648FEF77EFD85
:1031200003200121FEF7FAFC334B1868FFF770FA11
:10313000324802F0E7F9029B00221978304802F089
:1031400025FA2E4802F0DEF99AF8001000222D48E8
:1031500002F01CFA294802F0D5F9D9F80010002233
:10316000294802F013FA254802F0CCF9D8F80010EB
:103170000022264802F00AFA204802F0C3F99BF820
:1031800000100022224802F001FA1C4802F0BAF9AD
:10319000396800221F4802F0F9F9184802F0B2F924
:1031A000002229681C4807B0BDE8F04F02F0EEB9D4
:1031B000019A012A7FF4A9AE013B5BB2002BB8BF94
:1031C0000423A1E601210720FEF7A8FC012102202B
:1031D000D0E6124B1B68B3F57A7FA9D900210846C7
:1031E000FEF79CFC0E48FEF719FDA1E7E465000818
:1031F000F4000020E7650008A40700201D60000817
:1032000001660008166600082B6600083B66000889
:10321000536600086B6600087E660008DC07002025
:10322000F06500080021F8B506460846FEF776FC72
:103230000122664B1A70664B197811B91A70FFF7A4
:10324000DBF9644D644C2B68A26A9A4211D3FFF7F4
:103250006FFD624B226A1B889A420AD2604B1B6840
:10326000B3F5C87F05D9FFF7C7F92B68A26A1344E5
:103270002B602B68A26A9A420DD2FFF74BFC574B8A
:10328000A2691B889A4206D9554B1B68B3F5C87FC3
:1032900001D9FFF7B1F9A36A216B2A680B44934265
:1032A00001D2FFF7A9F94F4D022E95F900307DD1DB
:1032B00001335BB2032B08BF00232B7095F900602C
:1032C0005EBB31463046FEF729FC444B022118888C
:1032D000FEF78EF8FEF7A2FC4348FEF79FFC434B37
:1032E000188800B2FEF710F8FEF798FC4048FEF789
:1032F00095FC01210620FEF711FC01210520FEF7B7
:1033000035FC3C4B1F78012F58D139460720FEF77A
:1033100005FC39463046FEF729FC95F90060012E80
:1033200022D100210A270846FEF7F8FB2069FDF7A5
:10333000EBFFFEF773FC3048FEF770FCA0693146E6
:10334000B0FBF7F0FEF754F8FEF768FC2648FEF7EE
:1033500065FC206A3146B0FBF7F0FEF749F8FEF74E
:103360005DFC2648FEF75AFC95F90030022B2CD163
:1033700000210846FEF7D2FBA06AFDF7C5FFFEF765
:103380004DFC1F48FEF74AFC206BFDF7BDFFFEF722
:1033900045FC1C48FEF742FC03200121FEF7BEFB62
:1033A000194B1868BDE8F840FFF732B9012E85D1F6
:1033B000013B5BB2002BB8BF02237EE7012107204F
:1033C000FEF7ACFB01210220A5E7F8BDA80700200D
:1033D000A9070020E0070020540100207E080020FB
:1033E000DC07002099070020DC6400086A08002040
:1033F000D2650008B1070020825D0008D264000891
:103400007563000897650008A007002008B5FFF75E
:10341000A5FBBDE80840FFF731B9000001222DE906
:10342000F84F964E964B347882461A709846954DD2
:10343000DFF8C092944F2CBB944B1A88944B1B6AB4
:103440000533934215D921462046FEF767FB914884
:10345000FEF7E4FB4FF4FA60FDF73AFE2146204602
:10346000FEF75CFB8C48FEF7D9FB40F6B830FDF761
:103470002FFE0023894A2B7089F800301360012247
:103480003B603270864B3A681B689A4205D8854B80
:103490007F4A1B88126A9A4203D2FFF7B7FF0023C4
:1034A0002B70FFF715F9BAF1020F7F4C40F0BD8089
:1034B0007E4B1B78002B40F0B480FFF72FFC0123DC
:1034C0002B7094F90010A1BB0846FEF727FB774B41
:1034D000DFF8D0A11A789B46002A40F0B2806B4BEF
:1034E00002211888FDF784FFFEF798FB7048FEF76D
:1034F00095FB0221BAF80000FDF77AFFFEF78EFB7C
:103500006C48FEF78BFB9BF80030DFF8ECA1012143
:103510000720002B40F0A880FEF700FB01210020CF
:10352000FEF724FB9AF800300A2B84BF00238AF8A8
:10353000003094F900A0BAF1010F1ED10021DFF88C
:1035400050B10846FEF7EAFA5B48FEF767FBDBF886
:103550001000FDF7D9FEFEF761FB5848FEF75EFB51
:103560000A23DBF820005146B0FBF3F0FDF740FFE3
:10357000FEF754FB5248FEF751FB94F90030022B42
:103580001AD100210846FEF7C9FA4E48FEF746FB5D
:10359000424B18684FF46163B0FBF3F0FDF7B4FEE3
:1035A000FEF73CFB4848FEF739FB03200121FEF7FC
:1035B000B5FA3868FFF72CF8444801F0A3FF3178DA
:1035C0000022434801F0E2FF404801F09BFF98F8D9
:1035D000001000223F4801F0D9FF3C4801F092FF63
:1035E000297800223C4801F0D1FF384801F08AFFD9
:1035F00039680022394801F0C9FF344801F082FFE0
:1036000099F800100022364801F0C0FF2F4801F061
:1036100079FF344B002219683348BDE8F84F01F0B8
:10362000B5BFFFF7F3FE00234AE7BAF1010F7FF4BD
:1036300048AF2378013B5BB2002BB8BF0223237055
:103640003FE70221BAF80000FDF7D2FEFEF7E6FAE6
:103650001748FEF7E3FA254B188800B2FDF754FE31
:10366000FEF7DCFA22484CE79AF80030052B7FF68B
:1036700053AFFEF753FA0121084651E7A90700208E
:10368000A80700209307002094070020840800204A
:10369000540100209F650008B065000884070020E1
:1036A000280A00207E08002099070020AA07002091
:1036B000DC640008D26400083C6300083F63000833
:1036C00090640008476300084A6300081D60000812
:1036D0005363000801660008166600082B660008A0
:1036E00053660008A00700206B6600086A080020E7
:1036F000D26500089C0700209107002001222DE9D7
:10370000F84FBA4EBA4B357882461A709846B94C83
:10371000DFF85093B84F2DBBB84B1A88B84B1B6AD3
:103720000533934215D929462846FEF7F7F9B548DF
:10373000FEF774FA4FF4FA60FDF7CAFC29462846F2
:10374000FEF7ECF9B048FEF769FA40F6B830FDF73D
:10375000BFFC0023AD4A237089F8003013600122BA
:103760003B603270AA4B3A681B689A4240F2FB8079
:10377000FFF74CFE00232370FEF7AAFFBAF1020FF9
:10378000A44D40F00981A44B1B78002B40F0008130
:10379000FFF7C4FA0123237095F90010A1BB084676
:1037A000FEF7BCF99C4BDFF8B0A21A789B46002AC2
:1037B00040F0FE80914B02211888FDF719FEFEF7BC
:1037C0002DFA9648FEF72AFA0221BAF80000FDF712
:1037D0000FFEFEF723FA9248FEF720FA9BF800301E
:1037E000DFF884A201210720002B40F0F480FEF7CF
:1037F00095F901210020FEF7B9F99AF800300A2B5B
:1038000084BF00238AF8003095F900A0BAF1010FB7
:103810001ED10021DFF8E8B10846FEF77FF98148A4
:10382000FEF7FCF9DBF81000FDF76EFDFEF7F6F988
:103830007D48FEF7F3F90A23DBF820005146B0FB80
:10384000F3F0FDF7D5FDFEF7E9F97548FEF7E6F967
:1038500095F90030022B2FD100214FF00A0ADFF832
:10386000A0B10846FEF75AF9DBF83800FDF74CFD29
:10387000FEF7D4F96D48FEF7D1F9DBF820000121FD
:10388000B0FBFAF0FDF7B4FDFEF7C8F96348FEF7A8
:10389000C5F96422DBF82030DBF8380001215843F9
:1038A000B0FBF2F0181AB0FBFAF0FDF7A1FDFEF73D
:1038B000B5F95B48FEF7B2F995F90050032D1AD11E
:1038C00000210846FEF72AF95948FEF7A7F94F4BA1
:1038D00018684FF46163B0FBF3F0FDF715FDFEF7D8
:1038E0009DF95448FEF79AF928460121FEF716F98A
:1038F0003868FEF78DFE6420FDF7EAFB4E4801F0C4
:1039000001FE317800224D4801F040FE4A4801F0A6
:10391000F9FD98F800100022494801F037FE4648AA
:1039200001F0F0FD21780022464801F02FFE4248C8
:1039300001F0E8FD39680022434801F027FE3E48C7
:1039400001F0E0FD99F800100022404801F01EFE51
:10395000394801F0D7FD3E4B002219683D48BDE8CB
:10396000F84F01F013BE3C49254A0888136A834288
:10397000FFF4FEAE6420926B09885A43B2FBF0F26A
:103980009B1A8B427FF6F8AEFFF7C8F90123F2E6E7
:10399000FFF73CFD0023FEE6BAF1010F7FF4FCAE19
:1039A0002B78013B5BB2002BB8BF03232B70F3E6EF
:1039B0000221BAF80000FDF71BFDFEF72FF91748AA
:1039C000FEF72CF9254B188800B2FDF79DFCFEF799
:1039D00025F9234800E79AF80030052B7FF607AF5A
:1039E000FEF79CF80121084605E700BFA907002063
:1039F000A8070020930700209407002084080020D7
:103A0000540100209F650008B0650008840700206D
:103A1000280A002099070020AA070020DC6400087B
:103A2000906400083C6300083F630008D964000804
:103A300047630008E76500081D600008536300083D
:103A400001660008166600082B6600085366000829
:103A5000A00700206B6600087E0800206A0800208E
:103A6000336300089C0700209107002001212DE905
:103A7000F8438A4D8A4E2B7831708A4A4BB92970A7
:103A8000894913700B7089490B7089490B6089490A
:103A90000B60894F89493B889BB20B8088498C69B0
:103AA0008846A342C0F0F180002313708549864BFD
:103AB00009681B68DFF8F4915B1A032B06D91378A9
:103AC00023B1FFF7A3FC002389F8003002287F4CC4
:103AD00040F0C7807E4B1B78002B40F0BE80FEF785
:103AE000D7FF012389F8003094F9001041BB084644
:103AF000FEF714F802213888FDF77AFCFEF78EF8FD
:103B00007448FEF78BF8744B744F188800B2FDF7B9
:103B1000FBFBFEF783F87248FEF780F86C4B01213F
:103B20001B780720002B40F0A780FDF7F7FF01214D
:103B30000220FEF71BF83B780A2B84BF00233B7062
:103B400094F90070012F13D100210846FDF7E6FF1C
:103B50006448FEF763F80A23D8F818003946B0FB2A
:103B6000F3F0FDF745FCFEF759F85F48FEF756F80D
:103B700094F90030022B1BD100210846FDF7CEFF3F
:103B80005A48FEF74BF85A4B98684FF46163B0FB04
:103B9000F3F0FDF7B9FBFEF741F85648FEF73EF8A3
:103BA00003200121FDF7BAFF534B1868FEF730FDE3
:103BB00094F900703F4C032F1AD100210846FDF7FD
:103BC000ADFF4E48FEF72AF8394B18684FF4616391
:103BD000B0FBF3F0FDF798FBFEF720F84848FEF73E
:103BE0001DF838460121FDF799FF2068FEF710FD0A
:103BF000444801F087FC29780022434801F0C6FCC4
:103C0000404801F07FFC31780022404801F0BEFCC2
:103C10003C4801F077FC244B002219783C4801F025
:103C2000B5FC384801F06EFC3A4B002219683A485E
:103C300001F0ACFC334801F065FC99F8001000225B
:103C4000364801F0A3FC2F4801F05CFC21680022FB
:103C5000BDE8F843324801F099BCFFF7D7FB0023D9
:103C600040E701287FF440AF2378013B5BB2002B93
:103C7000B8BF0323237037E73B78052B7FF655AF9A
:103C8000FDF74CFF0121032053E713781BB90E4BBE
:103C900019680C4B1960012307E700BFA907002032
:103CA000A807002090070020930700209C07002011
:103CB00088070020A00700207E080020E4070020DD
:103CC00054010020E8070020F80700209907002091
:103CD000AA070020DC6400086A0800209107002081
:103CE00033630008B963000890640008E4650008C5
:103CF000F40000204A630008A4070020FB630008CA
:103D0000E76500081D6000085363000801660008AD
:103D100016660008940700202B660008536600080A
:103D20006B6600082DE9F04F864A85B0137883460C
:103D300003F0FF080092DFF858A2834EDFF8549298
:103D4000824D834F834C002B46D1834B1A88834B83
:103D50001B6A0533934215D941464046FDF7DEFE06
:103D60007F48FDF75BFF4FF4FA60FDF7B1F941467C
:103D70004046FDF7D3FE7B48FDF750FF40F6B830D4
:103D8000FDF7A6F901234FF00008009A0193137084
:103D9000754A8AF8008082F80080744AC6F800806C
:103DA000C9F80080C2F80080C5F80080C7F800801C
:103DB0008AF80030FEF7BCFF019B6D4A4146404641
:103DC0001370FDF7ABFE6B48FDF728FF4FF47A70D8
:103DD000FDF77EF9019B237094F90030032B00F36B
:103DE000F981DFF8B481B8F8000000B2FDF7D1FB2B
:103DF0000528CDF8048040F3A2815F4B574A19880B
:103E000090699046884202932AD9594B1A78022A1F
:103E100026D15A4B1B68B3F57A7F21D9002352492A
:103E20000B703968564B994204D93868D9F800109C
:103E3000FEF79EF8D9F800204C4B1A603A68514BB7
:103E40009A60012200238AF8002003922B603360DD
:103E5000FEF76EFF2378039A01332370444B1A70E8
:103E6000454BD8F820201B889A4208D2404B1B783B
:103E7000012B04D1414B1B68B3F57A7F08D8424B24
:103E800032681B689A4222D9394B1B78012B1ED10C
:103E900094F90030022B1ADC00238AF800302A68DB
:103EA000374B9A4204D9286801223168FEF760F83E
:103EB00001232D4A137000233B60C9F80030FEF740
:103EC00029FE0222237801332370294B1A702A4BD2
:103ED000D8F820201B889A4208D2254B1B78012B4A
:103EE00004D1264B1B68B3F57A7F08D8264B32687D
:103EF0001B689A4252D91E4B1B78012B4ED194F964
:103F00000030022B4ADDFFF781FA0023164A8AF8B7
:103F1000003013702A681A4B9A4204D9286801228B
:103F20003168FEF725F802222378934503F1010357
:103F30002370164B1A7040F0EE800322134B1A7058
:103F400038E000BFA8070020940700208407002065
:103F500088070020980700208408002054010020D2
:103F60009F650008B06500089C070020A40700209A
:103F700070020020C16500087E080020DC070020D8
:103F80004F8C0500F4000020280A0020990700202B
:103F900093070020A00700206A080020BBF1020F51
:103FA00040F0B980C64A137801335BB2042B08BFD6
:103FB00000231370C24C94F900B0BBF1000F2ED156
:103FC00059465846FDF7AAFD029B02211888FDF7C5
:103FD0000FFAFDF723FEBB48FDF720FE019B188872
:103FE00000B2FDF791F9FDF719FEB748FDF716FE8F
:103FF00001210620FDF792FD01210420FDF7B6FD09
:10400000B24B1B78012B40F0938019460720019397
:10401000FDF784FD019B58461946FDF7A7FD94F96D
:1040200000B0BBF1010F27D100210846FDF776FD56
:10403000D8F81000FDF768F9FDF7F0FDA448FDF78A
:10404000EDFD0A23D8F818005946B0FBF3F00193B0
:10405000FDF7CEF9FDF7E2FD9A48FDF7DFFD594681
:10406000D8F82000019BB0FBF3F0FDF7C1F9FDF794
:10407000D5FD9848FDF7D2FD94F90080B8F1020F04
:1040800022D100210846FDF749FD01214046FDF7F8
:104090006DFD00210120FDF741FD8F48FDF7BEFDBC
:1040A0004FF461633868B0FBF3F0FDF72DF9FDF7CD
:1040B000B5FD8A48FDF7B2FD03200121FDF72EFD75
:1040C000D9F80000FEF7A4FA94F90040032C42D17D
:1040D00000210846FDF722FD01210020FDF746FDE5
:1040E00000210120FDF71AFD7B48FDF797FD4FF4F5
:1040F00061632868B0FBF3F0FDF706F9FDF78EFD6C
:104100007648FDF78BFD20460121FDF707FD30685D
:10411000FEF77EFA1FE0BBF1010F7FF44BAF684A58
:104120001378013B5BB2002B1370BFF643AF04E77B
:1041300001210720FDF7F2FC012102206DE7684B09
:104140001B68B3F57A7F06D900210846FDF7E6FC27
:104150006448FDF763FD644801F0D4F9009B002238
:104160001978624801F012FA5F4801F0CBF99AF829
:10417000001000225E4801F009FA5B4801F0C2F924
:10418000316800225B4801F001FA574801F0BAF9A2
:1041900029680022584801F0F9F9534801F0B2F9B2
:1041A000564B00221978564801F0F0F94E4801F0BC
:1041B000A9F9D9F800100022524801F0E7F94A485D
:1041C00001F0A0F9002239684F4805B0BDE8F04F72
:1041D00001F0DCB93A4CBBF1020F94F900305FD129
:1041E00001335BB2042B08BF0023237094F90080D5
:1041F000B8F1000F2DD141464046FDF78FFC434BEF
:1042000002211888FDF7F4F8FDF708FD2D48FDF7A9
:1042100005FD3F4B188800B2FDF776F8FDF7FEFC70
:104220002948FDF7FBFC01210620FDF777FC012161
:104230000420FDF79BFC254B93F800B0BBF1010F68
:1042400037D159460720FDF769FC59464046FDF72E
:104250008DFC94F90080B8F1010F7FF40DAF0021BF
:10426000DFF8B0B00846FDF759FCDBF81000FDF7A9
:104270004BF8FDF7D3FC1648FDF7D0FC0A23DBF81A
:1042800018004146B0FBF3F00193FDF7B1F8FDF7DC
:10429000C5FC0C48FDF7C2FCDBF820004146E1E616
:1042A000BBF1010FA2D1013B5BB2002BB8BF0323CE
:1042B0009BE701210720FDF731FC01210220C6E721
:1042C00099070020DC640008D2650008B1070020CF
:1042D000825D0008D264000804650008DA65000801
:1042E000DC070020F06500081D600008016600087A
:1042F000166600082B6600083B6600089C07002035
:10430000536600086B6600087E6600087E08002081
:104310006A08002054010020F0B5344D91B02B887C
:104320003349B3F5E16F5DD2324B1B68062B59D987
:10433000314B324C9B6813F0010318BF0123A3617A
:10434000FFF764F80B78002B4AD101232C4E0B7039
:1043500033682361FCF7CCFB2A4801F0D3F8022232
:104360002169294801F012F949F6AF2332689A42CF
:1043700015D9264B0BA91868FDF7BCF94FF46163FA
:10438000206901A9B0FBF3F0FCF7F8FF204906AB68
:104390000BAAFDF721F9022106A8FCF7B1FD0A23BB
:1043A00028880122B0FBF3F001A9FDF789F806AADD
:1043B00001461848FDF7FBF8FCF7F0FC0524114F07
:1043C000154E384601F09EF829880222304601F049
:1043D000DDF8013C3220FCF77BFE14F0FF04F0D145
:1043E00011B0F0BD00230B70FAE700BF6808002091
:1043F00071020020F8070020000C0140F4000020AA
:10440000880700201D6000089C620008A0070020AB
:10441000C5630008A1620008AB62000801222DE913
:10442000F041A14BA14C02281A7086B094F90030DB
:1044300040F0308113445BB2082B08BF0023237087
:1044400094F90010F1B9FEF7E1FF0846FDF766FBAD
:104450009748FDF7E3FB974B012118880A23B0FB2F
:10446000F3F0FCF7C5FFFDF7D9FB9348FDF7D6FB4A
:10447000924B02211888FCF7BBFFFDF7CFFB904859
:10448000FDF7CCFB94F90030012B1BD1FEF7BEFFEA
:1044900000210846FDF742FB8A48FDF7BFFB8A4B27
:1044A00002211888FCF7A4FFFDF7B8FB8748FDF749
:1044B000B5FB874BD888FCF727FFFDF7AFFB854896
:1044C000FDF7ACFB94F90050022D1BD1FEF7ECF880
:1044D00000210846FDF722FB7F48FDF79FFB7F4B3D
:1044E00029461888FCF784FFFDF798FB7748FDF70D
:1044F00095FB774B9888FCF707FFFDF78FFB754816
:10450000FDF78CFB94F90030032B1DD1FEF726FB41
:10451000FEF7CAF800210846FDF700FB7048FDF7DA
:104520007DFB704B188800B2FCF7EEFEFDF776FBC2
:104530006D48FDF773FB664B5888FCF7E5FEFDF709
:104540006DFB6448FDF76AFB94F90030042B1DD124
:10455000FEF794F8FEF786FA00210846FDF7DEFA2A
:104560006248FDF75BFB624B188800B2FCF7CCFE9B
:10457000FDF754FB5C48FDF751FB554B1888FCF7E1
:10458000C3FEFDF74BFB5B48FDF748FB94F9003099
:10459000052B45D14C4F584EFEF7E0FAFEF784F854
:1045A0003B883188DFF83C81591A42F210734B4343
:1045B000B8F80020002112B293FBF2F34F4D0846E9
:1045C000AB64FDF7ABFA4E48FDF728FB286CFCF70F
:1045D0009BFEFDF723FB4B48FDF720FBA86CFCF787
:1045E00093FEFDF71BFB4848FDF718FB474800F01A
:1045F00089FFB8F80010002209B2454800F0C6FF54
:10460000424800F07FFF39880222424800F0BEFF96
:104610003E4800F077FF318802223F4800F0B6FFA5
:1046200094F90030062B0FD1FEF7F0FE002108466A
:10463000FDF774FA394B01A91868FCF7ECFFFDF798
:10464000EDFA3748FDF7EAFA94F90030072B1ED14E
:10465000FEF784FAFEF728F800210846FDF75EFA17
:104660003048FDF7DBFA304B1868FCF773FBFCF7BA
:104670004BFEFDF7D3FA2D48FDF7D0FA144B5889BD
:10468000FCF742FEFDF7CAFA0D48FDF7C7FA06B07F
:10469000BDE8F08101287FF4D3AE013B5BB2002B73
:1046A000B8BF0723CBE600BFA80700209A07002069
:1046B00069630008680800206E6300087C08002019
:1046C000016500087363000884080020DC640008AA
:1046D0006C080020FF640008786300087E08002052
:1046E0007E6300086A08002084630008886300086D
:1046F000BC020020FE640008BE020020040000206E
:104700008E63000891630008966300081D6000082E
:104710009E630008A2630008A9630008F807002050
:10472000FD640008B163000880080020B46300083D
:10473000F0B500264FF4F02385B07C4C009601962E
:1047400002960396E2897A4D93FBF2F3794A9BB283
:104750001380E188AB6AE2894B43B3FBF2F3009329
:104760000098FDF74FF802900298FDF7A7F8724AFB
:1047700072491368184410600B8801331BB20B8018
:104780000B881BB21F2B0CDD2020136893FBF0F36A
:104790006B489BB203800E8016600388022B98BF83
:1047A0000680A1882B6BE2894B43B3FBF2F30093A5
:1047B0000098FDF745F802900298FDF780F8614FE8
:1047C000614E3B6818443860338801331BB2338034
:1047D0002189AB6BE2894B43B3FBF2F30093009862
:1047E000FDF74CF802900298FDF76AF8574A5849CD
:1047F0001368184410600B8801331BB20B800B88C0
:104800001BB21F2B09DD2020136893FBF0F35148E6
:104810009BB2038000230B8013600A23A869618880
:1048200043434B43E289B3FBF2F301930198FCF756
:10483000ADFF03900398FDF73FF8474A47491368D7
:10484000184410600B8801331BB20B800B881BB21D
:104850001F2B09DD2020136893FBF0F340481BB2A7
:10486000038000230B8013600A23286A21884343B6
:104870004B43E289B3FBF2F301930198FCF7A4FFE9
:1048800003900398FDF719F8364A3749136818441E
:1048900010600B8801331BB20B800B881BB21F2BDF
:1048A00009DD2020136893FBF0F330481BB203802E
:1048B00000230B8013602E4B2E499B6813F0020FD0
:1048C00015BF2A4B264B1A881B8814BF2B69AA6870
:1048D0009B1A1BB20B8033881BB2092B24DD0A22E2
:1048E0003B68254C93FBF2F3244A136000233B60A2
:1048F0003380106880B2208010680228D8BF13600F
:10490000088809882B6C09B24B431D48146893FB37
:10491000F0F3234413601368022BDCBF0023136001
:104920001368184A9BB2138005B0F0BD6C080020D4
:10493000040000207C080020C4070020C8070020D5
:1049400084080020CC070020D0070020D4070020D6
:10495000D807002068080020B4070020B80700200E
:10496000BA020020BC070020C0070020BC020020C3
:10497000000C01406A080020BE020020EC07002065
:10498000F0D8FFFF7E080020F8B5FDF7F5FDFFF732
:10499000C3FC324A324E1368013313603388092B4B
:1049A00003D900233380FFF7C3FE2E4D2E4C2B88F6
:1049B000632B84BF00232B802388B3F57A7F40D3F9
:1049C00000232A4F23803B881BB2012B07DC388849
:1049D00000B2FCF7DEFD264A1368184410603B88DD
:1049E0001BB2022B07DD388800B2FCF7D2FD214A4A
:1049F000136818441060204B1B78012B01BF1F4A1D
:104A00001368013313601E4B1B78012B01BF1D4A35
:104A10001368013313601C4B1B78012B01BF1B4A29
:104A20001368013313601A4B1A6801321A601B684D
:104A300013F0010F0CBF4FF400424FF00042154B32
:104A40001A61338801339BB233802B8801339BB2C8
:104A50002B80238801339BB22380F8BDDC07002024
:104A6000B8020020B6020020B40200206A0800202C
:104A70008807002084070020930700209407002067
:104A80009C070020A0070020B2070020E0070020BC
:104A9000F80700200008014010B51D4C236843F4BE
:104AA0008033236023689A03FCD5636823F47C1366
:104AB00043F4A0236360E36A23F00F03E3622368F7
:104AC00043F08073236023689B01FCD5636823F067
:104AD000F0036360636823F4E0636360636823F456
:104AE00060536360636823F0030343F00203636071
:104AF000636803F00C03082BFAD1064801F02EF886
:104B0000002000F00DFE636823F44043636010BD95
:104B10000010024000366E012DE9F04391B000F024
:104B200023FEFFF7B9FF1422002109A801F04BF87A
:104B30002020FDF78DF80420FDF78AF80820FDF706
:104B400087F84FF60343C74DC74E6B614FF40943D7
:104B500000244FF001097361022740F203334FF044
:104B6000040809A92846CDE90939CDE90B7400F0FC
:104B7000A6FEBE4B09A92846CDE90939CDF83080FB
:104B80000B9700F09CFEBA4B09A93046CDE90939D4
:104B9000CDE90B7400F093FE4FF2F002082309A94F
:104BA0002846CDE90923CDF8349000F088FEB14BBA
:104BB000B14D5A6942EA09025A615B6903EA090385
:104BC000DFF8F8920193019BD9F80C00C0F30220A2
:104BD000FDF7CCF94FF4006300FA08F0C0B285F895
:104BE0000B031C222B60214609A800F0ECFF1422C5
:104BF000214604A800F0E7FF4FF48040FDF728F8B5
:104C00004046FDF725F809239C493046CDE90413B9
:104C1000032304A9CDE9063400F051FE984B04A902
:104C20003046CDE9043800F04AFED9F80C00C0F354
:104C30000220FDF79BF9202300FA08F0C0B285F8A6
:104C400025036B608F4D09A9EB68284643F080036C
:104C5000EB604FF41643CDE909340C23CDE90B4446
:104C6000CDE90D340F9400F00BFF2B69142223F4CF
:104C700090432B616B69214623F02A036B61EB683B
:104C800004A843F40053EB60CDE9024400F09BFF1D
:104C90001422214609A800F096FF4FF40070FCF79B
:104CA000D7FF4046FCF7D4FF47F67E6309A930469C
:104CB000CDE9093400F003FE734B4FF480781A6895
:104CC000A5F5A05522F4804222F010021A601A685D
:104CD00002A922F4405242F400521A601A6828468F
:104CE00042F020021A601A6822F040021A601A6824
:104CF00042F080021A601A6822F4407242F4807214
:104D00001A601A6822F4406242F480621A605F4AB4
:104D10009A605F4ADA605A68120C120442F0080284
:104D20005A601A6842F001021A600294CDF80C80B1
:104D300000F08EFD4FF4E0034FF4602004A9CDE9AC
:104D400004032846CDE90647CDF8208000F095FD04
:104D500050494FF40070FDF7EDF84E48FDF7C0F8EC
:104D60004D4940F20520FDF7E5F84B48FDF7B8F84E
:104D70004A4940F20A20FDF7DDF84848FDF7B0F84F
:104D8000474940F20F20FDF7D5F84548FDF7A8F850
:104D900044494FF40570FDF7CDF84248FDF7A0F8FF
:104DA000414940F21920FDF7C5F83F48FDF798F852
:104DB0003E494046FDF7BEF83C48FDF791F8AB6828
:104DC0003B4943F40003AB6040F20510FDF7B2F835
:104DD0003748FDF785F8AB68642043F40003AB6007
:104DE000AB6843F00103AB60FCF772F9AB6843F0CA
:104DF0000403AB60AC6814F00404FBD1AB6843F46B
:104E0000A003AB60FCF719FF00F0E2FA4FF47A72EE
:104E1000284B1B68B3FBF2F3013BB3F1807F08D250
:104E2000F021254A5360254B83F823100723946013
:104E300013604FF4004300243361214DFEF7E6FA7E
:104E400020482C60FCF7EAFEFCF752F91E4800F0FF
:104E500059FB1C4800F0ECFAFCF708FE21462046FE
:104E600034E000BF000C014000080140FC00FC04DD
:104E7000890089040010024000E100E00200020401
:104E80000400040400380140080002404C240140A2
:104E90006C08002001003002020060020300900252
:104EA0000400C0020500F00206002003100020816B
:104EB000110050818C02002010E000E000ED00E0C5
:104EC000880800207A02002032600008FCF726FEE5
:104ED0004FF47A70FCF7FCF8FBF72AFA2B68172BD3
:104EE00088BF2C60FBF730FD0446002854D14FF4F6
:104EF0007A70FCF7EDF8FBF727FD0446AF4800F0A9
:104F000001FBAF4800F094FA002C45D1AD48FCF706
:104F100085FE4FF47A60FCF7DBF8AB48FBF73EFF09
:104F2000A64800F0EFFAA64800F082FAA74DA84B79
:104F30002A69A84C1A604FF461632269A64E534354
:104F4000A64A1360A268A64B1A60236CA54A336078
:104F50001360FBF7CBFE4FF47A70FCF7B9F8FCF75F
:104F60004BFEA148FCF7CEFCA368012B1BD19F4848
:104F7000FCF7AEFC9E4FDFF87492DFF8E8823B78D6
:104F800001333B70FDF72AFB431E0446032B27D851
:104F9000DFE803F021474B52012CC7D1874800F0CE
:104FA000B1FA9448C0E7022B01D19348E0E7032B04
:104FB00001D19248DCE7042B01D19148D8E7052BB9
:104FC00001D19048D4E7062B01D18F48D0E7072BB9
:104FD000CDD18E48CCE7FCF775FC4068FCF778FC37
:104FE000FCF770FC81452BD12046FDF789FB98F832
:104FF000003003F0FF0183B9FEF708FA844B197003
:10500000844B1970844B1B68AB60844B1A68844BCB
:105010001A60844B1970012333606420FCF758F840
:10502000ADE7FCF74FFC0068D8E70220FCF774FC02
:10503000FCF748FCC068D1E7FCF744FC8068CDE78A
:10504000FCF740FC6C4B834203D12046FDF79EFDEC
:10505000CDE7FCF737FC694B834203D12046FEF7CE
:10506000DDF9C4E7FCF72EFC654B834203D12046F3
:10507000FEF744FBBBE7FCF725FC624B834203D100
:105080002046FEF7F3FCB2E7FCF71CFC664B8342BC
:1050900003D12046FEF746FEA9E7FCF713FC5A4B66
:1050A000834203D12046FDF767FEA0E7FCF70AFC28
:1050B000564B834203D12046FEF7B4F897E7FCF73E
:1050C00001FC5A4B834203D12046FDF7B5FD8EE724
:1050D000FCF7F8FB564B834203D12046FFF79EF9BD
:1050E00085E7FCF7EFFB534B834203D12046FCF7E7
:1050F00065FF7CE7FCF7E6FB4F4B834203D120467C
:10510000FCF7CCFF73E7FCF7DDFB4C4B834203D18C
:105110002046FCF79FFF6AE7FCF7D4FB484B83422D
:1051200003D12046FDF7BEFC61E7FCF7CBFB454B06
:10513000834203D12046FDF74FFB58E7FCF7C2FB43
:10514000414B834203D12046FDF7EEFB4FE7FCF7CE
:10515000B9FB3E4B834203D12046FDF7ADFB46E74A
:10516000FCF7B0FB3A4B834203D12046FDF76CFBC2
:105170003DE7FCF7A7FB374B834203D12046FDF701
:105180000BFC34E7FCF79EFB334B834203D12046F4
:10519000FCF7A8FF2BE7FCF795FB304B834203D1CC
:1051A0002046FCF7FBFF22E7FCF78CFB2C4B8342ED
:1051B0005AD12046FDF718F819E700BF3260000801
:1051C0001F7100083771000848710008F4000020C2
:1051D0008C0700205401002074020020280A0020BF
:1051E0002C0A0020240A0020011E0008D46D0008AB
:1051F00091070020585F00082C6E0008846E00089C
:10520000DC6E0008346F0008E46F00083C70000892
:10521000A90700209907002088070020A007002088
:10522000A407002092070020606F00089470000817
:10523000EC700008386A0008A8670008506700088A
:1052400058680008006800086069000808690008DC
:10525000B0680008A8690008F0690008906A0008B2
:10526000BC6A0008A8070020FCF72CFB204B8342F7
:1052700003D12046FDF72AF8B9E6FCF723FB1D4BC6
:10528000834203D12046FDF743F8B0E6FCF71AFB52
:10529000194B834203D12046FDF75CF8A7E6FCF7E3
:1052A00011FB164B834203D12046FDF771F89EE6B1
:1052B000FCF708FB124B834203D12046FDF786F82A
:1052C00095E6FCF7FFFA0F4B834203D12046FDF72A
:1052D000D9F88CE6FCF7F6FA0B4B834203D1204653
:1052E000FDF716F983E6002388F800307FE600BF5B
:1052F000406B0008986B0008F06B0008486C0008D1
:10530000A06C00087C6D0008506D00080E4B82B048
:105310009A6942F001029A619A6902F001020092D0
:10532000009ADA6942F08052DA61DB69074A03F0D9
:1053300080530193019B536823F0E06343F00073B3
:10534000536002B0704700BF0010024000000140EF
:105350007047FEE7FEE7FEE7FEE7704770477047DD
:1053600008B5FFF711FBBDE8084000F009BA704727
:1053700014490B681B0624D5134BB3F8582492B27A
:10538000DAB1B3F85824013A92B2A3F85824B3F82A
:10539000562492B2501C80B2A3F856041A4492F8D4
:1053A0006C20D2B24A60B3F8562492B2B2F57A7F3A
:1053B00007D10022A3F856247047CB6823F080035E
:1053C000CB60704700380140C002002070470000E9
:1053D000124A10B55368124903F00C03082B0AD087
:1053E000104B0B605368104AC3F30313D25C0B6875
:1053F000D3400B6010BD53685068C3F38343C003B0
:1054000041BFD06A074C00F00F0001304CBFB4FB25
:10541000F0F0064802334343E3E700BF00100240C8
:105420008C02002000127A005671000800093D002D
:10543000324A30B5134640F2C934B2F858148C429F
:10544000FBD32F49CA6822F08002CA60002102788B
:1054500002F0FF044ABBB3F8542492B2511C89B243
:10546000A3F854140A211A4482F86C10B3F8542497
:1054700092B2B2F57A7F08BFA3F85444B3F8582427
:10548000013292B2A3F85824B3F85A24B3F858144E
:10549000914282BFB3F8582492B2A3F85A24184A12
:1054A000D36843F08003D36030BDB3F85424441C68
:1054B00092B2551CADB2A3F8545400781A44C0B24D
:1054C00082F86C00B3F8542492B2B2F57A7F08BF28
:1054D000A3F85414B3F85824013292B2A3F8582414
:1054E000B3F85A24B3F85804904288BFB3F858244C
:1054F000204684BF92B2A3F85A24A8E7C002002035
:10550000003801401F4A30B5134640F2C934B2F8A2
:1055100058148C42FBD31C49CA6822F08002CA602E
:10552000002102782AB9184AD36843F08003D36077
:1055300030BDB3F85424441C92B2551CADB2A3F84C
:10554000545400781A44C0B282F86C00B3F8542462
:1055500092B2B2F57A7F08BFA3F85414B3F8582476
:10556000013292B2A3F85824B3F85A24B3F858047D
:10557000904288BFB3F85824204684BF92B2A3F863
:105580005A24CEE7C00200200038014073B50191D3
:105590008DF803209DF8033004460198002B44D178
:1055A000FBF7B2FE494A40F2C9351346B2F8581427
:1055B0008D42FBD300254649CA6822F08002CA60AA
:1055C000227802F0FF01002A34D10138B3F85424C4
:1055D00010F8014F92B2002C55D1511C89B2A3F89A
:1055E00054140A211A4482F86C10B3F8542492B26D
:1055F000B2F57A7F08BFA3F85444B3F858240132B7
:1056000092B2A3F85824B3F85A24B3F8581491422C
:1056100082BFB3F8582492B2A3F85A242C4AD36814
:1056200043F08003D36002B070BD9DF80310FBF718
:10563000DFFEB7E7B3F85424611C92B2561CB6B231
:10564000A3F8546424781A44E4B282F86C40B3F8A6
:10565000542492B2B2F57A7F08BFA3F85454B3F839
:105660005824013292B2A3F85824B3F85A24B3F85C
:105670005844944288BFB3F858240C4684BF92B271
:10568000A3F85A249CE7541CA4B2A3F85444047809
:105690001A4482F86C40B3F8542492B2B2F57A7F7F
:1056A00008BFA3F85414B3F85824013292B2A3F8F7
:1056B0005824B3F85A24B3F85844944282BFB3F83C
:1056C000582492B2A3F85A2480E700BFC0020020F9
:1056D00000380140002103E00B4B5B58435004317C
:1056E0000A480B4B42189A42F6D30A4A02E00023BA
:1056F00042F8043B084B9A42F9D3FFF767FE00F0EB
:1057000033FAFFF709FA70477871000800000020AB
:105710009802002098020020340A0020FEE70000D2
:1057200038B50E4B054618784FF47A73B3FBF0F397
:105730000B4A1068B0FBF3F000F074F8044658B957
:105740000F2D09D8024629464FF0FF3000F036F8F9
:105750002046044B1D6038BD0120FCE7900200206C
:105760008C0200209402002008B5032000F014F8F9
:105770000020FFF7D5FFFFF7C9FD002008BD00009E
:10578000034A044B11681B780B441360704700BF39
:10579000300A002090020020074A0002D36800F47B
:1057A000E06023F4E0631B041B0C43F0BF6343F48D
:1057B00000330343D360704700ED00E0174B70B532
:1057C000DC684FF0FF36C4F30224C4F10705042D52
:1057D00004F1040328BF0425062B98BF002406FA11
:1057E00005F388BF033C21EA0303A34006FA04F44F
:1057F00022EA0404002843EA0403A8BF00F1604041
:105800004FEA0313B8BF064ADBB2ABBF00F56140F5
:1058100000F00F0080F80033135470BD00ED00E07D
:1058200014ED00E00138B0F1807F0AD2F021064B80
:10583000064A586082F823100020072298601A60F8
:1058400070470120704700BF10E000E000ED00E06D
:10585000836810B513F001030DD142684C6822F43F
:105860008072224342608268096822F400620A431F
:105870008260184610BD0120FCE7836810B5DB0785
:105880001BD443684A6823F4684312B18C681343FD
:105890002343436083680C6823F4602323F48173FB
:1058A0002343CC68096923430B438360C36A23F411
:1058B00070031343C362002010BD0120FCE72DE9F3
:1058C000F04F0C680246C4F30F2494FAA4F34FF08F
:1058D0000F09B3FA83F34FF003084FF0040C40F2C2
:1058E000011734FA03F001D1BDE8F08F0120984090
:1058F000204266D0072B88BF4FF001104D6884BF4F
:10590000A3F1080E00FA0EFE25F0080594BF07FA71
:1059100003FE4EF0806E012D4FEA1E602BD19EFAE1
:10592000AEF5B5FA85F59EFAAEFBBBFA8BFB1658C1
:10593000AD0008FA05F526EA050A8D684FEA8B0BDB
:1059400005FA0BF54AEA050515509EFAAEFABAFAC1
:105950008AFA9EFAAEFBBBFA8BFB4FEA8A0A0CFA74
:105960000AFA25EA0A0ACD684FEA8B0B05FA0BF50D
:105970004AEA05051550D5684FEA1E2A9AFAAAFB8D
:10598000BBFA8BFB25EA0A0A0D6905FA0BF54AEA10
:105990000505D5609EFAAEFABAFA8AFA9EFAAEFE0C
:1059A000BEFA8EFE15584FEA8A0A09FA0AFA25EA63
:1059B0000A0A4D684FEA8E0E05FA0EF54AEA050509
:1059C000155001338DE70000034B044A5B68C3F3B5
:1059D0000313D35CD8407047001002405671000892
:1059E000034B044A5B68C3F30223D35CD84070477F
:1059F0000010024066710008034B044A5B68C3F361
:105A0000C223D35CD8407047001002406671000882
:105A1000094B5A6802F4803262B1D86A074A00F032
:105A20000F000130B2FBF0F05B68C3F38343023335
:105A3000584370470248F7E70010024000127A000E
:105A400000093D00044B5B6803F00C03082B01D1F7
:105A5000FFF7DEBF014870470010024000127A00D5
:105A600008B50146FFF7EEFF0860FFF7ADFF48609D
:105A7000FFF7B6FF88604868FFF7BEFFC86008BD43
:105A800030B5C36885B09B0404460D4602D501209D
:105A900005B030BD4B68C968C2680B43296922F460
:105AA00016420B43A96922F00C020B431343C36057
:105AB0000369AA6823F440531343036143696A6985
:105AC00023F44073134343616846FFF7C9FF204B3B
:105AD0009C4225D103990029D9D02A68002AD6D022
