:020000040800F2
:10000000E80D002085020008CD020008CD0200089E
:10001000CD020008CD020008CD020008000000005B
:10002000000000000000000000000000CD020008F9
:10003000CD02000800000000CD020008CD0200083B
:10004000CD020008CD020008CD020008CD02000854
:10005000CD020008CD020008CD020008CD02000844
:10006000CD020008CD020008CD020008CD02000834
:10007000CD020008CD020008CD020008CD02000824
:10008000CD020008CD020008CD02000800000000EB
:10009000000000000000000000000000CD02000889
:1000A000CD020008AD180008CD020008CD020008FE
:1000B000CD0200089938000800000000CD020008B9
:1000C000CD0200080000000000000000CD02000882
:1000D00000000000F94D0008CD02000800000000FB
:1000E000CD020008CD020008CD020008000000008B
:1000F0000000000000000000000000000000000000
:1001000000000000000000000000000000000000EF
:100110000000000000000000CD0200088118000867
:100120005FF808F1014B1868704700BF000000201D
:10013000084B10B598420BD050B1074B074C1B68C9
:1001400020600BB11830984723681B6903B19847AA
:1001500010BD00BFA04F0008740200200000002066
:10016000024B1860024B1868FFF7E2BF74020020D0
:100170000000002008B5054B054A1B68934203D0D8
:1001800013B15B6903B1984708BD00BF00000020B0
:10019000A04F0008224A038890429BB212D002F579
:1001A000006290420ED0B0F1804F0BD0A2F5983291
:1001B000904207D002F58062904203D002F580623F
:1001C000904203D14A8823F070031343154A9042AA
:1001D00008D002F58062904204D023F44073CA88AC
:1001E0009BB2134303808B8883850B8803850C4B5C
:1001F00098420FD003F5006398420BD003F540639B
:10020000984207D003F58063984203D003F58063DA
:10021000984201D10B7A038601238382704700BF85
:10022000002C0140001000404FF6FF738380002334
:100230000380C380438003727047038819B19BB267
:1002400043F0010303E023F001031B041B0C0380B4
:10025000704783899BB20AB1194301E023EA010187
:1002600081817047038A828911EA030092B203D028
:1002700011420CBF002001207047C94389B201829E
:100280007047000008B50C4A0C4B0D4903E052F8CA
:10029000040B43F8040B8B42F9D30A480A494FF088
:1002A00000028842B8BF40F8042BFADB00F018FACD
:1002B000BDE8084002F028BFB1630008000000203C
:1002C0007402002074020020E8090020FEE700000C
:1002D0002DE9F843564D0646286803F085FE2B6845
:1002E00011210024594304E00A19AA18013413719A
:1002F000E4B2035D4E4A002BF6D113681121594335
:10030000081910183A25057104E00F2C09D80D19A9
:100310005519287116F8010B0134E4B20028F4D104
:100320000DE0112202FB034241498A18002111719C
:1003300005E01819081801340271E4B203E0112233
:100340003B49534320220F2C394DF2D9002220463D
:10035000384904F0CBFD2B68112202FB0344013322
:100360002A190024172B14712B6057D90A26A0468E
:100370002F46204603F038FE4FF0110E00230EFBEF
:1003800004FE05E00EEB0301691801330A71DBB2CC
:10039000C25C1121002AF5D101FB04F27143D0188F
:1003A00038184FF03A0E013380F804E0DBB294467F
:1003B0005FFA84FE681810E0BEF1090F05D901EB61
:1003C0000309A94499F8049003E000EB030999F8A4
:1003D0000590013382F80490DBB20CEB0302AA18FB
:1003E00092F80490B9F1000FE6D1013B1121DBB284
:1003F0006143202204E0C818281801330271DBB2DF
:100400000F2BF8D9112202FB04330134FB180136FB
:100410000E2C83F80480ACD1054B1C6004F09EF8D0
:10042000034B054918680022BDE8F84304F05EBD9F
:10043000A8060020B84F0008BD4F00082DE9F0477E
:10044000554F054638680E4603F0CEFD3B68112136
:100450000024594304E00A19BA1801341371E4B2B4
:10046000035D4D4A002BF6D1136811215943081939
:100470001018067104E00F2C09D80F19D71938711C
:1004800015F8010B0134E4B20028F4D10DE011227B
:1004900002FB034240498A180021117105E0181936
:1004A000081801340271E4B203E011223A495343BF
:1004B00020220F2C384DF2D900222046374904F073
:1004C00015FD2B68112202FB034401332A19002475
:1004D000172B14712B6054D90A27A146A846204631
:1004E00003F082FD4FF0110E00230EFB04FE05E029
:1004F0000EEB0301691801330A71DBB2C25C1121F2
:10050000002AF5D101FB04F27943D01840440133AD
:100510000671DBB294465FFA84FE681810E0BEF103
:10052000090F05D901EB030AAA449AF804A003E0D5
:1005300000EB030A9AF805A0013382F804A0DBB2AD
:100540000CEB0302AA1892F804A0BAF1000FE6D14E
:10055000013B1121DBB26143202204E0C8182818B6
:1005600001330271DBB20F2BF8D9112202FB0433E5
:100570000134434401370E2C83F80490AFD1064B6D
:100580001C6003F0EBFF044B054918680022BDE82E
:10059000F04704F0ABBC00BFA8060020B84F00082D
:1005A000BD4F000810B5384C00222068374904F0D0
:1005B0009DFCA0680022364904F098FC20690022C6
:1005C000344904F093FCA0690022334904F08EFC06
:1005D000206A0022314904F089FCA06A00223049D7
:1005E00004F084FC206B00222E4904F07FFCA06BF9
:1005F00000222D4904F07AFC206C00222B4904F0E3
:1006000075FCA06C00222A4904F070FC206D0022C9
:10061000284904F06BFCA06D0022274904F066FC19
:10062000206E0022254904F061FCA06E00222449BE
:1006300004F05CFC206F0022224904F057FCD4F83F
:1006400088000022204904F051FCA06F1F490022BD
:1006500004F04CFCD4F8800000221D4904F046FC54
:10066000D4F8900000221B4904F040FCD4F8980014
:100670000022194904F03AFCD4F8A00017490022DE
:10068000BDE8104004F032BC04000020C14F000857
:10069000D44F0008F24F0008115000082E500008F7
:1006A0004C5000086950000887500008A550000809
:1006B000C3500008DB500008EF5000080851000844
:1006C00015510008225100082F5100083D51000823
:1006D0004F510008625100087E510008A6510008E1
:1006E000314B82B01A6842F001021A6059682F4AF1
:1006F0000A405A601A6822F0847222F480321A602A
:100700001A6822F480221A605A6822F4FE025A60A3
:100710004FF41F029A600022DA62009201921A6876
:1007200042F480321A601A6802F400320192009A90
:1007300001320092019A1AB9009AB2F5A06FF2D173
:10074000194B1B6813F4003318BF01230193019B5D
:10075000012B23D1144B5A685A605A685A605A6860
:100760005A605A6822F47C125A605A6842F498120D
:100770005A601A6842F080721A6019680A4A890140
:10078000FBD5536823F003035360536843F002031F
:100790005360536803F00C03082BFAD1044B4FF05D
:1007A00000629A6002B07047001002400000FFF83B
:1007B00000ED00E084B0ADF80600BDF806304FF45F
:1007C000FA629BB2534301E0039B013B0393039BFB
:1007D000002BF9D104B0704784B0ADF80600BDF825
:1007E00006309BB25B0001E0039B013B0393039B3C
:1007F000002BF9D104B0704710B5074C4FF480437B
:1008000023610220FFF7E8FF4FF0804302202361BD
:10081000BDE81040FFF7E0BF000C014070B50F4C81
:100820004FF07C454FF4805625612661FFF7E4FFC9
:100830000120FFF7BFFF25612661FFF7DDFF0120E3
:10084000FFF7B8FF4FF4806325612361FFF7D4FF02
:100850000120BDE87040FFF7ADBF00BF000C0140B4
:10086000254B4FF07C4270B504460D461A6111B11C
:100870004FF400421A61E20644BF4FF400521A617D
:100880001D4B14F0200F1CBF4FF480521A616606F6
:1008900044BF4FF400621A61174E14F0800F1CBF62
:1008A0004FF480633361FFF7A7FF4FF07053E00709
:1008B000336103D5104B4FF400521A61A10703D5E1
:1008C0000D4B4FF480521A61620703D50A4B4FF467
:1008D00000621A61230703D5074B4FF480621A6147
:1008E000FFF78AFF0220FFF765FF1DB1024B4FF0B3
:1008F00000421A6170BD00BF000C0140034610B9F0
:10090000082019460BE021B90AB90C2003E00D209C
:1009100005E012B90E20114601E00F200021FFF77B
:100920009FBF01200021FFF79BBF08B56420FFF7A0
:1009300041FFFFF773FF012001460022FFF7DEFFB2
:10094000BDE80840FFF7EDBFC0B20121FFF788BF47
:10095000054B1870597011B940F0800002E040F06A
:10096000C0000021FFF77CBF7E0200202DE9F84384
:1009700089460646DFF86C800127194C29E0B22829
:1009800001D1492011E0AF2801D103200DE0DE287C
:1009900002D10120014609E0AA2801D1022004E089
:1009A000BF2884BF404410F8C00C0121FFF758FF56
:1009B000237865780133DBB2237055B9082B08D151
:1009C000B9F1020F05D128460121FFF7C1FF2570BB
:1009D000677016F8010B0028D1D1BDE8F88300BF7D
:1009E0007E020020FC01002070B506460D46002462
:1009F0000CE00121FFF734FF012D06D1E3B2072BF4
:100A000003D100202946FFF7A3FF0134305D002801
:100A1000EFD170BDC00040F0400038B5C0B20D4607
:100A20000021FFF71DFF0024285D01210134FFF79D
:100A300017FF082CF8D180200021BDE83840FFF7CF
:100A40000FBF2DE9F3410025042415271F264FF081
:100A50000E08284669468DF800408DF803408DF851
:100A600005408DF801708DF802808DF804508DF8E6
:100A700006608DF80760FFF7CDFF012069468DF80D
:100A800002408DF806408DF800708DF801808DF8D9
:100A900003508DF804508DF805508DF80760FFF76E
:100AA000B9FF022069468DF801408DF805408DF8A8
:100AB00000508DF802808DF803708DF804508DF889
:100AC00006608DF80760FFF7A5FF032069468DF8E3
:100AD00000408DF803408DF806408DF801808DF8B8
:100AE00002708DF804508DF805508DF80760FFF7FF
:100AF00091FF204669468DF800408DF803408DF83F
:100B000004408DF807408DF801808DF802708DF853
:100B100005708DF80680FFF77DFF02238DF8003009
:100B20000A238DF803308DF804301C2307248DF838
:100B300005308DF806300520082369468DF807300A
:100B40008DF801408DF80240FFF764FF0F238DF808
:100B5000003005238DF801308DF802308DF8033018
:100B60008DF804300620092369468DF806308DF88B
:100B700005708DF80750FFF74DFF11238DF80030F9
:100B80008DF801308DF802302046012369468DF83A
:100B900003608DF804308DF805308DF806308DF83F
:100BA0000750FFF737FFBDE8FC810221FFF7DEBEEB
:100BB00010B5044608461146FFF7CAFE204602213A
:100BC000BDE81040FFF7D2BE08B5364B5A6822F494
:100BD00040725A605A6842F400725A605A6822F4AD
:100BE00040625A605A6842F480625A605A6822F43D
:100BF00040525A605A6842F400525A605A6822F4CD
:100C000040425A605A6842F480425A605A6822F45C
:100C100040325A605A6842F400325A605A6822F4EC
:100C200040225A605A6842F480225A605A6822F47C
:100C300040125A605A6842F400125A605A6822F40C
:100C400040025A605A6842F480025A605A6822F0A0
:100C500040725A605A6842F000725A605A6822F034
:100C600040625A605A6842F080625A605A6822F0C4
:100C700040525A605A6842F000525A605A6822F054
:100C800040425A605A6842F080425A60FFF74DFE77
:100C9000FFF747FE002101200A46BDE80840FFF7A4
:100CA0002DBE00BF000C0140CB782DE9F04303F0CE
:100CB0000F02DB0648BF8B780E8848BF1A4316F038
:100CC000FF0F1FD0046800234FF001084FF00F0CF6
:100CD00008FA03F707EA0605BD420FD19F000CFA98
:100CE00007F902FA07F724EA09043C43CF78282FD2
:100CF00001D1456102E0482F08BF05610133082B8F
:100D0000E6D104600E88FF2E21D9446800234FF0FD
:100D100001084FF00F0C03F1080708FA07F707EA7C
:100D20000605BD420FD19F000CFA07F902FA07F73A
:100D300024EA09043C43CF78282F01D1456102E021
:100D4000482F08BF05610133082BE4D14460BDE89A
:100D5000F083836819420CBF002001207047000017
:100D6000014B00221A8070478002002003F068BF08
:100D700008B503F0ABFF0248BDE80840FFF7A8BA8A
:100D8000905B000818B100210A46FFF711BF7047B9
:100D900010B5134C002290B06068124904F0A6F818
:100DA000626849F6AF239A4217D90BA9A06803F0ED
:100DB000B5FA60684FF46163B0FBF3F001A903F08A
:100DC0004DF909490BAA06AB03F014FA06A8012154
:100DD000FFF734FB06A804F049F810B010BD00BFBF
:100DE000800200209C5B0008A45B000810B50F4C3B
:100DF00049F6AF23E26890B09A4214D90BA9206952
:100E000003F08CFAE0684FF46163B0FBF3F001A9E2
:100E100003F024F906490BAA06AB03F0EBF906A888
:100E20000221FFF70BFB10B010BD00BF80020020B5
:100E3000A45B000884B0ADF80600BDF806304FF49E
:100E400016629BB2534301E0039B013B0393039B58
:100E5000002BF9D104B0704708B507200121FFF736
:100E600077FDFF200121FFF7FBFC03F0E9FE044BB7
:100E7000C8209A68034B1A60BDE80840FFF7DABF44
:100E8000540000205408002008B53E4B93F914008C
:100E900060B90146FFF75CFD3B48FFF786FE3B4B20
:100EA0004FF487629A6102F5BE721A62354B93F96C
:100EB0001430012B0DD100200146FFF749FD3448C5
:100EC000FFF773FE314B4FF496729A614FF4D27272
:100ED0001A622C4B93F91430022B0DD100200146DD
:100EE000FFF736FD2B48FFF760FE284B4FF48C725E
:100EF0009A614FF4B9721A62224B93F91430032BA2
:100F00000CD100200146FFF723FD2348FFF74DFEDB
:100F10001E4BA0229A614FF48C721A62194B93F9FE
:100F20001430042B0DD100200146FFF711FD1B48A2
:100F3000FFF73BFE154B4FF448729A614FF4AA62DB
:100F40001A62104B93F91430052B0CD10020014686
:100F5000FFF7FEFC1248FFF728FE0C4B64229A6153
:100F60004FF4FA621A62074B93F91420062A01D152
:100F700000221A7503F064FE4FF41670BDE80840B5
:100F8000FFF758BF80020020A85B00085400002033
:100F9000B95B0008CA5B0008DB5B0008EC5B00087B
:100FA000FD5B000882B00190019A4FF0804392B23D
:100FB0009A8500229A8409221A80198A4FF0804269
:100FC000C907FAD5138A23F001031B041B0C1382F3
:100FD00002B07047204B10B50122044600205A751C
:100FE0000146FFF7B5FC1D4B0221188880B203F0C3
:100FF0006FF8FFF7DAFD1A48FFF7D7FD0021072049
:10100000FFF7A6FC174B188800B202F0EDFFFFF7C0
:10101000CCFD1548FFF7C9FD052C08D1FFF782F874
:10102000C068FFF785F8FFF77DF8006804E0062C3C
:1010300010D1FFF777F8C068FFF77AF8FFF772F87A
:101040000068FFF775F8FFF76DF8C068BDE810405D
:10105000FFF76EB810BD00BF8002002058060020C8
:101060000E5C000878020020125C000808B5334BC3
:10107000012206285A750FD1FFF754F8C068FFF710
:1010800057F8FFF74FF84068FFF752F8FFF74AF8B4
:10109000C068FFF74DF821E00228294B0CD11988D0
:1010A0005A888A1892B21A801A8812B2B2F5805FF2
:1010B0000FDD4FF480520BE001280FD119885A88B8
:1010C0008A1A92B21A801A8812B2002A01DC00220F
:1010D0001A801B4B1A881B4B12B25A610020014622
:1010E000FFF736FC184B0121188880B202F0F0FFA0
:1010F000FFF75BFD1548FFF758FD00210520FFF7BE
:1011000027FC134B188800B202F06EFFFFF74DFD6D
:101110001048FFF74AFD01210320FFF719FC0E4894
:10112000FFF743FD064B188800B202F05DFFFFF7A2
:101130003CFD0A48BDE80840FFF737BD80020020AB
:101140001C02002000740040580600200E5C0008BD
:1011500078020020125C0008185C00089D5D000801
:1011600008B5364B012205285A7514D1FEF7DAFF6F
:10117000C068FEF7DDFFFEF7D5FF4068FEF7D8FF39
:10118000FEF7D0FF4068FEF7D3FFFEF7CBFFC06845
:10119000FEF7CEFF22E002280DD1294AD98A5288D3
:1011A0008A1892B2DA82DA8A12B2B2F5805F10DD62
:1011B0004FF480520CE0012810D1214AD98A52887C
:1011C0008A1A92B2DA82DA8A12B2002A01DC00228A
:1011D000DA821A4BDA8A1B4B12B29A60002001465F
:1011E000FFF7B6FB184B0221188880B202F070FF9F
:1011F000FFF7DBFC1548FFF7D8FC00210620FFF7BE
:10120000A7FB134B188800B202F0EEFEFFF7CDFCEF
:101210001048FFF7CAFC01210320FFF799FB0E4895
:10122000FFF7C3FC054BD88A00B202F0DDFEFFF7E2
:10123000BCFC0A48BDE80840FFF7B7BC80020020AC
:101240001C02002000740040580600200E5C0008BC
:10125000780200201A5C0008095D00089D5D000806
:1012600010B596B000230446084610A98DF8542006
:101270008DF8553003F052F84FF4616001A9B4FBCA
:10128000F0F002F0EBFE10AA06AB074902F0B2FF45
:1012900006A915A80BAA02F094FF0BA80421FFF7DA
:1012A000CDF816B010BD00BFA45B0008022838B509
:1012B0001E4B09D11A881E49013292B209681A8060
:1012C00012B28A4213D310E0012810D11A88013AD1
:1012D00092B210041A8003D5154A1268013A1A8096
:1012E000124BB3F90020002A01DA00221A800020F4
:1012F0000F4C0146FFF72CFB0C4D234653F8040B13
:10130000B5F900200138801A112202FB0030FFF7E6
:101310004CFCB5F900000022064903F0E7FD206807
:1013200005490022BDE8384003F0E0BD80020020FE
:10133000A80600201F5C00082C5C000810B50446BD
:1013400000200146FFF704FB0A4B188800B202F0A8
:101350004BFEFFF72AFC0848FFF727FC022C08D1B8
:10136000064B1A88064B12B29A60BDE8104003F093
:10137000ADBC10BD700600203F5C00087802002064
:101380000400002010B5044600200146FFF7E0FAF3
:101390000A4B188800B202F027FEFFF706FC084847
:1013A000FFF703FC022C08D1064B1A88064B12B239
:1013B0001A61BDE8104003F089BC10BD7006002022
:1013C0003F5C00087A0200200400002010B50446AB
:1013D00000200146FFF7BCFA1648FFF7E6FB022C97
:1013E00027D103F09BFB03F05FFB0446002001467E
:1013F000FFF7AEFA1048FFF7D8FB4FF4FA60FFF79B
:1014000019FD00200146FFF7A3FA012C08D10B4873
:10141000FFF7CBFB0A48FEF75BFF4FF4FA6004E0EE
:101420000848FFF7C2FB4FF47A60BDE81040FFF7B1
:1014300001BD10BD4E5C00085F5C0008705C0008D8
:10144000815C0008905C0008022810B50E4C02D1A7
:101450002369013303E0012802D12369013B2361A1
:1014600000200146FFF774FA206902F0BDFDFFF786
:101470009CFB0648FFF799FB23694FF461625A43CE
:10148000034B1A6010BD00BF54000020A15C00088F
:1014900044080020022810B5324B07D11A7D0132D2
:1014A000D2B2072A1A750BD1002208E0012807D111
:1014B0001A7D013AD2B214061A7501D506221A75A0
:1014C000284C94F9140028B90146FFF741FA264840
:1014D000FFF76BFB94F91430012B06D10020014675
:1014E000FFF736FA2148FFF760FB1E4C94F91430E1
:1014F000022B06D100200146FFF72AFA1C48FFF70D
:1015000054FB94F91430032B06D100200146FFF759
:101510001FFA1848FFF749FB124C94F91430042BBA
:1015200006D100200146FFF713FA1348FFF73DFBF1
:1015300094F91430052B06D100200146FFF708FA74
:101540000E48FFF732FB074B93F91430062B08D1F6
:1015500000200146FFF7FCF90948BDE81040FFF7FD
:1015600024BB10BD80020020A65C0008B75C000808
:10157000C95C0008DA5C0008EA5C0008FB5C000853
:101580000B5D0008022810B50D4C02D1A3690A3387
:1015900003E0012802D1A3690A3BA36100200146B0
:1015A000FFF7D6F9A0690A23B0FBF3F0012102F09E
:1015B0008FFDFFF7FAFA0348BDE81040FFF7F5BAD0
:1015C00054000020C55B0008022810B50D4C02D164
:1015D000236A0A3303E0012802D1236A0A3B23620B
:1015E00000200146FFF7B4F9206A0A23B0FBF3F0AC
:1015F000012102F06DFDFFF7D8FA0348BDE8104065
:10160000FFF7D3BA54000020C55B0008022810B5CC
:101610000B4C02D1A36A013303E0012802D1A36A73
:10162000013BA36200200146FFF792F9A06A02F095
:10163000DBFCFFF7BAFA0348BDE81040FFF7B5BA84
:10164000540000201B5D0008022810B50B4C02D18D
:10165000236B013303E0012802D1236B013B236399
:1016600000200146FFF774F9206B02F0BDFCFFF784
:101670009CFA0348BDE81040FFF797BA54000020D9
:101680001B5D0008022838B51A4C02D1A36B013348
:1016900003E0012802D1A36B013BA36300200146B4
:1016A000FFF756F9A06B02F09FFCFFF77EFA124895
:1016B000FFF77BFA206A0A250121B0FBF5F002F062
:1016C00007FDFFF772FA0D48FFF76FFA236AA06B68
:1016D00064225843B0FBF2F01B1AB3FBF5F0012172
:1016E00002F0F6FCFFF761FA0548BDE83840FFF765
:1016F0005CBA00BF54000020245D0008275D00088C
:10170000C55B000808B5084B1A68084B9B689A42ED
:1017100009D107200121FFF71BF9FF200121BDE8B6
:101720000840FFF79DB808BD540800205400002071
:1017300010B5044600200146FFF70AF9022C194BA8
:1017400006D19A680132082A9A6009D1012206E07E
:10175000012C05D19A68013A9A600AB907229A6069
:10176000104A9368013B062B18D8DFE803F0040603
:10177000080A0C0E10000C480AE00C4808E00C485F
:1017800006E00C4804E00C4802E00C4800E00C487D
:10179000FFF70BFABDE81040FFF7B4BF01239360D9
:1017A00010BD00BF540000202A5D00083B5D00080A
:1017B0004C5D00085D5D00086E5D00087F5D0008FF
:1017C000905D000838B54FF400612A48FFF7C1FA70
:1017D0004FF48071D0F10104264838BF0024FFF790
:1017E000B8FA10B944F00204E4B223481021FFF71C
:1017F000B0FA88B120482021FFF7ABFA70B11E483B
:101800004021FFF7A6FA58B11B488021FFF7A1FA43
:10181000002829D1072204E0032202E0052200E08B
:101820000622164B40F2DC50198B0DB2854203DDC7
:1018300040F2B451198315E0013189B2142919839A
:1018400010D00E4BDA7E02F003018C4210D044EA35
:101850008204E4B2E12CDC7601D1022202E0D22C37
:1018600006D101229A7638BD044B00221A83E8E79C
:1018700038BD00BF00080140000C0140800200207C
:1018800008B508480121FEF7EDFC48B105480121E3
:10189000FEF7F3FCFFF796FF034BDA690132DA61DA
:1018A00008BD00BF001400408002002038B5204869
:1018B0000121FEF7D7FC002838D001211C48FEF793
:1018C000DCFC1C4B1A8812B2012A07DC1A4CE568B2
:1018D000188800B202F066FC4519E560154B1A88BD
:1018E00012B2022A07DD144C6568188800B202F0B3
:1018F00059FC45196560104B93F82020012A02D14C
:101900009A6801329A6093F821300B4A012B02D178
:10191000136901331361084B93F82220012A02D185
:101920005A6A01325A629A6A01329A6238BD00BF1D
:10193000004401407006002080020020034B00227A
:101940005A62012283F82220704700BF80020020E3
:10195000034B00225A62012283F82220704700BF05
:101960008002002038B504464FF46160B4FBF0F00B
:1019700002F03AFB054602F01BFC012803D812488E
:101980000121FFF731F801212846FFF72DF8012149
:101990000E48FFF729F83C23B4FBF3F4B4FBF3F053
:1019A00003FB104002F020FB044602F001FC01287A
:1019B00003D805480121FFF717F820460121BDE8AB
:1019C0003840FFF711B800BFA15D00080D5F0008A7
:1019D000054B4FF480321A61044B002283F82C200F
:1019E00083F82D20704700BF000C014080020020CA
:1019F000044A01231361044A82F82C3082F82D3006
:101A0000704700BF000C01408002002038B52C4B0D
:101A1000012205465A75FFF7EBFF022D294C02D132
:101A2000A388013303E0012D02D1A388013BA380E9
:101A300000200146FEF78CFF0221A08802F048FB3F
:101A4000FFF7B3F82048FFF7B0F8204B204A18887A
:101A5000138880B21BB2002BA1881E4B01DC4622EA
:101A60000AE0401A118802B222EAE27242F21070D1
:101A7000424309B292FBF1F2164C1A64206C02F058
:101A8000B3FAFFF792F81448FFF78FF8134B198851
:101A90000E4B89B21A880E4B92B2188800B20028F9
:101AA00001DC0A230AE0891A1A880BB223EAE373DD
:101AB00042F210714B4312B293FBF2F3A36438BDB0
:101AC000800200201C020020275D00087C0200200C
:101AD0007006002004000020A35D000854060020CA
:101AE00038B5174B012205465A75FFF781FF022DC5
:101AF000144C02D1A36B013303E0012D02D1A36B7F
:101B0000013BA36300200146FEF722FFA06B02F019
:101B10006BFAFFF74AF80C48FFF747F8002001215D
:101B2000FEF716FF094B0221188880B202F0D0FAA6
:101B3000FFF73BF80648BDE83840FFF736B800BF6E
:101B400080020020040000209D5D00087A0600202D
:101B50000E5C000838B5174B012205465A75FFF791
:101B600047FF022D144C02D1236B013303E0012DFA
:101B700002D1236B013B236300200146FEF7E8FE00
:101B8000206B02F031FAFFF710F80C48FFF70DF860
:101B900000200121FEF7DCFE094B0221188880B2EB
:101BA00002F096FAFFF701F80648BDE83840FEF764
:101BB000FCBF00BF80020020040000209D5D0008E3
:101BC000580600200E5C000838B5174B0122054668
:101BD0005A75FFF70DFF022D144C02D1A36A013391
:101BE00003E0012D02D1A36A013BA362002001465C
:101BF000FEF7AEFEA06A02F0F7F9FEF7D6FF0C483A
:101C0000FEF7D3FF00200121FEF7A2FE094B0221BF
:101C1000188880B202F05CFAFEF7C7FF0648BDE8FC
:101C20003840FEF7C2BF00BF800200200400002041
:101C30009D5D0008540600200E5C000838B5164B68
:101C4000012205465A75FFF7D3FE022D134C02D12F
:101C5000A369013303E0012D02D1A369013BA36114
:101C600000200146FEF774FEA06902F0BDF9FEF700
:101C70009CFF0B48FEF799FF01210020FEF768FE4C
:101C8000084B188800B202F0AFF9FEF78EFF064845
:101C9000BDE83840FEF789BF800200200400002024
:101CA0009D5D000870060020AE5D0008044B022216
:101CB0001A61044B012283F82C2083F82E207047F0
:101CC000000C01408002002010B50B4C94F92F301D
:101CD000022B10D0022384F82F30FFF779FEFFF794
:101CE000E5FF00233220E361FFF75CF90348BDE81C
:101CF000104003F0BBB810BD80020020B35D0008A7
:101D000008B5FFF765FEFFF7D1FF3220BDE80840B8
:101D1000FFF748B938B5164B012205465A75FFF74B
:101D2000EFFF022D134C02D1236A013303E0012D92
:101D300002D1236A013B236200200146FEF708FE20
:101D4000206A02F051F9FEF730FF0B48FEF72DFF35
:101D500001210020FEF7FCFD084B188800B202F0BC
:101D600043F9FEF722FF0648BDE83840FEF71DBFE5
:101D700080020020040000209D5D00087006002005
:101D8000AE5D0008054B4FF400321A61044B00228F
:101D900083F82C2083F82E20704700BF000C0140F0
:101DA0008002002008B5FFF7EDFFBDE80840FFF70F
:101DB0000FBE000038B5834B012193F83020054653
:101DC00059754AB983F8202083F8301083F8212010
:101DD00083F83120DA601A617B4B7C491A88896963
:101DE00092B2784B8A425A8601D3002205E093F8DA
:101DF00031200AB99A6A5A63012283F831209A6A1B
:101E00005B6B704CD31A032B07D994F8313023B194
:101E1000FFF7C8FF002384F82130022D694C0CD154
:101E200094F82C301BB9FFF76BFF012302E0FFF79A
:101E3000B9FF002384F821300CE0012D0AD194F879
:101E40003830013BDBB21D0684F8383002D503235D
:101E500084F838305B4C94F93800002835D10146BD
:101E6000FEF776FD584B0221188880B202F030F957
:101E7000FEF79BFE5648FEF798FE564B188800B2B8
:101E800002F0B2F8FEF791FE5348FEF78EFE94F88A
:101E90002C3013B90720012105E094F839300720D0
:101EA0000121052B03D8FEF753FD022002E0FEF7C7
:101EB0004FFD03200121FEF747FD424B93F83920E7
:101EC0000A2A02D9002283F839203E4B93F9384080
:101ED000012C13D100200146FEF73AFD3F48FEF7E2
:101EE00064FE3A4B214698690A23B0FBF3F002F0F6
:101EF000EFF8FEF75AFE3A48FEF757FE314C94F9D8
:101F00003830022B1AD100200146FEF721FD35485A
:101F1000FEF74BFE344B98684FF46163B0FBF3F06F
:101F200002F062F8FEF741FE3048FEF73EFE032065
:101F30000121FEF70DFDE06BFFF714FD214C94F934
:101F40003850032D19D100200146FEF701FD284825
:101F5000FEF72BFEE0684FF46163B0FBF3F002F094
:101F600043F8FEF722FE2348FEF71FFE2846012114
:101F7000FEF7EEFC2069FFF7F5FC124C002294F806
:101F800030001D4902F0B2FF607D00221B4902F0C3
:101F9000ADFF94F820000022194902F0A7FFA068C5
:101FA0000022184902F0A2FF94F8210000221649ED
:101FB00002F09CFF206915490022BDE8384002F07C
:101FC00095BF00BF8002002058060020540000206A
:101FD000275D000870060020D45D0008DD5D000864
:101FE000C55B0008E95D000894000020EC5D000876
:101FF000F55D0008F85D0008015E00080F5E00084E
:10200000245E0008395E0008495E0008615E000831
:1020100010B50B4C94F92F30012B10D0012384F80C
:102020002F30FFF7AFFEFFF7E3FC00233220E36120
:10203000FEF7B8FF0348BDE8104002F017BF10BD1F
:1020400080020020B65D000870B5044600200146FD
:10205000FEF77EFC6F4B012293F830105A751E4636
:1020600019B983F83020FFF769FC726A6A4E694D2E
:10207000B36A9A4211D8FFF7CBFF684B1A88336ACC
:1020800092B29A4209D9EB69B3F5C87F05D9FFF737
:102090005FFC6A6AB36AD3186B625E4D5E4E6A6A11
:1020A000B36A9A420DD9FFF70FFE5C4B1A88B369E9
:1020B00092B29A4205D2EB69B3F5C87F01D9FFF716
:1020C00047FC554B6A6A196B9B6ACB189A4201D937
:1020D000FFF73EFC022C4F4B09D193F83820013218
:1020E000D2B2032A83F838200ED100220AE0012C54
:1020F0000AD193F83820013AD2B283F83820120678
:1021000002D5022283F83820424D95F93840002C40
:1021100032D120462146FEF71BFC404B0221188895
:1021200080B201F0D5FFFEF740FD3D48FEF73DFDD2
:102130003C4B188800B201F057FFFEF736FD3A48D5
:10214000FEF733FD06200121FEF702FC05200121E8
:10215000FEF7FAFB95F82D500720012D05D12946F1
:10216000FEF7F6FB2046294604E00121FEF7F0FBCE
:1021700002200121FEF7E8FB264B93F93840012CA1
:1021800023D10020244D0146FEF7E2FB286901F02F
:102190002BFFFEF70AFD2548FEF707FDA8690A2672
:1021A0002146B0FBF6F001F093FFFEF7FEFC1C4861
:1021B000FEF7FBFC286A2146B0FBF6F001F088FF31
:1021C000FEF7F3FC1A48FEF7F0FC124C94F9383095
:1021D000022B1DD10020104D0146FEF7B9FBA86A65
:1021E00001F002FFFEF7E1FC1248FEF7DEFC286B6F
:1021F00001F0FAFEFEF7D9FC0F48FEF7D6FC0320EB
:102200000121FEF7A5FB2069BDE87040FFF7AABBDE
:1022100070BD00BF8002002054000020580600203E
:10222000275D000870060020745E00083862000810
:10223000075C0008265F00087C5E000870B5774BDD
:1022400005465C7D002C3BD1754B1A88754B92B2CC
:102250001B6A05339A4215D221462046FEF778FBC9
:102260007148FEF7A2FC4FF4FA60FEF79BFE204691
:102270002146FEF76DFB6D48FEF797FC40F6B8303F
:10228000FEF790FE654B002401265E7583F8204022
:1022900083F821409C601C61DC635C60DC6083F837
:1022A0002060FFF7B5FE624B2046DE712146FEF747
:1022B0004FFB6048FEF779FC4FF47A70FEF772FE30
:1022C0005D4B188800B201F06DFF052840F369816D
:1022D0005A4B1A88534B92B29B699A421DD2544B67
:1022E000DA79022A19D14D4CE369B3F57A7F14D912
:1022F000002384F82130E168514B994203D9E0680A
:102300002169FEF7ADFF00230126A360636084F816
:102310002060FFF77DFE464BDE71484B1A88414B2B
:1023200092B21B6A9A423D4B07D9414AD279012A9F
:1023300003D1DA69B2F57A7F08D89A68414B1B68F5
:102340009A4220D93A4BDB79012B1CD1334C002324
:1023500084F8203062683A4B9A4204D960680122BE
:10236000A168FEF77DFF2369E363E268364B9A605C
:1023700000232361E360012384F82130FFF7A4FCEC
:102380002B4B0222DA71022D244B09D193F838200D
:102390000132D2B2052A83F838200ED100220AE099
:1023A000012D0AD193F83820013AD2B2110683F8F0
:1023B000382002D5042283F83820184D95F938408A
:1023C000002C4ED120462146FEF7C2FA1B4B0221BB
:1023D000188880B201F07CFEFEF7E7FB1B48FEF791
:1023E000E4FB154B188800B201F0FEFDFEF7DDFBA3
:1023F0001748FEF7DAFB06200121FEF7A9FA0420B0
:102400000121FEF7A1FA95F82D500720012D21D1C9
:102410002946FEF79DFA2046294620E0800200204A
:102420005406002054000020845E0008955E0008D9
:102430001C020020A65E000870060020580600203E
:102440004F8C05004408002094000020275D000800
:10245000745E00080121FEF77BFA02200121FEF7DD
:1024600073FA6A4B93F93840012C23D10020684D50
:102470000146FEF76DFA286901F0B6FDFEF795FBFF
:102480006448FEF792FBA8690A262146B0FBF6F0E5
:1024900001F01EFEFEF789FB5F48FEF786FB286A07
:1024A0002146B0FBF6F001F013FEFEF77EFB5B4821
:1024B000FEF77BFB554C94F93850022D21D10020BA
:1024C0000146FEF745FA28460121FEF73DFA0021B4
:1024D0000120FEF73DFA5248FEF767FBE0684FF433
:1024E0006163B0FBF3F001F07FFDFEF75EFB4D484A
:1024F000FEF75BFB03200121FEF72AFA2069FFF7B4
:1025000031FA424C94F93850032D21D10020014674
:10251000FEF71EFA00200121FEF716FA0021012025
:10252000FEF716FA3E48FEF740FB60684FF4616321
:10253000B0FBF3F001F058FDFEF737FB3948FEF72A
:1025400034FB28460121FEF703FAA068FFF70AFAD8
:102550002E4C94F93830042B2FD100200146FEF781
:10256000F7F902200121FEF7EFF900210120FEF723
:10257000EFF92D48FEF719FB2C4B98684FF4616377
:10258000B0FBF3F001F030FDFEF70FFB2848FEF73B
:102590000CFB03200121FEF7DBF9E06BFFF7E2F90A
:1025A0000BE01A4BDB69B3F57A7F06D900200146B0
:1025B000FEF7CEF91F48FEF7F8FA144C0022607DB2
:1025C0001D4902F093FC94F8200000221B4902F000
:1025D0008DFCA06800221A4902F088FC6068002285
:1025E000184902F083FC94F821000022164902F0F9
:1025F0007DFC20690022154902F078FCE06814494E
:102600000022BDE8704002F071BC00BF80020020D3
:102610005400002038620008275D0008075C0008AD
:102620009F5D0008B75E0008E95D00089400002087
:10263000F85D0008C15E00080F5E0008245E000817
:10264000395E0008D25E0008495E0008615E00083D
:10265000EA5E0008F8B5924B05465C7D002C3DD142
:10266000904B1A88904B92B21B6A05339A4215D24E
:1026700021462046FEF76CF98C48FEF796FA4FF497
:10268000FA60FEF78FFC20462146FEF761F9884884
:10269000FEF78BFA40F6B830FEF784FC804C00273A
:1026A0000126667584F8207084F82170A760276180
:1026B000E7636760E76084F82060FFF7A9FC7D4B63
:1026C0003946DE713846FEF743F97B48FEF76DFA6E
:1026D0004FF47A70FEF766FC84F84060704C94F911
:1026E0004030032B00F3D080744B188800B201F007
:1026F00059FD052840F3BB80714B1A886A4B92B292
:102700009B699A4227D26B4BDA79022A23D1E3697B
:10271000B3F57A7F1FD9002384F82130E168694B33
:10272000994203D9E0682169FEF79AFD5C4C0126C5
:102730002369E363E268644B84F820609A600023B5
:102740006360A360FFF764FC94F840309B1984F841
:102750004030584BDE715A4B1A88534B92B21B6A69
:102760009A424F4B07D9534AD279012A03D1DA69E9
:10277000B2F57A7F08D89A68544B1B689A4224D9DC
:102780004C4BDB79012B20D1454C94F94030022B86
:102790001BDC002384F8203062684A4B9A4204D93B
:1027A00060680122A168FEF75BFD012384F82130F7
:1027B0000023E3602361FFF787FA94F84030022298
:1027C000013384F840303B4BDA713D4B1A88364B6D
:1027D00092B21B6A9A42324B07D9364AD279012A01
:1027E00003D1DA69B2F57A7F08D89A68374B1B684B
:1027F0009A4221D92F4BDB79012B1DD1284C94F91A
:102800004030022B18DDFFF7CDFA002384F820308A
:1028100084F8213062682B4B9A4204D96068012207
:10282000A168FEF71DFD1E4B93F84020013283F88E
:102830004020022283F83820022D194B09D193F849
:1028400038200132D2B2042A83F838204FD1002236
:102850000AE0012D4BD193F83820013AD2B2140688
:1028600083F8382043D5032283F838203FE0E3691A
:10287000B3F57A7F40F2EA8000200146FEF768F85F
:102880001348FEF792F9E1E0022D23D194F8383095
:102890000133DBB2042B84F8383028D1002324E044
:1028A000800200205406002054000020845E0008AE
:1028B000955E00081C020020A65E0008700600203D
:1028C000580600204F8C050094000020440800208A
:1028D000C15E0008012D0AD194F83830013BDBB20B
:1028E000180684F8383002D5032384F838306B4D4D
:1028F00095F93840002C32D120462146FEF728F8C1
:10290000674B0221188880B201F0E2FBFEF74DF917
:102910006448FEF74AF9644B188800B201F064FB82
:10292000FEF743F96148FEF740F906200121FEF762
:102930000FF804200121FEF707F895F82D50072025
:10294000012D05D12946FEF703F82046294604E06B
:102950000121FDF7FDFF02200121FDF7F5FF4F4B9F
:1029600093F93840012C23D10020514D0146FDF749
:10297000EFFF286901F038FBFEF717F94D48FEF725
:1029800014F9A8690A262146B0FBF6F001F0A0FB75
:10299000FEF70BF94348FEF708F9286A2146B0FB19
:1029A000F6F001F095FBFEF700F94348FEF7FDF85D
:1029B0003A4C94F93850022D21D100200146FDF700
:1029C000C7FF28460121FDF7BFFF00210120FDF7C9
:1029D000BFFF3A48FEF7E9F8E0684FF46163B0FBE7
:1029E000F3F001F001FBFEF7E0F83548FEF7DDF803
:1029F00003200121FDF7ACFF2069FEF7B3FF274C50
:102A000094F93850032D21D100200146FDF7A0FF95
:102A100000200121FDF798FF00210120FDF798FF1C
:102A20002648FEF7C2F860684FF46163B0FBF3F02C
:102A300001F0DAFAFEF7B9F82148FEF7B6F82846B1
:102A40000121FDF785FFA068FEF78CFF134C0022E3
:102A5000607D1C4902F04AFA94F8200000221A49CD
:102A600002F044FAA0680022184902F03FFA6068B8
:102A70000022174902F03AFA94F821000022154981
:102A800002F034FA20690022134902F02FFAE068BC
:102A900012490022BDE8F84002F028BA8002002066
:102AA00058060020275D000870060020745E0008AC
:102AB0005400002038620008075C00089F5D000891
:102AC000B75E00080F5E0008245E0008395E00084B
:102AD000D25E0008495E0008615E0008EA5E0008F8
:102AE00008B5FFF74FF9FEF783FF3220BDE8084035
:102AF000FEF758BA38B5AD4B012293F83040054681
:102B00005A7544BBAA4B1A88AA4B92B21B6A05336A
:102B10009A4215D221462046FDF71AFFA648FEF735
:102B200044F84FF4FA60FEF73DFA20462146FDF7DF
:102B30000FFFA248FEF739F840F6B830FEF732FA38
:102B40009A4B0022012183F8202083F8301083F86B
:102B500021205A609A60954C994BA2681B689A4252
:102B600006D89849934A0888136A80B2984203D9D4
:102B7000FFF718F900230CE0926B64205A43098890
:102B8000B2FBF0F289B29B1A994204D2FFF7A8FF78
:102B9000012384F82030022D844C0CD194F82C3081
:102BA0001BB9FFF79DFF012302E0FFF7FBF80023AD
:102BB00084F820300CE0012D0AD194F83830013B24
:102BC000DBB21D0684F8383002D5032384F8383090
:102BD000764C94F93800002852D10146FDF7B8FE32
:102BE00094F82C30A3B9724B0221188880B201F0FE
:102BF0006FFAFDF7DAFF7448FDF7D7FF714B02213A
:102C0000188880B201F064FAFDF7CFFF6F4812E038
:102C10006C4B0221188880B201F05AFAFDF7C5FF0B
:102C20006948FDF7C2FF6A4B188800B201F0DCF971
:102C3000FDF7BBFF6748FDF7B8FF5C4B93F82C40EE
:102C40002CB907200121FDF783FE204608E093F808
:102C5000393007200121052B04D8FDF779FE00202B
:102C6000012103E0FDF774FE01200146FDF76CFE33
:102C70004E4B93F839200A2A02D9002283F83920D2
:102C80004A4B93F93840012C1BD100200146494D95
:102C9000FDF75EFE5048FDF788FF286901F0A4F9B2
:102CA000FDF783FF4D48FDF780FF286A0A23B0FB3C
:102CB000F3F0214601F00CFAFDF777FF4348FDF7EA
:102CC00074FF3A4B93F93830022B29D1394C00204C
:102CD0000146FDF73DFEA06B01F086F9FDF765FFAB
:102CE0003F48FDF762FF206A0A250121B0FBF5F09D
:102CF00001F0EEF9FDF759FF3348FDF756FF236A5F
:102D0000A06B64225843B0FBF2F01B1AB3FBF5F042
:102D1000012101F0DDF9FDF748FF2C48FDF745FFE3
:102D2000224C94F93850032D19D100200146FDF7AB
:102D30000FFE2C48FDF739FF60684FF46163B0FB6C
:102D4000F3F001F051F9FDF730FF2748FDF72DFFB3
:102D500028460121FDF7FCFDA068FEF703FE134C99
:102D60006420FEF767F894F8300000221F4902F053
:102D7000BDF8607D00221E4902F0B8F894F82000EA
:102D800000221C4902F0B2F8A06800221A4902F0A1
:102D9000ADF894F821000022184902F0A7F8206944
:102DA00017490022BDE8384002F0A0B88002002098
:102DB0005406002054000020845E0008955E000840
:102DC0004408002058060020275D0008C55B000865
:102DD00070060020D45D00080C5F00080F5F00083B
:102DE000245D0008175F0008F85D0008015E000818
:102DF0000F5E0008245E0008395E0008495E000886
:102E0000615E0008F0B5A24B0122022887B05A7516
:102E100009D193F841200132D2B2082A83F8412027
:102E20000ED100220AE001280AD193F84120013A8C
:102E3000D2B283F84120120602D5072283F841203E
:102E4000934B93F941400CBBFEF7ACFF2146204663
:102E5000FDF77EFD8F48FDF7A8FE8F4B01211888F6
:102E60000A2380B2B0FBF3F001F032F9FDF79DFECA
:102E70008A48FDF79AFE8A4B0221188880B201F039
:102E800027F9FDF792FE8748FDF78FFE804B93F9F7
:102E90004130012B1DD1FEF785FF00200146FDF7D3
:102EA00057FD8148FDF781FE804B0221188880B2D2
:102EB00001F00EF9FDF779FE7D48FDF776FE7D4BBA
:102EC000D88880B201F090F8FDF76FFE7A48FDF7E0
:102ED0006CFE6F4B93F94140022C1DD1FEF788FD2B
:102EE00000200146FDF734FD7448FDF75EFE744B8B
:102EF0002146188880B201F0EBF8FDF756FE6C48C9
:102F0000FDF753FE6B4B988880B201F06DF8FDF72A
:102F10004CFE6948FDF749FE5D4B93F94130032BA8
:102F20001ED1FEF72FFFFEF763FD00200146FDF7DF
:102F30000FFD6448FDF739FE634B188800B201F0BD
:102F400053F8FDF732FE6148FDF72FFE594B5888C4
:102F500080B201F049F8FDF728FE5748FDF725FE3D
:102F60004B4B93F94130042B1ED1FEF731FDFEF798
:102F70009DFE00200146FDF7EBFC5548FDF715FED0
:102F8000544B188800B201F02FF8FDF70EFE4F48A1
:102F9000FDF70BFE474B188880B201F025F8FDF7CE
:102FA00004FE4D48FDF701FE394B93F94130052BE6
:102FB0003DD13E4D494CFEF7E5FEFEF719FD29884F
:102FC000238889B29BB2404FCB1A42F210714B4317
:102FD0003A88434E12B2002093FBF2F30146B364E9
:102FE000FDF7B6FC3F48FDF7E0FD306C00F0FCFF5C
:102FF000FDF7DBFD3C48FDF7D8FDB06C00F0F4FFB9
:10300000FDF7D3FD3948FDF7D0FD3888384900B2C7
:10301000002201F06BFF2888364980B2022201F0BD
:1030200065FF2088344980B2022201F05FFF184C0E
:1030300094F94130062B0ED1FEF7B4FE0020014674
:10304000FDF786FC01A9A06A01F0F7F8FDF7ADFDD8
:103050002A48FDF7AAFD0E4C94F94130072B14D1F4
:10306000FEF7A0FE00200146FDF772FC2448FDF7A4
:103070009CFD606C4FF46163B0FBF3F000F0B4FFB3
:10308000FDF793FD1F48FDF790FD07B0F0BD00BFB1
:10309000800200201A5F00087A0600201F5F0008E7
:1030A000560600209C5D0008245F0008540600209E
:1030B000275D0008480800209A5D0008295F000885
:1030C000580600202F5F000870060020355F0008BA
:1030D000395F00087A020020995D00087C02002018
:1030E000040000203F5F0008425F0008475F0008BF
:1030F0004F5F0008535F00085A5F0008985D0008A2
:10310000625F0008695F00082DE9F843A84D0024BC
:1031100000F010FEFEF746FEA6482C60FDF745FDC8
:10312000FDF78FFC21462046FDF712FC4FF4FA60B4
:10313000FDF780FE01F042FA2B68172B88BF2C6048
:1031400001F0B2FC80B94FF47A70FDF773FE01F024
:10315000ABFC48B99848FDF728FD4FF47A60FDF7BD
:1031600069FE9648FDF7B4F8954B964C1A69964B54
:1031700090485A6423694FF461625A43934B1A6032
:10318000934BA2681A6001F071FEFDF70BFAFDF790
:10319000C8FB9048FCF7E4FFA368012B07D18E48D9
:1031A0000026FCF7C5FF884DB046374617E0022BD6
:1031B00001D18A48F4E7032B01D18948F0E7042BB9
:1031C00001D18848ECE7052B01D18748E8E7062BB9
:1031D00001D18648E4E7072BE1D18548E0E795F87F
:1031E0003930AC7E01332046824985F83930AF76DC
:1031F000002201F07BFE80481021FDF7AAFD10B9E6
:103200007E4801F033FE631E062B26D8DFE803F06C
:1032100004080E2525251500FCF784FF406802E010
:10322000FCF780FF0068FCF783FF16E00220FCF744
:10323000A1FFFCF777FFC068F5E7714A6E4B36B91E
:10324000142151804FF480721A61012605E0C821D3
:1032500051804FF080721A610026FCF763FFDFF89F
:103260007891484503D12046FDF7B4FE32E1FCF7E2
:1032700059FF09F12C03984203D12046FDF7F6FED1
:1032800028E1FCF74FFF09F15803984203D120468B
:10329000FDF766FF1EE1FCF745FF09F18403984244
:1032A00003D12046FFF726FC14E1FCF73BFF09F1B0
:1032B000B003984203D12046FEF77CFD0AE1FCF7FB
:1032C00031FF09F59A73984203D12046FFF7C2F9FE
:1032D00000E1FCF727FF09F1DC03984203D1204607
:1032E000FEF7ACFFF6E0FCF71DFF09F5847398428A
:1032F00003D12046FEF7A8FEECE0FCF713FF09F52A
:10330000B073984203D12046FFF77CFDE2E0FCF762
:1033100009FF09F5C679484503D12046FDF7C6FFE8
:10332000D8E0FCF7FFFEDFF8DC90484503D12046EB
:10333000FEF728F8CEE0FCF7F5FE09F12C039842E1
:1033400003D12046FDF7FAFFC4E0FCF7EBFE09F1DC
:103350005803984203D12046FEF7DCFCBAE0FCF7A4
:10336000E1FE09F18403984203D12046FEF766FC92
:10337000B0E0FCF7D7FE09F1B003984203D1204634
:10338000FEF7AEFBA6E0FCF7CDFE09F1CC039842B8
:1033900003D12046FEF7DEFB9CE0FCF7C3FE09F1FB
:1033A000F803984230D12046FEF70EFC92E000BFB1
:1033B000A806002024020020775F0008885F00082C
:1033C00094000020540000208002002044080020C7
:1033D00054080020850D0008C8510008F451000869
:1033E000205200084C52000878520008A4520008ED
:1033F000D0520008965F0008000C01408D5C000868
:103400001C02002080530008FCF78CFE09F5927323
:10341000984203D12046FEF7F9FA5BE0FCF782FE02
:1034200009F5A073984203D12046FDF7CFFF51E084
:10343000FCF778FE09F5AE79484503D12046FEF742
:1034400003F847E0FCF76EFEDFF8B490484503D17F
:103450002046FEF71FF83DE0FCF764FE09F12C035F
:10346000984203D12046FEF78DF833E0FCF75AFE70
:1034700009F15803984203D12046FEF7A5F829E048
:10348000FCF750FE09F18403984203D12046FEF771
:10349000BDF81FE0FCF746FE09F1B003984203D1E6
:1034A0002046FEF7D1F815E0FCF73CFE09F1DC03FD
:1034B000984203D12046FEF7E5F80BE0FCF732FE18
:1034C00009F58479484503D12046FEF731F901E03A
:1034D00085F815806C7D64B9FEF764FCEA68074BDB
:1034E00085F830409A602B6985F83840EB6385F8A1
:1034F0002F406420FDF756FD71E600BF94000020C8
:103500000855000870B592B04E2312A9002621F884
:10351000043D42488DF84760FDF7C6FB01214FF49A
:10352000007000F0C1FA0120014600F0B1FA3C4BF6
:10353000062502934FF4806308938023069320238B
:103540000993384B384801934FF48073079301A9CE
:103550004FF400530A93049503960B96059600F0DA
:1035600028FF0121304800F042FF4FF4004000F0F6
:103570003DFA01244FF460232C480CA90E938DF8DA
:1035800035400F960C968DF840508DF8344000F081
:10359000F7FB072325482146224600F042FC022182
:1035A0000A460723214800F03CFC03210A46072372
:1035B0001E4800F036FC0422072329461B4800F071
:1035C00030FC204600F07CFC11210522174807231F
:1035D00000F027FC10212A460423144800F021FCA7
:1035E0001248214600F0F0FB1048214600F0F5FBA0
:1035F0000E4800F0FBFB0D4800F0FDFB0028FAD15F
:103600000A4800F0FCFB094800F0FEFB0028FAD154
:103610000648012100F0FCFB12B070BD000801401B
:10362000480800204C2401400800024000240140CA
:103630001FB50121022000F043FA104C01A8FCF74D
:10364000F3FD45F6BF53ADF804302046052301A92C
:10365000ADF80830FCF79EFD01210A462046FCF734
:10366000F8FD20460121FCF7E8FD054B4FF0005224
:103670001A60202283F81D231FBD00BF00040040F4
:1036800000E100E0224A234B91682DE9F041083126
:103690009160C91A002808BF0120A729C8BF9360FC
:1036A000936812681E689A4208BF194A184C08BFEE
:1036B0001660194F2268988015252146BC46D2F81D
:1036C00000809845B2F8048008BF1660804503D298
:1036D000086818600B600020BA42246814D0116892
:1036E000D1F800809845B1F8048008BF0E6080458D
:1036F00003D21068186013600020614504D0013DBA
:10370000ADB20A68002DDAD1A088BDE8F08100BF13
:1037100038020020F40200209C030020234A244B9E
:1037200051692DE9F04108315161C91A002808BFDB
:103730000120B1F5A47FA8BF53615369D2681E6808
:103740009A4208BF194A194908BFD66051F80C2F90
:10375000184F988029250C46BC46D2F80080984521
:10376000B2F8048008BF1660804503D22068186054
:1037700023600020BA42096814D01468D4F800808D
:103780009845B4F8048008BF2660804503D21068CD
:10379000186013600020644504D0013DADB222687A
:1037A000002DDAD18888BDE8F08100BF3802002002
:1037B000A4030020EC040020234A244B116A2DE9C5
:1037C000F04108311162C91A002808BF0120B1F583
:1037D000A47FA8BF1362136A92691E689A4208BF49
:1037E000194A194908BF966151F8182F184F988047
:1037F00029250C46BC46D2F800809845B2F80480D2
:1038000008BF1660804503D220681860236000203E
:10381000BA42096814D01468D4F800809845B4F806
:10382000048008BF2660804503D2106818601360CA
:103830000020644504D0013DADB22268002DDAD1EC
:103840008888BDE8F08100BF38020020F404002021
:103850003C0600200F49D1F85433D1F85023C1F869
:1038600058339342C1F85423C1F8500307DC834214
:1038700003DC9042A8BF104670479A4205DC8242A2
:1038800003DC9842A8BF184670479A42B4BF10465E
:1038900018467047F402002073B54D480121FCF72B
:1038A000E1FC002800F092804A4C0121D4F85C33FE
:1038B00047480133C4F85C33FCF7DFFC00250220E5
:1038C000ADF80450ADF8065000F0A4FD022000F061
:1038D000ABFD414E022141482A4600F093FD404B8A
:1038E000F1889B6A89B24B43328992B2B3FBF2F3FF
:1038F0009BB2ADF80630BDF8060080B2FFF75CFF62
:10390000A4F86003B4F860334FF4F0229BB2022BAA
:1039100098BFA4F8605333899BB292FBF3F39BB238
:10392000A4F86233B18832892D4E89B2336B92B2DA
:103930004B43B3FBF2F39BB2ADF80630BDF8060083
:1039400080B2FFF79FFE80B2ADF80400BDF80430EE
:103950001BB2022B02DC0023ADF80430B3691E4C0D
:103960000A256B436188228989B24B4392B2B3FB2B
:10397000F2F39BB2ADF80630BDF8060080B2FFF757
:10398000CDFE316A174B80B218804D4322882389BF
:1039900092B255439BB2B5FBF3F5ADB2ADF806500C
:1039A000BDF8060000B2FFF755FF0F4B80B218803C
:1039B000BDF80420074B92B20848A3F86423022103
:1039C000012202B0BDE8704000F01CBD02B070BD25
:1039D00000040040F40200204808002008000240D3
:1039E00004000020780200207A020020034B5A686D
:1039F00022F4404210435860704700BF001002405C
:103A000010B51F4B5A6802F00C02042A01D0082A94
:103A100002D01C4B036011E05A685968C2F383421C
:103A20000232C90301D4184B06E0DB6A154903F0E2
:103A30000F030133B1FBF3F35A430260104A134BF7
:103A400051680468C1F30311595C24FA01F1416023
:103A50005468C4F302241C5D21FA04F484605468A1
:103A6000C4F3C2241C5D21FA04F1C1605268C2F3A0
:103A700081329B181B7CB1FBF3F1016110BD00BFCB
:103A80000010024000127A0000093D005C02002094
:103A9000044B5A6909B1104301E022EA0000586161
:103AA000704700BF00100240044B9A6909B11043EF
:103AB00001E022EA00009861704700BF0010024058
:103AC000044BDA6909B1104301E022EA0000D86131
:103AD000704700BF0010024008B508200121FFF721
:103AE000E3FF194B1A6822F003021A601A6822F0E9
:103AF0000C021A601A6842F002021A601A6822F078
:103B00000C021A601A6822F030021A601A6822F059
:103B1000C0021A601A6842F020021A601A6822F085
:103B2000C0021A605A6822F003025A605A6822F0F2
:103B30000C025A605A6842F002025A605A6822F037
:103B40000C025A6008BD00BF000C014008B50820F7
:103B50000121FFF7A9FF2D4B1A6822F440121A60C9
:103B60001A6822F440021A601A6842F400021A60CD
:103B700020221A611A6822F440321A601A6822F46C
:103B800040221A601A6842F400221A6010221A6158
:103B90001A6822F040721A601A6822F040621A60B5
:103BA0001A6842F000621A6040221A611A6822F014
:103BB00040521A601A6822F040421A601A6842F0B5
:103BC00000421A6080221A61A3F580635A6822F4C9
:103BD00040525A605A6822F440425A605A6842F48D
:103BE00000425A604FF400621A615A6822F00302E0
:103BF0005A605A6822F00C025A605A6842F0080271
:103C00005A604FF480721A6108BD00BF000C014079
:103C10001FB501212020FFF753FF104C01A8FCF72E
:103C200003FB40F65F13ADF8043020460A2301A9D8
:103C3000ADF80830FCF7AEFA01210A462046FCF741
:103C400008FB20460121FCF7F8FA054B4FF400026F
:103C50005A60502283F837231FBD00BF0014004074
:103C600000E100E01FB501214FF40030FFF71CFF19
:103C700001A8FCF7D9FA104C0023ADF8063045F640
:103C8000BF53ADF8043020464FF47A7301A9ADF864
:103C90000830FCF77FFA01210A462046FCF7D9FAE2
:103CA00020460121FCF7C9FA044B4FF000721A605C
:103CB000102283F819231FBD0044014000E100E0F9
:103CC00037B5124D4FF000500121FFF7F9FE0024E7
:103CD0001023284601A9ADF804308DF80740FCF701
:103CE000E3FF2023284601A9ADF804308DF80740F2
:103CF000FCF7DAFF064B1A6842F001021A601A68F4
:103D000042F480321A609C605C613EBD0008014054
:103D100000740040064BDA6942F00102DA614FF0AC
:103D2000804345F6BF521A8509221A80704700BFAA
:103D30000010024008B504200121FFF7B5FE08205D
:103D40000121FFF7B1FE10200121FFF7ADFEFFF7C3
:103D5000E1FFFCF739FF00F0E9FFFFF7BDFEFFF7D9
:103D6000F5FEFFF755FFFFF763FCFFF77BFFFFF75B
:103D7000B3FEFFF7C7FBBDE80840FFF7A1BF000097
:103D800043680A6823F4702323F4807313430A7989
:103D900010B543EA022343608A68CB6884681A43FB
:103DA000084B234013434A7943EA420383600B7C68
:103DB000C26A013B22F47002DBB242EA0353C362DF
:103DC00010BD00BFFDF7F1FF836811B143F001039F
:103DD00001E023F0010383607047836811B143F46D
:103DE000807301E023F4807383607047836843F03D
:103DF0000803836070478068C0F3C0007047836821
:103E000043F00403836070478068C0F3800070470C
:103E1000836811B143F4A00301E023F4A00383609D
:103E20007047092970B54FF003040DD94C4307259D
:103E30001E3C05FA04F503FA04F3C66826EA0505F4
:103E400045EA0304C4600BE04C43072505FA04F57A
:103E500003FA04F4066926EA050545EA040303614A
:103E6000062A4FF005030CD8013A53431F2202FAE9
:103E700003F201FA03F3446B24EA0202134343639F
:103E800070BD0C2A0DD853431F22233B02FA03F2C4
:103E900001FA03F1046B24EA020242EA010303631C
:103EA00070BD53431F22413B02FA03F201FA03F1B2
:103EB000C46A24EA020242EA0103C36270BD000040
:103EC000044B9A6810B142F4000201E022F40002AF
:103ED0009A6070470024014030B5038ACA8823F4F1
:103EE00040531B041B0C134303820D46838909892D
:103EF000AA8823F4B0530A43698923F00C030A43C8
:103F00001B041B0C92B213438381838AAA8923F476
:103F100040731B041B0C87B013430446838201A823
:103F2000FFF76EFD174BA2899C420CBF049B039BBD
:103F300012B2002A4FF019012A6801FB03F101DADD
:103F4000520000E092006423B1FBF2F1B1FBF3F206
:103F50001201100903FB1011A08900B2002806DA33
:103F6000C9003231B1FBF3F303F0070305E00901A7
:103F70003231B1FBF3F303F00F031A4392B2228103
:103F800007B030BD00380140838919B19BB243F4BA
:103F9000005303E023F400531B041B0C8381704780
:103FA000C1F3421310B5012401F01F01A34204FA2A
:103FB00001F101D10C3004E0022B01D1103000E0FE
:103FC000143003680AB1194301E023EA01010160DA
:103FD00010BDC905C90D81807047038819420CBF07
:103FE00000200120704700007FB580EAE072A2EB5C
:103FF000E0720DF1FF3500230A2492FBF4F104FB7B
:104000001122303205F8012F1E4601330A1EDBB2A1
:10401000F3DC002807DA5BB204A8C3182D2203F8EA
:10402000102CB31CDBB25AB204A88118002001F88E
:10403000100C68448118074811F8014C013BDBB2B1
:10404000013900F8014F002BF6D10348835404B026
:1040500070BD00BF7B0600207C060020F0B5034643
:1040600085B083EAE370A0EBE3700DF1FF36002228
:104070000A2590FBF5F405FB1400303006F8010F1B
:1040800017460132201ED2B2F3DC002B07DA04AB54
:1040900052B29A182D2302F8103CBA1CD2B250B278
:1040A00004AC2318002403F8104C0DEB040318187B
:1040B0000C46134652B210F8015C013BDBB20138EA
:1040C00004F8015B002BF6D18B54084605B0F0BD17
:1040D000F0B58BB080EAE073A3EBE0730DF1FF362F
:1040E00000220A2593FBF5F405FB1433303306F860
:1040F000013F17460132231ED2B2F3DC53B20AADA0
:10410000EC180025012B04F8285C04D13023BA1CDC
:104110008DF80130D2B2022A05D1012903D930230A
:104120008DF80230032200240DF1280C23460CEBFD
:1041300001062E2552B25FB28F4203D1013306F839
:10414000145CDBB25FB20DF1280C67441DF804C0AB
:10415000013407F814CC67B201339742DBB2EADBD3
:10416000002807DA5AB20AA98A1801332D2102F869
:10417000141CDBB259B205AD084800226C1804E0EB
:10418000A55C013B00F8015FDBB2013A002BF7D1DF
:10419000034841180B7410300BB0F0BD8B060020A3
:1041A0007C060020002802D001DC404200B27047AB
:1041B0000346002001E00130C0B21A5C002AFAD1A7
:1041C000704730B50346002401E0155501341D5DEC
:1041D000E0B2002DF9D12B4645B2551903E001306C
:1041E000EC54C0B20133CC5C002CF8D140B2145472
:1041F000104630BD70B5002501E05E550135465DC5
:10420000ECB2002EF9D1304666B29E1903E00134BB
:104210003554E4B201300D5C002DF8D1294665B269
:104220005D1903E001346854E4B20131505C0028A8
:10423000F8D164B21855184670BD2DE9F041074613
:1042400086B04FF461600C46B7FBF0F001A9FFF7B0
:1042500005FF01A8FFF7ACFF012803D83023237026
:10426000012600E000260023A11902E0CA54EEB2A4
:1042700001330DF1040813F80820751C002AF5D14C
:104280003A2273B2E2543C23B7FBF3F2B2FBF3F0F1
:1042900003FB10204146FFF7E1FE4046FFF788FF91
:1042A0000128EDB204D86DB230236355B51CEDB2D0
:1042B00069B20023611802E0CA54F5B201330DF16E
:1042C000040813F808206E1C002AF5D13A226BB2BC
:1042D000E2543C23B7FBF3F003FB10704146FFF7B9
:1042E000BDFE4046FFF764FF0128F6B204D876B25F
:1042F00030230235A355EEB271B20023611803E0FA
:104300000136CA54F6B2013301AA9A5C002AF7D1E9
:1043100076B2A255204606B0BDE8F0812DE9F04105
:10432000804686B04FF461600C46B8FBF0F001A9FE
:10433000FFF794FE01A8FFF73BFF012803D83023C5
:104340002370012500E000250023611902E0CA5412
:10435000F5B2013301AFDA5D6E1C002AF7D13A22C3
:104360006BB2E2543C23B8FBF3F8B8FBF3F003FB69
:1043700010803946FFF772FE3846FFF719FF012813
:10438000F6B204D876B230230235A355EEB271B23C
:104390000023611803E00136CA54F6B2013301AAC2
:1043A0009A5C002AF7D176B2A255204606B0BDE845
:1043B000F0818B6810B50C6A026823430C6922F403
:1043C000FE4223434C6922F0F00223438C692343CD
:1043D000CC6923434C6A23438C6A23431343036011
:1043E000CB6843600B6883604B68C36010BD19B134
:1043F000036843F0010303E002684FF6FE731340C5
:104400000360704703680AB1194301E023EA010120
:1044100001607047C2004CBF014B024B58607047AF
:104420000004024000000240C3004CBF014B024B9D
:10443000586070470004024000000240C37810B585
:10444000F3B1154B4178DB688478DB43C3F3022377
:10445000C3F1040201FA02F10F2222FA03F2224010
:104460000A430E4B01781201CB18D2B283F8002315
:1044700003780122590903F01F0302FA03F307E04E
:1044800003780122590903F01F0302FA03F32031D4
:10449000024A42F8213010BD00ED00E000E100E0EA
:1044A0000F4AD36813F0010F0D4BFAD1DA68920668
:1044B00001D52022DA601A6942F002021A615861BD
:1044C0001A6942F040021A61054AD168044B890614
:1044D000FBD52022DA601A6922F002021A617047C5
:1044E00000200240034B044A5A6002F188325A60AD
:1044F000704700BF0020024023016745024B1A6944
:1045000042F080021A61704700200240124AD368CC
:1045100013F0010F104BFAD1DA68920601D5202270
:10452000DA601A6942F001021A618BB203800A4B09
:10453000DA6812F0200F084AFAD02023090CD36061
:104540004180D168044B8906FBD52022DA601A69C4
:1045500022F001021A6170470020024070B572B665
:10456000114CFFF7BFFF4FF4CE701049002200F04E
:10457000BDFC20680E49002200F0B8FC0D48FFF792
:104580008FFF0C4D0C4E2B1903F17843A3F5F2333A
:10459000284619680435FFF7B9FFB542F3D1FFF794
:1045A000ADFF62B670BD00BFA80600209B6000088A
:1045B000A260000800E401089CE5010810B5074B63
:1045C0000749084A58181C6800F178400433A0F5E0
:1045D000F23093420460F5D1012010BD00E40108DF
:1045E000A80600209CE5010870B504680E468C42C0
:1045F00001D3944211D90A4B00251D7009492A465E
:1046000000F074FC204608492A4600F06FFC074879
:1046100007492A4600F06AFC3446204670BD00BFB8
:1046200070020020A8600008BF60000800EC0108CC
:10463000D160000810B5184C6068FFF731FF606862
:104640002168FFF763FFE068A168FFF75FFF60691B
:104650002169FFF75BFFE069A169FFF757FF606A17
:10466000216AFFF753FFE06AA16AFFF74FFF606B13
:10467000216BFFF74BFFE06BA16BFFF747FF606C0F
:10468000216CFFF743FFE06CA16CFFF73FFF03488D
:1046900000F0ECFB10BD00BF04000020E860000843
:1046A00010B5184C6068FFF7FBFE60682168FFF7E3
:1046B0002DFFE068A168FFF729FF60692169FFF716
:1046C00025FFE069A169FFF721FF606A216AFFF712
:1046D0001DFFE06AA16AFFF719FF606B216BFFF70E
:1046E00015FFE06BA16BFFF711FF606C216CFFF70A
:1046F0000DFFE06CA16CFFF709FF034800F0B6FB6B
:1047000010BD00BF5C0100200161000838B5224CDB
:10471000002160684FF48072FFF766FF002120607F
:104720004FF47A72E068FFF75FFF0021A0604FF45A
:104730007A726069FFF758FF184D20610A212A46F6
:10474000E069FFF751FF0A21A0612A46606AFFF77E
:104750004BFF0A2120622A46E06AFFF745FF0A2143
:10476000A0622A46606BFFF73FFF0A2120632A46BA
:10477000E06BFFF739FF4621A063C822606CFFF7AA
:1047800033FF0A212064C822E06CFFF72DFFA064EC
:10479000034800F06BFB38BD04000020A086010038
:1047A0002161000838B5224C002160684FF4807206
:1047B000FFF71AFF002120604FF47A72E068FFF7DC
:1047C00013FF0021A0604FF47A726069FFF70CFFBD
:1047D000184D20610A212A46E069FFF705FF0A21EA
:1047E000A0612A46606AFFF7FFFE0A2120622A467E
:1047F000E06AFFF7F9FE0A21A0622A46606BFFF724
:10480000F3FE0A2120632A46E06BFFF7EDFE462106
:10481000A063C822606CFFF7E7FE0A212064C8226B
:10482000E06CFFF7E1FEA064034800F01FFB38BD19
:10483000AC010020A08601003B61000810B5144CBB
:104840006068FFF72DFE60682168FFF75FFEE06893
:10485000A168FFF75BFE60692169FFF757FEE06919
:10486000A169FFF753FE606A216AFFF74FFEE06A15
:10487000A16AFFF74BFE606B216BFFF747FEE06B11
:10488000A16BFFF743FE034800F0F0FA10BD00BF34
:10489000540000205E61000810B5144C6068FFF7FA
:1048A000FFFD60682168FFF731FEE068A168FFF74F
:1048B0002DFE60692169FFF729FEE069A169FFF714
:1048C00025FE606A216AFFF721FEE06AA16AFFF710
:1048D0001DFE606B216BFFF719FEE06BA16BFFF70C
:1048E00015FE034800F0C2FA10BD00BFDC00002036
:1048F0007461000838B51D4C002160684FF4807267
:10490000FFF772FE012120600A22E068FFF76CFECB
:104910000121A0604FF47A726069FFF765FE012102
:1049200020614FF47A62E069FFF75EFE0121A06129
:104930004FF47A62606AFFF757FE42F21075206208
:1049400000212A46E06AFFF74FFE0021A0622A46B6
:10495000606BFFF749FE002120636422E06BFFF7E4
:1049600043FEA063024800F081FA38BD54000020E5
:104970009161000838B51D4C002160684FF48072C9
:10498000FFF732FE012120600A22E068FFF72CFECB
:104990000121A0604FF47A726069FFF725FE0121C2
:1049A00020614FF47A62E069FFF71EFE0121A061E9
:1049B0004FF47A62606AFFF717FE42F210752062C8
:1049C00000212A46E06AFFF70FFE0021A0622A4676
:1049D000606BFFF709FE002120636422E06BFFF7A4
:1049E00003FEA063024800F041FA38BD1C0100201C
:1049F000A861000810B50A4C6068FFF751FD6068B7
:104A00002168FFF783FDE068A168FFF77FFD60691B
:104A10002169FFF77BFD034800F028FA10BD00BFB5
:104A2000AC000020F561000838B50C4C002160682E
:104A30004FF48072FFF7D8FD094D206000212A460F
:104A4000E068FFF7D1FD0021A0602A466069FFF70A
:104A5000CBFD2061034800F009FA38BD9400002026
:104A600000286BEE1C62000838B50C4C0021606811
:104A70004FF48072FFF7B8FD094D206000212A46EF
:104A8000E068FFF7B1FD0021A0602A466069FFF7EA
:104A9000ABFD2061034800F0E9F938BDC4000020F7
:104AA00000286BEE3B62000870B50C4D01242C70A1
:104AB00072B6FFF7B9FFFFF71DFFFFF727FE62B6DB
:104AC0002E782EB9064800F0D1F92C70304670BD12
:104AD000044800F0CBF92C70204670BD7002002015
:104AE000636200087C620008F0B5C1B007460D465D
:104AF0001446684608494FF4807200F00FFA6E467B
:104B000017F8013B013D5C40EDB2345D002DF7D15B
:104B1000204641B0F0BD00BF9B5F000838B572B6BB
:104B2000FFF7E0FC4C2100223448FFF7DDFF344B57
:104B300004461860FFF7B4FDFFF734FE4C21002255
:104B40003048FFF7D1FF844203D12F4800F08EF99F
:104B500004E02E4800F08AF9FFF7A2FD3C21002274
:104B60002B48FFF7C1FF00222A49044600F0BEF996
:104B7000002229493C2000F0B9F9284B1C60FFF7BE
:104B80008BFEFFF7F7FE3C2100222548FFF7ACFF24
:104B900000222049054600F0A9F93C2000221E49C8
:104BA00000F0A4F9AC4203D11E4800F05FF904E024
:104BB0001D4800F05BF9FFF76FFE142100221B482F
:104BC000FFF792FF1A4B04461860FFF713FFFFF739
:104BD0004BFF142100221748FFF786FF844203D1C0
:104BE000154800F043F904E0144800F03FF9FFF7DE
:104BF00001FFFFF783FC62B638BD00BF60010020F3
:104C00005C010020B001002097620008BC6200082F
:104C1000E0000020EC620008F7620008DC000020E1
:104C2000200100200363000825630008B000002075
:104C3000AC000020C8000020526300087C6300081C
:104C400038B572B63C2100221948FFF74DFF00220B
:104C50001849044600F04AF9002217493C2000F0A8
:104C600045F9164B1C60FFF73DFCFFF7E7FDFFF72A
:104C700081FE3C2100221248FFF736FF00220D4939
:104C8000054600F033F93C2000220B4900F02EF9D4
:104C9000AC4203D10B4800F0E9F804E00A4800F008
:104CA000E5F8FFF7CBFDFFF729FC62B6012038BD20
:104CB00058000020ED620008F8620008540000204F
:104CC00020010020046300082663000810B572B6B6
:104CD0004C2100221048FFF707FF104B04461860D4
:104CE000FFF700FCFFF7A6FCFFF75CFD4C2100225C
:104CF0000B48FFF7F9FE844203D10A4800F0B6F8EA
:104D000004E0094800F0B2F8FFF794FCFFF7F6FB67
:104D100062B6012010BD00BF080000200400002082
:104D2000B001002098620008BD62000830B54FF461
:104D3000164387B0009300231C46ADF80430ADF84D
:104D40000630ADF80830ADF80C3004200C230121FA
:104D5000ADF80A30FEF7A8FE01214FF48040FEF7BF
:104D6000A3FE4FF4C063154DADF8103018238DF835
:104D7000133004A9032312488DF81230FBF794FF77
:104D800069462846FFF7A8F825238DF814308DF8DA
:104D900016402223012405A88DF815308DF8174000
:104DA000FFF74CFB28462146FFF7EEF8284640F275
:104DB00025512246FFF7F4F807B030BD0038014016
:104DC000000801400A4B1A78C72A0FD85A780949B7
:104DD00088541A780132D2B21A705A780132D2B29B
:104DE0005A705A78C82A01D100225A70704700BF01
:104DF0009D0600205808002010B5194C23889806FD
:104E000003D5A088C0B2FFF7DDFF2388144A190636
:104E10001AD5144B997889B1D9781348415C91809F
:104E20009A78013AD2B29A70DA780132D2B2DA7054
:104E3000DA78C82A08D10022DA7005E0938923F0D5
:104E400080031B041B0C9381054A13885B0605D560
:104E5000138823F040031B041B0C138010BD00BFFC
:104E6000003801409D0600202009002010B50446AE
:104E70000AE00D488021FFF7B0F80028F9D014F8B7
:104E8000011B0948FFF7A5F82378002BF1D106484C
:104E90008021FFF7A2F80028F9D003480A21BDE8D5
:104EA0001040FFF796B800BF0038014082B0064BB3
:104EB0008DF807001A885206FCD59DF80720024B92
:104EC0009A8002B0704700BF00380140064B1A4676
:104ED00005E019884906FCD510F8011B918001787E
:104EE0000029F6D1704700BF0038014037B5019066
:104EF0000C46019812B9FFF777F802E01146FFF768
:104F0000E7F805462046FFF7E1FF2846FFF7DEFFFA
:104F10000A2003B0BDE83040FFF7C8BF0F2AF0B445
:104F20003AD941EA00039B0738D10C46034615469F
:104F30002668103D1E6066685E60A6689E60E66832
:104F40001034DE6010330F2DF2D8A2F1100424F0DB
:104F50000F0402F00F021034032A00EB0403214473
:104F600011D90E461D46144656F8047B043C032C0A
:104F700045F8047BF8D8141F24F00304043402F02D
:104F8000030209191B192AB111F8014B013A03F860
:104F9000014BF9D1F0BC70470346F4E70346F3E751
:104FA0000000000000000000000000000000000001
:104FB000000000000000000069693A2000513A201A
:104FC000004352432843616C6962726174696F6E79
:104FD00029203D0043616C6962726174696F6E30B3
:104FE00056616C7565466F7243757272656E74209A
:104FF0003D0043616C6962726174696F6E30566125
:105000006C7565466F7243757272656E7431203DC2
:105010000043616C6962726174696F6E56616C7590
:1050200065466F7243757272656E74203D00436110
:105030006C6962726174696F6E56616C7565466FFA
:105040007243757272656E7431203D0043616C6904
:1050500062726174696F6E56616C7565466F7256E7
:105060006F6C74616765203D0043616C69627261B9
:1050700074696F6E56616C7565466F72566F6C74AD
:1050800061676531203D0043616C696272617469DA
:105090006F6E56616C7565466F72566F6C746167A2
:1050A0006532203D00526573697374616E636543B8
:1050B0006F6D705F497368756E745F576972657361
:1050C000203D00526573697374616E6365436F6D53
:1050D000705F4D4F53464554203D00435243285383
:1050E000657474696E67734461746129203D004F73
:1050F0007074696F6E31286D656E7520706F73699D
:1051000074696F6E29203D00436861726765546958
:105110006D65203D004C6F77566F6C74616765203C
:105120003D004D6178566F6C74616765203D0043AA
:1051300068617267654164617074203D00537769EE
:105140006E675F436872675F74696D65203D0053E9
:1051500077696E675F44436872675F74696D652045
:105160003D0043524328536176654461746157683A
:10517000656E506F7765724F666629203D0042610B
:105180007474657279436170616369747944697399
:1051900063686172676550726576696F7573566191
:1051A0006C7565203D00426174746572794361706D
:1051B0006163697479446973636861726765437593
:1051C0007272656E74203D00A04F0008A04F000869
:1051D000A04F0008385B000800000000000000003D
:1051E00020202020202020202020202020202020BF
:1051F00000000000A04F0008A04F0008A04F0008CA
:105200000C5B0008000000000000000020202020AF
:10521000202020202020202020202020000000000E
:10522000A04F0008A04F0008A04F0008E05A000857
:1052300000000000910D00082020202020202020C8
:10524000202020202020202000000000A04F000867
:10525000A04F0008A04F0008B45A0008000000004A
:10526000910D000820202020202020202020202018
:105270002020202000000000A04F0008A04F0008C0
:10528000A04F0008885A000800000000ED0D00083B
:10529000202020202020202020202020202020200E
:1052A00000000000A04F0008A04F0008A04F000819
:1052B000305A0008000000000000000020202020DC
:1052C000202020202020202020202020000000005E
:1052D000A04F0008A04F0008A04F0008045A000883
:1052E00000000000000000002020202020202020BE
:1052F000202020202020202000000000A04F0008B7
:10530000A04F0008A04F00085C5A000800000000F1
:10531000000000002020202020202020202020200D
:105320002020202000000000A04F0008A04F00080F
:10533000A04F0008D859000800000000000000003D
:10534000202020202020202020202020202020205D
:1053500000000000A04F0008A04F0008A04F000868
:10536000AC59000800000000610D0008202020203A
:1053700020202020202020202020202000000000AD
:10538000A04F0008A04F0008A04F00089C5700083D
:1053900000000000710D0008202020202020202087
:1053A000202020202020202000000000A04F000806
:1053B000A04F0008A04F0008C857000800000000D8
:1053C000710D0008202020202020202020202020D7
:1053D0002020202000000000A04F0008A04F00085F
:1053E000A04F00084457000800000000710D00089D
:1053F00020202020202020202020202020202020AD
:1054000000000000A04F0008A04F0008A04F0008B7
:105410007057000800000000710D000820202020B7
:1054200020202020202020202020202000000000FC
:10543000A04F0008A04F0008A04F0008C056000869
:1054400000000000710D000800000000A04F0008DF
:10545000A04F0008A04F0008EC5600080000000014
:10546000710D000820202020202020202020202036
:105470002020202000000000A04F0008A04F0008BE
:10548000A04F00081857000800000000710D000828
:10549000202020202020202020202020202020200C
:1054A00000000000A04F0008A04F0008A04F000817
:1054B0009456000800000000710D00080000000074
:1054C000A04F0008A04F0008A04F00086856000831
:1054D000000000000000000000000000A04F0008D5
:1054E000A04F0008A04F0008545900080000000019
:1054F0006D0D0008202020202020202020202020AA
:105500002020202000000000A04F0008A04F00082D
:10551000A04F00082859000800000000890E00086C
:10552000202020202020202020202020202020207B
:1055300000000000A04F0008A04F0008A04F000886
:10554000FC580008000000006D0D000820202020FD
:1055500020202020202020202020202000000000CB
:10556000A04F0008A04F0008A04F0008D058000826
:10557000000000006D0D00082020202020202020A9
:10558000202020202020202000000000A04F000824
:10559000A04F0008A04F0008A45800080000000019
:1055A0006D0D0008202020202020202020202020F9
:1055B0002020202000000000A04F0008A04F00087D
:1055C000A04F000878580008000000006D0D00088A
:1055D00020202020202020202020202020202020CB
:1055E00000000000A04F0008A04F0008A04F0008D6
:1055F0004C580008000000006D0D000820202020FD
:10560000202020202020202020202020000000001A
:10561000A04F0008A04F0008A04F00082058000825
:1056200000000000590E000820202020202020200B
:10563000202020202020202000000000C857000843
:1056400068560008A04F00088059000800000000BC
:10565000000000004F4B20746F2065786974202093
:1056600020202020000000003C560008945600082E
:10567000A04F0008C0540008000000000000000017
:105680004261636B20746F20466163746F7279208E
:105690000000000068560008C0560008A04F00082F
:1056A000A454000800000000000000005265736967
:1056B000737420636F6D7020355631410000000017
:1056C00094560008EC560008A04F0008305400081B
:1056D0000000000000000000566F6C7461676520D8
:1056E000496E20202020202000000000C056000825
:1056F00018570008A04F00084C5400080000000094
:1057000000000000566F6C74616765204F7574204F
:105710002020202000000000EC560008445700081C
:10572000A04F0008785400080000000000000000AE
:10573000566F6C7461676520505320202020202014
:10574000000000001857000870570008A04F00081C
:10575000D8530008000000000000000043555252DA
:10576000454E54204C6F6164202020200000000032
:10577000445700089C570008A04F00080454000834
:10578000000000000000000043555252454E5420D6
:105790004F75742020202020000000007057000862
:1057A000C8570008A04F0008805300080000000000
:1057B0000000000043555252454E54204C6F616426
:1057C00020746F30000000009C5700083C56000811
:1057D000A04F0008AC5300080000000000000000CB
:1057E00043555252454E54204F757420746F2030EB
:1057F000000000005459000820580008A04F00087D
:10580000645B000800000000000000004F4B2074A3
:105810006F2065786974202020202020000000007F
:10582000F45700084C580008A04F00081056000814
:10583000000000000000000030383A536176652017
:105840004D656E7520506F730000000020580008F1
:1058500078580008A04F0008E45500080000000038
:105860000000000030373A43686172676520616468
:1058700064617074000000004C580008A4580008CF
:10588000A04F0008B855000800000000000000000C
:1058900030363A53776E67446973436872672054B1
:1058A0000000000078580008D0580008A04F0008F9
:1058B0008C550008000000000000000030353A530D
:1058C00077696E67204368726720546D000000009E
:1058D000A4580008FC580008A04F000860550008B4
:1058E000000000000000000030343A4D617820567E
:1058F0006F6C74616765202000000000D0580008BC
:1059000028590008A04F0008345500080000000086
:105910000000000030333A4C6F7720566F6C746192
:105920006765202000000000FC580008545900085A
:10593000A04F00080855000800000000000000000B
:1059400030323A42617474657279207479706520DE
:105950000000000028590008F4570008A04F000874
:10596000DC540008000000000000000030313A4321
:1059700068617267652074696D6520200000000011
:10598000645B0008AC590008A04F0008C857000825
:10599000000000000000000043414C4942524154C5
:1059A000494F4E2020202020000000008059000890
:1059B000D8590008A04F0008545300080000000008
:1059C000000000004C4F47202020202020202020D5
:1059D0002020202000000000AC590008045A0008D4
:1059E000A04F00082853000800000000000000003D
:1059F000444941474E4F5354494320202020202002
:105A000000000000D8590008305A0008A04F0008D4
:105A1000D052000800000000000000005377696EBB
:105A200067202020202020202020202000000000AF
:105A3000045A00085C5A0008A04F0008A45200084D
:105A40000000000000000000547261696E696E671A
:105A5000202020202020202000000000305A0008B4
:105A6000885A0008A04F0008FC52000800000000FF
:105A700000000000436865636B696E674361706195
:105A800063697479000000005C5A0008B45A000889
:105A9000A04F00087852000800000000000000003D
:105AA00044697343686172676520202020202020AC
:105AB00000000000885A0008E05A0008A04F0008C3
:105AC0004C520008000000000000000043686172B2
:105AD000676520616464617074202020000000000C
