:020000040800F2
:10000000F80D002085020008CD020008CD0200088E
:10001000CD020008CD020008CD020008000000005B
:10002000000000000000000000000000CD020008F9
:10003000CD02000800000000CD020008CD0200083B
:10004000CD020008CD020008CD020008CD02000854
:10005000CD020008CD020008CD020008CD02000844
:10006000CD020008CD020008CD020008CD02000834
:10007000CD020008CD020008CD020008CD02000824
:10008000CD020008CD020008CD02000800000000EB
:10009000000000000000000000000000CD02000889
:1000A000CD0200082D190008CD020008CD0200087D
:1000B000CD0200086139000800000000CD020008F0
:1000C000CD0200080000000000000000CD02000882
:1000D00000000000154F0008CD02000800000000DD
:1000E000CD020008CD020008CD020008000000008B
:1000F0000000000000000000000000000000000000
:1001000000000000000000000000000000000000EF
:100110000000000000000000CD020008D518000813
:100120005FF808F1014B1868704700BF000000201D
:10013000084B10B598420BD050B1074B074C1B68C9
:1001400020600BB11830984723681B6903B19847AA
:1001500010BD00BFBC500008740200200000002049
:10016000024B1860024B1868FFF7E2BF74020020D0
:100170000000002008B5054B054A1B68934203D0D8
:1001800013B15B6903B1984708BD00BF00000020B0
:10019000BC500008224A038890429BB212D002F55C
:1001A000006290420ED0B0F1804F0BD0A2F5983291
:1001B000904207D002F58062904203D002F580623F
:1001C000904203D14A8823F070031343154A9042AA
:1001D00008D002F58062904204D023F44073CA88AC
:1001E0009BB2134303808B8883850B8803850C4B5C
:1001F00098420FD003F5006398420BD003F540639B
:10020000984207D003F58063984203D003F58063DA
:10021000984201D10B7A038601238382704700BF85
:10022000002C0140001000404FF6FF738380002334
:100230000380C380438003727047038819B19BB267
:1002400043F0010303E023F001031B041B0C0380B4
:10025000704783899BB20AB1194301E023EA010187
:1002600081817047038A828911EA030092B203D028
:1002700011420CBF002001207047C94389B201829E
:100280007047000008B50C4A0C4B0D4903E052F8CA
:10029000040B43F8040B8B42F9D30A480A494FF088
:1002A00000028842B8BF40F8042BFADB00F018FACD
:1002B000BDE8084002F068BFD164000800000020DB
:1002C0007402002074020020F4090020FEE7000000
:1002D0002DE9F843564D0646286803F013FF2B68B6
:1002E00011210024594304E00A19AA18013413719A
:1002F000E4B2035D4E4A002BF6D113681121594335
:10030000081910183A25057104E00F2C09D80D19A9
:100310005519287116F8010B0134E4B20028F4D104
:100320000DE0112202FB034241498A18002111719C
:1003300005E01819081801340271E4B203E0112233
:100340003B49534320220F2C394DF2D9002220463D
:10035000384904F059FE2B68112202FB0344013393
:100360002A190024172B14712B6057D90A26A0468E
:100370002F46204603F0C6FE4FF0110E00230EFB61
:1003800004FE05E00EEB0301691801330A71DBB2CC
:10039000C25C1121002AF5D101FB04F27143D0188F
:1003A00038184FF03A0E013380F804E0DBB294467F
:1003B0005FFA84FE681810E0BEF1090F05D901EB61
:1003C0000309A94499F8049003E000EB030999F8A4
:1003D0000590013382F80490DBB20CEB0302AA18FB
:1003E00092F80490B9F1000FE6D1013B1121DBB284
:1003F0006143202204E0C818281801330271DBB2DF
:100400000F2BF8D9112202FB04330134FB180136FB
:100410000E2C83F80480ACD1054B1C6004F02CF941
:10042000034B054918680022BDE8F84304F0ECBD11
:10043000B0060020D4500008D95000082DE9F0473C
:10044000554F054638680E4603F05CFE3B681121A7
:100450000024594304E00A19BA1801341371E4B2B4
:10046000035D4D4A002BF6D1136811215943081939
:100470001018067104E00F2C09D80F19D71938711C
:1004800015F8010B0134E4B20028F4D10DE011227B
:1004900002FB034240498A180021117105E0181936
:1004A000081801340271E4B203E011223A495343BF
:1004B00020220F2C384DF2D900222046374904F073
:1004C000A3FD2B68112202FB034401332A190024E7
:1004D000172B14712B6054D90A27A146A846204631
:1004E00003F010FE4FF0110E00230EFB04FE05E09A
:1004F0000EEB0301691801330A71DBB2C25C1121F2
:10050000002AF5D101FB04F27943D01840440133AD
:100510000671DBB294465FFA84FE681810E0BEF103
:10052000090F05D901EB030AAA449AF804A003E0D5
:1005300000EB030A9AF805A0013382F804A0DBB2AD
:100540000CEB0302AA1892F804A0BAF1000FE6D14E
:10055000013B1121DBB26143202204E0C8182818B6
:1005600001330271DBB20F2BF8D9112202FB0433E5
:100570000134434401370E2C83F80490AFD1064B6D
:100580001C6004F079F8044B054918680022BDE8A6
:10059000F04704F039BD00BFB0060020D450000879
:1005A000D950000810B5384C00222068374904F0B3
:1005B0002BFDA0680022364904F026FD20690022A8
:1005C000344904F021FDA0690022334904F01CFDE8
:1005D000206A0022314904F017FDA06A0022304948
:1005E00004F012FD206B00222E4904F00DFDA06BDB
:1005F00000222D4904F008FD206C00222B4904F054
:1006000003FDA06C00222A4904F0FEFC206D0022AC
:10061000284904F0F9FCA06D0022274904F0F4FCFD
:10062000206E0022254904F0EFFCA06E0022244930
:1006300004F0EAFC206F0022224904F0E5FCD4F823
:1006400088000022204904F0DFFCA06F1F4900222F
:1006500004F0DAFCD4F8800000221D4904F0D4FC38
:10066000D4F8900000221B4904F0CEFCD4F8980086
:100670000022194904F0C8FCD4F8A0001749002250
:10068000BDE8104004F0C0BC04000020DD500008AC
:10069000F05000080E5100082D5100084D5100087F
:1006A0006E5100088F510008AA510008C851000877
:1006B000E6510008FE510008125200082B520008B3
:1006C0003852000845520008525200086052000893
:1006D0007252000885520008A1520008C952000851
:1006E000314B82B01A6842F001021A6059682F4AF1
:1006F0000A405A601A6822F0847222F480321A602A
:100700001A6822F480221A605A6822F4FE025A60A3
:100710004FF41F029A600022DA62009201921A6876
:1007200042F480321A601A6802F400320192009A90
:1007300001320092019A1AB9009AB2F5A06FF2D173
:10074000194B1B6813F4003318BF01230193019B5D
:10075000012B23D1144B5A685A605A685A605A6860
:100760005A605A6822F47C125A605A6842F498120D
:100770005A601A6842F080721A6019680A4A890140
:10078000FBD5536823F003035360536843F002031F
:100790005360536803F00C03082BFAD1044B4FF05D
:1007A00000629A6002B07047001002400000FFF83B
:1007B00000ED00E084B0ADF80600BDF806304FF45F
:1007C000FA629BB2534301E0039B013B0393039BFB
:1007D000002BF9D104B0704784B0ADF80600BDF825
:1007E00006309BB25B0001E0039B013B0393039B3C
:1007F000002BF9D104B0704710B5074C4FF480437B
:1008000023610220FFF7E8FF4FF0804302202361BD
:10081000BDE81040FFF7E0BF000C014070B50F4C81
:100820004FF07C454FF4805625612661FFF7E4FFC9
:100830000120FFF7BFFF25612661FFF7DDFF0120E3
:10084000FFF7B8FF4FF4806325612361FFF7D4FF02
:100850000120BDE87040FFF7ADBF00BF000C0140B4
:10086000254B4FF07C4270B504460D461A6111B11C
:100870004FF400421A61E20644BF4FF400521A617D
:100880001D4B14F0200F1CBF4FF480521A616606F6
:1008900044BF4FF400621A61174E14F0800F1CBF62
:1008A0004FF480633361FFF7A7FF4FF07053E00709
:1008B000336103D5104B4FF400521A61A10703D5E1
:1008C0000D4B4FF480521A61620703D50A4B4FF467
:1008D00000621A61230703D5074B4FF480621A6147
:1008E000FFF78AFF0220FFF765FF1DB1024B4FF0B3
:1008F00000421A6170BD00BF000C0140034610B9F0
:10090000082019460BE021B90AB90C2003E00D209C
:1009100005E012B90E20114601E00F200021FFF77B
:100920009FBF01200021FFF79BBF08B56420FFF7A0
:1009300041FFFFF773FF012001460022FFF7DEFFB2
:10094000BDE80840FFF7EDBFC0B20121FFF788BF47
:10095000054B1870597011B940F0800002E040F06A
:10096000C0000021FFF77CBF840200202DE9F8437E
:1009700089460646DFF86C800127194C29E0B22829
:1009800001D1492011E0AF2801D103200DE0DE287C
:1009900002D10120014609E0AA2801D1022004E089
:1009A000BF2884BF404410F8C00C0121FFF758FF56
:1009B000237865780133DBB2237055B9082B08D151
:1009C000B9F1020F05D128460121FFF7C1FF2570BB
:1009D000677016F8010B0028D1D1BDE8F88300BF7D
:1009E00084020020FC01002070B506460D4600245C
:1009F0000CE00121FFF734FF012D06D1E3B2072BF4
:100A000003D100202946FFF7A3FF0134305D002801
:100A1000EFD170BDC00040F0400038B5C0B20D4607
:100A20000021FFF71DFF0024285D01210134FFF79D
:100A300017FF082CF8D180200021BDE83840FFF7CF
:100A40000FBF2DE9F3410025042415271F264FF081
:100A50000E08284669468DF800408DF803408DF851
:100A600005408DF801708DF802808DF804508DF8E6
:100A700006608DF80760FFF7CDFF012069468DF80D
:100A800002408DF806408DF800708DF801808DF8D9
:100A900003508DF804508DF805508DF80760FFF76E
:100AA000B9FF022069468DF801408DF805408DF8A8
:100AB00000508DF802808DF803708DF804508DF889
:100AC00006608DF80760FFF7A5FF032069468DF8E3
:100AD00000408DF803408DF806408DF801808DF8B8
:100AE00002708DF804508DF805508DF80760FFF7FF
:100AF00091FF204669468DF800408DF803408DF83F
:100B000004408DF807408DF801808DF802708DF853
:100B100005708DF80680FFF77DFF02238DF8003009
:100B20000A238DF803308DF804301C2307248DF838
:100B300005308DF806300520082369468DF807300A
:100B40008DF801408DF80240FFF764FF0F238DF808
:100B5000003005238DF801308DF802308DF8033018
:100B60008DF804300620092369468DF806308DF88B
:100B700005708DF80750FFF74DFF11238DF80030F9
:100B80008DF801308DF802302046012369468DF83A
:100B900003608DF804308DF805308DF806308DF83F
:100BA0000750FFF737FFBDE8FC810221FFF7DEBEEB
:100BB00010B5044608461146FFF7CAFE204602213A
:100BC000BDE81040FFF7D2BE08B5364B5A6822F494
:100BD00040725A605A6842F400725A605A6822F4AD
:100BE00040625A605A6842F480625A605A6822F43D
:100BF00040525A605A6842F400525A605A6822F4CD
:100C000040425A605A6842F480425A605A6822F45C
:100C100040325A605A6842F400325A605A6822F4EC
:100C200040225A605A6842F480225A605A6822F47C
:100C300040125A605A6842F400125A605A6822F40C
:100C400040025A605A6842F480025A605A6822F0A0
:100C500040725A605A6842F000725A605A6822F034
:100C600040625A605A6842F080625A605A6822F0C4
:100C700040525A605A6842F000525A605A6822F054
:100C800040425A605A6842F080425A60FFF74DFE77
:100C9000FFF747FE002101200A46BDE80840FFF7A4
:100CA0002DBE00BF000C0140CB782DE9F04303F0CE
:100CB0000F02DB0648BF8B780E8848BF1A4316F038
:100CC000FF0F1FD0046800234FF001084FF00F0CF6
:100CD00008FA03F707EA0605BD420FD19F000CFA98
:100CE00007F902FA07F724EA09043C43CF78282FD2
:100CF00001D1456102E0482F08BF05610133082B8F
:100D0000E6D104600E88FF2E21D9446800234FF0FD
:100D100001084FF00F0C03F1080708FA07F707EA7C
:100D20000605BD420FD19F000CFA07F902FA07F73A
:100D300024EA09043C43CF78282F01D1456102E021
:100D4000482F08BF05610133082BE4D14460BDE89A
:100D5000F083836819420CBF002001207047000017
:100D6000014B00221A8070478802002003F0F6BF72
:100D700008B504F039F80248BDE80840FFF7A8BA02
:100D8000B45C000818B100210A46FFF711BF704794
:100D900010B5134C002290B06068124904F034F989
:100DA000626849F6AF239A4217D90BA9A06803F0ED
:100DB00043FB60684FF46163B0FBF3F001A903F0FB
:100DC000DBF909490BAA06AB03F0A2FA06A8012138
:100DD000FFF734FB06A804F0D7F810B010BD00BF31
:100DE00088020020C05C0008C85C000810B50F4CE9
:100DF00049F6AF23E26890B09A4214D90BA9206952
:100E000003F01AFBE0684FF46163B0FBF3F001A953
:100E100003F0B2F906490BAA06AB03F079FA06A86B
:100E20000221FFF70BFB10B010BD00BF88020020AD
:100E3000C85C000884B0ADF80600BDF806304FF479
:100E400016629BB2534301E0039B013B0393039B58
:100E5000002BF9D104B0704708B507200121FFF736
:100E600077FDFF200121FFF7FBFC03F077FF044B28
:100E7000C8209A68034B1A60BDE80840FFF7DABF44
:100E8000540000206008002008B53E4B93F9140080
:100E900060B90146FFF75CFD3B48FFF786FE3B4B20
:100EA0004FF487629A6102F5BE721A62354B93F96C
:100EB0001430012B0DD100200146FFF749FD3448C5
:100EC000FFF773FE314B4FF496729A614FF4D27272
:100ED0001A622C4B93F91430022B0DD100200146DD
:100EE000FFF736FD2B48FFF760FE284B4FF48C725E
:100EF0009A614FF4B9721A62224B93F91430032BA2
:100F00000CD100200146FFF723FD2348FFF74DFEDB
:100F10001E4BA0229A614FF48C721A62194B93F9FE
:100F20001430042B0DD100200146FFF711FD1B48A2
:100F3000FFF73BFE154B4FF448729A614FF4AA62DB
:100F40001A62104B93F91430052B0CD10020014686
:100F5000FFF7FEFC1248FFF728FE0C4B64229A6153
:100F60004FF4FA621A62074B93F91420062A01D152
:100F700000221A7503F0F2FE4FF41670BDE8084027
:100F8000FFF758BF88020020CC5C00085400002006
:100F9000DD5C0008EE5C0008FF5C0008105D0008E6
:100FA000215D000882B00190019A4FF0804392B217
:100FB0009A8500229A8409221A80198A4FF0804269
:100FC000C907FAD5138A23F001031B041B0C1382F3
:100FD00002B0704738B505462D4C0020012301466C
:100FE0006375FFF7B5FC2B4B0221188880B203F024
:100FF000FDF8FFF7DAFD2848FFF7D7FD00210720AD
:10100000FFF7A6FC254B188800B203F07BF8FFF72A
:10101000CCFD2348FFF7C9FD062D10D1FFF782F85C
:10102000C068FFF785F8FFF77DF80068FFF780F8E4
:10103000FFF778F8C068BDE83840FFF779B8022DAF
:1010400012D1184BE28A1B88D3189BB2E382E28A42
:1010500040F6FF7312B29A42C8BFE3820C4BDA8AA1
:10106000114B12B29A6038BD012D10D10D4BE28A9E
:101070001B88D31A9BB2E382E38A1BB2002B01DCEC
:101080000023E382024BDA8A074B12B29A6038BD22
:10109000880200205E060020325D00086006002005
:1010A000365D00081C0200200074004008B5334B78
:1010B000012206285A750FD1FFF734F8C068FFF7F0
:1010C00037F8FFF72FF84068FFF732F8FFF72AF8F4
:1010D000C068FFF72DF820E00228294B0BD1598872
:1010E0001A888A1892B25A80598840F6FF7209B25B
:1010F00091420DDD0BE001280FD159881A888A1A18
:1011000092B25A805A8812B2002A01DC00225A8018
:101110001B4B5A881B4B12B25A6100200146FFF745
:1011200017FC194B0221188880B203F05FF8FFF713
:101130003CFD1648FFF739FD00210720FFF708FCAA
:10114000134B188800B202F0DDFFFFF72EFD1148A7
:10115000FFF72BFD01210320FFF7FAFB0E48FFF7F5
:1011600024FD074B588800B202F0CCFFFFF71DFDAD
:101170000A48BDE80840FFF718BD00BF88020020FC
:101180001C020020007400405E060020415D000843
:1011900060060020445D00084A5D0008CC5E00083F
:1011A00008B5364B012205285A7514D1FEF7BAFF4F
:1011B000C068FEF7BDFFFEF7B5FF4068FEF7B8FF59
:1011C000FEF7B0FF4068FEF7B3FFFEF7ABFFC06865
:1011D000FEF7AEFF21E002280CD1294AD98A1288F5
:1011E0008A1892B2DA82D98A40F6FF7209B2914225
:1011F0000EDD0CE0012810D1214AD98A12888A1A02
:1012000092B2DA82DA8A12B2002A01DC0022DA8291
:101210001A4BDA8A1B4B12B29A6000200146FFF784
:1012200097FB194B0221188880B202F0DFFFFFF70D
:10123000BCFC1648FFF7B9FC00210620FFF788FB2D
:10124000134B188800B202F05DFFFFF7AEFC1148A7
:10125000FFF7ABFC01210320FFF77AFB0E48FFF7F5
:10126000A4FC064BD88A00B202F04CFFFFF79DFCAD
:101270000A48BDE80840FFF798BC00BF880200207C
:101280001C020020007400405E060020325D000851
:101290007C0200204C5D00083B5E0008CC5E00082C
:1012A00010B596B000230446084610A98DF85420C6
:1012B0008DF8553003F0C0F84FF4616001A9B4FB1C
:1012C000F0F002F059FF10AA06AB074903F020F82E
:1012D00006A915A80BAA03F002F80BA80421FFF732
:1012E000ADF816B010BD00BFC85C0008022838B5C4
:1012F0001E4B09D11A881E49013292B209681A8020
:1013000012B28A4213D310E0012810D11A88013A90
:1013100092B210041A8003D5154A1268013A1A8055
:10132000124BB3F90020002A01DA00221A800020B3
:101330000F4C0146FFF70CFB0C4D234653F8040BF2
:10134000B5F900200138801A112202FB0030FFF7A6
:101350002CFCB5F900000022064903F055FE206878
:1013600005490022BDE8384003F04EBE8802002047
:10137000B0060020515D00085E5D000810B504460F
:1013800000200146FFF7E4FA0A4B188800B202F089
:10139000B9FEFFF70AFC0848FFF707FC022C08D14A
:1013A000064B1A88064B12B29A60BDE8104003F053
:1013B0001BBD10BD60060020715D00087C0200208E
:1013C0000400002010B5044600200146FFF7C0FAD3
:1013D0000A4B188800B202F095FEFFF7E6FB0848BA
:1013E000FFF7E3FB022C08D1064B1A88064B12B21A
:1013F0001A61BDE8104003F0F7BC10BD6006002084
:10140000715D00087E0200200400002010B5044633
:1014100000200146FFF79CFA1648FFF7C6FB022C96
:1014200027D103F009FC03F0CDFB04460020014660
:10143000FFF78EFA1048FFF7B8FB4FF4FA60FFF79A
:10144000F9FC00200146FFF783FA012C08D10B4874
:10145000FFF7ABFB0A48FEF73BFF4FF4FA6004E0EE
:101460000848FFF7A2FB4FF47A60BDE81040FFF791
:10147000E1BC10BD805D0008915D0008A25D000820
:10148000B35D0008C25D0008022810B50E4C02D101
:101490002369013303E0012802D12369013B236161
:1014A00000200146FFF754FA206902F02BFEFFF7F7
:1014B0007CFB0648FFF779FB23694FF461625A43CE
:1014C000034B1A6010BD00BF54000020D35D00081C
:1014D00050080020022810B5324B07D11A7D013286
:1014E000D2B2072A1A750BD1002208E0012807D1D1
:1014F0001A7D013AD2B214061A7501D506221A7560
:10150000284C94F9140028B90146FFF721FA26481F
:10151000FFF74BFB94F91430012B06D10020014654
:10152000FFF716FA2148FFF740FB1E4C94F91430E0
:10153000022B06D100200146FFF70AFA1C48FFF7EC
:1015400034FB94F91430032B06D100200146FFF739
:10155000FFF91848FFF729FB124C94F91430042BBB
:1015600006D100200146FFF7F3F91348FFF71DFBF2
:1015700094F91430052B06D100200146FFF7E8F955
:101580000E48FFF712FB074B93F91430062B08D1D6
:1015900000200146FFF7DCF90948BDE81040FFF7DD
:1015A00004BB10BD88020020D85D0008E95D00087A
:1015B000FB5D00080C5E00081C5E00082D5E000844
:1015C0003D5E0008022810B50D4C02D1A3690A3314
:1015D00003E0012802D1A3690A3BA3610020014670
:1015E000FFF7B6F9A0690A23B0FBF3F0012102F07E
:1015F000FDFDFFF7DAFA0348BDE81040FFF7D5BA62
:1016000054000020E95C0008022810B50D4C02D1FE
:10161000236A0A3303E0012802D1236A0A3B2362CA
:1016200000200146FFF794F9206A0A23B0FBF3F08B
:10163000012102F0DBFDFFF7B8FA0348BDE81040D6
:10164000FFF7B3BA54000020E95C0008022810B587
:101650000B4C02D1A36A013303E0012802D1A36A33
:10166000013BA36200200146FFF772F9A06A02F075
:1016700049FDFFF79AFA0348BDE81040FFF795BA15
:10168000540000204D5E0008022810B50B4C02D11A
:10169000236B013303E0012802D1236B013B236359
:1016A00000200146FFF754F9206B02F02BFDFFF7F5
:1016B0007CFA0348BDE81040FFF777BA54000020D9
:1016C0004D5E0008022838B51A4C02D1A36B0133D5
:1016D00003E0012802D1A36B013BA3630020014674
:1016E000FFF736F9A06B02F00DFDFFF75EFA124826
:1016F000FFF75BFA206A0A250121B0FBF5F002F042
:1017000075FDFFF752FA0D48FFF74FFA236AA06BF9
:1017100064225843B0FBF2F01B1AB3FBF5F0012131
:1017200002F064FDFFF741FA0548BDE83840FFF7D5
:101730003CBA00BF54000020565E0008415D00081E
:10174000E95C000808B5084B1A68084B9B689A4288
:1017500009D107200121FFF7FBF8FF200121BDE897
:101760000840FFF77DB808BD600800205400002045
:1017700010B5044600200146FFF7EAF8022C194B89
:1017800006D19A680132082A9A6009D1012206E03E
:10179000012C05D19A68013A9A600AB907229A6029
:1017A000104A9368013B062B18D8DFE803F00406C3
:1017B000080A0C0E10000C480AE00C4808E00C481F
:1017C00006E00C4804E00C4802E00C4800E00C483D
:1017D000FFF7EBF9BDE81040FFF7B4BF01239360BA
:1017E00010BD00BF54000020595E00086A5E00086A
:1017F0007B5E00088C5E00089D5E0008AE5E0008FF
:10180000BF5E000838B54FF400612F48FFF7A1FA1A
:101810004FF48071D0F101042B4838BF0024FFF74A
:1018200098FA10B944F00204E4B228481021FFF7F6
:1018300090FAB8B125482021FFF78BFAA0B12348D0
:101840004021FFF786FA88B120488021FFF781FA0E
:1018500070B11D484FF48051FFF77BFA00282DD15D
:10186000082306E0032304E0052302E0062300E04A
:101870000723174A40F2DC50118B0DB2854203DD7D
:1018800040F2B451118304E0013189B2142911836B
:1018900001D1937638BD0E4BDA7E02F003018C4203
:1018A00010D044EA8204E4B2E12CDC7601D10222B9
:1018B00002E0D22C06D101229A7638BD044B0022D8
:1018C0001A83E8E738BD00BF00080140000C014062
:1018D0008802002008B511480121FEF7C3FCD8B1E9
:1018E00001210E48FEF7C9FCFFF78CFF0C4BDA69AB
:1018F0000132DA610B4B1A8892B2B2F57A7F02D9C3
:10190000094A012111611B889BB2B3F5617F03D2A3
:10191000054B4FF480321A6108BD00BF001400402F
:10192000880200205E060020000C014038B52048E7
:101930000121FEF797FC002838D001211C48FEF752
:101940009CFC1C4B1A8812B2012A07DC1A4CE56871
:10195000188800B202F0B4FC4519E560154B1A88EE
:1019600012B2022A07DD144C6568188800B202F032
:10197000A7FC45196560104B93F82020012A02D17D
:101980009A6801329A6093F821300B4A012B02D1F8
:10199000136901331361084B93F82220012A02D105
:1019A0005A6A01325A629A6A01329A6238BD00BF9D
:1019B000004401406006002088020020034B002202
:1019C0005A62012283F82220704700BF880200205B
:1019D000034B00225A62012283F82220704700BF85
:1019E0008802002038B504464FF46160B4FBF0F083
:1019F00002F088FB054602F069FC012803D8124872
:101A00000121FEF7F1FF01212846FEF7EDFF01213C
:101A10000E48FEF7E9FF3C23B4FBF3F4B4FBF3F00C
:101A200003FB104002F06EFB044602F04FFC01285D
:101A300003D805480121FEF7D7FF20460121BDE864
:101A40003840FEF7D1BF00BFD05E00083C60000800
:101A5000074B4FF400321A614FF48032A3F58063D4
:101A60001A61044B002283F82C2083F82D20704744
:101A7000000C014088020020054B02221A61054A31
:101A8000012382F82C3082F82D30034A136170470D
:101A9000000C0140880200200008014038B52C4BA2
:101AA000012205465A75FFF7E7FF022D294C02D1A6
:101AB000A388013303E0012D02D1A388013BA38059
:101AC00000200146FEF744FF0221A08802F08EFBB1
:101AD000FFF76BF82048FFF768F8204B204A18887A
:101AE000138880B21BB2002BA1881E4B01DC46225A
:101AF0000AE0401A118802B222EAE27242F2107041
:101B0000424309B292FBF1F2164C1A64206C02F0C7
:101B1000F9FAFFF74AF81448FFF747F8134B19880A
:101B20000E4B89B21A880E4B92B2188800B2002868
:101B300001DC0A230AE0891A1A880BB223EAE3734C
:101B400042F210714B4312B293FBF2F3A36438BD1F
:101B5000880200201C020020415D00088002002055
:101B60006006002004000020D25E000882060020EB
:101B700038B5174B012205465A75FFF77DFF022D38
:101B8000144C02D1A36B013303E0012D02D1A36BEE
:101B9000013BA36300200146FEF7DAFEA06B02F0D2
:101BA000B1FAFFF702F80C48FEF7FFFF0020012111
:101BB000FEF7CEFE094B0221188880B202F016FB18
:101BC000FEF7F3FF0648BDE83840FEF7EEBF00BF62
:101BD0008802002004000020CC5E0008800600205F
:101BE000325D000838B5174B012205465A75FFF7DC
:101BF00043FF022D144C02D1236B0A3303E0012D65
:101C000002D1236B0A3B236300200146FEF7A0FEAE
:101C1000206B02F077FAFEF7C8FF0C48FEF7C5FF0D
:101C200000200121FEF794FE094B0221188880B2A2
:101C300002F0DCFAFEF7B9FF0648BDE83840FEF7CF
:101C4000B4BF00BF8802002004000020CC5E000862
:101C50005E060020325D000838B5174B01220546AC
:101C60005A75FFF709FF022D144C02D1A36A013304
:101C700003E0012D02D1A36A013BA36200200146CB
:101C8000FEF766FEA06A02F03DFAFEF78EFF0C48F2
:101C9000FEF78BFF00200121FEF75AFE094B0221BF
:101CA000188880B202F0A2FAFEF77FFF0648BDE86E
:101CB0003840FEF77ABF00BF8802002004000020F1
:101CC000CC5E000882060020325D000838B5164B55
:101CD000012205465A75FFF7CFFE022D134C02D1A3
:101CE000A369013303E0012D02D1A369013BA36184
:101CF00000200146FEF72CFEA06902F003FAFEF771
:101D000054FF0B48FEF751FF01210020FEF720FE93
:101D1000084B188800B202F0F5F9FEF746FF0648B6
:101D2000BDE83840FEF741BF8802002004000020D3
:101D3000CC5E00087C020020DD5E0008034B01221F
:101D400083F82C2083F82E20704700BF88020020E3
:101D500010B50B4C94F92F30022B10D0022384F8CD
:101D60002F30FFF775FEFFF7E9FF00233220E36114
:101D7000FFF718F90348BDE8104003F005B910BD9E
:101D800088020020E25E000808B5FFF761FEFFF759
:101D9000D5FF3220BDE80840FFF704B938B5164B2F
:101DA000012205465A75FFF7EFFF022D134C02D1B1
:101DB000236A013303E0012D02D1236A013B236230
:101DC00000200146FEF7C4FD206A02F09BF9FEF7F1
:101DD000ECFE0B48FEF7E9FE01210020FEF7B8FDFE
:101DE000084B188800B202F08DF9FEF7DEFE0648B7
:101DF000BDE83840FEF7D9BE88020020040000206C
:101E0000CC5E00087E020020DD5E0008034B00224D
:101E100083F82C2083F82E20704700BF8802002012
:101E200008B5FFF7F3FFBDE80840FFF711BE00005B
:101E300038B5834B012193F83020054659754AB9CE
:101E400083F8202083F8301083F8212083F8312094
:101E5000DA601A617B4B7C491A88896992B2784BA7
:101E60008A425A8601D3002205E093F831200AB94C
:101E70009A6A5A63012283F831209A6A5B6B704C2C
:101E8000D31A032B07D994F8313023B1FFF7C8FFD9
:101E9000002384F82130022D694C0CD194F82C30A9
:101EA0001BB9FFF771FF012302E0FFF7B9FF002321
:101EB00084F821300CE0012D0AD194F83830013B30
:101EC000DBB21D0684F8383002D5032384F838309D
:101ED0005B4C94F93800002835D10146FEF738FDF7
:101EE000584B0221188880B202F080F9FEF75DFE9F
:101EF0005648FEF75AFE564B188800B202F002F917
:101F0000FEF753FE5348FEF750FE94F82C3013B9F9
:101F10000720012105E094F8393007200121052B25
:101F200003D8FEF715FD022002E0FEF711FD0320A5
:101F30000121FEF709FD424B93F839200A2A02D904
:101F4000002283F839203E4B93F93840012C13D1FD
:101F500000200146FEF7FCFC3F48FEF726FE3A4B08
:101F6000214698690A23B0FBF3F002F03FF9FEF72F
:101F70001CFE3A48FEF719FE314C94F93830022B1A
:101F80001AD100200146FEF7E3FC3548FEF70DFEAE
:101F9000344B98684FF46163B0FBF3F002F0B2F891
:101FA000FEF703FE3048FEF700FE03200121FEF796
:101FB000CFFCE06BFFF716FD214C94F93850032D50
:101FC00019D100200146FEF7C3FC2848FEF7EDFDBD
:101FD000E0684FF46163B0FBF3F002F093F8FEF7B2
:101FE000E4FD2348FEF7E1FD28460121FEF7B0FCA1
:101FF0002069FFF7F7FC124C002294F830001D49CD
:1020000003F002F8607D00221B4902F0FDFF94F806
:1020100020000022194902F0F7FFA06800221849A9
:1020200002F0F2FF94F821000022164902F0ECFFC2
:10203000206915490022BDE8384002F0E5BF00BF25
:10204000880200205E06002054000020415D000848
:1020500060060020035F00080C5F0008E95C0008D0
:10206000185F0008940000201B5F0008245F000830
:10207000275F0008305F00083E5F0008535F0008DC
:10208000685F0008785F0008905F000810B50B4C8F
:1020900094F92F30012B10D0012384F82F30FFF753
:1020A000B5FEFFF7E9FC00233220E361FEF77AFF7B
:1020B0000348BDE8104002F067BF10BD8802002051
:1020C000E55E000870B5044600200146FEF740FCBE
:1020D0006F4B012293F830105A751E4619B983F8D8
:1020E0003020FFF76BFC726A6A4E694DB36A9A4200
:1020F00011D8FFF7CBFF684B1A88336A92B29A4225
:1021000009D9EB69B3F5C87F05D9FFF761FC6A6AA5
:10211000B36AD3186B625E4D5E4E6A6AB36A9A42C6
:102120000DD9FFF715FE5C4B1A88B36992B29A423B
:1021300005D2EB69B3F5C87F01D9FFF749FC554BD0
:102140006A6A196B9B6ACB189A4201D9FFF740FC67
:10215000022C4F4B09D193F838200132D2B2032A16
:1021600083F838200ED100220AE0012C0AD193F81E
:102170003820013AD2B283F83820120602D5022262
:1021800083F83820424D95F93840002C32D1204652
:102190002146FEF7DDFB404B0221188880B202F099
:1021A00025F8FEF702FD3D48FEF7FFFC3C4B188882
:1021B00000B201F0A7FFFEF7F8FC3A48FEF7F5FC85
:1021C00006200121FEF7C4FB05200121FEF7BCFB20
:1021D00095F82D500720012D05D12946FEF7B8FBB3
:1021E0002046294604E00121FEF7B2FB022001212E
:1021F000FEF7AAFB264B93F93840012C23D100208F
:10220000244D0146FEF7A4FB286901F07BFFFEF791
:10221000CCFC2548FEF7C9FCA8690A262146B0FB7C
:10222000F6F001F0E3FFFEF7C0FC1C48FEF7BDFC32
:10223000286A2146B0FBF6F001F0D8FFFEF7B5FCA6
:102240001A48FEF7B2FC124C94F93830022B1DD11B
:102250000020104D0146FEF77BFBA86A01F052FFFB
:10226000FEF7A3FC1248FEF7A0FC286B01F04AFF22
:10227000FEF79BFC0F48FEF798FC03200121FEF7B8
:1022800067FB2069BDE87040FFF7ACBB70BD00BFC5
:1022900088020020540000205E060020415D0008F6
:1022A00060060020A35F0008586300082B5D00084B
:1022B00055600008AB5F000870B5774B05465C7D44
:1022C000002C3BD1754B1A88754B92B21B6A0533B3
:1022D0009A4215D221462046FEF73AFB7148FEF796
:1022E00064FC4FF4FA60FEF75DFE20462146FEF7DF
:1022F0002FFB6D48FEF759FC40F6B830FEF752FE52
:10230000654B002401265E7583F8204083F8214048
:102310009C601C61DC635C60DC6083F82060FFF71C
:10232000B5FE624B2046DE712146FEF711FB604888
:10233000FEF73BFC4FF47A70FEF734FE5D4B1888D5
:1023400000B201F0BDFF052840F369815A4B1A889D
:10235000534B92B29B699A421DD2544BDA79022AAE
:1023600019D14D4CE369B3F57A7F14D9002384F871
:102370002130E168514B994203D9E0682169FEF7A9
:102380008FFF00230126A360636084F82060FFF7BD
:102390007DFE464BDE71484B1A88414B92B21B6A58
:1023A0009A423D4B07D9414AD279012A03D1DA69D1
:1023B000B2F57A7F08D89A68414B1B689A4220D9B7
:1023C0003A4BDB79012B1CD1334C002384F82030AD
:1023D00062683A4B9A4204D960680122A168FEF70C
:1023E0005FFF2369E363E268364B9A600023236151
:1023F000E360012384F82130FFF7AAFC2B4B022273
:10240000DA71022D244B09D193F838200132D2B26F
:10241000052A83F838200ED100220AE0012D0AD1C6
:1024200093F83820013AD2B2110683F8382002D549
:10243000042283F83820184D95F93840002C4ED1ED
:1024400020462146FEF784FA1B4B0221188880B2F1
:1024500001F0CCFEFEF7A9FB1B48FEF7A6FB154BCF
:10246000188800B201F04EFEFEF79FFB1748FEF7FA
:102470009CFB06200121FEF76BFA04200121FEF7E8
:1024800063FA95F82D500720012D21D12946FEF73A
:102490005FFA2046294620E08802002082060020BC
:1024A00054000020B35F0008C45F00081C02002035
:1024B000D55F0008600600205E0600204F8C0500F6
:1024C0005008002094000020415D0008A35F000830
:1024D0000121FEF73DFA02200121FEF735FA6A4B91
:1024E00093F93840012C23D10020684D0146FEF7B6
:1024F0002FFA286901F006FEFEF757FB6448FEF745
:1025000054FBA8690A262146B0FBF6F001F06EFEE6
:10251000FEF74BFB5F48FEF748FB286A2146B0FBFD
:10252000F6F001F063FEFEF740FB5B48FEF73DFB73
:10253000554C94F93850022D21D100200146FEF768
:1025400007FA28460121FEF7FFF900210120FEF7D6
:10255000FFF95248FEF729FBE0684FF46163B0FBD6
:10256000F3F001F0CFFDFEF720FB4D48FEF71DFB19
:1025700003200121FEF7ECF92069FFF733FA424C02
:1025800094F93850032D21D100200146FEF7E0F9DF
:1025900000200121FEF7D8F900210120FEF7D8F92B
:1025A0003E48FEF702FB60684FF46163B0FBF3F056
:1025B00001F0A8FDFEF7F9FA3948FEF7F6FA2846C9
:1025C0000121FEF7C5F9A068FFF70CFA2E4C94F92B
:1025D0003830042B2FD100200146FEF7B9F9022034
:1025E0000121FEF7B1F900210120FEF7B1F92D48D4
:1025F000FEF7DBFA2C4B98684FF46163B0FBF3F005
:1026000001F080FDFEF7D1FA2848FEF7CEFA03204C
:102610000121FEF79DF9E06BFFF7E4F90BE01A4B9F
:10262000DB69B3F57A7F06D900200146FEF790F901
:102630001F48FEF7BAFA144C0022607D1D4902F0D3
:10264000E3FC94F8200000221B4902F0DDFCA068A6
:1026500000221A4902F0D8FC60680022184902F0F2
:10266000D3FC94F821000022164902F0CDFC206929
:102670000022154902F0C8FCE06814490022BDE8B8
:10268000704002F0C1BC00BF88020020540000204E
:1026900058630008415D00082B5D0008CE5E00080D
:1026A000E65F0008185F000894000020275F00081C
:1026B000F05F00083E5F0008535F0008685F000895
:1026C00001600008785F0008905F0008196000084A
:1026D000F8B5924B05465C7D002C3DD1904B1A8895
:1026E000904B92B21B6A05339A4215D2214620467E
:1026F000FEF72EF98C48FEF758FA4FF4FA60FEF711
:1027000051FC20462146FEF723F98848FEF74DFA92
:1027100040F6B830FEF746FC804C0027012666756F
:1027200084F8207084F82170A7602761E7636760F0
:10273000E76084F82060FFF7A9FC7D4B3946DE7125
:102740003846FEF705F97B48FEF72FFA4FF47A700A
:10275000FEF728FC84F84060704C94F94030032B5D
:1027600000F3D080744B188800B201F0A9FD052851
:1027700040F3BB80714B1A886A4B92B29B699A42B4
:1027800027D26B4BDA79022A23D1E369B3F57A7F3A
:102790001FD9002384F82130E168694B994203D99D
:1027A000E0682169FEF77CFD5C4C01262369E36348
:1027B000E268644B84F820609A6000236360A36041
:1027C000FFF764FC94F840309B1984F84030584B74
:1027D000DE715A4B1A88534B92B21B6A9A424F4B86
:1027E00007D9534AD279012A03D1DA69B2F57A7F3F
:1027F00008D89A68544B1B689A4224D94C4BDB7911
:10280000012B20D1454C94F94030022B1BDC0023D6
:1028100084F8203062684A4B9A4204D960680122E9
:10282000A168FEF73DFD012384F821300023E36019
:102830002361FFF78DFA94F840300222013384F8C7
:1028400040303B4BDA713D4B1A88364B92B21B6AD3
:102850009A42324B07D9364AD279012A03D1DA6932
:10286000B2F57A7F08D89A68374B1B689A4221D90B
:102870002F4BDB79012B1DD1284C94F94030022BD2
:1028800018DDFFF7CDFA002384F8203084F82130DA
:1028900062682B4B9A4204D960680122A168FEF756
:1028A000FFFC1E4B93F84020013283F840200222A7
:1028B00083F83820022D194B09D193F838200132C2
:1028C000D2B2042A83F838204FD100220AE0012D29
:1028D0004BD193F83820013AD2B2140683F838204D
:1028E00043D5032283F838203FE0E369B3F57A7FCC
:1028F00040F2EA8000200146FEF72AF81348FEF76E
:1029000054F9E1E0022D23D194F838300133DBB2E1
:10291000042B84F8383028D1002324E088020020DA
:102920008206002054000020B35F0008C45F000846
:102930001C020020D55F0008600600205E06002013
:102940004F8C05009400002050080020F05F000824
:10295000012D0AD194F83830013BDBB2180684F817
:10296000383002D5032384F838306B4D95F9384060
:10297000002C32D120462146FDF7EAFF674B0221A9
:10298000188880B201F032FCFEF70FF96448FEF7B8
:102990000CF9644B188800B201F0B4FBFEF705F99E
:1029A0006148FEF702F906200121FDF7D1FF04205E
:1029B0000121FDF7C9FF95F82D500720012D05D104
:1029C0002946FDF7C5FF2046294604E00121FDF711
:1029D000BFFF02200121FDF7B7FF4F4B93F93840AD
:1029E000012C23D10020514D0146FDF7B1FF28698C
:1029F00001F088FBFEF7D9F84D48FEF7D6F8A86934
:102A00000A262146B0FBF6F001F0F0FBFEF7CDF808
:102A10004348FEF7CAF8286A2146B0FBF6F001F0F9
:102A2000E5FBFEF7C2F84348FEF7BFF83A4C94F9CD
:102A30003850022D21D100200146FDF789FF28469C
:102A40000121FDF781FF00210120FDF781FF3A48B8
:102A5000FEF7ABF8E0684FF46163B0FBF3F001F010
:102A600051FBFEF7A2F83548FEF79FF8032001213D
:102A7000FDF76EFF2069FEF7B5FF274C94F938503B
:102A8000032D21D100200146FDF762FF0020012126
:102A9000FDF75AFF00210120FDF75AFF2648FEF7F7
:102AA00084F860684FF46163B0FBF3F001F02AFB37
:102AB000FEF77BF82148FEF778F828460121FDF75C
:102AC00047FFA068FEF78EFF134C0022607D1C4973
:102AD00002F09AFA94F8200000221A4902F094FABF
:102AE000A0680022184902F08FFA60680022174996
:102AF00002F08AFA94F821000022154902F084FAC3
:102B000020690022134902F07FFAE068124900228E
:102B1000BDE8F84002F078BA880200205E06002086
:102B2000415D000860060020A35F000854000020FB
:102B3000586300082B5D0008CE5E0008E65F0008C1
:102B40003E5F0008535F0008685F000801600008EE
:102B5000785F0008905F00081960000808B5FFF76B
:102B600055F9FEF789FF3220BDE80840FEF71ABA92
:102B700038B5AD4B012293F8304005465A7544BB39
:102B8000AA4B1A88AA4B92B21B6A05339A4215D2F5
:102B900021462046FDF7DCFEA648FEF706F84FF476
:102BA000FA60FEF7FFF920462146FDF7D1FEA24864
:102BB000FDF7FBFF40F6B830FEF7F4F99A4B002220
:102BC000012183F8202083F8301083F821205A60F7
:102BD0009A60954C994BA2681B689A4206D898490E
:102BE000934A0888136A80B2984203D9FFF718F90C
:102BF00000230CE0926B64205A430988B2FBF0F288
:102C000089B29B1A994204D2FFF7A8FF012384F8E6
:102C10002030022D844C0CD194F82C301BB9FFF7D6
:102C20009DFF012302E0FFF7FBF8002384F820302A
:102C30000CE0012D0AD194F83830013BDBB21D06BF
:102C400084F8383002D5032384F83830764C94F970
:102C50003800002852D10146FDF77AFE94F82C3056
:102C6000A3B9724B0221188880B201F0BFFAFDF7B8
:102C70009CFF7448FDF799FF714B0221188880B2C0
:102C800001F0B4FAFDF791FF6F4812E06C4B02219E
:102C9000188880B201F0AAFAFDF787FF6948FDF7AE
:102CA00084FF6A4B188800B201F02CFAFDF77DFF13
:102CB0006748FDF77AFF5C4B93F82C402CB907204E
:102CC0000121FDF745FE204608E093F83930072042
:102CD0000121052B04D8FDF73BFE0020012103E074
:102CE000FDF736FE01200146FDF72EFE4E4B93F810
:102CF00039200A2A02D9002283F839204A4B93F955
:102D00003840012C1BD100200146494DFDF720FE23
:102D10005048FDF74AFF286901F0F4F9FDF745FF37
:102D20004D48FDF742FF286A0A23B0FBF3F0214625
:102D300001F05CFAFDF739FF4348FDF736FF3A4BE7
:102D400093F93830022B29D1394C00200146FDF788
:102D5000FFFDA06B01F0D6F9FDF727FF3F48FDF717
:102D600024FF206A0A250121B0FBF5F001F03EFAAC
:102D7000FDF71BFF3348FDF718FF236AA06B6422A1
:102D80005843B0FBF2F01B1AB3FBF5F0012101F040
:102D90002DFAFDF70AFF2C48FDF707FF224C94F9A6
:102DA0003850032D19D100200146FDF7D1FD2C48E4
:102DB000FDF7FBFE60684FF46163B0FBF3F001F0D8
:102DC000A1F9FDF7F2FE2748FDF7EFFE28460121A5
:102DD000FDF7BEFDA068FEF705FE134C6420FEF76C
:102DE00029F894F8300000221F4902F00DF9607DA7
:102DF00000221E4902F008F994F8200000221C4924
:102E000002F002F9A06800221A4902F0FDF894F8D5
:102E100021000022184902F0F7F820691749002222
:102E2000BDE8384002F0F0B8880200208206002099
:102E300054000020B35F0008C45F00085008002061
:102E40005E060020415D0008E95C00086006002085
:102E5000035F00083B6000083E600008565E000803
:102E600046600008275F0008305F00083E5F0008EA
:102E7000535F0008685F0008785F0008905F0008F3
:102E8000F0B5A24B0122022887B05A7509D193F8F8
:102E900041200132D2B2082A83F841200ED100220B
:102EA0000AE001280AD193F84120013AD2B283F80E
:102EB0004120120602D5072283F84120934B93F953
:102EC00041400CBBFEF7ACFF21462046FDF740FD1C
:102ED0008F48FDF76AFE8F4B012118880A2380B2C4
:102EE000B0FBF3F001F082F9FDF75FFE8A48FDF7D1
:102EF0005CFE8A4B0221188880B201F077F9FDF759
:102F000054FE8748FDF751FE804B93F94130012B69
:102F10001DD1FEF785FF00200146FDF719FD814810
:102F2000FDF743FE804B0221188880B201F05EF964
:102F3000FDF73BFE7D48FDF738FE7D4BD88880B21B
:102F400001F0E0F8FDF731FE7A48FDF72EFE6F4BF9
:102F500093F94140022C1DD1FEF78EFD0020014661
:102F6000FDF7F6FC7448FDF720FE744B21461888E7
:102F700080B201F03BF9FDF718FE6C48FDF715FE35
:102F80006B4B988880B201F0BDF8FDF70EFE6948E2
:102F9000FDF70BFE5D4B93F94130032B1CD1FEF77F
:102FA0006BFD00200146FDF7D3FC6548FDF7FDFDF4
:102FB000644B188800B201F0A5F8FDF7F6FD6248F1
:102FC000FDF7F3FD5A4B588880B201F09BF8FDF7EE
:102FD000ECFD5848FDF7E9FD4C4B93F94130042BCB
:102FE0001CD1FEF749FD00200146FDF7B1FC574812
:102FF000FDF7DBFD564B188800B201F083F8FDF7B2
:10300000D4FD5148FDF7D1FD494B188880B201F03D
:1030100079F8FDF7CAFD4F48FDF7C7FD3B4B93F923
:103020004130052B3DD1404D4B4CFEF7EFFEFEF7F6
:1030300023FD2988238889B29BB2424FCB1A42F2E2
:1030400010714B433A88454E12B2002093FBF2F3C5
:103050000146B364FDF77CFC4148FDF7A6FD306CEA
:1030600001F050F8FDF7A1FD3E48FDF79EFDB06C64
:1030700001F048F8FDF799FD3B48FDF796FD3888CB
:103080003A4900B2002201F0BFFF2888384980B2D7
:10309000022201F0B9FF2088364980B2022201F0F5
:1030A000B3FF1A4C94F94130062B0ED1FEF7B8FE4F
:1030B00000200146FDF74CFC01A9A06A01F04BF984
:1030C000FDF773FD2C48FDF770FD104B93F941306F
:1030D000072B18D1FEF7D0FC00200146FDF738FC85
:1030E0002648FDF762FD264B186801F00BF8FDF746
:1030F0005CFD2448FDF759FD0D4BD88880B201F0E6
:1031000001F8FDF752FD07B0F0BD00BF88020020B6
:1031100049600008800600204E6000085C06002020
:10312000CB5E00085360000882060020415D000865
:1031300054080020C95E0008586000085E060020A0
:103140005E60000860060020636000086760000899
:103150007E020020C85E00088002002004000020DB
:103160006D60000870600008756000087D600008F0
:103170008160000888600008C75E00089060000851
:1031800078020020936000082DE9F041A54D00244D
:1031900000F054FEFEF744FEA3482C60FDF705FD49
:1031A000FDF74FFC21462046FDF7D2FB4FF4FA60B5
:1031B000FDF740FE01F090FA2B68172B88BF2C60BA
:1031C00001F000FD80B94FF47A70FDF733FE01F095
:1031D000F9FC48B99548FDF7E8FC4FF47A60FDF733
:1031E00029FE9348FDF774F8924B934C1A69934B60
:1031F0008D485A6423694FF461625A43904B1A60B8
:10320000904BA2681A6001F0BFFEFDF7CBF9FDF705
:1032100088FB8D48FCF7A4FFA368012B17D0022B75
:1032200001D18A4814E0032B01D1894810E0042B16
:1032300001D188480CE0052B01D1874808E0062B16
:1032400001D1864804E0072B01D1854800E085487C
:10325000FCF76EFF844B01221A70844B14221A80F3
:10326000834A4FF480711161744D40F6B8325A8030
:103270004FF47F72EA825A887E4B12B25A61EA8A10
:10328000002612B29A60374695F83930AC7E013389
:103290002046794985F83930AF76002201F0B4FE36
:1032A00073481021FDF755FD10B9744801F06CFE0C
:1032B000631E062B29D8DFE803F004080E2828280F
:1032C0001500FCF72FFF406802E0FCF72BFF0068B9
:1032D000FCF72EFF19E00220FCF74CFFFCF722FF61
:1032E000C068F5E7604B61491878614A38B9142025
:1032F00008804FF48071116101221A7005E01E7080
:10330000C8204FF0807308801361FCF70BFFDFF8D3
:103310005481404503D12046FDF75CFE35E1FCF7C2
:1033200001FF08F12C03984203D12046FDF7BEFEB1
:103330002BE1FCF7F7FE08F15803984203D1204631
:10334000FDF72EFF21E1FCF7EDFE08F18403984222
:1033500003D12046FFF70CFC17E1FCF7E3FE08F170
:10336000B003984203D12046FEF762FD0DE1FCF761
:10337000D9FE08F59A73984203D12046FFF7A8F9C1
:1033800003E1FCF7CFFE08F1DC03984203D12046AD
:10339000FEF792FFF9E0FCF7C5FE08F5847398424A
:1033A00003D12046FEF78EFEEFE0FCF7BBFE08F5EA
:1033B000B073984203D12046FFF762FDE5E0FCF7C9
:1033C000B1FE08F5C678404503D12046FDF78EFFD3
:1033D000DBE0FCF7A7FEDFF8A880404503D12046DC
:1033E000FDF7F0FFD1E0FCF79DFE08F12C039842B9
:1033F00003D12046FDF7C2FFC7E0FCF793FE08F1BA
:103400005803984203D12046FEF7C8FCBDE0FCF704
:1034100089FE08F18403984234D12046FEF756FC19
:10342000B3E000BFB006002024020020976000082F
:10343000A8600008940000205400002088020020AA
:103440005008002060080020850D0008185300086F
:1034500044530008705300089C530008C8530008E8
:10346000F4530008EC5200084C0800201C02002015
:10347000000C014000740040B6600008BF5D000809
:10348000A4540008FCF74EFE08F1B003984203D1A3
:103490002046FEF76DFB78E0FCF744FE08F1CC0314
:1034A000984203D12046FEF79DFB6EE0FCF73AFE02
:1034B00008F1F803984203D12046FEF7CDFB64E003
:1034C000FCF730FE08F59273984203D12046FEF7D0
:1034D000E5FA5AE0FCF726FE08F5A073984203D1FE
:1034E0002046FDF793FF50E0FCF71CFE08F5AE7890
:1034F000404503D12046FDF7C7FF46E0FCF712FE2A
:10350000DFF8C480404503D12046FDF7E3FF3CE0EF
:10351000FCF708FE08F12C03984203D12046FEF781
:1035200051F832E0FCF7FEFD08F15803984203D150
:103530002046FEF769F828E0FCF7F4FD08F1840363
:10354000984203D12046FEF781F81EE0FCF7EAFD21
:1035500008F1B003984203D12046FEF795F814E035
:10356000FCF7E0FD08F1DC03984203D12046FEF7AA
:10357000A9F80AE0FCF7D6FD08F58478404503D1A8
:103580002046FEF7F5F800E06E75082C07D195F897
:103590002C3013B9FEF770FA01E0FEF759FA6C7D92
:1035A00064B9FEF73DFCEA68064B85F830409A6046
:1035B0002B6985F83840EB6385F82F406420FDF7D0
:1035C000F1FC61E6940000202C56000870B592B022
:1035D0004E2312A9002621F8043D42488DF8476089
:1035E000FDF762FB01214FF4007000F0C1FA0120E9
:1035F000014600F0B1FA3C4B062502934FF480637C
:1036000008938023069320230993384B384801936D
:103610004FF48073079301A94FF400530A93049564
:1036200003960B96059600F052FF0121304800F0FA
:103630006CFF4FF4004000F03DFA01244FF460238A
:103640002C480CA90E938DF835400F960C968DF8EA
:1036500040508DF8344000F021FC072325482146D6
:10366000224600F06CFC02210A460723214800F0A4
:1036700066FC03210A4607231E4800F060FC042272
:10368000072329461B4800F05AFC204600F0A6FC00
:10369000112105221748072300F051FC10212A466A
:1036A0000423144800F04BFC1248214600F01AFC99
:1036B0001048214600F01FFC0E4800F025FC0D4884
:1036C00000F027FC0028FAD10A4800F026FC09483F
:1036D00000F028FC0028FAD10648012100F026FC61
:1036E00012B070BD00080140540800204C24014075
:1036F00008000240002401401FB50121022000F013
:1037000043FA104C01A8FCF78FFD45F6BF53ADF806
:1037100004302046052301A9ADF80830FCF73AFD36
:1037200001210A462046FCF794FD20460121FCF7C2
:1037300084FD054B4FF000521A60202283F81D23B0
:103740001FBD00BF0004004000E100E0224A234BFF
:1037500091682DE9F04108319160C91A002808BF2D
:103760000120A729C8BF9360936812681E689A4217
:1037700008BF194A184C08BF1660194F2268988074
:1037800015252146BC46D2F800809845B2F8048041
:1037900008BF1660804503D2086818600B600020DF
:1037A000BA42246814D01168D1F800809845B1F865
:1037B000048008BF0E60804503D210681860136053
:1037C0000020614504D0013DADB20A68002DDAD178
:1037D000A088BDE8F08100BF38020020FC02002074
:1037E000A4030020234A244B51692DE9F0410831FC
:1037F0005161C91A002808BF0120B1F5A47FA8BFF4
:1038000053615369D2681E689A4208BF194A194920
:1038100008BFD66051F80C2F184F988029250C4608
:10382000BC46D2F800809845B2F8048008BF166004
:10383000804503D22068186023600020BA420968DE
:1038400014D01468D4F800809845B4F8048008BFF8
:103850002660804503D2106818601360002064451C
:1038600004D0013DADB22268002DDAD18888BDE8D0
:10387000F08100BF38020020AC030020F4040020D7
:10388000234A244B116A2DE9F04108311162C91A0B
:10389000002808BF0120B1F5A47FA8BF1362136AF6
:1038A00092691E689A4208BF194A194908BF966171
:1038B00051F8182F184F988029250C46BC46D2F88D
:1038C00000809845B2F8048008BF1660804503D296
:1038D0002068186023600020BA42096814D0146878
:1038E000D4F800809845B4F8048008BF266080456D
:1038F00003D21068186013600020644504D0013DB5
:10390000ADB22268002DDAD18888BDE8F08100BF11
:1039100038020020FC040020440600200F49D1F8A2
:103920005433D1F85023C1F858339342C1F854238B
:10393000C1F8500307DC834203DC9042A8BF104665
:1039400070479A4205DC824203DC9842A8BF1846C1
:1039500070479A42B4BF104618467047FC020020D8
:103960002DE9F3414B480121FCF77CFC002800F0D5
:103970008D80494C0121D4F85C3346480133C4F8AA
:103980005C330025FCF779FC0220ADF80450ADF85B
:10399000065000F0CDFD022000F0D4FD2A463F4D38
:1039A0003F4E02213F4800F0BBFDE988B36A89B26F
:1039B0004B432A890A2792B2B3FBF2F39BB2ADF8CC
:1039C0000630BDF80600DFF8E88000B2FFF7A6FF7A
:1039D000354B4FF4F02218602B899BB292FBF3F326
:1039E0009BB2A4F86033A988336B89B24B432A8910
:1039F00092B2B3FBF2F39BB2ADF80630BDF806000D
:103A000080B2FFF7A3FEB369A4F862037B43698821
:103A10002A8989B24B4392B2B3FBF2F39BB2ADF861
:103A20000630BDF8060080B2FFF7DCFE336A80B2D4
:103A3000A8F800007B4329882A8989B24B4392B2B7
:103A4000B3FBF2F39BB2ADF80630BDF8060080B2CE
:103A5000FFF716FF154B80B218801A8812B2B2F524
:103A60007A7F04DC1B889BB2A4F8643306E0B8F8C4
:103A700000309BB25F43BFB2A4F8647309480221CF
:103A8000012202B0BDE8F04100F04ABD02B0BDE83D
:103A9000F08100BF00040040FC0200205408002018
:103AA0000400002008000240780200207E0200206E
:103AB0007C020020034B5A6822F4404210435860B5
:103AC000704700BF0010024010B51F4B5A6802F04B
:103AD0000C02042A01D0082A02D01C4B036011E01A
:103AE0005A685968C2F383420232C90301D4184BA1
:103AF00006E0DB6A154903F00F030133B1FBF3F372
:103B00005A430260104A134B51680468C1F3031111
:103B1000595C24FA01F141605468C4F302241C5D2D
:103B200021FA04F484605468C4F3C2241C5D21FAB1
:103B300004F1C1605268C2F381329B181B7CB1FB57
:103B4000F3F1016110BD00BF0010024000127A00C5
:103B500000093D005C020020044B5A6909B1104382
:103B600001E022EA00005861704700BF00100240E7
:103B7000044B9A6909B1104301E022EA0000986100
:103B8000704700BF00100240044BDA6909B11043CE
:103B900001E022EA0000D861704700BF0010024037
:103BA00008B501210820FFF7E3FF214B1A6822F036
:103BB00003021A601A6822F00C021A601A6842F0B6
:103BC00002021A601A6822F00C021A601A6822F0C7
:103BD00030021A601A6822F0C0021A601A6842F0B5
:103BE00020021A601A6822F0C0021A60114A116895
:103BF00021F003011160116821F00C0111601168BE
:103C000041F002011160116821F00C0111605A6845
:103C100022F003025A605A6822F00C025A605A6875
:103C200042F002025A605A6822F00C025A6008BD43
:103C3000000C01400008014008B508200121FFF7F1
:103C400097FF344B1A6822F440121A601A6822F463
:103C500040021A601A6842F400021A6020221A61B7
:103C60001A6822F440321A601A6822F440221A605C
:103C70001A6842F400221A6010221A611A6822F0AF
:103C800040721A601A6822F040621A601A6842F0A4
:103C900000621A6040221A611A6822F040521A60CB
:103CA0001A6822F040421A601A6842F000421A6014
:103CB00080221A61A3F580635A6822F440525A6048
:103CC0005A6822F440425A605A6842F400425A60EC
:103CD0004FF400621A615A6822F003025A605A686F
:103CE00022F00C025A605A6842F008025A604FF4FF
:103CF00080721A615A6822F440325A605A6822F47B
:103D000040225A605A6842F400225A604FF48052AE
:103D10001A6108BD000C01401FB501212020FFF7EA
:103D200033FF104C01A8FCF77FFA40F65F13ADF8A3
:103D3000043020460A2301A9ADF80830FCF72AFA1E
:103D400001210A462046FCF784FA20460121FCF7AF
:103D500074FA054B4FF400025A60502283F837235F
:103D60001FBD00BF0014004000E100E01FB50121AD
:103D70004FF40030FFF7FCFE01A8FCF755FA104C99
:103D80000023ADF8063045F6BF53ADF804302046A9
:103D90004FF47A7301A9ADF80830FCF7FBF9012163
:103DA0000A462046FCF755FA20460121FCF745FA61
:103DB000044B4FF000721A60102283F819231FBDC4
:103DC0000044014000E100E037B5124D4FF00050D3
:103DD0000121FFF7D9FE00241023284601A9ADF8E0
:103DE00004308DF80740FCF75FFF2023284601A927
:103DF000ADF804308DF80740FCF756FF064B1A6803
:103E000042F001021A601A6842F480321A609C6023
:103E10005C613EBD0008014000740040064BDA6959
:103E200042F00102DA614FF0804345F6BF521A8535
:103E300009221A80704700BF0010024008B5042014
:103E40000121FFF795FE08200121FFF791FE1020C8
:103E50000121FFF78DFE01200146FFF789FE0E4B81
:103E60005A6842F000725A60FFF7D8FFFCF7ACFEC8
:103E700000F0EAFFFFF794FEFFF7DEFEFFF74CFFCE
:103E8000FFF73AFCFFF772FFFFF78AFEFFF79EFB92
:103E9000BDE80840FFF798BF0000014043680A688A
:103EA00023F4702323F4807313430A7910B543EA93
:103EB000022343608A68CB6884681A43084B234016
:103EC00013434A7943EA420383600B7CC26A013B95
:103ED00022F47002DBB242EA0353C36210BD00BF9A
:103EE000FDF7F1FF836811B143F0010301E023F016
:103EF000010383607047836811B143F4807301E06C
:103F000023F4807383607047836843F00803836001
:103F100070478068C0F3C0007047836843F00403B3
:103F2000836070478068C0F380007047836811B178
:103F300043F4A00301E023F4A00383607047092940
:103F400070B54FF003040DD94C4307251E3C05FA0C
:103F500004F503FA04F3C66826EA050545EA0304F6
:103F6000C4600BE04C43072505FA04F503FA04F49A
:103F7000066926EA050545EA04030361062A4FF0AF
:103F800005030CD8013A53431F2202FA03F201FA47
:103F900003F3446B24EA02021343436370BD0C2A0B
:103FA0000DD853431F22233B02FA03F201FA03F117
:103FB000046B24EA020242EA0103036370BD534327
:103FC0001F22413B02FA03F201FA03F1C46A24EA18
:103FD000020242EA0103C36270BD0000044B9A680A
:103FE00010B142F4000201E022F400029A6070472E
:103FF0000024014030B5038ACA8823F440531B04CF
:104000001B0C134303820D4683890989AA8823F474
:10401000B0530A43698923F00C030A431B041B0CA9
:1040200092B213438381838AAA8923F440731B04C9
:104030001B0C87B013430446838201A8FFF744FD9D
:10404000174BA2899C420CBF049B039B12B2002A0F
:104050004FF019012A6801FB03F101DA520000E078
:1040600092006423B1FBF2F1B1FBF3F212011009EB
:1040700003FB1011A08900B2002806DAC900323112
:10408000B1FBF3F303F0070305E009013231B1FBA3
:10409000F3F303F00F031A4392B2228107B030BD4D
:1040A00000380140838919B19BB243F4005303E007
:1040B00023F400531B041B0C83817047C1F342138C
:1040C00010B5012401F01F01A34204FA01F101D14E
:1040D0000C3004E0022B01D1103000E014300368F2
:1040E0000AB1194301E023EA0101016010BDC905CD
:1040F000C90D81807047038819420CBF0020012040
:10410000704700007FB580EAE072A2EBE0720DF12B
:10411000FF3500230A2492FBF4F104FB1122303214
:1041200005F8012F1E4601330A1EDBB2F3DC00281E
:1041300007DA5BB204A8C3182D2203F8102CB31CB5
:10414000DBB25AB204A88118002001F8100C6844B0
:104150008118074811F8014C013BDBB2013900F826
:10416000014F002BF6D10348835404B070BD00BF4B
:104170008306002084060020F0B5034685B083EA5C
:10418000E370A0EBE3700DF1FF3600220A2590FBEF
:10419000F5F405FB1400303006F8010F1746013224
:1041A000201ED2B2F3DC002B07DA04AB52B29A180D
:1041B0002D2302F8103CBA1CD2B250B204AC231822
:1041C000002403F8104C0DEB040318180C4613469A
:1041D00052B210F8015C013BDBB2013804F8015B1C
:1041E000002BF6D18B54084605B0F0BDF0B58BB06E
:1041F00080EAE073A3EBE0730DF1FF3600220A259D
:1042000093FBF5F405FB1433303306F8013F1746F2
:104210000132231ED2B2F3DC53B20AADEC180025F2
:10422000012B04F8285C04D13023BA1C8DF801302E
:10423000D2B2022A05D1012903D930238DF80230E8
:10424000032200240DF1280C23460CEB01062E2539
:1042500052B25FB28F4203D1013306F8145CDBB275
:104260005FB20DF1280C67441DF804C0013407F853
:1042700014CC67B201339742DBB2EADB002807DADD
:104280005AB20AA98A1801332D2102F8141CDBB294
:1042900059B205AD084800226C1804E0A55C013B4A
:1042A00000F8015FDBB2013A002BF7D10348411857
:1042B0000B7410300BB0F0BD930600208406002074
:1042C000002802D001DC404200B2704703460020C3
:1042D00001E00130C0B21A5C002AFAD1704730B553
:1042E0000346002401E0155501341D5DE0B2002DA8
:1042F000F9D12B4645B2551903E00130EC54C0B258
:104300000133CC5C002CF8D140B21454104630BDBF
:1043100070B5002501E05E550135465DECB2002E1A
:10432000F9D1304666B29E1903E001343554E4B247
:1043300001300D5C002DF8D1294665B25D1903E00E
:1043400001346854E4B20131505C0028F8D164B201
:104350001855184670BD2DE9F041074686B04FF458
:1043600061600C46B7FBF0F001A9FFF705FF01A85B
:10437000FFF7ACFF012803D830232370012600E0AB
:1043800000260023A11902E0CA54EEB201330DF158
:10439000040813F80820751C002AF5D13A2273B2DC
:1043A000E2543C23B7FBF3F2B2FBF3F003FB102023
:1043B0004146FFF7E1FE4046FFF788FF0128EDB2D6
:1043C00004D86DB230236355B51CEDB269B2002339
:1043D000611802E0CA54F5B201330DF1040813F874
:1043E00008206E1C002AF5D13A226BB2E2543C231D
:1043F000B7FBF3F003FB10704146FFF7BDFE4046EC
:10440000FFF764FF0128F6B204D876B230230235F4
:10441000A355EEB271B20023611803E00136CA540D
:10442000F6B2013301AA9A5C002AF7D176B2A255FE
:10443000204606B0BDE8F0812DE9F041804686B007
:104440004FF461600C46B8FBF0F001A9FFF794FE51
:1044500001A8FFF73BFF012803D830232370012573
:1044600000E000250023611902E0CA54F5B20133CF
:1044700001AFDA5D6E1C002AF7D13A226BB2E2542A
:104480003C23B8FBF3F8B8FBF3F003FB108039468C
:10449000FFF772FE3846FFF719FF0128F6B204D87D
:1044A00076B230230235A355EEB271B20023611803
:1044B00003E00136CA54F6B2013301AA9A5C002A1D
:1044C000F7D176B2A255204606B0BDE8F0818B68E0
:1044D00010B50C6A026823430C6922F4FE422343A0
:1044E0004C6922F0F00223438C692343CC692343B7
:1044F0004C6A23438C6A234313430360CB684360B5
:104500000B6883604B68C36010BD19B1036843F04A
:10451000010303E002684FF6FE7313400360704727
:1045200003680AB1194301E023EA01010160704701
:10453000C2004CBF014B024B586070470004024060
:1045400000000240C3004CBF014B024B5860704753
:104550000004024000000240C37810B5F3B1154BCF
:104560004178DB688478DB43C3F30223C3F10402A0
:1045700001FA02F10F2222FA03F222400A430E4B03
:1045800001781201CB18D2B283F8002303780122FC
:10459000590903F01F0302FA03F307E0037801222D
:1045A000590903F01F0302FA03F32031024A42F8CB
:1045B000213010BD00ED00E000E100E00F4AD368BB
:1045C00013F0010F0D4BFAD1DA68920601D52022C3
:1045D000DA601A6942F002021A6158611A6942F0FF
:1045E00040021A61054AD168044B8906FBD5202296
:1045F000DA601A6922F002021A6170470020024054
:10460000034B044A5A6002F188325A60704700BF77
:104610000020024023016745024B1A6942F08002E4
:104620001A61704700200240124AD36813F0010F4C
:10463000104BFAD1DA68920601D52022DA601A69A5
:1046400042F001021A618BB203800A4BDA6812F061
:10465000200F084AFAD02023090CD3604180D1688A
:10466000044B8906FBD52022DA601A6922F0010288
:104670001A6170470020024070B572B6114CFFF706
:10468000BFFF4FF4CE701049002200F0BDFC20683F
:104690000E49002200F0B8FC0D48FFF78FFF0C4DCB
:1046A0000C4E2B1903F17843A3F5F2332846196811
:1046B0000435FFF7B9FFB542F3D1FFF7ADFF62B69E
:1046C00070BD00BFB0060020BB610008C2610008D9
:1046D00000E401089CE5010810B5074B0749084AAA
:1046E00058181C6800F178400433A0F5F23093426A
:1046F0000460F5D1012010BD00E40108B0060020DF
:104700009CE5010870B504680E468C4201D39442C2
:1047100011D90A4B00251D7009492A4600F074FC86
:10472000204608492A4600F06FFC074807492A46F8
:1047300000F06AFC3446204670BD00BF70020020C5
:10474000C8610008DF61000800EC0108F1610008A1
:1047500010B5184C6068FFF731FF60682168FFF7FB
:1047600063FFE068A168FFF75FFF60692169FFF7F9
:104770005BFFE069A169FFF757FF606A216AFFF7F5
:1047800053FFE06AA16AFFF74FFF606B216BFFF7F1
:104790004BFFE06BA16BFFF747FF606C216CFFF7ED
:1047A00043FFE06CA16CFFF73FFF034800F0ECFB18
:1047B00010BD00BF040000200862000810B5184CAE
:1047C0006068FFF7FBFE60682168FFF72DFFE06877
:1047D000A168FFF729FF60692169FFF725FFE069FC
:1047E000A169FFF721FF606A216AFFF71DFFE06AF8
:1047F000A16AFFF719FF606B216BFFF715FFE06BF4
:10480000A16BFFF711FF606C216CFFF70DFFE06CEF
:10481000A16CFFF709FF034800F0B6FB10BD00BF15
:104820005C0100202162000838B5224C002160683C
:104830004FF48072FFF766FF002120604FF47A7218
:10484000E068FFF75FFF0021A0604FF47A726069B3
:10485000FFF758FF184D20610A212A46E069FFF74B
:1048600051FF0A21A0612A46606AFFF74BFF0A2127
:1048700020622A46E06AFFF745FF0A21A0622A4625
:10488000606BFFF73FFF0A2120632A46E06BFFF7CA
:1048900039FF4621A063C822606CFFF733FF0A216D
:1048A0002064C822E06CFFF72DFFA064034800F0ED
:1048B0006BFB38BD04000020A086010041620008A7
:1048C00038B5224C002160684FF48072FFF71AFF60
:1048D000002120604FF47A72E068FFF713FF002197
:1048E000A0604FF47A726069FFF70CFF184D2061E9
:1048F0000A212A46E069FFF705FF0A21A0612A463E
:10490000606AFFF7FFFE0A2120622A46E06AFFF78D
:10491000F9FE0A21A0622A46606BFFF7F3FE0A2126
:1049200020632A46E06BFFF7EDFE4621A063C82214
:10493000606CFFF7E7FE0A212064C822E06CFFF7F5
:10494000E1FEA064034800F01FFB38BDAC0100206D
:10495000A08601005B62000810B5144C6068FFF788
:104960002DFE60682168FFF75FFEE068A168FFF731
:104970005BFE60692169FFF757FEE069A169FFF7F7
:1049800053FE606A216AFFF74FFEE06AA16AFFF7F3
:104990004BFE606B216BFFF747FEE06BA16BFFF7EF
:1049A00043FE034800F0F0FA10BD00BF54000020A1
:1049B0007E62000810B5144C6068FFF7FFFD606868
:1049C0002168FFF731FEE068A168FFF72DFE6069FE
:1049D0002169FFF729FEE069A169FFF725FE606AFA
:1049E000216AFFF721FEE06AA16AFFF71DFE606BF6
:1049F000216BFFF719FEE06BA16BFFF715FE034873
:104A000000F0C2FA10BD00BFDC0000209462000874
:104A100038B51D4C002160684FF48072FFF772FEBC
:104A2000012120600A22E068FFF76CFE0121A060EE
:104A30004FF47A726069FFF765FE012120614FF43F
:104A40007A62E069FFF75EFE0121A0614FF47A62AD
:104A5000606AFFF757FE42F21075206200212A4675
:104A6000E06AFFF74FFE0021A0622A46606BFFF765
:104A700049FE002120636422E06BFFF743FEA06340
:104A8000024800F081FA38BD54000020B1620008ED
:104A900038B51D4C002160684FF48072FFF732FE7C
:104AA000012120600A22E068FFF72CFE0121A060AE
:104AB0004FF47A726069FFF725FE012120614FF4FF
:104AC0007A62E069FFF71EFE0121A0614FF47A626D
:104AD000606AFFF717FE42F21075206200212A4635
:104AE000E06AFFF70FFE0021A0622A46606BFFF725
:104AF00009FE002120636422E06BFFF703FEA06340
:104B0000024800F041FA38BD1C010020C8620008CC
:104B100010B50A4C6068FFF751FD60682168FFF727
:104B200083FDE068A168FFF77FFD60692169FFF7F9
:104B30007BFD034800F028FA10BD00BFAC00002048
:104B40001563000838B50C4C002160684FF4807282
:104B5000FFF7D8FD094D206000212A46E068FFF7E5
:104B6000D1FD0021A0602A466069FFF7CBFD2061DE
:104B7000034800F009FA38BD9400002000286BEECD
:104B80003C63000838B50C4C002160684FF480721B
:104B9000FFF7B8FD094D206000212A46E068FFF7C5
:104BA000B1FD0021A0602A466069FFF7ABFD2061DE
:104BB000034800F0E9F938BDC400002000286BEE7E
:104BC0005B63000870B50C4D01242C7072B6FFF7C2
:104BD000B9FFFFF71DFFFFF727FE62B62E782EB94B
:104BE000064800F0D1F92C70304670BD044800F042
:104BF000CBF92C70204670BD700200208363000842
:104C00009C630008F0B5C1B007460D4614466846DF
:104C100008494FF4807200F00FFA6E4617F8013B16
:104C2000013D5C40EDB2345D002DF7D1204641B02E
:104C3000F0BD00BFBB60000838B572B6FFF7E0FCFE
:104C40004C2100223448FFF7DDFF344B0446186046
:104C5000FFF7B4FDFFF734FE4C2100223048FFF788
:104C6000D1FF844203D12F4800F08EF904E02E4892
:104C700000F08AF9FFF7A2FD3C2100222B48FFF744
:104C8000C1FF00222A49044600F0BEF9002229494A
:104C90003C2000F0B9F9284B1C60FFF78BFEFFF7B2
:104CA000F7FE3C2100222548FFF7ACFF00222049F7
:104CB000054600F0A9F93C2000221E4900F0A4F9A5
:104CC000AC4203D11E4800F05FF904E01D4800F03B
:104CD0005BF9FFF76FFE142100221B48FFF792FFDC
:104CE0001A4B04461860FFF713FFFFF74BFF142120
:104CF00000221748FFF786FF844203D1154800F0D1
:104D000043F904E0144800F03FF9FFF701FFFFF713
:104D100083FC62B638BD00BF600100205C0100204A
:104D2000B0010020B7630008DC630008E000002049
:104D30000C64000817640008DC000020200100203B
:104D40002364000845640008B0000020AC00002087
:104D5000C8000020726400089C64000838B572B670
:104D60003C2100221948FFF74DFF00221849044654
:104D700000F04AF9002217493C2000F045F9164B93
:104D80001C60FFF73DFCFFF7E7FDFFF781FE3C21CC
:104D900000221248FFF736FF00220D49054600F0B9
:104DA00033F93C2000220B4900F02EF9AC4203D12C
:104DB0000B4800F0E9F804E00A4800F0E5F8FFF7D6
:104DC000CBFDFFF729FC62B6012038BD580000205A
:104DD0000D64000818640008540000202001002021
:104DE000246400084664000810B572B64C21002205
:104DF0001048FFF707FF104B04461860FFF700FC50
:104E0000FFF7A6FCFFF75CFD4C2100220B48FFF7E3
:104E1000F9FE844203D10A4800F0B6F804E00948DC
:104E200000F0B2F8FFF794FCFFF7F6FB62B6012042
:104E300010BD00BF0800002004000020B0010020C9
:104E4000B8630008DD63000830B54FF4164387B03F
:104E5000009300231C46ADF80430ADF80630ADF8E1
:104E60000830ADF80C3004200C230121ADF80A30D5
:104E7000FEF77EFE01214FF48040FEF779FE4FF4ED
:104E8000C063154DADF8103018238DF8133004A908
:104E9000032312488DF81230FBF706FF69462846B7
:104EA000FFF7A8F825238DF814308DF8164022233B
:104EB000012405A88DF815308DF81740FFF74CFB3D
:104EC00028462146FFF7EEF8284640F225512246B3
:104ED000FFF7F4F807B030BD00380140000801408A
:104EE0000A4B1A78C72A0FD85A78094988541A7871
:104EF0000132D2B21A705A780132D2B25A705A784C
:104F0000C82A01D100225A70704700BFA5060020B0
:104F10006408002010B5194C2388980603D5A08892
:104F2000C0B2FFF7DDFF2388144A19061AD5144BC7
:104F3000997889B1D9781348415C91809A78013A7F
:104F4000D2B29A70DA780132D2B2DA70DA78C82A3C
:104F500008D10022DA7005E0938923F080031B0456
:104F60001B0C9381054A13885B0605D5138823F033
:104F700040031B041B0C138010BD00BF0038014010
:104F8000A50600202C09002010B504460AE00D48B3
:104F90008021FFF7B0F80028F9D014F8011B094868
:104FA000FFF7A5F82378002BF1D106488021FFF701
:104FB000A2F80028F9D003480A21BDE81040FFF705
:104FC00096B800BF0038014082B0064B8DF807004C
:104FD0001A885206FCD59DF80720024B9A8002B031
:104FE000704700BF00380140064B1A4605E019889B
:104FF0004906FCD510F8011B918001780029F6D1F3
:10500000704700BF0038014037B501900C46019849
:1050100012B9FFF777F802E01146FFF7E7F8054607
:105020002046FFF7E1FF2846FFF7DEFF0A2003B026
:10503000BDE83040FFF7C8BF0F2AF0B43AD941EAC3
:1050400000039B0738D10C46034615462668103DE1
:105050001E6066685E60A6689E60E6681034DE606A
:1050600010330F2DF2D8A2F1100424F00F0402F037
:105070000F021034032A00EB0403214411D90E4619
:105080001D46144656F8047B043C032C45F8047B6B
:10509000F8D8141F24F00304043402F003020919A1
:1050A0001B192AB111F8014B013A03F8014BF9D150
:1050B000F0BC70470346F4E70346F3E70000000046
:1050C00000000000000000000000000000000000E0
:1050D0000000000069693A2000513A200043524321
:1050E0002843616C6962726174696F6E29203D00AA
:1050F00043616C6962726174696F6E3056616C7580
:1051000065466F7243757272656E74203D0043612F
:105110006C6962726174696F6E3056616C75654658
:105120006F7243757272656E7431203D0043616C1D
:105130006962726174696F6E56616C7565466F72F3
:1051400043757272656E745F7831203D0043616C07
:105150006962726174696F6E56616C7565466F72D3
:1051600043757272656E745F783530203D0043611F
:105170006C6962726174696F6E56616C7565466FB9
:105180007254656D7065726174757265203D00437F
:10519000616C6962726174696F6E56616C756546A7
:1051A0006F72555F4F5554203D0043616C696272C8
:1051B0006174696F6E56616C7565466F72566F6C7F
:1051C0007461676532203D00526573697374616E66
:1051D0006365436F6D705F497368756E745F57697F
:1051E000726573203D00526573697374616E636507
:1051F000436F6D705F4D4F53464554203D00435201
:10520000432853657474696E67734461746129201F
:105210003D004F7074696F6E31286D656E7520703A
:105220006F736974696F6E29203D0043686172670E
:105230006554696D65203D004C6F77566F6C7461E5
:105240006765203D004D6178566F6C74616765201D
:105250003D004368617267654164617074203D0080
:105260005377696E675F436872675F74696D652025
:105270003D005377696E675F44436872675F746986
:105280006D65203D00435243285361766544617447
:10529000615768656E506F7765724F666629203D6D
:1052A00000426174746572794361706163697479F5
:1052B00044697363686172676550726576696F757A
:1052C0007356616C7565203D004261747465727936
:1052D000436170616369747944697363686172677B
:1052E0006543757272656E74203D0000BC50000805
:1052F000BC500008BC5000085C5C000800000000C6
:10530000000000002020202020202020202020201D
:105310002020202000000000BC500008BC500008E5
:10532000BC500008305C00080000000000000000D5
:10533000202020202020202020202020202020206D
:1053400000000000BC500008BC500008BC50000821
:10535000045C000800000000910D000820202020BF
:1053600020202020202020202020202000000000BD
:10537000BC500008BC500008BC500008D85B0008B6
:1053800000000000910D0008202020202020202077
:10539000202020202020202000000000BC500008F9
:1053A000BC500008BC500008AC5B000800000000C6
:1053B000ED0D00082020202020202020202020206B
:1053C0002020202000000000BC500008BC50000835
:1053D000BC500008545B0008000000000000000002
:1053E00020202020202020202020202020202020BD
:1053F00000000000BC500008BC500008BC50000871
:10540000285B000800000000000000002020202091
:10541000202020202020202020202020000000000C
:10542000BC500008BC500008BC500008805B00085D
:10543000000000000000000020202020202020206C
:10544000202020202020202000000000BC50000848
:10545000BC500008BC500008FC5A000800000000C6
:1054600000000000202020202020202020202020BC
:105470002020202000000000BC500008BC50000884
:10548000BC500008D05A000800000000610D000860
:10549000202020202020202020202020202020200C
:1054A00000000000BC500008BC500008BC500008C0
:1054B000C058000800000000710D000820202020C6
:1054C000202020202020202020202020000000005C
:1054D000BC500008BC500008BC500008EC58000844
:1054E00000000000710D0008202020202020202036
:1054F000202020202020202000000000BC50000898
:10550000BC500008BC5000086858000800000000AB
:10551000710D000820202020202020202020202085
:105520002020202000000000BC500008BC500008D3
:10553000BC5000089458000800000000710D0008DD
:10554000202020202020202020202020202020205B
:1055500000000000BC500008BC500008BC5000080F
:10556000E457000800000000710D00080000000072
:10557000BC500008BC500008BC500008105800087F
:1055800000000000710D0008202020202020202095
:10559000202020202020202000000000BC500008F7
:1055A000BC500008BC5000083C5800080000000037
:1055B000710D0008202020202020202020202020E5
:1055C0002020202000000000BC500008BC50000833
:1055D000BC500008B857000800000000710D00081A
:1055E00000000000BC500008BC500008BC5000087F
:1055F0008C570008000000000000000000000000C0
:10560000BC500008BC500008BC500008785A000884
:10561000000000006D0D0008202020202020202008
:10562000202020202020202000000000BC50000866
:10563000BC500008BC5000084C5A00080000000094
:10564000890E00082020202020202020202020203B
:105650002020202000000000BC500008BC500008A2
:10566000BC500008205A0008000000006D0D000822
:10567000202020202020202020202020202020202A
:1056800000000000BC500008BC500008BC500008DE
:10569000F4590008000000006D0D000820202020B3
:1056A000202020202020202020202020000000007A
:1056B000BC500008BC500008BC500008C859000885
:1056C000000000006D0D0008202020202020202058
:1056D000202020202020202000000000BC500008B6
:1056E000BC500008BC5000089C5900080000000095
:1056F0006D0D0008202020202020202020202020A8
:105700002020202000000000BC500008BC500008F1
:10571000BC50000870590008000000006D0D000822
:105720002020202020202020202020202020202079
:1057300000000000BC500008BC500008BC5000082D
:105740004459000800000000590E000820202020C5
:1057500020202020202020202020202000000000C9
:10576000EC5800088C570008BC500008A45A0008E8
:1057700000000000000000004F4B20746F2065788F
:1057800069742020202020200000000060570008BD
:10579000B8570008BC500008E4550008000000009D
:1057A000000000004261636B20746F2046616374E7
:1057B0006F727920000000008C570008E457000841
:1057C000BC500008C85500080000000000000000A0
:1057D00052657369737420636F6D70203556314163
:1057E00000000000B857000810580008BC5000081E
:1057F000545500080000000000000000566F6C7453
:1058000061676520496E20202020202000000000D4
:10581000E45700083C580008BC50000870550008C8
:105820000000000000000000566F6C746167652086
:105830004F75742020202020000000001058000820
:1058400068580008BC5000089C5500080000000083
:1058500000000000566F6C746167652054656D70C0
:1058600065726174000000003C58000894580008FC
:10587000BC500008FC5400080000000000000000BC
:1058800043555252454E5420783530202020202058
:105890000000000068580008C0580008BC5000080C
:1058A0002855000800000000000000004355525237
:1058B000454E542078312020202020200000000078
:1058C00094580008EC580008BC500008A454000884
:1058D000000000000000000043555252454E542085
:1058E0004C6F616420746F3000000000C0580008E5
:1058F00060570008BC500008D054000800000000A9
:105900000000000043555252454E54204F757420FC
:10591000746F203000000000785A000844590008D5
:10592000BC500008885C0008000000000000000077
:105930004F4B20746F206578697420202020202030
:10594000000000001859000870590008BC500008F9
:1059500034570008000000000000000030383A53BF
:10596000617665204D656E7520506F7300000000F4
:10597000445900089C590008BC500008085700080A
:10598000000000000000000030373A436861726791
:105990006520616464617074000000007059000843
:1059A000C8590008BC500008DC5600080000000080
:1059B0000000000030363A53776E674469734368DD
:1059C00072672054000000009C590008F459000838
:1059D000BC500008B05600080000000000000000A5
:1059E00030353A5377696E67204368726720546D8B
:1059F00000000000C8590008205A0008BC500008E8
:105A000084560008000000000000000030343A4DC9
:105A1000617820566F6C746167652020000000007B
:105A2000F45900084C5A0008BC50000858560008A9
:105A3000000000000000000030333A4C6F77205621
:105A40006F6C74616765202000000000205A000818
:105A5000785A0008BC5000082C56000800000000CE
:105A60000000000030323A4261747465727920742B
:105A700079706520000000004C5A00081859000891
:105A8000BC500008005600080000000000000000A4
:105A900030313A4368617267652074696D65202012
:105AA00000000000885C0008D05A0008BC500008C4
:105AB000EC580008000000000000000043414C4981
:105AC00042524154494F4E20202020200000000027
:105AD000A45A0008FC5A0008BC500008785400087A
