:020000040800F2
:10000000F00D002085020008CD020008CD02000896
:10001000CD020008CD020008CD020008000000005B
:10002000000000000000000000000000CD020008F9
:10003000CD02000800000000CD020008CD0200083B
:10004000CD020008CD020008CD020008CD02000854
:10005000CD020008CD020008CD020008CD02000844
:10006000CD020008CD020008CD020008CD02000834
:10007000CD020008CD020008CD020008CD02000824
:10008000CD020008CD020008CD02000800000000EB
:10009000000000000000000000000000CD02000889
:1000A000CD020008F5180008CD020008CD020008B6
:1000B000CD0200081539000800000000CD0200083C
:1000C000CD0200080000000000000000CD02000882
:1000D00000000000754E0008CD020008000000007E
:1000E000CD020008CD020008CD020008000000008B
:1000F0000000000000000000000000000000000000
:1001000000000000000000000000000000000000EF
:100110000000000000000000CD020008C91800081F
:100120005FF808F1014B1868704700BF000000201D
:10013000084B10B598420BD050B1074B074C1B68C9
:1001400020600BB11830984723681B6903B19847AA
:1001500010BD00BF1C5000087402002000000020E9
:10016000024B1860024B1868FFF7E2BF74020020D0
:100170000000002008B5054B054A1B68934203D0D8
:1001800013B15B6903B1984708BD00BF00000020B0
:100190001C500008224A038890429BB212D002F5FC
:1001A000006290420ED0B0F1804F0BD0A2F5983291
:1001B000904207D002F58062904203D002F580623F
:1001C000904203D14A8823F070031343154A9042AA
:1001D00008D002F58062904204D023F44073CA88AC
:1001E0009BB2134303808B8883850B8803850C4B5C
:1001F00098420FD003F5006398420BD003F540639B
:10020000984207D003F58063984203D003F58063DA
:10021000984201D10B7A038601238382704700BF85
:10022000002C0140001000404FF6FF738380002334
:100230000380C380438003727047038819B19BB267
:1002400043F0010303E023F001031B041B0C0380B4
:10025000704783899BB20AB1194301E023EA010187
:1002600081817047038A828911EA030092B203D028
:1002700011420CBF002001207047C94389B201829E
:100280007047000008B50C4A0C4B0D4903E052F8CA
:10029000040B43F8040B8B42F9D30A480A494FF088
:1002A00000028842B8BF40F8042BFADB00F018FACD
:1002B000BDE8084002F04CBF2D640008000000209B
:1002C0007402002074020020EC090020FEE7000008
:1002D0002DE9F843564D0646286803F0C3FE2B6807
:1002E00011210024594304E00A19AA18013413719A
:1002F000E4B2035D4E4A002BF6D113681121594335
:10030000081910183A25057104E00F2C09D80D19A9
:100310005519287116F8010B0134E4B20028F4D104
:100320000DE0112202FB034241498A18002111719C
:1003300005E01819081801340271E4B203E0112233
:100340003B49534320220F2C394DF2D9002220463D
:10035000384904F009FE2B68112202FB03440133E3
:100360002A190024172B14712B6057D90A26A0468E
:100370002F46204603F076FE4FF0110E00230EFBB1
:1003800004FE05E00EEB0301691801330A71DBB2CC
:10039000C25C1121002AF5D101FB04F27143D0188F
:1003A00038184FF03A0E013380F804E0DBB294467F
:1003B0005FFA84FE681810E0BEF1090F05D901EB61
:1003C0000309A94499F8049003E000EB030999F8A4
:1003D0000590013382F80490DBB20CEB0302AA18FB
:1003E00092F80490B9F1000FE6D1013B1121DBB284
:1003F0006143202204E0C818281801330271DBB2DF
:100400000F2BF8D9112202FB04330134FB180136FB
:100410000E2C83F80480ACD1054B1C6004F0DCF892
:10042000034B054918680022BDE8F84304F09CBD61
:10043000A806002034500008395000082DE9F04784
:10044000554F054638680E4603F00CFE3B681121F7
:100450000024594304E00A19BA1801341371E4B2B4
:10046000035D4D4A002BF6D1136811215943081939
:100470001018067104E00F2C09D80F19D71938711C
:1004800015F8010B0134E4B20028F4D10DE011227B
:1004900002FB034240498A180021117105E0181936
:1004A000081801340271E4B203E011223A495343BF
:1004B00020220F2C384DF2D900222046374904F073
:1004C00053FD2B68112202FB034401332A19002437
:1004D000172B14712B6054D90A27A146A846204631
:1004E00003F0C0FD4FF0110E00230EFB04FE05E0EB
:1004F0000EEB0301691801330A71DBB2C25C1121F2
:10050000002AF5D101FB04F27943D01840440133AD
:100510000671DBB294465FFA84FE681810E0BEF103
:10052000090F05D901EB030AAA449AF804A003E0D5
:1005300000EB030A9AF805A0013382F804A0DBB2AD
:100540000CEB0302AA1892F804A0BAF1000FE6D14E
:10055000013B1121DBB26143202204E0C8182818B6
:1005600001330271DBB20F2BF8D9112202FB0433E5
:100570000134434401370E2C83F80490AFD1064B6D
:100580001C6004F029F8044B054918680022BDE8F6
:10059000F04704F0E9BC00BFA80600203450000872
:1005A0003950000810B5384C00222068374904F053
:1005B000DBFCA0680022364904F0D6FC206900224A
:1005C000344904F0D1FCA0690022334904F0CCFC8A
:1005D000206A0022314904F0C7FCA06A0022304999
:1005E00004F0C2FC206B00222E4904F0BDFCA06B7D
:1005F00000222D4904F0B8FC206C00222B4904F0A5
:10060000B3FCA06C00222A4904F0AEFC206D00224D
:10061000284904F0A9FCA06D0022274904F0A4FC9D
:10062000206E0022254904F09FFCA06E0022244980
:1006300004F09AFC206F0022224904F095FCD4F8C3
:1006400088000022204904F08FFCA06F1F4900227F
:1006500004F08AFCD4F8800000221D4904F084FCD8
:10066000D4F8900000221B4904F07EFCD4F89800D6
:100670000022194904F078FCD4F8A00017490022A0
:10068000BDE8104004F070BC040000203D5000089C
:10069000505000086E5000088D500008AA50000805
:1006A000C8500008E5500008035100082151000817
:1006B0003F510008575100086B5100088451000851
:1006C000915100089E510008AB510008B951000833
:1006D000CB510008DE510008FA51000822520008F0
:1006E000314B82B01A6842F001021A6059682F4AF1
:1006F0000A405A601A6822F0847222F480321A602A
:100700001A6822F480221A605A6822F4FE025A60A3
:100710004FF41F029A600022DA62009201921A6876
:1007200042F480321A601A6802F400320192009A90
:1007300001320092019A1AB9009AB2F5A06FF2D173
:10074000194B1B6813F4003318BF01230193019B5D
:10075000012B23D1144B5A685A605A685A605A6860
:100760005A605A6822F47C125A605A6842F498120D
:100770005A601A6842F080721A6019680A4A890140
:10078000FBD5536823F003035360536843F002031F
:100790005360536803F00C03082BFAD1044B4FF05D
:1007A00000629A6002B07047001002400000FFF83B
:1007B00000ED00E084B0ADF80600BDF806304FF45F
:1007C000FA629BB2534301E0039B013B0393039BFB
:1007D000002BF9D104B0704784B0ADF80600BDF825
:1007E00006309BB25B0001E0039B013B0393039B3C
:1007F000002BF9D104B0704710B5074C4FF480437B
:1008000023610220FFF7E8FF4FF0804302202361BD
:10081000BDE81040FFF7E0BF000C014070B50F4C81
:100820004FF07C454FF4805625612661FFF7E4FFC9
:100830000120FFF7BFFF25612661FFF7DDFF0120E3
:10084000FFF7B8FF4FF4806325612361FFF7D4FF02
:100850000120BDE87040FFF7ADBF00BF000C0140B4
:10086000254B4FF07C4270B504460D461A6111B11C
:100870004FF400421A61E20644BF4FF400521A617D
:100880001D4B14F0200F1CBF4FF480521A616606F6
:1008900044BF4FF400621A61174E14F0800F1CBF62
:1008A0004FF480633361FFF7A7FF4FF07053E00709
:1008B000336103D5104B4FF400521A61A10703D5E1
:1008C0000D4B4FF480521A61620703D50A4B4FF467
:1008D00000621A61230703D5074B4FF480621A6147
:1008E000FFF78AFF0220FFF765FF1DB1024B4FF0B3
:1008F00000421A6170BD00BF000C0140034610B9F0
:10090000082019460BE021B90AB90C2003E00D209C
:1009100005E012B90E20114601E00F200021FFF77B
:100920009FBF01200021FFF79BBF08B56420FFF7A0
:1009300041FFFFF773FF012001460022FFF7DEFFB2
:10094000BDE80840FFF7EDBFC0B20121FFF788BF47
:10095000054B1870597011B940F0800002E040F06A
:10096000C0000021FFF77CBF7E0200202DE9F84384
:1009700089460646DFF86C800127194C29E0B22829
:1009800001D1492011E0AF2801D103200DE0DE287C
:1009900002D10120014609E0AA2801D1022004E089
:1009A000BF2884BF404410F8C00C0121FFF758FF56
:1009B000237865780133DBB2237055B9082B08D151
:1009C000B9F1020F05D128460121FFF7C1FF2570BB
:1009D000677016F8010B0028D1D1BDE8F88300BF7D
:1009E0007E020020FC01002070B506460D46002462
:1009F0000CE00121FFF734FF012D06D1E3B2072BF4
:100A000003D100202946FFF7A3FF0134305D002801
:100A1000EFD170BDC00040F0400038B5C0B20D4607
:100A20000021FFF71DFF0024285D01210134FFF79D
:100A300017FF082CF8D180200021BDE83840FFF7CF
:100A40000FBF2DE9F3410025042415271F264FF081
:100A50000E08284669468DF800408DF803408DF851
:100A600005408DF801708DF802808DF804508DF8E6
:100A700006608DF80760FFF7CDFF012069468DF80D
:100A800002408DF806408DF800708DF801808DF8D9
:100A900003508DF804508DF805508DF80760FFF76E
:100AA000B9FF022069468DF801408DF805408DF8A8
:100AB00000508DF802808DF803708DF804508DF889
:100AC00006608DF80760FFF7A5FF032069468DF8E3
:100AD00000408DF803408DF806408DF801808DF8B8
:100AE00002708DF804508DF805508DF80760FFF7FF
:100AF00091FF204669468DF800408DF803408DF83F
:100B000004408DF807408DF801808DF802708DF853
:100B100005708DF80680FFF77DFF02238DF8003009
:100B20000A238DF803308DF804301C2307248DF838
:100B300005308DF806300520082369468DF807300A
:100B40008DF801408DF80240FFF764FF0F238DF808
:100B5000003005238DF801308DF802308DF8033018
:100B60008DF804300620092369468DF806308DF88B
:100B700005708DF80750FFF74DFF11238DF80030F9
:100B80008DF801308DF802302046012369468DF83A
:100B900003608DF804308DF805308DF806308DF83F
:100BA0000750FFF737FFBDE8FC810221FFF7DEBEEB
:100BB00010B5044608461146FFF7CAFE204602213A
:100BC000BDE81040FFF7D2BE08B5364B5A6822F494
:100BD00040725A605A6842F400725A605A6822F4AD
:100BE00040625A605A6842F480625A605A6822F43D
:100BF00040525A605A6842F400525A605A6822F4CD
:100C000040425A605A6842F480425A605A6822F45C
:100C100040325A605A6842F400325A605A6822F4EC
:100C200040225A605A6842F480225A605A6822F47C
:100C300040125A605A6842F400125A605A6822F40C
:100C400040025A605A6842F480025A605A6822F0A0
:100C500040725A605A6842F000725A605A6822F034
:100C600040625A605A6842F080625A605A6822F0C4
:100C700040525A605A6842F000525A605A6822F054
:100C800040425A605A6842F080425A60FFF74DFE77
:100C9000FFF747FE002101200A46BDE80840FFF7A4
:100CA0002DBE00BF000C0140CB782DE9F04303F0CE
:100CB0000F02DB0648BF8B780E8848BF1A4316F038
:100CC000FF0F1FD0046800234FF001084FF00F0CF6
:100CD00008FA03F707EA0605BD420FD19F000CFA98
:100CE00007F902FA07F724EA09043C43CF78282FD2
:100CF00001D1456102E0482F08BF05610133082B8F
:100D0000E6D104600E88FF2E21D9446800234FF0FD
:100D100001084FF00F0C03F1080708FA07F707EA7C
:100D20000605BD420FD19F000CFA07F902FA07F73A
:100D300024EA09043C43CF78282F01D1456102E021
:100D4000482F08BF05610133082BE4D14460BDE89A
:100D5000F083836819420CBF002001207047000017
:100D6000014B00221A8070478002002003F0A6BFCA
:100D700008B503F0E9FF0248BDE80840FFF7A8BA4C
:100D80000C5C000818B100210A46FFF711BF70473C
:100D900010B5134C002290B06068124904F0E4F8DA
:100DA000626849F6AF239A4217D90BA9A06803F0ED
:100DB000F3FA60684FF46163B0FBF3F001A903F04C
:100DC0008BF909490BAA06AB03F052FA06A80121D8
:100DD000FFF734FB06A804F087F810B010BD00BF81
:100DE00080020020185C0008205C000810B50F4C41
:100DF00049F6AF23E26890B09A4214D90BA9206952
:100E000003F0CAFAE0684FF46163B0FBF3F001A9A4
:100E100003F062F906490BAA06AB03F029FA06A80B
:100E20000221FFF70BFB10B010BD00BF80020020B5
:100E3000205C000884B0ADF80600BDF806304FF421
:100E400016629BB2534301E0039B013B0393039B58
:100E5000002BF9D104B0704708B507200121FFF736
:100E600077FDFF200121FFF7FBFC03F027FF044B78
:100E7000C8209A68034B1A60BDE80840FFF7DABF44
:100E8000540000205808002008B53E4B93F9140088
:100E900060B90146FFF75CFD3B48FFF786FE3B4B20
:100EA0004FF487629A6102F5BE721A62354B93F96C
:100EB0001430012B0DD100200146FFF749FD3448C5
:100EC000FFF773FE314B4FF496729A614FF4D27272
:100ED0001A622C4B93F91430022B0DD100200146DD
:100EE000FFF736FD2B48FFF760FE284B4FF48C725E
:100EF0009A614FF4B9721A62224B93F91430032BA2
:100F00000CD100200146FFF723FD2348FFF74DFEDB
:100F10001E4BA0229A614FF48C721A62194B93F9FE
:100F20001430042B0DD100200146FFF711FD1B48A2
:100F3000FFF73BFE154B4FF448729A614FF4AA62DB
:100F40001A62104B93F91430052B0CD10020014686
:100F5000FFF7FEFC1248FFF728FE0C4B64229A6153
:100F60004FF4FA621A62074B93F91420062A01D152
:100F700000221A7503F0A2FE4FF41670BDE8084077
:100F8000FFF758BF80020020245C000854000020B6
:100F9000355C0008465C0008575C0008685C000887
:100FA000795C000882B00190019A4FF0804392B2C0
:100FB0009A8500229A8409221A80198A4FF0804269
:100FC000C907FAD5138A23F001031B041B0C1382F3
:100FD00002B0704738B505462D4C0020012301466C
:100FE0006375FFF7B5FC2B4B0221188880B203F024
:100FF000ADF8FFF7DAFD2848FFF7D7FD00210720FD
:10100000FFF7A6FC254B188800B203F02BF8FFF77A
:10101000CCFD2348FFF7C9FD062D10D1FFF782F85C
:10102000C068FFF785F8FFF77DF80068FFF780F8E4
:10103000FFF778F8C068BDE83840FFF779B8022DAF
:1010400012D1184BE28A1B88D3189BB2E382E28A42
:1010500040F6FF7312B29A42C8BFE3820C4BDA8AA1
:10106000114B12B29A6038BD012D10D10D4BE28A9E
:101070001B88D31A9BB2E382E38A1BB2002B01DCEC
:101080000023E382024BDA8A074B12B29A6038BD22
:1010900080020020580600208A5C00087A020020A6
:1010A0008E5C00081C0200200074004008B5354B1F
:1010B000012206285A750FD1FFF734F8C068FFF7F0
:1010C00037F8FFF72FF84068FFF732F8FFF72AF8F4
:1010D000C068FFF72DF825E002282B4B0DD1598869
:1010E0001A880D2000FB021292B25A80598840F6ED
:1010F000FF7209B2914210DD0EE0012812D1598829
:101100001A886FF00C0000FB021292B25A805A88C3
:1011100012B2002A01DC00225A801B4B5A881B4B5A
:1011200012B25A6100200146FFF712FC184B02214F
:10113000188880B203F00AF8FFF737FD1548FFF76B
:1011400034FD00210520FFF703FC134B188800B283
:1011500002F088FFFFF729FD1048FFF726FD012167
:101160000320FFF7F5FB0E48FFF71FFD064B5888DD
:1011700000B202F077FFFFF718FD0A48BDE808400B
:10118000FFF713BD800200201C0200200074004005
:10119000580600208A5C00087A0200208E5C000855
:1011A000945C0008195E000808B5364B012205283A
:1011B0005A7514D1FEF7B6FFC068FEF7B9FFFEF707
:1011C000B1FF4068FEF7B4FFFEF7ACFF4068FEF7E2
:1011D000AFFFFEF7A7FFC068FEF7AAFF21E00228D5
:1011E0000CD1294AD98A12888A1892B2DA82D98A0D
:1011F00040F6FF7209B291420EDD0CE0012810D1D9
:10120000214AD98A12888A1A92B2DA82DA8A12B20A
:10121000002A01DC0022DA821A4BDA8A1B4B12B256
:101220009A6000200146FFF793FB194B02211888B2
:1012300080B202F08BFFFFF7B8FC1648FFF7B5FC51
:1012400000210620FFF784FB134B188800B202F040
:1012500009FFFFF7AAFC1148FFF7A7FC01210320B3
:10126000FFF776FB0E48FFF7A0FC064BD88A00B2CA
:1012700002F0F8FEFFF799FC0A48BDE80840FFF7C6
:1012800094BC00BF800200201C02002000740040BB
:10129000580600208A5C000878020020965C00084E
:1012A000855D0008195E000810B596B0002304465D
:1012B000084610A98DF854208DF8553003F06CF8CD
:1012C0004FF4616001A9B4FBF0F002F005FF10AA31
:1012D00006AB074902F0CCFF06A915A80BAA02F03D
:1012E000AEFF0BA80421FFF7A9F816B010BD00BF90
:1012F000205C0008022838B51E4B09D11A881E4907
:10130000013292B209681A8012B28A4213D310E0F5
:10131000012810D11A88013A92B210041A8003D51C
:10132000154A1268013A1A80124BB3F90020002ABC
:1013300001DA00221A8000200F4C0146FFF708FB5B
:101340000C4D234653F8040BB5F900200138801AE0
:10135000112202FB0030FFF728FCB5F90000002243
:10136000064903F001FE206805490022BDE8384027
:1013700003F0FABD80020020A80600209B5C000854
:10138000A85C000810B5044600200146FFF7E0FA0B
:101390000A4B188800B202F065FEFFF706FC084809
:1013A000FFF703FC022C08D1064B1A88064B12B239
:1013B0009A60BDE8104003F0C7BC10BD7006002065
:1013C000BB5C0008780200200400002010B5044631
:1013D00000200146FFF7BCFA0A4B188800B202F061
:1013E00041FEFFF7E2FB0848FFF7DFFB022C08D1C4
:1013F000064B1A88064B12B21A61BDE8104003F082
:10140000A3BC10BD70060020BB5C00087A0200205F
:101410000400002010B5044600200146FFF798FAAA
:101420001648FFF7C2FB022C27D103F0B5FB03F0EF
:1014300079FB044600200146FFF78AFA1048FFF7BF
:10144000B4FB4FF4FA60FFF7F5FC00200146FFF70C
:101450007FFA012C08D10B48FFF7A7FB0A48FEF7DB
:1014600037FF4FF4FA6004E00848FFF79EFB4FF4A3
:101470007A60BDE81040FFF7DDBC10BDCA5C000813
:10148000DB5C0008EC5C0008FD5C00080C5D0008FB
:10149000022810B50E4C02D12369013303E0012864
:1014A00002D12369013B236100200146FFF750FA76
:1014B000206902F0D7FDFFF778FB0648FFF775FBC0
:1014C00023694FF461625A43034B1A6010BD00BF99
:1014D000540000201D5D000848080020022810B5B7
:1014E000324B07D11A7D0132D2B2072A1A750BD1BD
:1014F000002208E0012807D11A7D013AD2B2140671
:101500001A7501D506221A75284C94F9140028B9C9
:101510000146FFF71DFA2648FFF747FB94F9143000
:10152000012B06D100200146FFF712FA2148FFF7F0
:101530003CFB1E4C94F91430022B06D100200146CE
:10154000FFF706FA1C48FFF730FB94F91430032B21
:1015500006D100200146FFF7FBF91848FFF725FBED
:10156000124C94F91430042B06D100200146FFF7E9
:10157000EFF91348FFF719FB94F91430052B06D146
:1015800000200146FFF7E4F90E48FFF70EFB074B7A
:1015900093F91430062B08D100200146FFF7D8F943
:1015A0000948BDE81040FFF700BB10BD80020020D5
:1015B000225D0008335D0008455D0008565D0008A7
:1015C000665D0008775D0008875D0008022810B599
:1015D0000D4C02D1A3690A3303E0012802D1A369AB
:1015E0000A3BA36100200146FFF7B2F9A0690A2374
:1015F000B0FBF3F0012102F0A9FDFFF7D6FA034892
:10160000BDE81040FFF7D1BA54000020415C00084B
:10161000022810B50D4C02D1236A0A3303E00128D9
:1016200002D1236A0A3B236200200146FFF790F9AA
:10163000206A0A23B0FBF3F0012102F087FDFFF7D7
:10164000B4FA0348BDE81040FFF7AFBA54000020D9
:10165000415C0008022810B50B4C02D1A36A01338B
:1016600003E0012802D1A36A013BA36200200146E6
:10167000FFF76EF9A06A02F0F5FCFFF796FA03484F
:10168000BDE81040FFF791BA54000020975D0008B4
:10169000022810B50B4C02D1236B013303E0012863
:1016A00002D1236B013B236300200146FFF750F971
:1016B000206B02F0D7FCFFF778FA0348BDE8104032
:1016C000FFF773BA54000020975D0008022838B570
:1016D0001A4C02D1A36B013303E0012802D1A36BA2
:1016E000013BA36300200146FFF732F9A06B02F033
:1016F000B9FCFFF75AFA1248FFF757FA206A0A2591
:101700000121B0FBF5F002F021FDFFF74EFA0D4884
:10171000FFF74BFA236AA06B64225843B0FBF2F048
:101720001B1AB3FBF5F0012102F010FDFFF73DFAA3
:101730000548BDE83840FFF738BA00BF5400002024
:10174000A05D0008A35D0008415C000808B5084BD7
:101750001A68084B9B689A4209D107200121FFF7BC
:10176000F7F8FF200121BDE80840FFF779B808BD70
:10177000580800205400002010B5044600200146FF
:10178000FFF7E6F8022C194B06D19A680132082AB5
:101790009A6009D1012206E0012C05D19A68013A2C
:1017A0009A600AB907229A60104A9368013B062B97
:1017B00018D8DFE803F00406080A0C0E10000C48E5
:1017C0000AE00C4808E00C4806E00C4804E00C482D
:1017D00002E00C4800E00C48FFF7E7F9BDE81040D4
:1017E000FFF7B4BF0123936010BD00BF5400002079
:1017F000A65D0008B75D0008C85D0008D95D000857
:10180000EA5D0008FB5D00080C5E000838B54FF487
:1018100000612A48FFF79DFA4FF48071D0F101046E
:10182000264838BF0024FFF794FA10B944F00204A8
:10183000E4B223481021FFF78CFA88B12048202118
:10184000FFF787FA70B11E484021FFF782FA58B1BE
:101850001B488021FFF77DFA002829D1072204E0E8
:10186000032202E0052200E00622164B40F2DC5083
:10187000198B0DB2854203DD40F2B451198315E096
:10188000013189B21429198310D00E4BDA7E02F08F
:1018900003018C4210D044EA8204E4B2E12CDC76ED
:1018A00001D1022202E0D22C06D101229A7638BD63
:1018B000044B00221A83E8E738BD00BF000801404E
:1018C000000C01408002002008B508480121FEF705
:1018D000C9FC48B105480121FEF7CFFCFFF796FF90
:1018E000034BDA690132DA6108BD00BF0014004021
:1018F0008002002038B520480121FEF7B3FC002803
:1019000038D001211C48FEF7B8FC1C4B1A8812B2D3
:10191000012A07DC1A4CE568188800B202F080FC46
:101920004519E560154B1A8812B2022A07DD144CDE
:101930006568188800B202F073FC45196560104BA9
:1019400093F82020012A02D19A6801329A6093F814
:1019500021300B4A012B02D1136901331361084B6B
:1019600093F82220012A02D15A6A01325A629A6AF5
:1019700001329A6238BD00BF004401407006002069
:1019800080020020034B00225A62012283F82220A9
:10199000704700BF80020020034B00225A620122E0
:1019A00083F82220704700BF8002002038B504462B
:1019B0004FF46160B4FBF0F002F054FB054602F016
:1019C00035FC012803D812480121FFF70DF8012149
:1019D0002846FFF709F801210E48FFF705F83C23D8
:1019E000B4FBF3F4B4FBF3F003FB104002F03AFB5A
:1019F000044602F01BFC012803D805480121FEF72C
:101A0000F3FF20460121BDE83840FEF7EDBF00BFDF
:101A10001D5E0008895F0008054B4FF480321A6193
:101A2000044B002283F82C2083F82D20704700BF40
:101A3000000C014080020020044A01231361044A83
:101A400082F82C3082F82D30704700BF000C014026
:101A50008002002038B52C4B012205465A75FFF74D
:101A6000EBFF022D294C02D1A388013303E0012DA5
:101A700002D1A388013BA38000200146FEF768FF46
:101A80000221A08802F062FBFFF78FF82048FFF7E1
:101A90008CF8204B204A1888138880B21BB2002B88
:101AA000A1881E4B01DC46220AE0401A118802B2CE
:101AB00022EAE27242F21070424309B292FBF1F262
:101AC000164C1A64206C02F0CDFAFFF76EF8144839
:101AD000FFF76BF8134B19880E4B89B21A880E4B1F
:101AE00092B2188800B2002801DC0A230AE0891AA1
:101AF0001A880BB223EAE37342F210714B4312B21D
:101B000093FBF2F3A36438BD800200201C02002086
:101B1000A35D00087C020020700600200400002065
:101B20001F5E00085406002038B5174B01220546F9
:101B30005A75FFF781FF022D144C02D1A36B0133BC
:101B400003E0012D02D1A36B013BA36300200146FA
:101B5000FEF7FEFEA06B02F085FAFFF726F80C48B0
:101B6000FFF723F800200121FEF7F2FE094B0221C6
:101B7000188880B202F0EAFAFFF717F80648BDE8C5
:101B80003840FFF712B800BF800200200400002098
:101B9000195E00087A0600208A5C000838B5174BE9
:101BA000012205465A75FFF747FF022D144C02D15A
:101BB000236B0A3303E0012D02D1236B0A3B23631D
:101BC00000200146FEF7C4FE206B02F04BFAFEF740
:101BD000ECFF0C48FEF7E9FF00200121FEF7B8FEFC
:101BE000094B0221188880B202F0B0FAFEF7DDFF3F
:101BF0000648BDE83840FEF7D8BF00BF800200208D
:101C000004000020195E0008580600208A5C0008C5
:101C100038B5174B012205465A75FFF70DFF022D07
:101C2000144C02D1A36A013303E0012D02D1A36A4F
:101C3000013BA36200200146FEF78AFEA06A02F083
:101C400011FAFEF7B2FF0C48FEF7AFFF00200121AA
:101C5000FEF77EFE094B0221188880B202F076FA68
:101C6000FEF7A3FF0648BDE83840FEF79EBF00BF61
:101C70008002002004000020195E000854060020A5
:101C80008A5C000838B5164B012205465A75FFF7E5
:101C9000D3FE022D134C02D1A369013303E0012DC1
:101CA00002D1A369013BA36100200146FEF750FE6B
:101CB000A06902F0D7F9FEF778FF0B48FEF775FF31
:101CC00001210020FEF744FE084B188800B202F004
:101CD000C9F9FEF76AFF0648BDE83840FEF765BF60
:101CE0008002002004000020195E00087802002015
:101CF0002A5E0008044B02221A61044B012283F879
:101D00002C2083F82E207047000C01408002002018
:101D100010B50B4C94F92F30022B10D0022384F80D
:101D20002F30FFF779FEFFF7E5FF00233220E36154
:101D3000FFF738F90348BDE8104003F0D5B810BDEF
:101D4000800200202F5E000808B5FFF765FEFFF750
:101D5000D1FF3220BDE80840FFF724B938B5164B53
:101D6000012205465A75FFF7EFFF022D134C02D1F1
:101D7000236A013303E0012D02D1236A013B236270
:101D800000200146FEF7E4FD206A02F06BF9FEF741
:101D90000CFF0B48FEF709FF01210020FEF7D8FDDC
:101DA000084B188800B202F05DF9FEF7FEFE064807
:101DB000BDE83840FEF7F9BE800200200400002094
:101DC000195E00087A0200202A5E0008054B4FF4D5
:101DD00000321A61044B002283F82C2083F82E2055
:101DE000704700BF000C01408002002008B5FFF7DB
:101DF000EDFFBDE80840FFF70FBE000038B5834B8C
:101E0000012193F83020054659754AB983F82020FE
:101E100083F8301083F8212083F83120DA601A61CA
:101E20007B4B7C491A88896992B2784B8A425A86E0
:101E300001D3002205E093F831200AB99A6A5A6367
:101E4000012283F831209A6A5B6B704CD31A032B02
:101E500007D994F8313023B1FFF7C8FF002384F885
:101E60002130022D694C0CD194F82C301BB9FFF7AE
:101E70006BFF012302E0FFF7B9FF002384F8213054
:101E80000CE0012D0AD194F83830013BDBB21D067D
:101E900084F8383002D5032384F838305B4C94F949
:101EA0003800002835D10146FEF752FD584B02217B
:101EB000188880B202F04AF9FEF777FE5648FEF71E
:101EC00074FE564B188800B202F0CCF8FEF76DFE97
:101ED0005348FEF76AFE94F82C3013B9072001210D
:101EE00005E094F8393007200121052B03D8FEF7CF
:101EF0002FFD022002E0FEF72BFD03200121FEF75B
:101F000023FD424B93F839200A2A02D9002283F894
:101F100039203E4B93F93840012C13D10020014663
:101F2000FEF716FD3F48FEF740FE3A4B2146986902
:101F30000A23B0FBF3F002F009F9FEF736FE3A4847
:101F4000FEF733FE314C94F93830022B1AD10020C1
:101F50000146FEF7FDFC3548FEF727FE344B986836
:101F60004FF46163B0FBF3F002F07CF8FEF71DFE66
:101F70003048FEF71AFE03200121FEF7E9FCE06B72
:101F8000FFF714FD214C94F93850032D19D100208E
:101F90000146FEF7DDFC2848FEF707FEE0684FF437
:101FA0006163B0FBF3F002F05DF8FEF7FEFD23483D
:101FB000FEF7FBFD28460121FEF7CAFC2069FFF76A
:101FC000F5FC124C002294F830001D4902F0CCFFC1
:101FD000607D00221B4902F0C7FF94F82000002218
:101FE000194902F0C1FFA0680022184902F0BCFFA5
:101FF00094F821000022164902F0B6FF2069154925
:102000000022BDE8384002F0AFBF00BF80020020D0
:102010005806002054000020A35D00087006002030
:10202000505E0008595E0008415C0008655E0008CB
:1020300094000020685E0008715E0008745E00086D
:102040007D5E00088B5E0008A05E0008B55E00089B
:10205000C55E0008DD5E000810B50B4C94F92F300A
:10206000012B10D0012384F82F30FFF7AFFEFFF7CC
:10207000E3FC00233220E361FEF794FF0348BDE850
:10208000104002F031BF10BD80020020325E000817
:1020900070B5044600200146FEF75AFC6F4B012242
:1020A00093F830105A751E4619B983F83020FFF79F
:1020B00069FC726A6A4E694DB36A9A4211D8FFF799
:1020C000CBFF684B1A88336A92B29A4209D9EB69FE
:1020D000B3F5C87F05D9FFF75FFC6A6AB36AD31806
:1020E0006B625E4D5E4E6A6AB36A9A420DD9FFF723
:1020F0000FFE5C4B1A88B36992B29A4205D2EB6923
:10210000B3F5C87F01D9FFF747FC554B6A6A196BD5
:102110009B6ACB189A4201D9FFF73EFC022C4F4B29
:1021200009D193F838200132D2B2032A83F838203B
:102130000ED100220AE0012C0AD193F83820013A8E
:10214000D2B283F83820120602D5022283F8382052
:10215000424D95F93840002C32D120462146FEF7F9
:10216000F7FB404B0221188880B201F0EFFFFEF729
:102170001CFD3D48FEF719FD3C4B188800B201F0EC
:1021800071FFFEF712FD3A48FEF70FFD0620012110
:10219000FEF7DEFB05200121FEF7D6FB95F82D505A
:1021A0000720012D05D12946FEF7D2FB20462946FE
:1021B00004E00121FEF7CCFB02200121FEF7C4FB65
:1021C000264B93F93840012C23D10020244D0146A1
:1021D000FEF7BEFB286901F045FFFEF7E6FC254847
:1021E000FEF7E3FCA8690A262146B0FBF6F001F0F1
:1021F000ADFFFEF7DAFC1C48FEF7D7FC286A214643
:10220000B0FBF6F001F0A2FFFEF7CFFC1A48FEF794
:10221000CCFC124C94F93830022B1DD10020104D0B
:102220000146FEF795FBA86A01F01CFFFEF7BDFC16
:102230001248FEF7BAFC286B01F014FFFEF7B5FC5C
:102240000F48FEF7B2FC03200121FEF781FB206955
:10225000BDE87040FFF7AABB70BD00BF8002002040
:102260005400002058060020A35D000870060020DE
:10227000F05E0008B4620008835C0008A25F0008FA
:10228000F85E000870B5774B05465C7D002C3BD1AD
:10229000754B1A88754B92B21B6A05339A4215D258
:1022A00021462046FEF754FB7148FEF77EFC4FF4B2
:1022B000FA60FEF777FE20462146FEF749FB6D489F
:1022C000FEF773FC40F6B830FEF76CFE654B002459
:1022D00001265E7583F8204083F821409C601C61D4
:1022E000DC635C60DC6083F82060FFF7B5FE624B66
:1022F0002046DE712146FEF72BFB6048FEF755FCB9
:102300004FF47A70FEF74EFE5D4B188800B201F074
:1023100087FF052840F369815A4B1A88534B92B2C4
:102320009B699A421DD2544BDA79022A19D14D4C3D
:10233000E369B3F57A7F14D9002384F82130E1688A
:10234000514B994203D9E0682169FEF7ADFF0023A4
:102350000126A360636084F82060FFF77DFE464B92
:10236000DE71484B1A88414B92B21B6A9A423D4B30
:1023700007D9414AD279012A03D1DA69B2F57A7FC5
:1023800008D89A68414B1B689A4220D93A4BDB79AE
:10239000012B1CD1334C002384F8203062683A4B67
:1023A0009A4204D960680122A168FEF77DFF236983
:1023B000E363E268364B9A6000232361E360012304
:1023C00084F82130FFF7A4FC2B4B0222DA71022D96
:1023D000244B09D193F838200132D2B2052A83F870
:1023E00038200ED100220AE0012D0AD193F83820BE
:1023F000013AD2B2110683F8382002D5042283F8BC
:102400003820184D95F93840002C4ED120462146F1
:10241000FEF79EFA1B4B0221188880B201F096FE4F
:10242000FEF7C3FB1B48FEF7C0FB154B188800B234
:1024300001F018FEFEF7B9FB1748FEF7B6FB0620C1
:102440000121FEF785FA04200121FEF77DFA95F8B7
:102450002D500720012D21D12946FEF779FA20467B
:10246000294620E08002002054060020540000206D
:10247000005F0008115F00081C020020225F0008B6
:1024800070060020580600204F8C050048080020E8
:1024900094000020A35D0008F05E00080121FEF713
:1024A00057FA02200121FEF74FFA6A4B93F93840A0
:1024B000012C23D10020684D0146FEF749FA286916
:1024C00001F0D0FDFEF771FB6448FEF76EFBA869D2
:1024D0000A262146B0FBF6F001F038FEFEF765FB58
:1024E0005F48FEF762FB286A2146B0FBF6F001F078
:1024F0002DFEFEF75AFB5B48FEF757FB554C94F94F
:102500003850022D21D100200146FEF721FA28463D
:102510000121FEF719FA00210120FEF719FA5248AD
:10252000FEF743FBE0684FF46163B0FBF3F001F0AA
:1025300099FDFEF73AFB4D48FEF737FB03200121DA
:10254000FEF706FA2069FFF731FA424C94F9385049
:10255000032D21D100200146FEF7FAF900200121C8
:10256000FEF7F2F900210120FEF7F2F93E48FEF7EE
:102570001CFB60684FF46163B0FBF3F001F072FD87
:10258000FEF713FB3948FEF710FB28460121FEF742
:10259000DFF9A068FFF70AFA2E4C94F93830042BC3
:1025A0002FD100200146FEF7D3F902200121FEF7CA
:1025B000CBF900210120FEF7CBF92D48FEF7F5FA03
:1025C0002C4B98684FF46163B0FBF3F001F04AFDC7
:1025D000FEF7EBFA2848FEF7E8FA03200121FEF7A0
:1025E000B7F9E06BFFF7E2F90BE01A4BDB69B3F5E3
:1025F0007A7F06D900200146FEF7AAF91F48FEF7A8
:10260000D4FA144C0022607D1D4902F0ADFC94F810
:10261000200000221B4902F0A7FCA06800221A49F2
:1026200002F0A2FC60680022184902F09DFC94F8B8
:1026300021000022164902F097FC2069002215496A
:1026400002F092FCE06814490022BDE8704002F0FC
:102650008BBC00BF8002002054000020B462000840
:10266000A35D0008835C00081B5E0008335F000860
:10267000655E000894000020745E00083D5F00085D
:102680008B5E0008A05E0008B55E00084E5F000883
:10269000C55E0008DD5E0008665F0008F8B5924B75
:1026A00005465C7D002C3DD1904B1A88904B92B230
:1026B0001B6A05339A4215D221462046FEF748F997
:1026C0008C48FEF772FA4FF4FA60FEF76BFC204676
:1026D0002146FEF73DF98848FEF767FA40F6B83024
:1026E000FEF760FC804C00270126667584F8207098
:1026F00084F82170A7602761E7636760E76084F86A
:102700002060FFF7A9FC7D4B3946DE713846FEF7A5
:102710001FF97B48FEF749FA4FF47A70FEF742FC46
:1027200084F84060704C94F94030032B00F3D08063
:10273000744B188800B201F073FD052840F3BB808C
:10274000714B1A886A4B92B29B699A4227D26B4BA3
:10275000DA79022A23D1E369B3F57A7F1FD90023FE
:1027600084F82130E168694B994203D9E068216916
:10277000FEF79AFD5C4C01262369E363E268644B33
:1027800084F820609A6000236360A360FFF764FC14
:1027900094F840309B1984F84030584BDE715A4B06
:1027A0001A88534B92B21B6A9A424F4B07D9534A2D
:1027B000D279012A03D1DA69B2F57A7F08D89A680A
:1027C000544B1B689A4224D94C4BDB79012B20D106
:1027D000454C94F94030022B1BDC002384F8203058
:1027E00062684A4B9A4204D960680122A168FEF7E8
:1027F0005BFD012384F821300023E3602361FFF7B0
:1028000087FA94F840300222013384F840303B4B81
:10281000DA713D4B1A88364B92B21B6A9A42324BA0
:1028200007D9364AD279012A03D1DA69B2F57A7F1B
:1028300008D89A68374B1B689A4221D92F4BDB790D
:10284000012B1DD1284C94F94030022B18DDFFF7E5
:10285000CDFA002384F8203084F8213062682B4BB5
:102860009A4204D960680122A168FEF71DFD1E4B43
:1028700093F84020013283F84020022283F8382068
:10288000022D194B09D193F838200132D2B2042A13
:1028900083F838204FD100220AE0012D4BD193F864
:1028A0003820013AD2B2140683F8382043D50322E7
:1028B00083F838203FE0E369B3F57A7F40F2EA809D
:1028C00000200146FEF744F81348FEF76EF9E1E0F8
:1028D000022D23D194F838300133DBB2042B84F875
:1028E000383028D1002324E0800200205406002044
:1028F00054000020005F0008115F00081C02002047
:10290000225F000870060020580600204F8C05004A
:1029100094000020480800203D5F0008012D0AD1E6
:1029200094F83830013BDBB2180684F8383002D511
:10293000032384F838306B4D95F93840002C32D1A0
:1029400020462146FEF704F8674B0221188880B222
:1029500001F0FCFBFEF729F96448FEF726F9644B09
:10296000188800B201F07EFBFEF71FF96148FEF700
:102970001CF906200121FDF7EBFF04200121FDF7E2
:10298000E3FF95F82D500720012D05D12946FDF7CD
:10299000DFFF2046294604E00121FDF7D9FF022090
:1029A0000121FDF7D1FF4F4B93F93840012C23D182
:1029B0000020514D0146FDF7CBFF286901F052FB85
:1029C000FEF7F3F84D48FEF7F0F8A8690A2621460D
:1029D000B0FBF6F001F0BAFBFEF7E7F84348FEF76C
:1029E000E4F8286A2146B0FBF6F001F0AFFBFEF7F1
:1029F000DCF84348FEF7D9F83A4C94F93850022DE8
:102A000021D100200146FDF7A3FF28460121FDF753
:102A10009BFF00210120FDF79BFF3A48FEF7C5F818
:102A2000E0684FF46163B0FBF3F001F01BFBFEF7CD
:102A3000BCF83548FEF7B9F803200121FDF788FFFF
:102A40002069FEF7B3FF274C94F93850032D21D1AC
:102A500000200146FDF77CFF00200121FDF774FFF7
:102A600000210120FDF774FF2648FEF79EF86068FC
:102A70004FF46163B0FBF3F001F0F4FAFEF795F860
:102A80002148FEF792F828460121FDF761FFA06872
:102A9000FEF78CFF134C0022607D1C4902F064FAA3
:102AA00094F8200000221A4902F05EFAA068002281
:102AB000184902F059FA60680022174902F054FAE6
:102AC00094F821000022154902F04EFA20690022F4
:102AD000134902F049FAE06812490022BDE8F840C3
:102AE00002F042BA8002002058060020A35D0008D0
:102AF00070060020F05E000854000020B462000858
:102B0000835C00081B5E0008335F00088B5E0008D2
:102B1000A05E0008B55E00084E5F0008C55E0008B4
:102B2000DD5E0008665F000808B5FFF74FF9FEF7A5
:102B300083FF3220BDE80840FEF734BA38B5AD4B0C
:102B4000012293F8304005465A7544BBAA4B1A88B7
:102B5000AA4B92B21B6A05339A4215D221462046EF
:102B6000FDF7F6FEA648FEF720F84FF4FA60FEF7F0
:102B700019FA20462146FDF7EBFEA248FEF715F8AC
:102B800040F6B830FEF70EFA9A4B0022012183F886
:102B9000202083F8301083F821205A609A60954CE9
:102BA000994BA2681B689A4206D89849934A0888AC
:102BB000136A80B2984203D9FFF718F900230CE09A
:102BC000926B64205A430988B2FBF0F289B29B1AD7
:102BD000994204D2FFF7A8FF012384F82030022D88
:102BE000844C0CD194F82C301BB9FFF79DFF0123C6
:102BF00002E0FFF7FBF8002384F820300CE0012D01
:102C00000AD194F83830013BDBB21D0684F8383025
:102C100002D5032384F83830764C94F93800002824
:102C200052D10146FDF794FE94F82C30A3B9724BB3
:102C30000221188880B201F089FAFDF7B6FF7448C6
:102C4000FDF7B3FF714B0221188880B201F07EFAC4
:102C5000FDF7ABFF6F4812E06C4B0221188880B281
:102C600001F074FAFDF7A1FF6948FDF79EFF6A4B7A
:102C7000188800B201F0F6F9FDF797FF6748FDF7F5
:102C800094FF5C4B93F82C402CB907200121FDF7F1
:102C90005FFE204608E093F8393007200121052B1C
:102CA00004D8FDF755FE0020012103E0FDF750FE9A
:102CB00001200146FDF748FE4E4B93F839200A2AC1
:102CC00002D9002283F839204A4B93F93840012C6D
:102CD0001BD100200146494DFDF73AFE5048FDF753
:102CE00064FF286901F0BEF9FDF75FFF4D48FDF76D
:102CF0005CFF286A0A23B0FBF3F0214601F026FAB4
:102D0000FDF753FF4348FDF750FF3A4B93F9383036
:102D1000022B29D1394C00200146FDF719FEA06B8A
:102D200001F0A0F9FDF741FF3F48FDF73EFF206AA3
:102D30000A250121B0FBF5F001F008FAFDF735FF97
:102D40003348FDF732FF236AA06B64225843B0FB7F
:102D5000F2F01B1AB3FBF5F0012101F0F7F9FDF7D2
:102D600024FF2C48FDF721FF224C94F93850032D05
:102D700019D100200146FDF7EBFD2C48FDF715FFAA
:102D800060684FF46163B0FBF3F001F06BF9FDF79D
:102D90000CFF2748FDF709FF28460121FDF7D8FD64
:102DA000A068FEF703FE134C6420FEF743F894F886
:102DB000300000221F4902F0D7F8607D00221E4932
:102DC00002F0D2F894F8200000221C4902F0CCF85E
:102DD000A06800221A4902F0C7F894F821000022E6
:102DE000184902F0C1F8206917490022BDE83840AF
:102DF00002F0BAB8800200205406002054000020DF
:102E0000005F0008115F00084808002058060020F5
:102E1000A35D0008415C000870060020505E0008B9
:102E2000885F00088B5F0008A05D0008935F0008C2
:102E3000745E00087D5E00088B5E0008A05E0008DE
:102E4000B55E0008C55E0008DD5E0008F0B5A24B67
:102E50000122022887B05A7509D193F84120013226
:102E6000D2B2082A83F841200ED100220AE00128BC
:102E70000AD193F84120013AD2B283F841201206D8
:102E800002D5072283F84120934B93F941400CBBB4
:102E9000FEF7ACFF21462046FDF75AFD8F48FDF7AF
:102EA00084FE8F4B012118880A2380B2B0FBF3F017
:102EB00001F04CF9FDF779FE8A48FDF776FE8A4B62
:102EC0000221188880B201F041F9FDF76EFE8748B3
:102ED000FDF76BFE804B93F94130012B1DD1FEF7BE
:102EE00085FF00200146FDF733FD8148FDF75DFEBB
:102EF000804B0221188880B201F028F9FDF755FEB9
:102F00007D48FDF752FE7D4BD88880B201F0AAF8CB
:102F1000FDF74BFE7A48FDF748FE6F4B93F94140B1
:102F2000022C1DD1FEF788FD00200146FDF710FDA3
:102F30007448FDF73AFE744B2146188880B201F0C0
:102F400005F9FDF732FE6C48FDF72FFE6B4B9888B4
:102F500080B201F087F8FDF728FE6948FDF725FEED
:102F60005D4B93F94130032B1ED1FEF72FFFFEF787
:102F700063FD00200146FDF7EBFC6448FDF715FEFC
:102F8000634B188800B201F06DF8FDF70EFE614842
:102F9000FDF70BFE594B588880B201F063F8FDF73E
:102FA00004FE5748FDF701FE4B4B93F94130042BCB
:102FB0001ED1FEF731FDFEF79DFE00200146FDF714
:102FC000C7FC5548FDF7F1FD544B188800B201F0DD
:102FD00049F8FDF7EAFD4F48FDF7E7FD474B188834
:102FE00080B201F03FF8FDF7E0FD4D48FDF7DDFD53
:102FF000394B93F94130052B3DD13E4D494CFEF7FD
:10300000E5FEFEF719FD2988238889B29BB2404F5F
:10301000CB1A42F210714B433A88434E12B2002051
:1030200093FBF2F30146B364FDF792FC3F48FDF7D2
:10303000BCFD306C01F016F8FDF7B7FD3C48FDF71C
:10304000B4FDB06C01F00EF8FDF7AFFD3948FDF7A7
:10305000ACFD3888384900B2002201F085FF28888D
:10306000364980B2022201F07FFF2088344980B2C5
:10307000022201F079FF184C94F94130062B0ED151
:10308000FEF7B4FE00200146FDF762FC01A9A06A2C
:1030900001F011F9FDF789FD2A48FDF786FD0E4C78
:1030A00094F94130072B14D1FEF7A0FE0020014611
:1030B000FDF74EFC2448FDF778FD606C4FF461632A
:1030C000B0FBF3F000F0CEFFFDF76FFD1F48FDF7FA
:1030D0006CFD07B0F0BD00BF80020020965F0008C5
:1030E0007A0600209B5F000856060020185E000844
:1030F000A05F000854060020A35D00084C080020D3
:10310000165E0008A55F000858060020AB5F0008A7
:1031100070060020B15F0008B55F00087A02002049
:10312000155E00087C02002004000020BB5F000840
:10313000BE5F0008C35F0008CB5F0008CF5F0008D8
:10314000D65F0008145E0008DE5F0008E55F000837
:103150002DE9F041A54D002400F02AFEFEF746FEC1
:10316000A3482C60FDF721FDFDF76BFC21462046AE
:10317000FDF7EEFB4FF4FA60FDF75CFE01F05CFA40
:103180002B68172B88BF2C6001F0CCFC80B94FF462
:103190007A70FDF74FFE01F0C5FC48B99548FDF780
:1031A00004FD4FF47A60FDF745FE9348FDF790F873
:1031B000924B934C1A69934B8D485A6423694FF490
:1031C00061625A43904B1A60904BA2681A6001F0FA
:1031D0008BFEFDF7E7F9FDF7A4FB8D48FCF7C0FF78
:1031E000A368012B17D0022B01D18A4814E0032BCE
:1031F00001D1894810E0042B01D188480CE0052B4F
:1032000001D1874808E0062B01D1864804E0072B4E
:1032100001D1854800E08548FCF78AFF844B0122F4
:103220001A70844B02221A80834A4FF48071116114
:10323000744D40F6B8325A804FF47A72EA825A8856
:103240007E4B12B25A61EA8A002612B29A60374661
:1032500095F83930AC7E01332046794985F839300C
:10326000AF76002201F080FE73481021FDF771FD5A
:1032700010B9744801F038FE631E062B29D8DFE828
:1032800003F004080E2828281500FCF74BFF4068BF
:1032900002E0FCF747FF0068FCF74AFF19E0022054
:1032A000FCF768FFFCF73EFFC068F5E7604B61493B
:1032B0001878614A38B9022008804FF48071116192
:1032C00001221A7005E01E7014204FF080730880F0
:1032D0001361FCF727FFDFF85481404503D12046F6
:1032E000FDF778FE35E1FCF71DFF08F12C0398424D
:1032F00003D12046FDF7DAFE2BE1FCF713FF08F1BE
:103300005803984203D12046FDF74EFF21E1FCF718
:1033100009FF08F18403984203D12046FFF70EFC11
:1033200017E1FCF7FFFE08F1B003984203D12046F5
:10333000FEF764FD0DE1FCF7F5FE08F59A7398427F
:1033400003D12046FFF7AAF903E1FCF7EBFE08F1F1
:10335000DC03984203D12046FEF794FFF9E0FCF726
:10336000E1FE08F58473984203D12046FEF790FEF3
:10337000EFE0FCF7D7FE08F5B073984203D1204682
:10338000FFF764FDE5E0FCF7CDFE08F5C6784045A3
:1033900003D12046FDF7AEFFDBE0FCF7C3FEDFF80C
:1033A000A880404503D12046FEF710F8D1E0FCF795
:1033B000B9FE08F12C03984203D12046FDF7E2FF45
:1033C000C7E0FCF7AFFE08F15803984203D120464E
:1033D000FEF7C4FCBDE0FCF7A5FE08F184039842AB
:1033E00034D12046FEF74EFCB3E000BFA806002013
:1033F00024020020F35F000804600008940000200D
:1034000054000020800200204808002058080020B6
:10341000850D0008705200089C520008C852000830
:10342000F4520008205300084C530008445200088E
:10343000440800201C020020000C014000740040E1
:1034400012600008095D0008FC530008FCF76AFEE2
:1034500008F1B003984203D12046FEF765FB78E0FF
:10346000FCF760FE08F1CC03984203D12046FEF73A
:1034700095FB6EE0FCF756FE08F1F803984203D185
:103480002046FEF7C5FB64E0FCF74CFE08F592739E
:10349000984203D12046FEF7DDFA5AE0FCF742FEDF
:1034A00008F5A073984203D12046FDF7B3FF50E022
:1034B000FCF738FE08F5AE78404503D12046FDF70D
:1034C000E7FF46E0FCF72EFEDFF8B080404503D171
:1034D0002046FEF703F83CE0FCF724FE08F12C033D
:1034E000984203D12046FEF771F832E0FCF71AFE4D
:1034F00008F15803984203D12046FEF789F828E0E6
:10350000FCF710FE08F18403984203D12046FEF731
:10351000A1F81EE0FCF706FE08F1B003984203D1C3
:103520002046FEF7B5F814E0FCF7FCFD08F1DC03DB
:10353000984203D12046FEF7C9F80AE0FCF7F2FDF5
:1035400008F58478404503D12046FEF715F900E0E0
:103550006E756C7D64B9FEF749FCEA68064B85F828
:1035600030409A602B6985F83840EB6385F82F402E
:103570006420FDF717FD6BE69400002084550008D9
:1035800070B592B04E2312A9002621F8043D42489E
:103590008DF84760FDF788FB01214FF4007000F0C3
:1035A000C1FA0120014600F0B1FA3C4B0625029316
:1035B0004FF4806308938023069320230993384BAC
:1035C000384801934FF48073079301A94FF40053D7
:1035D0000A93049503960B96059600F028FF0121A7
:1035E000304800F042FF4FF4004000F03DFA012463
:1035F0004FF460232C480CA90E938DF835400F969C
:103600000C968DF840508DF8344000F0F7FB0723FE
:1036100025482146224600F042FC02210A460723A3
:10362000214800F03CFC03210A4607231E4800F015
:1036300036FC0422072329461B4800F030FC2046B4
:1036400000F07CFC112105221748072300F027FC1D
:1036500010212A460423144800F021FC1248214678
:1036600000F0F0FB1048214600F0F5FB0E4800F09A
:10367000FBFB0D4800F0FDFB0028FAD10A4800F0E2
:10368000FCFB094800F0FEFB0028FAD106480121A6
:1036900000F0FCFB12B070BD000801404C08002097
:1036A0004C24014008000240002401401FB50121C4
:1036B000022000F043FA104C01A8FCF7B5FD45F6D6
:1036C000BF53ADF804302046052301A9ADF80830FA
:1036D000FCF760FD01210A462046FCF7BAFD2046B2
:1036E0000121FCF7AAFD054B4FF000521A60302271
:1036F00083F81D231FBD00BF0004004000E100E06F
:10370000224A234B91682DE9F04108319160C91A92
:10371000002808BF0120A729C8BF936093681268DA
:103720001E689A4208BF194A184C08BF1660194F04
:103730002268988015252146BC46D2F8008098451D
:10374000B2F8048008BF1660804503D2086818608C
:103750000B600020BA42246814D01168D1F80080B0
:103760009845B1F8048008BF0E60804503D2106808
:10377000186013600020614504D0013DADB20A68B5
:10378000002DDAD1A088BDE8F08100BF380200200A
:10379000F40200209C030020234A244B51692DE9A8
:1037A000F04108315161C91A002808BF0120B1F564
:1037B000A47FA8BF53615369D2681E689A4208BFAC
:1037C000194A194908BFD66051F80C2F184F988034
:1037D00029250C46BC46D2F800809845B2F80480F2
:1037E00008BF1660804503D220681860236000205F
:1037F000BA42096814D01468D4F800809845B4F827
:10380000048008BF2660804503D2106818601360EA
:103810000020644504D0013DADB22268002DDAD10C
:103820008888BDE8F08100BF38020020A403002092
:10383000EC040020234A244B116A2DE9F0410831A1
:103840001162C91A002808BF0120B1F5A47FA8BFE2
:103850001362136A92691E689A4208BF194A19498D
:1038600008BF966151F8182F184F988029250C46EB
:10387000BC46D2F800809845B2F8048008BF1660B4
:10388000804503D22068186023600020BA4209688E
:1038900014D01468D4F800809845B4F8048008BFA8
:1038A0002660804503D210681860136000206445CC
:1038B00004D0013DADB22268002DDAD18888BDE880
:1038C000F08100BF38020020F40400203C060020F4
:1038D0000F49D1F85433D1F85023C1F858339342EB
:1038E000C1F85423C1F8500307DC834203DC904243
:1038F000A8BF104670479A4205DC824203DC98421A
:10390000A8BF184670479A42B4BF10461846704781
:10391000F402002073B54D480121FCF7A3FC0028F8
:1039200000F092804A4C0121D4F85C3347480133BF
:10393000C4F85C33FCF7A1FC00250220ADF804506C
:10394000ADF8065000F0A4FD022000F0ABFD414EA2
:10395000022141482A4600F093FD404BF1889B6AC2
:1039600089B24B43328992B2B3FBF2F39BB2ADF80A
:103970000630BDF8060080B2FFF75CFFA4F86003D4
:10398000B4F860334FF4F0229BB2022B98BFA4F836
:10399000605333899BB292FBF3F39BB2A4F862337A
:1039A000B18832892D4E89B2336B92B24B43B3FB4F
:1039B000F2F39BB2ADF80630BDF8060080B2FFF717
:1039C0009FFE80B2ADF80400BDF804301BB2022B9C
:1039D00002DC0023ADF80430B3691E4C0A256B43AA
:1039E0006188228989B24B4392B2B3FBF2F39BB256
:1039F000ADF80630BDF8060080B2FFF7CDFE316AA3
:103A0000174B80B218804D432288238992B25543C8
:103A10009BB2B5FBF3F5ADB2ADF80650BDF80600AC
:103A200000B2FFF755FF0F4B80B21880BDF804209D
:103A3000074B92B20848A3F864230221012202B086
:103A4000BDE8704000F01CBD02B070BD0004004035
:103A5000F40200204C08002008000240040000206E
:103A6000780200207A020020034B5A6822F4404278
:103A700010435860704700BF0010024010B51F4B44
:103A80005A6802F00C02042A01D0082A02D01C4B0A
:103A9000036011E05A685968C2F383420232C903D5
:103AA00001D4184B06E0DB6A154903F00F0301331C
:103AB000B1FBF3F35A430260104A134B5168046898
:103AC000C1F30311595C24FA01F141605468C4F355
:103AD00002241C5D21FA04F484605468C4F3C224F7
:103AE0001C5D21FA04F1C1605268C2F381329B1857
:103AF0001B7CB1FBF3F1016110BD00BF001002405F
:103B000000127A0000093D005C020020044B5A6953
:103B100009B1104301E022EA00005861704700BF7C
:103B200000100240044B9A6909B1104301E022EAF7
:103B300000009861704700BF00100240044BDA6932
:103B400009B1104301E022EA0000D861704700BFCC
:103B50000010024008B508200121FFF7E3FF194BD0
:103B60001A6822F003021A601A6822F00C021A6026
:103B70001A6842F002021A601A6822F00C021A60F7
:103B80001A6822F030021A601A6822F0C0021A6025
:103B90001A6842F020021A601A6822F0C0021A6005
:103BA0005A6822F003025A605A6822F00C025A60E6
:103BB0005A6842F002025A605A6822F00C025A60B7
:103BC00008BD00BF000C014008B508200121FFF727
:103BD000A9FF2D4B1A6822F440121A601A6822F4C9
:103BE00040021A601A6842F400021A6020221A6128
:103BF0001A6822F440321A601A6822F440221A60CD
:103C00001A6842F400221A6010221A611A6822F01F
:103C100040721A601A6822F040621A601A6842F014
:103C200000621A6040221A611A6822F040521A603B
:103C30001A6822F040421A601A6842F000421A6084
:103C400080221A61A3F580635A6822F440525A60B8
:103C50005A6822F440425A605A6842F400425A605C
:103C60004FF400621A615A6822F003025A605A68DF
:103C700022F00C025A605A6842F008025A604FF46F
:103C800080721A6108BD00BF000C01401FB5012100
:103C90002020FFF753FF104C01A8FCF7C5FA40F6AF
:103CA0005F13ADF8043020460A2301A9ADF80830AF
:103CB000FCF770FA01210A462046FCF7CAFA2046B2
:103CC0000121FCF7BAFA054B4FF400025A6020229A
:103CD00083F837231FBD00BF0014004000E100E05F
:103CE0001FB501214FF40030FFF71CFF01A8FCF7BE
:103CF0009BFA104C0023ADF8063045F6BF53ADF8E3
:103D0000043020464FF47A7301A9ADF80830FCF76F
:103D100041FA01210A462046FCF79BFA2046012180
:103D2000FCF78BFA044B4FF000721A60102283F8F4
:103D300019231FBD0044014000E100E037B5124DDA
:103D40004FF000500121FFF7F9FE00241023284610
:103D500001A9ADF804308DF80740FCF7A5FF20233A
:103D6000284601A9ADF804308DF80740FCF79CFF08
:103D7000064B1A6842F001021A601A6842F4803257
:103D80001A609C605C613EBD000801400074004008
:103D9000064BDA6942F00102DA614FF0804345F6E2
:103DA000BF521A8509221A80704700BF00100240D6
:103DB00008B504200121FFF7B5FE08200121FFF717
:103DC000B1FE10200121FFF7ADFEFFF7E1FFFCF788
:103DD000FBFE00F0E9FFFFF7BDFEFFF7F5FEFFF782
:103DE00055FFFFF763FCFFF77BFFFFF7B3FEFFF71D
:103DF000C7FBBDE80840FFF7A1BF000043680A68A1
:103E000023F4702323F4807313430A7910B543EA33
:103E1000022343608A68CB6884681A43084B2340B6
:103E200013434A7943EA420383600B7CC26A013B35
:103E300022F47002DBB242EA0353C36210BD00BF3A
:103E4000FDF7F1FF836811B143F0010301E023F0B6
:103E5000010383607047836811B143F4807301E00C
:103E600023F4807383607047836843F008038360A2
:103E700070478068C0F3C0007047836843F0040354
:103E8000836070478068C0F380007047836811B119
:103E900043F4A00301E023F4A003836070470929E1
:103EA00070B54FF003040DD94C4307251E3C05FAAD
:103EB00004F503FA04F3C66826EA050545EA030497
:103EC000C4600BE04C43072505FA04F503FA04F43B
:103ED000066926EA050545EA04030361062A4FF050
:103EE00005030CD8013A53431F2202FA03F201FAE8
:103EF00003F3446B24EA02021343436370BD0C2AAC
:103F00000DD853431F22233B02FA03F201FA03F1B7
:103F1000046B24EA020242EA0103036370BD5343C7
:103F20001F22413B02FA03F201FA03F1C46A24EAB8
:103F3000020242EA0103C36270BD0000044B9A68AA
:103F400010B142F4000201E022F400029A607047CE
:103F50000024014030B5038ACA8823F440531B046F
:103F60001B0C134303820D4683890989AA8823F415
:103F7000B0530A43698923F00C030A431B041B0C4A
:103F800092B213438381838AAA8923F440731B046A
:103F90001B0C87B013430446838201A8FFF76EFD14
:103FA000174BA2899C420CBF049B039B12B2002AB0
:103FB0004FF019012A6801FB03F101DA520000E019
:103FC00092006423B1FBF2F1B1FBF3F2120110098C
:103FD00003FB1011A08900B2002806DAC9003231B3
:103FE000B1FBF3F303F0070305E009013231B1FB44
:103FF000F3F303F00F031A4392B2228107B030BDEE
:1040000000380140838919B19BB243F4005303E0A7
:1040100023F400531B041B0C83817047C1F342132C
:1040200010B5012401F01F01A34204FA01F101D1EE
:104030000C3004E0022B01D1103000E01430036892
:104040000AB1194301E023EA0101016010BDC9056D
:10405000C90D81807047038819420CBF00200120E0
:10406000704700007FB580EAE072A2EBE0720DF1CC
:10407000FF3500230A2492FBF4F104FB11223032B5
:1040800005F8012F1E4601330A1EDBB2F3DC0028BF
:1040900007DA5BB204A8C3182D2203F8102CB31C56
:1040A000DBB25AB204A88118002001F8100C684451
:1040B0008118074811F8014C013BDBB2013900F8C7
:1040C000014F002BF6D10348835404B070BD00BFEC
:1040D0007B0600207C060020F0B5034685B083EA0D
:1040E000E370A0EBE3700DF1FF3600220A2590FB90
:1040F000F5F405FB1400303006F8010F17460132C5
:10410000201ED2B2F3DC002B07DA04AB52B29A18AD
:104110002D2302F8103CBA1CD2B250B204AC2318C2
:10412000002403F8104C0DEB040318180C4613463A
:1041300052B210F8015C013BDBB2013804F8015BBC
:10414000002BF6D18B54084605B0F0BDF0B58BB00E
:1041500080EAE073A3EBE0730DF1FF3600220A253D
:1041600093FBF5F405FB1433303306F8013F174693
:104170000132231ED2B2F3DC53B20AADEC18002593
:10418000012B04F8285C04D13023BA1C8DF80130CF
:10419000D2B2022A05D1012903D930238DF8023089
:1041A000032200240DF1280C23460CEB01062E25DA
:1041B00052B25FB28F4203D1013306F8145CDBB216
:1041C0005FB20DF1280C67441DF804C0013407F8F4
:1041D00014CC67B201339742DBB2EADB002807DA7E
:1041E0005AB20AA98A1801332D2102F8141CDBB235
:1041F00059B205AD084800226C1804E0A55C013BEB
:1042000000F8015FDBB2013A002BF7D103484118F7
:104210000B7410300BB0F0BD8B0600207C06002024
:10422000002802D001DC404200B270470346002063
:1042300001E00130C0B21A5C002AFAD1704730B5F3
:104240000346002401E0155501341D5DE0B2002D48
:10425000F9D12B4645B2551903E00130EC54C0B2F8
:104260000133CC5C002CF8D140B21454104630BD60
:1042700070B5002501E05E550135465DECB2002EBB
:10428000F9D1304666B29E1903E001343554E4B2E8
:1042900001300D5C002DF8D1294665B25D1903E0AF
:1042A00001346854E4B20131505C0028F8D164B2A2
:1042B0001855184670BD2DE9F041074686B04FF4F9
:1042C00061600C46B7FBF0F001A9FFF705FF01A8FC
:1042D000FFF7ACFF012803D830232370012600E04C
:1042E00000260023A11902E0CA54EEB201330DF1F9
:1042F000040813F80820751C002AF5D13A2273B27D
:10430000E2543C23B7FBF3F2B2FBF3F003FB1020C3
:104310004146FFF7E1FE4046FFF788FF0128EDB276
:1043200004D86DB230236355B51CEDB269B20023D9
:10433000611802E0CA54F5B201330DF1040813F814
:1043400008206E1C002AF5D13A226BB2E2543C23BD
:10435000B7FBF3F003FB10704146FFF7BDFE40468C
:10436000FFF764FF0128F6B204D876B23023023595
:10437000A355EEB271B20023611803E00136CA54AE
:10438000F6B2013301AA9A5C002AF7D176B2A2559F
:10439000204606B0BDE8F0812DE9F041804686B0A8
:1043A0004FF461600C46B8FBF0F001A9FFF794FEF2
:1043B00001A8FFF73BFF012803D830232370012514
:1043C00000E000250023611902E0CA54F5B2013370
:1043D00001AFDA5D6E1C002AF7D13A226BB2E254CB
:1043E0003C23B8FBF3F8B8FBF3F003FB108039462D
:1043F000FFF772FE3846FFF719FF0128F6B204D81E
:1044000076B230230235A355EEB271B200236118A3
:1044100003E00136CA54F6B2013301AA9A5C002ABD
:10442000F7D176B2A255204606B0BDE8F0818B6880
:1044300010B50C6A026823430C6922F4FE42234340
:104440004C6922F0F00223438C692343CC69234357
:104450004C6A23438C6A234313430360CB68436055
:104460000B6883604B68C36010BD19B1036843F0EB
:10447000010303E002684FF6FE73134003607047C8
:1044800003680AB1194301E023EA010101607047A2
:10449000C2004CBF014B024B586070470004024001
:1044A00000000240C3004CBF014B024B58607047F4
:1044B0000004024000000240C37810B5F3B1154B70
:1044C0004178DB688478DB43C3F30223C3F1040241
:1044D00001FA02F10F2222FA03F222400A430E4BA4
:1044E00001781201CB18D2B283F80023037801229D
:1044F000590903F01F0302FA03F307E003780122CE
:10450000590903F01F0302FA03F32031024A42F86B
:10451000213010BD00ED00E000E100E00F4AD3685B
:1045200013F0010F0D4BFAD1DA68920601D5202263
:10453000DA601A6942F002021A6158611A6942F09F
:1045400040021A61054AD168044B8906FBD5202236
:10455000DA601A6922F002021A61704700200240F4
:10456000034B044A5A6002F188325A60704700BF18
:104570000020024023016745024B1A6942F0800285
:104580001A61704700200240124AD36813F0010FED
:10459000104BFAD1DA68920601D52022DA601A6946
:1045A00042F001021A618BB203800A4BDA6812F002
:1045B000200F084AFAD02023090CD3604180D1682B
:1045C000044B8906FBD52022DA601A6922F0010229
:1045D0001A6170470020024070B572B6114CFFF7A7
:1045E000BFFF4FF4CE701049002200F0BDFC2068E0
:1045F0000E49002200F0B8FC0D48FFF78FFF0C4D6C
:104600000C4E2B1903F17843A3F5F23328461968B1
:104610000435FFF7B9FFB542F3D1FFF7ADFF62B63E
:1046200070BD00BFA8060020176100081E610008C9
:1046300000E401089CE5010810B5074B0749084A4A
:1046400058181C6800F178400433A0F5F23093420A
:104650000460F5D1012010BD00E40108A806002087
:104660009CE5010870B504680E468C4201D3944263
:1046700011D90A4B00251D7009492A4600F074FC27
:10468000204608492A4600F06FFC074807492A4699
:1046900000F06AFC3446204670BD00BF7002002066
:1046A000246100083B61000800EC01084D6100082E
:1046B00010B5184C6068FFF731FF60682168FFF79C
:1046C00063FFE068A168FFF75FFF60692169FFF79A
:1046D0005BFFE069A169FFF757FF606A216AFFF796
:1046E00053FFE06AA16AFFF74FFF606B216BFFF792
:1046F0004BFFE06BA16BFFF747FF606C216CFFF78E
:1047000043FFE06CA16CFFF73FFF034800F0ECFBB8
:1047100010BD00BF040000206461000810B5184CF3
:104720006068FFF7FBFE60682168FFF72DFFE06817
:10473000A168FFF729FF60692169FFF725FFE0699C
:10474000A169FFF721FF606A216AFFF71DFFE06A98
:10475000A16AFFF719FF606B216BFFF715FFE06B94
:10476000A16BFFF711FF606C216CFFF70DFFE06C90
:10477000A16CFFF709FF034800F0B6FB10BD00BFB6
:104780005C0100207D61000838B5224C0021606882
:104790004FF48072FFF766FF002120604FF47A72B9
:1047A000E068FFF75FFF0021A0604FF47A72606954
:1047B000FFF758FF184D20610A212A46E069FFF7EC
:1047C00051FF0A21A0612A46606AFFF74BFF0A21C8
:1047D00020622A46E06AFFF745FF0A21A0622A46C6
:1047E000606BFFF73FFF0A2120632A46E06BFFF76B
:1047F00039FF4621A063C822606CFFF733FF0A210E
:104800002064C822E06CFFF72DFFA064034800F08D
:104810006BFB38BD04000020A08601009D610008EC
:1048200038B5224C002160684FF48072FFF71AFF00
:10483000002120604FF47A72E068FFF713FF002137
:10484000A0604FF47A726069FFF70CFF184D206189
:104850000A212A46E069FFF705FF0A21A0612A46DE
:10486000606AFFF7FFFE0A2120622A46E06AFFF72E
:10487000F9FE0A21A0622A46606BFFF7F3FE0A21C7
:1048800020632A46E06BFFF7EDFE4621A063C822B5
:10489000606CFFF7E7FE0A212064C822E06CFFF796
:1048A000E1FEA064034800F01FFB38BDAC0100200E
:1048B000A0860100B761000810B5144C6068FFF7CE
:1048C0002DFE60682168FFF75FFEE068A168FFF7D2
:1048D0005BFE60692169FFF757FEE069A169FFF798
:1048E00053FE606A216AFFF74FFEE06AA16AFFF794
:1048F0004BFE606B216BFFF747FEE06BA16BFFF790
:1049000043FE034800F0F0FA10BD00BF5400002041
:10491000DA61000810B5144C6068FFF7FFFD6068AD
:104920002168FFF731FEE068A168FFF72DFE60699E
:104930002169FFF729FEE069A169FFF725FE606A9A
:10494000216AFFF721FEE06AA16AFFF71DFE606B96
:10495000216BFFF719FEE06BA16BFFF715FE034813
:1049600000F0C2FA10BD00BFDC000020F0610008BA
:1049700038B51D4C002160684FF48072FFF772FE5D
:10498000012120600A22E068FFF76CFE0121A0608F
:104990004FF47A726069FFF765FE012120614FF4E0
:1049A0007A62E069FFF75EFE0121A0614FF47A624E
:1049B000606AFFF757FE42F21075206200212A4616
:1049C000E06AFFF74FFE0021A0622A46606BFFF706
:1049D00049FE002120636422E06BFFF743FEA063E1
:1049E000024800F081FA38BD540000200D62000832
:1049F00038B51D4C002160684FF48072FFF732FE1D
:104A0000012120600A22E068FFF72CFE0121A0604E
:104A10004FF47A726069FFF725FE012120614FF49F
:104A20007A62E069FFF71EFE0121A0614FF47A620D
:104A3000606AFFF717FE42F21075206200212A46D5
:104A4000E06AFFF70FFE0021A0622A46606BFFF7C5
:104A500009FE002120636422E06BFFF703FEA063E0
:104A6000024800F041FA38BD1C0100202462000811
:104A700010B50A4C6068FFF751FD60682168FFF7C8
:104A800083FDE068A168FFF77FFD60692169FFF79A
:104A90007BFD034800F028FA10BD00BFAC000020E9
:104AA0007162000838B50C4C002160684FF48072C8
:104AB000FFF7D8FD094D206000212A46E068FFF786
:104AC000D1FD0021A0602A466069FFF7CBFD20617F
:104AD000034800F009FA38BD9400002000286BEE6E
:104AE0009862000838B50C4C002160684FF4807261
:104AF000FFF7B8FD094D206000212A46E068FFF766
:104B0000B1FD0021A0602A466069FFF7ABFD20617E
:104B1000034800F0E9F938BDC400002000286BEE1E
:104B2000B762000870B50C4D01242C7072B6FFF707
:104B3000B9FFFFF71DFFFFF727FE62B62E782EB9EB
:104B4000064800F0D1F92C70304670BD044800F0E2
:104B5000CBF92C70204670BD70020020DF62000887
:104B6000F8620008F0B5C1B007460D461446684625
:104B700008494FF4807200F00FFA6E4617F8013BB7
:104B8000013D5C40EDB2345D002DF7D1204641B0CF
:104B9000F0BD00BF1760000838B572B6FFF7E0FC43
:104BA0004C2100223448FFF7DDFF344B04461860E7
:104BB000FFF7B4FDFFF734FE4C2100223048FFF729
:104BC000D1FF844203D12F4800F08EF904E02E4833
:104BD00000F08AF9FFF7A2FD3C2100222B48FFF7E5
:104BE000C1FF00222A49044600F0BEF900222949EB
:104BF0003C2000F0B9F9284B1C60FFF78BFEFFF753
:104C0000F7FE3C2100222548FFF7ACFF0022204997
:104C1000054600F0A9F93C2000221E4900F0A4F945
:104C2000AC4203D11E4800F05FF904E01D4800F0DB
:104C30005BF9FFF76FFE142100221B48FFF792FF7C
:104C40001A4B04461860FFF713FFFFF74BFF1421C0
:104C500000221748FFF786FF844203D1154800F071
:104C600043F904E0144800F03FF9FFF701FFFFF7B4
:104C700083FC62B638BD00BF600100205C010020EB
:104C8000B00100201363000838630008E000002032
:104C90006863000873630008DC0000202001002026
:104CA0007F630008A1630008B0000020AC00002072
:104CB000C8000020CE630008F863000838B572B65B
:104CC0003C2100221948FFF74DFF002218490446F5
:104CD00000F04AF9002217493C2000F045F9164B34
:104CE0001C60FFF73DFCFFF7E7FDFFF781FE3C216D
:104CF00000221248FFF736FF00220D49054600F05A
:104D000033F93C2000220B4900F02EF9AC4203D1CC
:104D10000B4800F0E9F804E00A4800F0E5F8FFF776
:104D2000CBFDFFF729FC62B6012038BD58000020FA
:104D3000696300087463000854000020200100200B
:104D400080630008A263000810B572B64C210022EF
:104D50001048FFF707FF104B04461860FFF700FCF0
:104D6000FFF7A6FCFFF75CFD4C2100220B48FFF784
:104D7000F9FE844203D10A4800F0B6F804E009487D
:104D800000F0B2F8FFF794FCFFF7F6FB62B60120E3
:104D900010BD00BF0800002004000020B00100206A
:104DA000146300083963000830B54FF4164387B028
:104DB000009300231C46ADF80430ADF80630ADF882
:104DC0000830ADF80C3004200C230121ADF80A3076
:104DD000FEF7A8FE01214FF48040FEF7A3FE4FF43A
:104DE000C063154DADF8103018238DF8133004A9A9
:104DF000032312488DF81230FBF756FF6946284608
:104E0000FFF7A8F825238DF814308DF816402223DB
:104E1000012405A88DF815308DF81740FFF74CFBDD
:104E200028462146FFF7EEF8284640F22551224653
:104E3000FFF7F4F807B030BD00380140000801402A
:104E40000A4B1A78C72A0FD85A78094988541A7811
:104E50000132D2B21A705A780132D2B25A705A78EC
:104E6000C82A01D100225A70704700BF9D06002059
:104E70005C08002010B5194C2388980603D5A0883B
:104E8000C0B2FFF7DDFF2388144A19061AD5144B68
:104E9000997889B1D9781348415C91809A78013A20
:104EA000D2B29A70DA780132D2B2DA70DA78C82ADD
:104EB00008D10022DA7005E0938923F080031B04F7
:104EC0001B0C9381054A13885B0605D5138823F0D4
:104ED00040031B041B0C138010BD00BF00380140B1
:104EE0009D0600202409002010B504460AE00D4864
:104EF0008021FFF7B0F80028F9D014F8011B094809
:104F0000FFF7A5F82378002BF1D106488021FFF7A1
:104F1000A2F80028F9D003480A21BDE81040FFF7A5
:104F200096B800BF0038014082B0064B8DF80700EC
:104F30001A885206FCD59DF80720024B9A8002B0D1
:104F4000704700BF00380140064B1A4605E019883B
:104F50004906FCD510F8011B918001780029F6D193
:104F6000704700BF0038014037B501900C460198EA
:104F700012B9FFF777F802E01146FFF7E7F80546A8
:104F80002046FFF7E1FF2846FFF7DEFF0A2003B0C7
:104F9000BDE83040FFF7C8BF0F2AF0B43AD941EA64
:104FA00000039B0738D10C46034615462668103D82
:104FB0001E6066685E60A6689E60E6681034DE600B
:104FC00010330F2DF2D8A2F1100424F00F0402F0D8
:104FD0000F021034032A00EB0403214411D90E46BA
:104FE0001D46144656F8047B043C032C45F8047B0C
:104FF000F8D8141F24F00304043402F00302091942
:105000001B192AB111F8014B013A03F8014BF9D1F0
:10501000F0BC70470346F4E70346F3E700000000E6
:105020000000000000000000000000000000000080
:105030000000000069693A2000513A2000435243C1
:105040002843616C6962726174696F6E29203D004A
:1050500043616C6962726174696F6E3056616C7520
:1050600065466F7243757272656E74203D004361D0
:105070006C6962726174696F6E3056616C756546F9
:105080006F7243757272656E7431203D0043616CBE
:105090006962726174696F6E56616C7565466F7294
:1050A00043757272656E74203D0043616C69627273
:1050B0006174696F6E56616C7565466F7243757287
:1050C00072656E7431203D0043616C696272617477
:1050D000696F6E56616C7565466F72566F6C746160
:1050E0006765203D0043616C6962726174696F6E2F
:1050F00056616C7565466F72566F6C746167653189
:10510000203D0043616C6962726174696F6E566123
:105110006C7565466F72566F6C7461676532203DC1
:1051200000526573697374616E6365436F6D705F80
:10513000497368756E745F5769726573203D0052DC
:105140006573697374616E6365436F6D705F4D4F16
:1051500053464554203D00435243285365747469B7
:105160006E67734461746129203D004F7074696FEC
:105170006E31286D656E7520706F736974696F6E1E
:1051800029203D0043686172676554696D65203D63
:10519000004C6F77566F6C74616765203D004D6100
:1051A00078566F6C74616765203D00436861726773
:1051B000654164617074203D005377696E675F4399
:1051C0006872675F74696D65203D005377696E672B
:1051D0005F44436872675F74696D65203D004352A8
:1051E000432853617665446174615768656E506FFA
:1051F0007765724F666629203D004261747465725E
:105200007943617061636974794469736368617239
:10521000676550726576696F757356616C75652048
:105220003D004261747465727943617061636974B1
:105230007944697363686172676543757272656EFC
:1052400074203D001C5000081C5000081C50000831
:10525000B45B0008000000000000000020202020B7
:1052600020202020202020202020202000000000BE
:105270001C5000081C5000081C500008885B0008E7
:10528000000000000000000020202020202020201E
:105290002020202020202020000000001C5000089A
:1052A0001C5000081C5000085C5B00080000000057
:1052B000910D0008202020202020202020202020C8
:1052C00020202020000000001C5000081C50000876
:1052D0001C500008305B000800000000910D000821
:1052E00020202020202020202020202020202020BE
:1052F000000000001C5000081C5000081C50000852
:10530000045B000800000000ED0D000820202020B4
:10531000202020202020202020202020000000000D
:105320001C5000081C5000081C500008AC5A000813
:10533000000000000000000020202020202020206D
:105340002020202020202020000000001C500008E9
:105350001C5000081C500008805A00080000000083
:1053600000000000202020202020202020202020BD
:1053700020202020000000001C5000081C500008C5
:105380001C500008D85A000800000000000000006F
:10539000202020202020202020202020202020200D
:1053A000000000001C5000081C5000081C500008A1
:1053B000545A0008000000000000000020202020B7
:1053C000202020202020202020202020000000005D
:1053D0001C5000081C5000081C500008285A0008E7
:1053E00000000000610D0008202020202020202047
:1053F0002020202020202020000000001C50000839
:105400001C5000081C50000818580008000000003C
:10541000710D000820202020202020202020202086
:1054200020202020000000001C5000081C50000814
:105430001C5000084458000800000000710D0008CE
:10544000202020202020202020202020202020205C
:10545000000000001C5000081C5000081C500008F0
:10546000C057000800000000710D00082020202017
:1054700020202020202020202020202000000000AC
:105480001C5000081C5000081C500008EC57000875
:1054900000000000710D0008202020202020202086
:1054A0002020202020202020000000001C50000888
:1054B0001C5000081C5000083C5700080000000069
:1054C000710D0008000000001C5000081C5000086E
:1054D0001C5000086857000800000000710D00080B
:1054E00020202020202020202020202020202020BC
:1054F000000000001C5000081C5000081C50000850
:105500009457000800000000710D000820202020A2
:10551000202020202020202020202020000000000B
:105520001C5000081C5000081C50000810570008B0
:1055300000000000710D0008000000001C50000871
:105540001C5000081C500008E45600080000000031
:1055500000000000000000001C5000081C50000863
:105560001C500008D0590008000000006D0D000814
:10557000202020202020202020202020202020202B
:10558000000000001C5000081C5000081C500008BF
:10559000A459000800000000890E000820202020E7
:1055A000202020202020202020202020000000007B
:1055B0001C5000081C5000081C50000878590008B6
:1055C000000000006D0D0008202020202020202059
:1055D0002020202020202020000000001C50000857
:1055E0001C5000081C5000084C5900080000000026
:1055F0006D0D0008202020202020202020202020A9
:1056000020202020000000001C5000081C50000832
:105610001C50000820590008000000006D0D000813
:10562000202020202020202020202020202020207A
:10563000000000001C5000081C5000081C5000080E
:10564000F4580008000000006D0D00082020202004
:1056500020202020202020202020202000000000CA
:105660001C5000081C5000081C500008C8580008B6
:10567000000000006D0D00082020202020202020A8
:105680002020202020202020000000001C500008A6
:105690001C5000081C5000089C5800080000000026
:1056A000590E00082020202020202020202020200B
:1056B000202020200000000044580008E456000884
:1056C0001C500008FC590008000000000000000009
:1056D0004F4B20746F206578697420202020202093
:1056E00000000000B8560008105700081C500008C1
:1056F0003C55000800000000000000004261636BA0
:1057000020746F20466163746F727920000000007E
:10571000E45600083C5700081C50000820550008BB
:10572000000000000000000052657369737420637C
:105730006F6D702035563141000000001057000891
:10574000685700081C500008AC5400080000000016
:1057500000000000566F6C7461676520496E202060
:1057600020202020000000003C570008945700082B
:105770001C500008C8540008000000000000000091
:10578000566F6C74616765204F757420202020204F
:105790000000000068570008C05700081C500008AF
:1057A000F45400080000000000000000566F6C7404
:1057B0006167652050532020202020200000000039
:1057C00094570008EC5700081C5000085454000877
:1057D000000000000000000043555252454E542086
:1057E0004C6F61642020202000000000C05700089A
:1057F000185800081C5000088054000800000000E1
:105800000000000043555252454E54204F757420FD
:105810002020202000000000EC5700084458000819
:105820001C500008FC5300080000000000000000AD
:1058300043555252454E54204C6F616420746F3072
:105840000000000018580008B85600081C50000856
:105850002854000800000000000000004355525288
:10586000454E54204F757420746F203000000000A6
:10587000D05900089C5800081C500008E05B000844
:1058800000000000000000004F4B20746F2065787E
:10589000697420202020202000000000705800089B
:1058A000C85800081C5000088C5600080000000072
:1058B0000000000030383A53617665204D656E7502
:1058C00020506F73000000009C580008F458000836
:1058D0001C50000860560008000000000000000096
:1058E00030373A436861726765206164646170743F
:1058F00000000000C8580008205900081C5000088B
:1059000034560008000000000000000030363A5312
:10591000776E674469734368726720540000000023
:10592000F45800084C5900081C500008085600089C
:10593000000000000000000030353A5377696E67C0
:10594000204368726720546D000000002059000851
:10595000785900081C500008DC55000800000000C1
:105960000000000030343A4D617820566F6C74614D
:1059700067652020000000004C590008A459000869
:105980001C500008B0550008000000000000000096
:1059900030333A4C6F7720566F6C74616765202006
:1059A0000000000078590008D05900081C50000879
:1059B00084550008000000000000000030323A4228
:1059C000617474657279207479706520000000003C
:1059D000A4590008705800081C50000858550008C9
:1059E000000000000000000030313A436861726737
:1059F000652074696D65202000000000E05B0008F0
:105A0000285A00081C5000084458000800000000F4
:105A10000000000043414C4942524154494F4E203E
:105A20002020202000000000FC590008545A0008E3
:105A30001C500008D05300080000000000000000C7
:105A40004C4F4720202020202020202020202020D4
:105A500000000000285A0008805A00081C50000866
:105A6000A453000800000000000000004449414722
:105A70004E4F535449432020202020200000000096
:105A8000545A0008AC5A00081C5000084C53000837
:105A900000000000000000005377696E672020209E
:105AA000202020202020202000000000805A000814
:105AB000D85A00081C5000082053000800000000BD
:105AC00000000000547261696E696E67202020201A
:105AD0002020202000000000AC5A0008045B0008D1
