:020000040800F2
:10000000E80D002085020008CD020008CD0200089E
:10001000CD020008CD020008CD020008000000005B
:10002000000000000000000000000000CD020008F9
:10003000CD02000800000000CD020008CD0200083B
:10004000CD020008CD020008CD020008CD02000854
:10005000CD020008CD020008CD020008CD02000844
:10006000CD020008CD020008CD020008CD02000834
:10007000CD020008CD020008CD020008CD02000824
:10008000CD020008CD020008CD02000800000000EB
:10009000000000000000000000000000CD02000889
:1000A000CD020008ED180008CD020008CD020008BE
:1000B000CD020008ED38000800000000CD02000865
:1000C000CD0200080000000000000000CD02000882
:1000D000000000004D4E0008CD02000800000000A6
:1000E000CD020008CD020008CD020008000000008B
:1000F0000000000000000000000000000000000000
:1001000000000000000000000000000000000000EF
:100110000000000000000000CD020008C118000827
:100120005FF808F1014B1868704700BF000000201D
:10013000084B10B598420BD050B1074B074C1B68C9
:1001400020600BB11830984723681B6903B19847AA
:1001500010BD00BFF44F0008740200200000002012
:10016000024B1860024B1868FFF7E2BF74020020D0
:100170000000002008B5054B054A1B68934203D0D8
:1001800013B15B6903B1984708BD00BF00000020B0
:10019000F44F0008224A038890429BB212D002F525
:1001A000006290420ED0B0F1804F0BD0A2F5983291
:1001B000904207D002F58062904203D002F580623F
:1001C000904203D14A8823F070031343154A9042AA
:1001D00008D002F58062904204D023F44073CA88AC
:1001E0009BB2134303808B8883850B8803850C4B5C
:1001F00098420FD003F5006398420BD003F540639B
:10020000984207D003F58063984203D003F58063DA
:10021000984201D10B7A038601238382704700BF85
:10022000002C0140001000404FF6FF738380002334
:100230000380C380438003727047038819B19BB267
:1002400043F0010303E023F001031B041B0C0380B4
:10025000704783899BB20AB1194301E023EA010187
:1002600081817047038A828911EA030092B203D028
:1002700011420CBF002001207047C94389B201829E
:100280007047000008B50C4A0C4B0D4903E052F8CA
:10029000040B43F8040B8B42F9D30A480A494FF088
:1002A00000028842B8BF40F8042BFADB00F018FACD
:1002B000BDE8084002F048BF0564000800000020C7
:1002C0007402002074020020E8090020FEE700000C
:1002D0002DE9F843564D0646286803F0AFFE2B681B
:1002E00011210024594304E00A19AA18013413719A
:1002F000E4B2035D4E4A002BF6D113681121594335
:10030000081910183A25057104E00F2C09D80D19A9
:100310005519287116F8010B0134E4B20028F4D104
:100320000DE0112202FB034241498A18002111719C
:1003300005E01819081801340271E4B203E0112233
:100340003B49534320220F2C394DF2D9002220463D
:10035000384904F0F5FD2B68112202FB03440133F8
:100360002A190024172B14712B6057D90A26A0468E
:100370002F46204603F062FE4FF0110E00230EFBC5
:1003800004FE05E00EEB0301691801330A71DBB2CC
:10039000C25C1121002AF5D101FB04F27143D0188F
:1003A00038184FF03A0E013380F804E0DBB294467F
:1003B0005FFA84FE681810E0BEF1090F05D901EB61
:1003C0000309A94499F8049003E000EB030999F8A4
:1003D0000590013382F80490DBB20CEB0302AA18FB
:1003E00092F80490B9F1000FE6D1013B1121DBB284
:1003F0006143202204E0C818281801330271DBB2DF
:100400000F2BF8D9112202FB04330134FB180136FB
:100410000E2C83F80480ACD1054B1C6004F0C8F8A6
:10042000034B054918680022BDE8F84304F088BD75
:10043000A80600200C500008115000082DE9F047D4
:10044000554F054638680E4603F0F8FD3B6811210C
:100450000024594304E00A19BA1801341371E4B2B4
:10046000035D4D4A002BF6D1136811215943081939
:100470001018067104E00F2C09D80F19D71938711C
:1004800015F8010B0134E4B20028F4D10DE011227B
:1004900002FB034240498A180021117105E0181936
:1004A000081801340271E4B203E011223A495343BF
:1004B00020220F2C384DF2D900222046374904F073
:1004C0003FFD2B68112202FB034401332A1900244B
:1004D000172B14712B6054D90A27A146A846204631
:1004E00003F0ACFD4FF0110E00230EFB04FE05E0FF
:1004F0000EEB0301691801330A71DBB2C25C1121F2
:10050000002AF5D101FB04F27943D01840440133AD
:100510000671DBB294465FFA84FE681810E0BEF103
:10052000090F05D901EB030AAA449AF804A003E0D5
:1005300000EB030A9AF805A0013382F804A0DBB2AD
:100540000CEB0302AA1892F804A0BAF1000FE6D14E
:10055000013B1121DBB26143202204E0C8182818B6
:1005600001330271DBB20F2BF8D9112202FB0433E5
:100570000134434401370E2C83F80490AFD1064B6D
:100580001C6004F015F8044B054918680022BDE80A
:10059000F04704F0D5BC00BFA80600200C500008AE
:1005A0001150000810B5384C00222068374904F07B
:1005B000C7FCA0680022364904F0C2FC2069002272
:1005C000344904F0BDFCA0690022334904F0B8FCB2
:1005D000206A0022314904F0B3FCA06A00223049AD
:1005E00004F0AEFC206B00222E4904F0A9FCA06BA5
:1005F00000222D4904F0A4FC206C00222B4904F0B9
:100600009FFCA06C00222A4904F09AFC206D002275
:10061000284904F095FCA06D0022274904F090FCC5
:10062000206E0022254904F08BFCA06E0022244994
:1006300004F086FC206F0022224904F081FCD4F8EB
:1006400088000022204904F07BFCA06F1F49002293
:1006500004F076FCD4F8800000221D4904F070FC00
:10066000D4F8900000221B4904F06AFCD4F89800EA
:100670000022194904F064FCD4F8A00017490022B4
:10068000BDE8104004F05CBC0400002015500008D8
:1006900028500008465000086550000882500008A5
:1006A000A0500008BD500008DB500008F9500008B9
:1006B000175100082F510008435100085C510008F1
:1006C00069510008765100088351000891510008D3
:1006D000A3510008B6510008D2510008FA51000891
:1006E000314B82B01A6842F001021A6059682F4AF1
:1006F0000A405A601A6822F0847222F480321A602A
:100700001A6822F480221A605A6822F4FE025A60A3
:100710004FF41F029A600022DA62009201921A6876
:1007200042F480321A601A6802F400320192009A90
:1007300001320092019A1AB9009AB2F5A06FF2D173
:10074000194B1B6813F4003318BF01230193019B5D
:10075000012B23D1144B5A685A605A685A605A6860
:100760005A605A6822F47C125A605A6842F498120D
:100770005A601A6842F080721A6019680A4A890140
:10078000FBD5536823F003035360536843F002031F
:100790005360536803F00C03082BFAD1044B4FF05D
:1007A00000629A6002B07047001002400000FFF83B
:1007B00000ED00E084B0ADF80600BDF806304FF45F
:1007C000FA629BB2534301E0039B013B0393039BFB
:1007D000002BF9D104B0704784B0ADF80600BDF825
:1007E00006309BB25B0001E0039B013B0393039B3C
:1007F000002BF9D104B0704710B5074C4FF480437B
:1008000023610220FFF7E8FF4FF0804302202361BD
:10081000BDE81040FFF7E0BF000C014070B50F4C81
:100820004FF07C454FF4805625612661FFF7E4FFC9
:100830000120FFF7BFFF25612661FFF7DDFF0120E3
:10084000FFF7B8FF4FF4806325612361FFF7D4FF02
:100850000120BDE87040FFF7ADBF00BF000C0140B4
:10086000254B4FF07C4270B504460D461A6111B11C
:100870004FF400421A61E20644BF4FF400521A617D
:100880001D4B14F0200F1CBF4FF480521A616606F6
:1008900044BF4FF400621A61174E14F0800F1CBF62
:1008A0004FF480633361FFF7A7FF4FF07053E00709
:1008B000336103D5104B4FF400521A61A10703D5E1
:1008C0000D4B4FF480521A61620703D50A4B4FF467
:1008D00000621A61230703D5074B4FF480621A6147
:1008E000FFF78AFF0220FFF765FF1DB1024B4FF0B3
:1008F00000421A6170BD00BF000C0140034610B9F0
:10090000082019460BE021B90AB90C2003E00D209C
:1009100005E012B90E20114601E00F200021FFF77B
:100920009FBF01200021FFF79BBF08B56420FFF7A0
:1009300041FFFFF773FF012001460022FFF7DEFFB2
:10094000BDE80840FFF7EDBFC0B20121FFF788BF47
:10095000054B1870597011B940F0800002E040F06A
:10096000C0000021FFF77CBF7E0200202DE9F84384
:1009700089460646DFF86C800127194C29E0B22829
:1009800001D1492011E0AF2801D103200DE0DE287C
:1009900002D10120014609E0AA2801D1022004E089
:1009A000BF2884BF404410F8C00C0121FFF758FF56
:1009B000237865780133DBB2237055B9082B08D151
:1009C000B9F1020F05D128460121FFF7C1FF2570BB
:1009D000677016F8010B0028D1D1BDE8F88300BF7D
:1009E0007E020020FC01002070B506460D46002462
:1009F0000CE00121FFF734FF012D06D1E3B2072BF4
:100A000003D100202946FFF7A3FF0134305D002801
:100A1000EFD170BDC00040F0400038B5C0B20D4607
:100A20000021FFF71DFF0024285D01210134FFF79D
:100A300017FF082CF8D180200021BDE83840FFF7CF
:100A40000FBF2DE9F3410025042415271F264FF081
:100A50000E08284669468DF800408DF803408DF851
:100A600005408DF801708DF802808DF804508DF8E6
:100A700006608DF80760FFF7CDFF012069468DF80D
:100A800002408DF806408DF800708DF801808DF8D9
:100A900003508DF804508DF805508DF80760FFF76E
:100AA000B9FF022069468DF801408DF805408DF8A8
:100AB00000508DF802808DF803708DF804508DF889
:100AC00006608DF80760FFF7A5FF032069468DF8E3
:100AD00000408DF803408DF806408DF801808DF8B8
:100AE00002708DF804508DF805508DF80760FFF7FF
:100AF00091FF204669468DF800408DF803408DF83F
:100B000004408DF807408DF801808DF802708DF853
:100B100005708DF80680FFF77DFF02238DF8003009
:100B20000A238DF803308DF804301C2307248DF838
:100B300005308DF806300520082369468DF807300A
:100B40008DF801408DF80240FFF764FF0F238DF808
:100B5000003005238DF801308DF802308DF8033018
:100B60008DF804300620092369468DF806308DF88B
:100B700005708DF80750FFF74DFF11238DF80030F9
:100B80008DF801308DF802302046012369468DF83A
:100B900003608DF804308DF805308DF806308DF83F
:100BA0000750FFF737FFBDE8FC810221FFF7DEBEEB
:100BB00010B5044608461146FFF7CAFE204602213A
:100BC000BDE81040FFF7D2BE08B5364B5A6822F494
:100BD00040725A605A6842F400725A605A6822F4AD
:100BE00040625A605A6842F480625A605A6822F43D
:100BF00040525A605A6842F400525A605A6822F4CD
:100C000040425A605A6842F480425A605A6822F45C
:100C100040325A605A6842F400325A605A6822F4EC
:100C200040225A605A6842F480225A605A6822F47C
:100C300040125A605A6842F400125A605A6822F40C
:100C400040025A605A6842F480025A605A6822F0A0
:100C500040725A605A6842F000725A605A6822F034
:100C600040625A605A6842F080625A605A6822F0C4
:100C700040525A605A6842F000525A605A6822F054
:100C800040425A605A6842F080425A60FFF74DFE77
:100C9000FFF747FE002101200A46BDE80840FFF7A4
:100CA0002DBE00BF000C0140CB782DE9F04303F0CE
:100CB0000F02DB0648BF8B780E8848BF1A4316F038
:100CC000FF0F1FD0046800234FF001084FF00F0CF6
:100CD00008FA03F707EA0605BD420FD19F000CFA98
:100CE00007F902FA07F724EA09043C43CF78282FD2
:100CF00001D1456102E0482F08BF05610133082B8F
:100D0000E6D104600E88FF2E21D9446800234FF0FD
:100D100001084FF00F0C03F1080708FA07F707EA7C
:100D20000605BD420FD19F000CFA07F902FA07F73A
:100D300024EA09043C43CF78282F01D1456102E021
:100D4000482F08BF05610133082BE4D14460BDE89A
:100D5000F083836819420CBF002001207047000017
:100D6000014B00221A8070478002002003F092BFDE
:100D700008B503F0D5FF0248BDE80840FFF7A8BA60
:100D8000E45B000818B100210A46FFF711BF704765
:100D900010B5134C002290B06068124904F0D0F8EE
:100DA000626849F6AF239A4217D90BA9A06803F0ED
:100DB000DFFA60684FF46163B0FBF3F001A903F060
:100DC00077F909490BAA06AB03F03EFA06A8012100
:100DD000FFF734FB06A804F073F810B010BD00BF95
:100DE00080020020F05B0008F85B000810B50F4C93
:100DF00049F6AF23E26890B09A4214D90BA9206952
:100E000003F0B6FAE0684FF46163B0FBF3F001A9B8
:100E100003F04EF906490BAA06AB03F015FA06A833
:100E20000221FFF70BFB10B010BD00BF80020020B5
:100E3000F85B000884B0ADF80600BDF806304FF44A
:100E400016629BB2534301E0039B013B0393039B58
:100E5000002BF9D104B0704708B507200121FFF736
:100E600077FDFF200121FFF7FBFC03F013FF044B8C
:100E7000C8209A68034B1A60BDE80840FFF7DABF44
:100E8000540000205408002008B53E4B93F914008C
:100E900060B90146FFF75CFD3B48FFF786FE3B4B20
:100EA0004FF487629A6102F5BE721A62354B93F96C
:100EB0001430012B0DD100200146FFF749FD3448C5
:100EC000FFF773FE314B4FF496729A614FF4D27272
:100ED0001A622C4B93F91430022B0DD100200146DD
:100EE000FFF736FD2B48FFF760FE284B4FF48C725E
:100EF0009A614FF4B9721A62224B93F91430032BA2
:100F00000CD100200146FFF723FD2348FFF74DFEDB
:100F10001E4BA0229A614FF48C721A62194B93F9FE
:100F20001430042B0DD100200146FFF711FD1B48A2
:100F3000FFF73BFE154B4FF448729A614FF4AA62DB
:100F40001A62104B93F91430052B0CD10020014686
:100F5000FFF7FEFC1248FFF728FE0C4B64229A6153
:100F60004FF4FA621A62074B93F91420062A01D152
:100F700000221A7503F08EFE4FF41670BDE808408B
:100F8000FFF758BF80020020FC5B000854000020DF
:100F90000D5C00081E5C00082F5C0008405C000827
:100FA000515C000882B00190019A4FF0804392B2E8
:100FB0009A8500229A8409221A80198A4FF0804269
:100FC000C907FAD5138A23F001031B041B0C1382F3
:100FD00002B0704738B505462D4C0020012301466C
:100FE0006375FFF7B5FC2B4B0221188880B203F024
:100FF00099F8FFF7DAFD2848FFF7D7FD0021072011
:10100000FFF7A6FC254B188800B203F017F8FFF78E
:10101000CCFD2348FFF7C9FD062D10D1FFF782F85C
:10102000C068FFF785F8FFF77DF80068FFF780F8E4
:10103000FFF778F8C068BDE83840FFF779B8022DAF
:1010400012D1184BE28A1B88D3189BB2E382E28A42
:1010500040F6FF7312B29A42C8BFE3820C4BDA8AA1
:10106000114B12B29A6038BD012D10D10D4BE28A9E
:101070001B88D31A9BB2E382E38A1BB2002B01DCEC
:101080000023E382024BDA8A074B12B29A6038BD22
:101090008002002058060020625C000878020020D0
:1010A000665C00081C0200200074004008B5334B49
:1010B000012206285A750FD1FFF734F8C068FFF7F0
:1010C00037F8FFF72FF84068FFF732F8FFF72AF8F4
:1010D000C068FFF72DF820E00228294B0BD1598872
:1010E0001A888A1892B25A80598840F6FF7209B25B
:1010F00091420DDD0BE001280FD159881A888A1A18
:1011000092B25A805A8812B2002A01DC00225A8018
:101110001B4B5A881B4B12B25A6100200146FFF745
:1011200017FC194B0121188880B202F0FBFFFFF772
:101130003CFD1648FFF739FD00210520FFF708FCAC
:10114000134B188800B202F079FFFFF72EFD11480B
:10115000FFF72BFD01210320FFF7FAFB0E48FFF7F5
:1011600024FD074B588800B202F068FFFFF71DFD11
:101170000A48BDE80840FFF718BD00BF8002002004
:101180001C0200200074004058060020625C000829
:1011900078020020665C00086C5C0008F15D0008C5
:1011A00008B5364B012205285A7514D1FEF7BAFF4F
:1011B000C068FEF7BDFFFEF7B5FF4068FEF7B8FF59
:1011C000FEF7B0FF4068FEF7B3FFFEF7ABFFC06865
:1011D000FEF7AEFF21E002280CD1294AD98A1288F5
:1011E0008A1892B2DA82D98A40F6FF7209B2914225
:1011F0000EDD0CE0012810D1214AD98A12888A1A02
:1012000092B2DA82DA8A12B2002A01DC0022DA8291
:101210001A4BDA8A1B4B12B29A6000200146FFF784
:1012200097FB194B0221188880B202F07BFFFFF771
:10123000BCFC1648FFF7B9FC00210620FFF788FB2D
:10124000134B188800B202F0F9FEFFF7AEFC11480C
:10125000FFF7ABFC01210320FFF77AFB0E48FFF7F5
:10126000A4FC064BD88A00B202F0E8FEFFF79DFC12
:101270000A48BDE80840FFF798BC00BF8002002084
:101280001C0200200074004058060020625C000828
:10129000780200206E5C00085D5D0008F15D0008CA
:1012A00010B596B000230446084610A98DF85420C6
:1012B0008DF8553003F05CF84FF4616001A9B4FB80
:1012C000F0F002F0F5FE10AA06AB074902F0BCFFF1
:1012D00006A915A80BAA02F09EFF0BA80421FFF790
:1012E000ADF816B010BD00BFF85B0008022838B595
:1012F0001E4B09D11A881E49013292B209681A8020
:1013000012B28A4213D310E0012810D11A88013A90
:1013100092B210041A8003D5154A1268013A1A8055
:10132000124BB3F90020002A01DA00221A800020B3
:101330000F4C0146FFF70CFB0C4D234653F8040BF2
:10134000B5F900200138801A112202FB0030FFF7A6
:101350002CFCB5F900000022064903F0F1FD2068DD
:1013600005490022BDE8384003F0EABD80020020B4
:10137000A8060020735C0008805C000810B50446D5
:1013800000200146FFF7E4FA0A4B188800B202F089
:1013900055FEFFF70AFC0848FFF707FC022C08D1AE
:1013A000064B1A88064B12B29A60BDE8104003F053
:1013B000B7BC10BD70060020935C000878020020C6
:1013C0000400002010B5044600200146FFF7C0FAD3
:1013D0000A4B188800B202F031FEFFF7E6FB08481E
:1013E000FFF7E3FB022C08D1064B1A88064B12B21A
:1013F0001A61BDE8104003F093BC10BD70060020D8
:10140000935C00087A0200200400002010B5044616
:1014100000200146FFF79CFA1648FFF7C6FB022C96
:1014200027D103F0A5FB03F069FB04460020014629
:10143000FFF78EFA1048FFF7B8FB4FF4FA60FFF79A
:10144000F9FC00200146FFF783FA012C08D10B4874
:10145000FFF7ABFB0A48FEF73BFF4FF4FA6004E0EE
:101460000848FFF7A2FB4FF47A60BDE81040FFF791
:10147000E1BC10BDA25C0008B35C0008C45C0008BD
:10148000D55C0008E45C0008022810B50E4C02D1BF
:101490002369013303E0012802D12369013B236161
:1014A00000200146FFF754FA206902F0C7FDFFF75C
:1014B0007CFB0648FFF779FB23694FF461625A43CE
:1014C000034B1A6010BD00BF54000020F55C0008FB
:1014D00044080020022810B5324B07D11A7D013292
:1014E000D2B2072A1A750BD1002208E0012807D1D1
:1014F0001A7D013AD2B214061A7501D506221A7560
:10150000284C94F9140028B90146FFF721FA26481F
:10151000FFF74BFB94F91430012B06D10020014654
:10152000FFF716FA2148FFF740FB1E4C94F91430E0
:10153000022B06D100200146FFF70AFA1C48FFF7EC
:1015400034FB94F91430032B06D100200146FFF739
:10155000FFF91848FFF729FB124C94F91430042BBB
:1015600006D100200146FFF7F3F91348FFF71DFBF2
:1015700094F91430052B06D100200146FFF7E8F955
:101580000E48FFF712FB074B93F91430062B08D1D6
:1015900000200146FFF7DCF90948BDE81040FFF7DD
:1015A00004BB10BD80020020FA5C00080B5D00083F
:1015B0001D5D00082E5D00083E5D00084F5D0008BF
:1015C0005F5D0008022810B50D4C02D1A3690A33F3
:1015D00003E0012802D1A3690A3BA3610020014670
:1015E000FFF7B6F9A0690A23B0FBF3F0012102F07E
:1015F00099FDFFF7DAFA0348BDE81040FFF7D5BAC6
:1016000054000020195C0008022810B50D4C02D1CE
:10161000236A0A3303E0012802D1236A0A3B2362CA
:1016200000200146FFF794F9206A0A23B0FBF3F08B
:10163000012102F077FDFFF7B8FA0348BDE810403A
:10164000FFF7B3BA54000020195C0008022810B557
:101650000B4C02D1A36A013303E0012802D1A36A33
:10166000013BA36200200146FFF772F9A06A02F075
:10167000E5FCFFF79AFA0348BDE81040FFF795BA7A
:10168000540000206F5D0008022810B50B4C02D1F9
:10169000236B013303E0012802D1236B013B236359
:1016A00000200146FFF754F9206B02F0C7FCFFF75A
:1016B0007CFA0348BDE81040FFF777BA54000020D9
:1016C0006F5D0008022838B51A4C02D1A36B0133B4
:1016D00003E0012802D1A36B013BA3630020014674
:1016E000FFF736F9A06B02F0A9FCFFF75EFA12488B
:1016F000FFF75BFA206A0A250121B0FBF5F002F042
:1017000011FDFFF752FA0D48FFF74FFA236AA06B5D
:1017100064225843B0FBF2F01B1AB3FBF5F0012131
:1017200002F000FDFFF741FA0548BDE83840FFF739
:101730003CBA00BF54000020785D00087B5D0008C3
:10174000195C000808B5084B1A68084B9B689A4258
:1017500009D107200121FFF7FBF8FF200121BDE897
:101760000840FFF77DB808BD540800205400002051
:1017700010B5044600200146FFF7EAF8022C194B89
:1017800006D19A680132082A9A6009D1012206E03E
:10179000012C05D19A68013A9A600AB907229A6029
:1017A000104A9368013B062B18D8DFE803F00406C3
:1017B000080A0C0E10000C480AE00C4808E00C481F
:1017C00006E00C4804E00C4802E00C4800E00C483D
:1017D000FFF7EBF9BDE81040FFF7B4BF01239360BA
:1017E00010BD00BF540000207E5D00088F5D000822
:1017F000A05D0008B15D0008C25D0008D35D00086F
:10180000E45D000838B54FF400612A48FFF7A1FAFB
:101810004FF48071D0F10104264838BF0024FFF74F
:1018200098FA10B944F00204E4B223481021FFF7FB
:1018300090FA88B120482021FFF78BFA70B11E483A
:101840004021FFF786FA58B11B488021FFF781FA43
:10185000002829D1072204E0032202E0052200E04B
:101860000622164B40F2DC50198B0DB2854203DD87
:1018700040F2B451198315E0013189B2142919835A
:1018800010D00E4BDA7E02F003018C4210D044EAF5
:101890008204E4B2E12CDC7601D1022202E0D22CF7
:1018A00006D101229A7638BD044B00221A83E8E75C
:1018B00038BD00BF00080140000C0140800200203C
:1018C00008B508480121FEF7CDFC48B105480121C3
:1018D000FEF7D3FCFFF796FF034BDA690132DA61BA
:1018E00008BD00BF001400408002002038B5204829
:1018F0000121FEF7B7FC002838D001211C48FEF773
:10190000BCFC1C4B1A8812B2012A07DC1A4CE56891
:10191000188800B202F070FC4519E560154B1A8872
:1019200012B2022A07DD144C6568188800B202F072
:1019300063FC45196560104B93F82020012A02D101
:101940009A6801329A6093F821300B4A012B02D138
:10195000136901331361084B93F82220012A02D145
:101960005A6A01325A629A6A01329A6238BD00BFDD
:10197000004401407006002080020020034B00223A
:101980005A62012283F82220704700BF80020020A3
:10199000034B00225A62012283F82220704700BFC5
:1019A0008002002038B504464FF46160B4FBF0F0CB
:1019B00002F044FB054602F025FC012803D812483A
:1019C0000121FFF711F801212846FFF70DF8012149
:1019D0000E48FFF709F83C23B4FBF3F4B4FBF3F033
:1019E00003FB104002F02AFB044602F00BFC012826
:1019F00003D805480121FEF7F7FF20460121BDE885
:101A00003840FEF7F1BF00BFF55D0008615F0008D8
:101A1000054B4FF480321A61044B002283F82C20CE
:101A200083F82D20704700BF000C01408002002089
:101A3000044A01231361044A82F82C3082F82D30C5
:101A4000704700BF000C01408002002038B52C4BCD
:101A5000012205465A75FFF7EBFF022D294C02D1F2
:101A6000A388013303E0012D02D1A388013BA380A9
:101A700000200146FEF76CFF0221A08802F052FB15
:101A8000FFF793F82048FFF790F8204B204A18887A
:101A9000138880B21BB2002BA1881E4B01DC4622AA
:101AA0000AE0401A118802B222EAE27242F2107091
:101AB000424309B292FBF1F2164C1A64206C02F018
:101AC000BDFAFFF772F81448FFF76FF8134B198847
:101AD0000E4B89B21A880E4B92B2188800B20028B9
:101AE00001DC0A230AE0891A1A880BB223EAE3739D
:101AF00042F210714B4312B293FBF2F3A36438BD70
:101B0000800200201C0200207B5D00087C02002077
:101B10007006002004000020F75D00085406002035
:101B200038B5174B012205465A75FFF781FF022D84
:101B3000144C02D1A36B013303E0012D02D1A36B3E
:101B4000013BA36300200146FEF702FFA06B02F0F9
:101B500075FAFFF72AF80C48FFF727F80020012153
:101B6000FEF7F6FE094B0221188880B202F0DAFA7D
:101B7000FFF71BF80648BDE83840FFF716B800BF6E
:101B80008002002004000020F15D00087A06002099
:101B9000625C000838B5174B012205465A75FFF7FD
:101BA00047FF022D144C02D1236B013303E0012DBA
:101BB00002D1236B013B236300200146FEF7C8FEE0
:101BC000206B02F03BFAFEF7F0FF0C48FEF7EDFF4A
:101BD00000200121FEF7BCFE094B0221188880B2CB
:101BE00002F0A0FAFEF7E1FF0648BDE83840FEF734
:101BF000DCBF00BF8002002004000020F15D00086F
:101C000058060020625C000838B5174B01220546D3
:101C10005A75FFF70DFF022D144C02D1A36A013350
:101C200003E0012D02D1A36A013BA362002001461B
:101C3000FEF78EFEA06A02F001FAFEF7B6FF0C482E
:101C4000FEF7B3FF00200121FEF782FE094B0221BF
:101C5000188880B202F066FAFEF7A7FF0648BDE8D2
:101C60003840FEF7A2BF00BF800200200400002021
:101C7000F15D000854060020625C000838B5164B80
:101C8000012205465A75FFF7D3FE022D134C02D1EF
:101C9000A369013303E0012D02D1A369013BA361D4
:101CA00000200146FEF754FEA06902F0C7F9FEF7D6
:101CB0007CFF0B48FEF779FF01210020FEF748FE6C
:101CC000084B188800B202F0B9F9FEF76EFF06481B
:101CD000BDE83840FEF769BF800200200400002004
:101CE000F15D000870060020025E0008044B02222D
:101CF0001A61044B012283F82C2083F82E207047B0
:101D0000000C01408002002010B50B4C94F92F30DC
:101D1000022B10D0022384F82F30FFF779FEFFF753
:101D2000E5FF00233220E361FFF73CF90348BDE8FB
:101D3000104003F0C5B810BD80020020075E000807
:101D400008B5FFF765FEFFF7D1FF3220BDE8084078
:101D5000FFF728B938B5164B012205465A75FFF72B
:101D6000EFFF022D134C02D1236A013303E0012D52
:101D700002D1236A013B236200200146FEF7E8FD01
:101D8000206A02F05BF9FEF710FF0B48FEF70DFF2B
:101D900001210020FEF7DCFD084B188800B202F09C
:101DA0004DF9FEF702FF0648BDE83840FEF7FDBEDC
:101DB0008002002004000020F15D00087006002071
:101DC000025E0008054B4FF400321A61044B0022FA
:101DD00083F82C2083F82E20704700BF000C0140B0
:101DE0008002002008B5FFF7EDFFBDE80840FFF7CF
:101DF0000FBE000038B5834B012193F83020054613
:101E000059754AB983F8202083F8301083F82120CF
:101E100083F83120DA601A617B4B7C491A88896922
:101E200092B2784B8A425A8601D3002205E093F899
:101E300031200AB99A6A5A63012283F831209A6ADA
:101E40005B6B704CD31A032B07D994F8313023B154
:101E5000FFF7C8FF002384F82130022D694C0CD114
:101E600094F82C301BB9FFF76BFF012302E0FFF75A
:101E7000B9FF002384F821300CE0012D0AD194F839
:101E80003830013BDBB21D0684F8383002D503231D
:101E900084F838305B4C94F93800002835D101467D
:101EA000FEF756FD584B0221188880B202F03AF92D
:101EB000FEF77BFE5648FEF778FE564B188800B2B8
:101EC00002F0BCF8FEF771FE5348FEF76EFE94F880
:101ED0002C3013B90720012105E094F83930072090
:101EE0000121052B03D8FEF733FD022002E0FEF7A7
:101EF0002FFD03200121FEF727FD424B93F83920E7
:101F00000A2A02D9002283F839203E4B93F938403F
:101F1000012C13D100200146FEF71AFD3F48FEF7C1
:101F200044FE3A4B214698690A23B0FBF3F002F0D5
:101F3000F9F8FEF73AFE3A48FEF737FE314C94F9CD
:101F40003830022B1AD100200146FEF701FD35483A
:101F5000FEF72BFE344B98684FF46163B0FBF3F04F
:101F600002F06CF8FEF721FE3048FEF71EFE03205B
:101F70000121FEF7EDFCE06BFFF714FD214C94F915
:101F80003850032D19D100200146FEF7E1FC284806
:101F9000FEF70BFEE0684FF46163B0FBF3F002F074
:101FA0004DF8FEF702FE2348FEF7FFFD284601210B
:101FB000FEF7CEFC2069FFF7F5FC124C002294F8E6
:101FC00030001D4902F0BCFF607D00221B4902F079
:101FD000B7FF94F820000022194902F0B1FFA06871
:101FE0000022184902F0ACFF94F8210000221649A3
:101FF00002F0A6FF206915490022BDE8384002F032
:102000009FBF00BF8002002058060020540000201F
:102010007B5D000870060020285E0008315E000825
:10202000195C00083D5E000894000020405E000836
:10203000495E00084C5E0008555E0008635E0008BB
:10204000785E00088D5E00089D5E0008B55E0008A1
:1020500010B50B4C94F92F30012B10D0012384F8CC
:102060002F30FFF7AFFEFFF7E3FC00233220E361E0
:10207000FEF798FF0348BDE8104002F021BF10BDF5
:10208000800200200A5E000870B504460020014668
:10209000FEF75EFC6F4B012293F830105A751E4616
:1020A00019B983F83020FFF769FC726A6A4E694DEE
:1020B000B36A9A4211D8FFF7CBFF684B1A88336A8C
:1020C00092B29A4209D9EB69B3F5C87F05D9FFF7F7
:1020D0005FFC6A6AB36AD3186B625E4D5E4E6A6AD1
:1020E000B36A9A420DD9FFF70FFE5C4B1A88B369A9
:1020F00092B29A4205D2EB69B3F5C87F01D9FFF7D6
:1021000047FC554B6A6A196B9B6ACB189A4201D9F6
:10211000FFF73EFC022C4F4B09D193F838200132D7
:10212000D2B2032A83F838200ED100220AE0012C13
:102130000AD193F83820013AD2B283F83820120637
:1021400002D5022283F83820424D95F93840002C00
:1021500032D120462146FEF7FBFB404B0221188876
:1021600080B201F0DFFFFEF720FD3D48FEF71DFDC8
:102170003C4B188800B201F061FFFEF716FD3A48AB
:10218000FEF713FD06200121FEF7E2FB05200121E9
:10219000FEF7DAFB95F82D500720012D05D12946D1
:1021A000FEF7D6FB2046294604E00121FEF7D0FBCE
:1021B00002200121FEF7C8FB264B93F93840012C81
:1021C00023D10020244D0146FEF7C2FB286901F00F
:1021D00035FFFEF7EAFC2548FEF7E7FCA8690A266A
:1021E0002146B0FBF6F001F09DFFFEF7DEFC1C4837
:1021F000FEF7DBFC286A2146B0FBF6F001F092FF07
:10220000FEF7D3FC1A48FEF7D0FC124C94F9383094
:10221000022B1DD10020104D0146FEF799FBA86A44
:1022200001F00CFFFEF7C1FC1248FEF7BEFC286B64
:1022300001F004FFFEF7B9FC0F48FEF7B6FC0320DF
:102240000121FEF785FB2069BDE87040FFF7AABBBE
:1022500070BD00BF800200205400002058060020FE
:102260007B5D000870060020C85E00088C620008D4
:102270005B5C00087A5F0008D05E000870B5774BA1
:1022800005465C7D002C3BD1754B1A88754B92B28C
:102290001B6A05339A4215D221462046FEF758FBA9
:1022A0007148FEF782FC4FF4FA60FEF77BFE204691
:1022B0002146FEF74DFB6D48FEF777FC40F6B8303F
:1022C000FEF770FE654B002401265E7583F8204002
:1022D00083F821409C601C61DC635C60DC6083F8F7
:1022E0002060FFF7B5FE624B2046DE712146FEF707
:1022F0002FFB6048FEF759FC4FF47A70FEF752FE50
:102300005D4B188800B201F077FF052840F3698122
:102310005A4B1A88534B92B29B699A421DD2544B26
:10232000DA79022A19D14D4CE369B3F57A7F14D9D1
:10233000002384F82130E168514B994203D9E068C9
:102340002169FEF7ADFF00230126A360636084F8D6
:102350002060FFF77DFE464BDE71484B1A88414BEB
:1023600092B21B6A9A423D4B07D9414AD279012A5F
:1023700003D1DA69B2F57A7F08D89A68414B1B68B5
:102380009A4220D93A4BDB79012B1CD1334C0023E4
:1023900084F8203062683A4B9A4204D9606801227E
:1023A000A168FEF77DFF2369E363E268364B9A601C
:1023B00000232361E360012384F82130FFF7A4FCAC
:1023C0002B4B0222DA71022D244B09D193F83820CD
:1023D0000132D2B2052A83F838200ED100220AE059
:1023E000012D0AD193F83820013AD2B2110683F8B0
:1023F000382002D5042283F83820184D95F938404A
:10240000002C4ED120462146FEF7A2FA1B4B02219A
:10241000188880B201F086FEFEF7C7FB1B48FEF766
:10242000C4FB154B188800B201F008FEFEF7BDFB97
:102430001748FEF7BAFB06200121FEF789FA0420AF
:102440000121FEF781FA95F82D500720012D21D1A9
:102450002946FEF77DFA2046294620E0800200202A
:102460005406002054000020D85E0008E95E0008F1
:102470001C020020FA5E00087006002058060020AA
:102480004F8C050044080020940000207B5D00086C
:10249000C85E00080121FEF75BFA02200121FEF769
:1024A00053FA6A4B93F93840012C23D10020684D30
:1024B0000146FEF74DFA286901F0C0FDFEF775FBF5
:1024C0006448FEF772FBA8690A262146B0FBF6F0C5
:1024D00001F028FEFEF769FB5F48FEF766FB286AFD
:1024E0002146B0FBF6F001F01DFEFEF75EFB5B48F7
:1024F000FEF75BFB554C94F93850022D21D100209A
:102500000146FEF725FA28460121FEF71DFA0021B3
:102510000120FEF71DFA5248FEF747FBE0684FF432
:102520006163B0FBF3F001F089FDFEF73EFB4D481F
:10253000FEF73BFB03200121FEF70AFA2069FFF7B3
:1025400031FA424C94F93850032D21D10020014634
:10255000FEF7FEF900200121FEF7F6F90021012027
:10256000FEF7F6F93E48FEF720FB60684FF4616322
:10257000B0FBF3F001F062FDFEF717FB3948FEF700
:1025800014FB28460121FEF7E3F9A068FFF70AFAD9
:102590002E4C94F93830042B2FD100200146FEF741
:1025A000D7F902200121FEF7CFF900210120FEF723
:1025B000CFF92D48FEF7F9FA2C4B98684FF4616378
:1025C000B0FBF3F001F03AFDFEF7EFFA2848FEF712
:1025D000ECFA03200121FEF7BBF9E06BFFF7E2F90B
:1025E0000BE01A4BDB69B3F57A7F06D90020014670
:1025F000FEF7AEF91F48FEF7D8FA144C0022607DB2
:102600001D4902F09DFC94F8200000221B4902F0B5
:1026100097FCA06800221A4902F092FC6068002230
:10262000184902F08DFC94F821000022164902F0AE
:1026300087FC20690022154902F082FCE0681449F9
:102640000022BDE8704002F07BBC00BF8002002089
:10265000540000208C6200087B5D00085B5C000871
:10266000F35D00080B5F00083D5E00089400002049
:102670004C5E0008155F0008635E0008785E000885
:102680008D5E0008265F00089D5E0008B55E0008AC
:102690003E5F0008F8B5924B05465C7D002C3DD1AD
:1026A000904B1A88904B92B21B6A05339A4215D20E
:1026B00021462046FEF74CF98C48FEF776FA4FF497
:1026C000FA60FEF76FFC20462146FEF741F9884884
:1026D000FEF76BFA40F6B830FEF764FC804C00273A
:1026E0000126667584F8207084F82170A760276140
:1026F000E7636760E76084F82060FFF7A9FC7D4B23
:102700003946DE713846FEF723F97B48FEF74DFA6D
:102710004FF47A70FEF746FC84F84060704C94F9F0
:102720004030032B00F3D080744B188800B201F0C6
:1027300063FD052840F3BB80714B1A886A4B92B247
:102740009B699A4227D26B4BDA79022A23D1E3693B
:10275000B3F57A7F1FD9002384F82130E168694BF3
:10276000994203D9E0682169FEF79AFD5C4C012685
:102770002369E363E268644B84F820609A60002375
:102780006360A360FFF764FC94F840309B1984F801
:102790004030584BDE715A4B1A88534B92B21B6A29
:1027A0009A424F4B07D9534AD279012A03D1DA69A9
:1027B000B2F57A7F08D89A68544B1B689A4224D99C
:1027C0004C4BDB79012B20D1454C94F94030022B46
:1027D0001BDC002384F8203062684A4B9A4204D9FB
:1027E00060680122A168FEF75BFD012384F82130B7
:1027F0000023E3602361FFF787FA94F84030022258
:10280000013384F840303B4BDA713D4B1A88364B2C
:1028100092B21B6A9A42324B07D9364AD279012AC0
:1028200003D1DA69B2F57A7F08D89A68374B1B680A
:102830009A4221D92F4BDB79012B1DD1284C94F9D9
:102840004030022B18DDFFF7CDFA002384F820304A
:1028500084F8213062682B4B9A4204D960680122C7
:10286000A168FEF71DFD1E4B93F84020013283F84E
:102870004020022283F83820022D194B09D193F809
:1028800038200132D2B2042A83F838204FD10022F6
:102890000AE0012D4BD193F83820013AD2B2140648
:1028A00083F8382043D5032283F838203FE0E369DA
:1028B000B3F57A7F40F2EA8000200146FEF748F83F
:1028C0001348FEF772F9E1E0022D23D194F8383075
:1028D0000133DBB2042B84F8383028D1002324E004
:1028E000800200205406002054000020D85E00081A
:1028F000E95E00081C020020FA5E00087006002055
:10290000580600204F8C0500940000204408002049
:10291000155F0008012D0AD194F83830013BDBB275
:10292000180684F8383002D5032384F838306B4D0C
:1029300095F93840002C32D120462146FEF708F8A0
:10294000674B0221188880B201F0ECFBFEF72DF9ED
:102950006448FEF72AF9644B188800B201F06EFB58
:10296000FEF723F96148FEF720F906200121FDF763
:10297000EFFF04200121FDF7E7FF95F82D50072018
:10298000012D05D12946FDF7E3FF2046294604E045
:102990000121FDF7DDFF02200121FDF7D5FF4F4B9F
:1029A00093F93840012C23D10020514D0146FDF709
:1029B000CFFF286901F042FBFEF7F7F84D48FEF71C
:1029C000F4F8A8690A262146B0FBF6F001F0AAFB4C
:1029D000FEF7EBF84348FEF7E8F8286A2146B0FB1B
:1029E000F6F001F09FFBFEF7E0F84348FEF7DDF854
:1029F0003A4C94F93850022D21D100200146FDF7C0
:102A0000A7FF28460121FDF79FFF00210120FDF7C8
:102A10009FFF3A48FEF7C9F8E0684FF46163B0FBE6
:102A2000F3F001F00BFBFEF7C0F83548FEF7BDF8F8
:102A300003200121FDF78CFF2069FEF7B3FF274C2F
:102A400094F93850032D21D100200146FDF780FF75
:102A500000200121FDF778FF00210120FDF778FF1C
:102A60002648FEF7A2F860684FF46163B0FBF3F00C
:102A700001F0E4FAFEF799F82148FEF796F82846A7
:102A80000121FDF765FFA068FEF78CFF134C0022C3
:102A9000607D1C4902F054FA94F8200000221A4983
:102AA00002F04EFAA0680022184902F049FA606864
:102AB0000022174902F044FA94F821000022154937
:102AC00002F03EFA20690022134902F039FAE06868
:102AD00012490022BDE8F84002F032BA800200201C
:102AE000580600207B5D000870060020C85E0008C4
:102AF000540000208C6200085B5C0008F35D000855
:102B00000B5F0008635E0008785E00088D5E0008B9
:102B1000265F00089D5E0008B55E00083E5F000865
:102B200008B5FFF74FF9FEF783FF3220BDE80840F4
:102B3000FEF738BA38B5AD4B012293F83040054660
:102B40005A7544BBAA4B1A88AA4B92B21B6A05332A
:102B50009A4215D221462046FDF7FAFEA648FEF716
:102B600024F84FF4FA60FEF71DFA20462146FDF7DF
:102B7000EFFEA248FEF719F840F6B830FEF712FA59
:102B80009A4B0022012183F8202083F8301083F82B
:102B900021205A609A60954C994BA2681B689A4212
:102BA00006D89849934A0888136A80B2984203D994
:102BB000FFF718F900230CE0926B64205A43098850
:102BC000B2FBF0F289B29B1A994204D2FFF7A8FF38
:102BD000012384F82030022D844C0CD194F82C3041
:102BE0001BB9FFF79DFF012302E0FFF7FBF800236D
:102BF00084F820300CE0012D0AD194F83830013BE4
:102C0000DBB21D0684F8383002D5032384F838304F
:102C1000764C94F93800002852D10146FDF798FE11
:102C200094F82C30A3B9724B0221188880B201F0BD
:102C300079FAFDF7BAFF7448FDF7B7FF714B02212F
:102C4000188880B201F06EFAFDF7AFFF6F4812E00E
:102C50006C4B0221188880B201F064FAFDF7A5FFE1
:102C60006948FDF7A2FF6A4B188800B201F0E6F947
:102C7000FDF79BFF6748FDF798FF5C4B93F82C40EE
:102C80002CB907200121FDF763FE204608E093F8E8
:102C9000393007200121052B04D8FDF759FE00200B
:102CA000012103E0FDF754FE01200146FDF74CFE33
:102CB0004E4B93F839200A2A02D9002283F8392092
:102CC0004A4B93F93840012C1BD100200146494D55
:102CD000FDF73EFE5048FDF768FF286901F0AEF9A8
:102CE000FDF763FF4D48FDF760FF286A0A23B0FB3C
:102CF000F3F0214601F016FAFDF757FF4348FDF7C0
:102D000054FF3A4B93F93830022B29D1394C00202B
:102D10000146FDF71DFEA06B01F090F9FDF745FFA0
:102D20003F48FDF742FF206A0A250121B0FBF5F07C
:102D300001F0F8F9FDF739FF3348FDF736FF236A54
:102D4000A06B64225843B0FBF2F01B1AB3FBF5F002
:102D5000012101F0E7F9FDF728FF2C48FDF725FFD9
:102D6000224C94F93850032D19D100200146FDF76B
:102D7000EFFD2C48FDF719FF60684FF46163B0FB6D
:102D8000F3F001F05BF9FDF710FF2748FDF70DFFA9
:102D900028460121FDF7DCFDA068FEF703FE134C79
:102DA0006420FEF747F894F8300000221F4902F033
:102DB000C7F8607D00221E4902F0C2F894F8200096
:102DC00000221C4902F0BCF8A06800221A4902F057
:102DD000B7F894F821000022184902F0B1F82069F0
:102DE00017490022BDE8384002F0AAB8800200204E
:102DF0005406002054000020D85E0008E95E000858
:102E000044080020580600207B5D0008195C00087B
:102E100070060020285E0008605F0008635F0008FD
:102E2000785D00086B5F00084C5E0008555E000886
:102E3000635E0008785E00088D5E00089D5E0008F5
:102E4000B55E0008F0B5A24B0122022887B05A7582
:102E500009D193F841200132D2B2082A83F84120E7
:102E60000ED100220AE001280AD193F84120013A4C
:102E7000D2B283F84120120602D5072283F84120FE
:102E8000934B93F941400CBBFEF7ACFF2146204623
:102E9000FDF75EFD8F48FDF788FE8F4B01211888F6
:102EA0000A2380B2B0FBF3F001F03CF9FDF77DFEA0
:102EB0008A48FDF77AFE8A4B0221188880B201F019
:102EC00031F9FDF772FE8748FDF76FFE804B93F9ED
:102ED0004130012B1DD1FEF785FF00200146FDF793
:102EE00037FD8148FDF761FE804B0221188880B2D2
:102EF00001F018F9FDF759FE7D48FDF756FE7D4BB0
:102F0000D88880B201F09AF8FDF74FFE7A48FDF7B5
:102F10004CFE6F4B93F94140022C1DD1FEF788FD0A
:102F200000200146FDF714FD7448FDF73EFE744B8A
:102F30002146188880B201F0F5F8FDF736FE6C489E
:102F4000FDF733FE6B4B988880B201F077F8FDF700
:102F50002CFE6948FDF729FE5D4B93F94130032BA8
:102F60001ED1FEF72FFFFEF763FD00200146FDF79F
:102F7000EFFC6448FDF719FE634B188800B201F0BE
:102F80005DF8FDF712FE6148FDF70FFE594B5888BA
:102F900080B201F053F8FDF708FE5748FDF705FE33
:102FA0004B4B93F94130042B1ED1FEF731FDFEF758
:102FB0009DFE00200146FDF7CBFC5548FDF7F5FDD1
:102FC000544B188800B201F039F8FDF7EEFD4F4878
:102FD000FDF7EBFD474B188880B201F02FF8FDF7A5
:102FE000E4FD4D48FDF7E1FD394B93F94130052BE8
:102FF0003DD13E4D494CFEF7E5FEFEF719FD29880F
:10300000238889B29BB2404FCB1A42F210714B43D6
:103010003A88434E12B2002093FBF2F30146B364A8
:10302000FDF796FC3F48FDF7C0FD306C01F006F857
:10303000FDF7BBFD3C48FDF7B8FDB06C00F0FEFFAE
:10304000FDF7B3FD3948FDF7B0FD3888384900B2C7
:10305000002201F075FF2888364980B2022201F073
:103060006FFF2088344980B2022201F069FF184CBA
:1030700094F94130062B0ED1FEF7B4FE0020014634
:10308000FDF766FC01A9A06A01F001F9FDF78DFDCD
:103090002A48FDF78AFD0E4C94F94130072B14D1D4
:1030A000FEF7A0FE00200146FDF752FC2448FDF784
:1030B0007CFD606C4FF46163B0FBF3F000F0BEFF89
:1030C000FDF773FD1F48FDF770FD07B0F0BD00BFB1
:1030D000800200206E5F00087A060020735F0008FF
:1030E00056060020F05D0008785F000854060020B6
:1030F0007B5D000848080020EE5D00087D5F000849
:1031000058060020835F000870060020895F0008D1
:103110008D5F00087A020020ED5D00087C0200202F
:1031200004000020935F0008965F00089B5F000882
:10313000A35F0008A75F0008AE5F0008EC5D000811
:10314000B65F0008BD5F00082DE9F843A94D0024D3
:1031500000F01AFEFEF746FEA7482C60FDF725FD9D
:10316000FDF76FFC21462046FDF7F2FB4FF4FA60B5
:10317000FDF760FE01F04CFA2B68172B88BF2C601E
:1031800001F0BCFC80B94FF47A70FDF753FE01F0FA
:10319000B5FC48B99948FDF708FD4FF47A60FDF792
:1031A00049FE9748FDF794F8964B974C1A69974B50
:1031B00091485A6423694FF461625A43944B1A60F0
:1031C000944BA2681A6001F07BFEFDF7EBF9FDF766
:1031D000A8FB9148FCF7C4FFA368012B17D0022B72
:1031E00001D18E4814E0032B01D18D4810E0042B4F
:1031F00001D18C480CE0052B01D18B4808E0062B4F
:1032000001D18A4804E0072B01D1894800E08948B0
:10321000FCF78EFF884B14221A80884A4FF4807185
:1032200011617A4D40F6B8325A8000274FF47A7314
:10323000EB820126B84695F83930AC7E0133204642
:103240007F4985F8393085F81A80002201F078FE30
:103250007A481021FDF77DFD10B97A4801F030FE63
:10326000631E062B26D8DFE803F004080E2525256B
:103270001500FCF757FF406802E0FCF753FF0068B9
:10328000FCF756FF16E00220FCF774FFFCF74AFF3C
:10329000C068F5E7684A694B36B9142111804FF4CC
:1032A00080721A61012605E0C82111804FF08072FA
:1032B0001A610026FCF736FFDFF87891484503D104
:1032C0002046FDF787FE30E1FCF72CFF09F12C03C7
:1032D000984203D12046FDF7E9FE26E1FCF722FFE4
:1032E00009F15803984203D12046FDF759FF1CE12C
:1032F000FCF718FF09F18403984203D12046FFF739
:1033000019FC12E1FCF70EFF09F1B003984203D15A
:103310002046FEF76FFD08E1FCF704FF09F59A73FC
:10332000984203D12046FFF7B5F9FEE0FCF7FAFE1C
:1033300009F1DC03984203D12046FEF79FFFF4E039
:10334000FCF7F0FE09F58473984203D12046FEF79E
:103350009BFEEAE0FCF7E6FE09F5B073984203D164
:103360002046FFF76FFDE0E0FCF7DCFE09F5C679CB
:10337000484503D12046FDF7B9FFD6E0FCF7D2FE61
:10338000DFF8C490484503D12046FEF71BF8CCE097
:10339000FCF7C8FE09F12C03984203D12046FDF743
:1033A000EDFFC2E0FCF7BEFE09F15803984203D1DD
:1033B0002046FEF7CFFCB8E0FCF7B4FE09F1840329
:1033C000984203D12046FEF759FCAEE0FCF7AAFE76
:1033D00009F1B003984203D12046FEF7A1FBA4E017
:1033E000FCF7A0FE09F1CC0398422FD12046FEF74E
:1033F000D1FB9AE0A806002024020020CB5F000841
:10340000DC5F0008940000205400002080020020AF
:103410004408002054080020850D00084852000888
:1034200074520008A0520008CC520008F85200085C
:10343000245300081C5200081C020020000C01400C
:10344000EA5F0008E15C0008D4530008FCF76AFE5C
:1034500009F1F803984203D12046FEF7D5FB64E05A
:10346000FCF760FE09F59273984203D12046FEF7FF
:10347000EDFA5AE0FCF756FE09F5A073984203D125
:103480002046FDF7C3FF50E0FCF74CFE09F5AE798E
:10349000484503D12046FDF7F7FF46E0FCF742FE22
:1034A000DFF8B090484503D12046FEF713F83CE022
:1034B000FCF738FE09F12C03984203D12046FEF7B1
:1034C00081F832E0FCF72EFE09F15803984203D14F
:1034D0002046FEF799F828E0FCF724FE09F1840362
:1034E000984203D12046FEF7B1F81EE0FCF71AFE21
:1034F00009F1B003984203D12046FEF7C5F814E065
:10350000FCF710FE09F1DC03984203D12046FEF7D8
:10351000D9F80AE0FCF706FE09F58479484503D19D
:103520002046FEF725F900E06F756C7D64B9FEF763
:1035300059FCEA68064B85F830409A602B6985F89B
:103540003840EB6385F82F406420FDF72BFD72E6D1
:10355000940000205C55000870B592B04E2312A96B
:10356000002621F8043D42488DF84760FDF79CFB9A
:1035700001214FF4007000F0C1FA0120014600F073
:10358000B1FA3C4B062502934FF4806308938023E5
:10359000069320230993384B384801934FF48073E6
:1035A000079301A94FF400530A93049503960B96D1
:1035B000059600F028FF0121304800F042FF4FF44B
:1035C000004000F03DFA01244FF460232C480CA980
:1035D0000E938DF835400F960C968DF840508DF86F
:1035E000344000F0F7FB072325482146224600F02F
:1035F00042FC02210A460723214800F03CFC03213B
:103600000A4607231E4800F036FC042207232946F9
:103610001B4800F030FC204600F07CFC1121052204
:103620001748072300F027FC10212A4604231448DA
:1036300000F021FC1248214600F0F0FB1048214622
:1036400000F0F5FB0E4800F0FBFB0D4800F0FDFB21
:103650000028FAD10A4800F0FCFB094800F0FEFB04
:103660000028FAD10648012100F0FCFB12B070BD21
:1036700000080140480800204C2401400800024096
:10368000002401401FB50121022000F043FA104C34
:1036900001A8FCF7C9FD45F6BF53ADF8043020463C
:1036A000052301A9ADF80830FCF774FD01210A4695
:1036B0002046FCF7CEFD20460121FCF7BEFD054B60
:1036C0004FF000521A60202283F81D231FBD00BF57
:1036D0000004004000E100E0224A234B91682DE9FC
:1036E000F04108319160C91A002808BF0120A729BC
:1036F000C8BF9360936812681E689A4208BF194A4F
:10370000184C08BF1660194F22689880152521466D
:10371000BC46D2F800809845B2F8048008BF166015
:10372000804503D2086818600B600020BA42246804
:1037300014D01168D1F800809845B1F8048008BF12
:103740000E60804503D21068186013600020614548
:1037500004D0013DADB20A68002DDAD1A088BDE8E1
:10376000F08100BF38020020F40200209C030020FA
:10377000234A244B51692DE9F04108315161C91A9E
:10378000002808BF0120B1F5A47FA8BF5361536989
:10379000D2681E689A4208BF194A194908BFD66004
:1037A00051F80C2F184F988029250C46BC46D2F8AA
:1037B00000809845B2F8048008BF1660804503D2A7
:1037C0002068186023600020BA42096814D0146889
:1037D000D4F800809845B4F8048008BF266080457E
:1037E00003D21068186013600020644504D0013DC6
:1037F000ADB22268002DDAD18888BDE8F08100BF23
:1038000038020020A4030020EC040020234A244BAB
:10381000116A2DE9F04108311162C91A002808BF68
:103820000120B1F5A47FA8BF1362136A92691E68D4
:103830009A4208BF194A194908BF966151F8182FD2
:10384000184F988029250C46BC46D2F80080984530
:10385000B2F8048008BF1660804503D22068186063
:1038600023600020BA42096814D01468D4F800809C
:103870009845B4F8048008BF2660804503D21068DC
:10388000186013600020644504D0013DADB2226889
:10389000002DDAD18888BDE8F08100BF3802002011
:1038A000F40400203C0600200F49D1F85433D1F82D
:1038B0005023C1F858339342C1F85423C1F8500340
:1038C00007DC834203DC9042A8BF104670479A424F
:1038D00005DC824203DC9842A8BF184670479A4232
:1038E000B4BF104618467047F402002073B54D4827
:1038F0000121FCF7B7FC002800F092804A4C01211E
:10390000D4F85C3347480133C4F85C33FCF7B5FCAA
:1039100000250220ADF80450ADF8065000F0A4FDDB
:10392000022000F0ABFD414E022141482A4600F042
:1039300093FD404BF1889B6A89B24B43328992B226
:10394000B3FBF2F39BB2ADF80630BDF8060080B2CF
:10395000FFF75CFFA4F86003B4F860334FF4F02283
:103960009BB2022B98BFA4F8605333899BB292FBA1
:10397000F3F39BB2A4F86233B18832892D4E89B239
:10398000336B92B24B43B3FBF2F39BB2ADF806300C
:10399000BDF8060080B2FFF79FFE80B2ADF80400CC
:1039A000BDF804301BB2022B02DC0023ADF804305A
:1039B000B3691E4C0A256B436188228989B24B4347
:1039C00092B2B3FBF2F39BB2ADF80630BDF806003D
:1039D00080B2FFF7CDFE316A174B80B218804D439D
:1039E0002288238992B255439BB2B5FBF3F5ADB261
:1039F000ADF80650BDF8060000B2FFF755FF0F4BBB
:103A000080B21880BDF80420074B92B20848A3F892
:103A100064230221012202B0BDE8704000F01CBD09
:103A200002B070BD00040040F402002048080020ED
:103A30000800024004000020780200207A020020E2
:103A4000034B5A6822F4404210435860704700BF4D
:103A50000010024010B51F4B5A6802F00C02042AF5
:103A600001D0082A02D01C4B036011E05A68596843
:103A7000C2F383420232C90301D4184B06E0DB6A69
:103A8000154903F00F030133B1FBF3F35A4302600E
:103A9000104A134B51680468C1F30311595C24FAAE
:103AA00001F141605468C4F302241C5D21FA04F45E
:103AB00084605468C4F3C2241C5D21FA04F1C1601F
:103AC0005268C2F381329B181B7CB1FBF3F1016198
:103AD00010BD00BF0010024000127A0000093D0036
:103AE0005C020020044B5A6909B1104301E022EA4C
:103AF00000005861704700BF00100240044B9A69F3
:103B000009B1104301E022EA00009861704700BF4C
:103B100000100240044BDA6909B1104301E022EAC7
:103B20000000D861704700BF0010024008B50820AF
:103B30000121FFF7E3FF194B1A6822F003021A6014
:103B40001A6822F00C021A601A6842F002021A6027
:103B50001A6822F00C021A601A6822F030021A6009
:103B60001A6822F0C0021A601A6842F020021A6035
:103B70001A6822F0C0021A605A6822F003025A60E2
:103B80005A6822F00C025A605A6842F002025A60E7
:103B90005A6822F00C025A6008BD00BF000C0140B8
:103BA00008B508200121FFF7A9FF2D4B1A6822F460
:103BB00040121A601A6822F440021A601A6842F42D
:103BC00000021A6020221A611A6822F440321A6038
:103BD0001A6822F440221A601A6842F400221A601D
:103BE00010221A611A6822F040721A601A6822F0D4
:103BF00040621A601A6842F000621A6040221A613C
:103C00001A6822F040521A601A6822F040421A6084
:103C10001A6842F000421A6080221A61A3F580639C
:103C20005A6822F440525A605A6822F440425A605C
:103C30005A6842F400425A604FF400621A615A68AE
:103C400022F003025A605A6822F00C025A605A6845
:103C500042F008025A604FF480721A6108BD00BF3A
:103C6000000C01401FB501212020FFF753FF104C2D
:103C700001A8FCF7D9FA40F65F13ADF804302046EE
:103C80000A2301A9ADF80830FCF784FA01210A469D
:103C90002046FCF7DEFA20460121FCF7CEFA054B60
:103CA0004FF400025A60502283F837231FBD00BF33
:103CB0000014004000E100E01FB501214FF4003086
:103CC000FFF71CFF01A8FCF7AFFA104C0023ADF87A
:103CD000063045F6BF53ADF8043020464FF47A73F2
:103CE00001A9ADF80830FCF755FA01210A46204633
:103CF000FCF7AFFA20460121FCF79FFA044B4FF086
:103D000000721A60102283F819231FBD004401407D
:103D100000E100E037B5124D4FF000500121FFF7F0
:103D2000F9FE00241023284601A9ADF804308DF8CF
:103D30000740FCF7B9FF2023284601A9ADF804305D
:103D40008DF80740FCF7B0FF064B1A6842F00102FD
:103D50001A601A6842F480321A609C605C613EBD51
:103D60000008014000740040064BDA6942F001028D
:103D7000DA614FF0804345F6BF521A8509221A8056
:103D8000704700BF0010024008B504200121FFF772
:103D9000B5FE08200121FFF7B1FE10200121FFF739
:103DA000ADFEFFF7E1FFFCF70FFF00F0E9FFFFF7C3
:103DB000BDFEFFF7F5FEFFF755FFFFF763FCFFF7CA
:103DC0007BFFFFF7B3FEFFF7C7FBBDE80840FFF737
:103DD000A1BF000043680A6823F4702323F48073B2
:103DE00013430A7910B543EA022343608A68CB681B
:103DF00084681A43084B234013434A7943EA420339
:103E000083600B7CC26A013B22F47002DBB242EA9F
:103E10000353C36210BD00BFFDF7F1FF836811B10A
:103E200043F0010301E023F00103836070478368DE
:103E300011B143F4807301E023F480738360704711
:103E4000836843F00803836070478068C0F3C00054
:103E50007047836843F00403836070478068C0F351
:103E600080007047836811B143F4A00301E023F49C
:103E7000A00383607047092970B54FF003040DD982
:103E80004C4307251E3C05FA04F503FA04F3C66803
:103E900026EA050545EA0304C4600BE04C43072508
:103EA00005FA04F503FA04F4066926EA050545EA6D
:103EB00004030361062A4FF005030CD8013A53436B
:103EC0001F2202FA03F201FA03F3446B24EA02020E
:103ED0001343436370BD0C2A0DD853431F22233B69
:103EE00002FA03F201FA03F1046B24EA020242EA45
:103EF0000103036370BD53431F22413B02FA03F2E7
:103F000001FA03F1C46A24EA020242EA0103C3622D
:103F100070BD0000044B9A6810B142F4000201E049
:103F200022F400029A6070470024014030B5038AF1
:103F3000CA8823F440531B041B0C134303820D4611
:103F400083890989AA8823F4B0530A43698923F035
:103F50000C030A431B041B0C92B213438381838A14
:103F6000AA8923F440731B041B0C87B01343044637
:103F7000838201A8FFF76EFD174BA2899C420CBFFC
:103F8000049B039B12B2002A4FF019012A6801FB1F
:103F900003F101DA520000E092006423B1FBF2F178
:103FA000B1FBF3F21201100903FB1011A08900B25A
:103FB000002806DAC9003231B1FBF3F303F007033E
:103FC00005E009013231B1FBF3F303F00F031A43AB
:103FD00092B2228107B030BD00380140838919B107
:103FE0009BB243F4005303E023F400531B041B0C67
:103FF00083817047C1F3421310B5012401F01F0102
:10400000A34204FA01F101D10C3004E0022B01D1EA
:10401000103000E0143003680AB1194301E023EACC
:104020000101016010BDC905C90D81807047038879
:1040300019420CBF00200120704700007FB580EAC4
:10404000E072A2EBE0720DF1FF3500230A2492FB2F
:10405000F4F104FB1122303205F8012F1E46013322
:104060000A1EDBB2F3DC002807DA5BB204A8C3182F
:104070002D2203F8102CB31CDBB25AB204A881180D
:10408000002001F8100C68448118074811F8014C11
:10409000013BDBB2013900F8014F002BF6D1034898
:1040A000835404B070BD00BF7B0600207C06002056
:1040B000F0B5034685B083EAE370A0EBE3700DF141
:1040C000FF3600220A2590FBF5F405FB1400303082
:1040D00006F8010F17460132201ED2B2F3DC002B86
:1040E00007DA04AB52B29A182D2302F8103CBA1C1E
:1040F000D2B250B204AC2318002403F8104C0DEBDC
:10410000040318180C46134652B210F8015C013B28
:10411000DBB2013804F8015B002BF6D18B54084662
:1041200005B0F0BDF0B58BB080EAE073A3EBE073AF
:104130000DF1FF3600220A2593FBF5F405FB14333D
:10414000303306F8013F17460132231ED2B2F3DCAA
:1041500053B20AADEC180025012B04F8285C04D1F9
:104160003023BA1C8DF80130D2B2022A05D10129C0
:1041700003D930238DF80230032200240DF1280CDE
:1041800023460CEB01062E2552B25FB28F4203D1BB
:10419000013306F8145CDBB25FB20DF1280C674402
:1041A0001DF804C0013407F814CC67B201339742FC
:1041B000DBB2EADB002807DA5AB20AA98A1801330F
:1041C0002D2102F8141CDBB259B205AD08480022BB
:1041D0006C1804E0A55C013B00F8015FDBB2013A1A
:1041E000002BF7D1034841180B7410300BB0F0BD11
:1041F0008B0600207C060020002802D001DC404213
:1042000000B270470346002001E00130C0B21A5CE2
:10421000002AFAD1704730B50346002401E0155555
:1042200001341D5DE0B2002DF9D12B4645B2551980
:1042300003E00130EC54C0B20133CC5C002CF8D167
:1042400040B21454104630BD70B5002501E05E55F3
:104250000135465DECB2002EF9D1304666B29E19AA
:1042600003E001343554E4B201300D5C002DF8D187
:10427000294665B25D1903E001346854E4B20131A6
:10428000505C0028F8D164B21855184670BD2DE96D
:10429000F041074686B04FF461600C46B7FBF0F082
:1042A00001A9FFF705FF01A8FFF7ACFF012803D81C
:1042B00030232370012600E000260023A11902E02C
:1042C000CA54EEB201330DF1040813F80820751C2E
:1042D000002AF5D13A2273B2E2543C23B7FBF3F241
:1042E000B2FBF3F003FB10204146FFF7E1FE40462E
:1042F000FFF788FF0128EDB204D86DB23023635573
:10430000B51CEDB269B20023611802E0CA54F5B2DF
:1043100001330DF1040813F808206E1C002AF5D1B2
:104320003A226BB2E2543C23B7FBF3F003FB10706C
:104330004146FFF7BDFE4046FFF764FF0128F6B295
:1043400004D876B230230235A355EEB271B2002301
:10435000611803E00136CA54F6B2013301AA9A5C2F
:10436000002AF7D176B2A255204606B0BDE8F0810A
:104370002DE9F041804686B04FF461600C46B8FBF1
:10438000F0F001A9FFF794FE01A8FFF73BFF012819
:1043900003D830232370012500E000250023611994
:1043A00002E0CA54F5B2013301AFDA5D6E1C002A97
:1043B000F7D13A226BB2E2543C23B8FBF3F8B8FBD6
:1043C000F3F003FB10803946FFF772FE3846FFF723
:1043D00019FF0128F6B204D876B230230235A3556E
:1043E000EEB271B20023611803E00136CA54F6B28E
:1043F000013301AA9A5C002AF7D176B2A255204671
:1044000006B0BDE8F0818B6810B50C6A02682343E2
:104410000C6922F4FE4223434C6922F0F00223434C
:104420008C692343CC6923434C6A23438C6A23431E
:1044300013430360CB6843600B6883604B68C360C1
:1044400010BD19B1036843F0010303E002684FF6A1
:10445000FE7313400360704703680AB1194301E01B
:1044600023EA010101607047C2004CBF014B024BBF
:10447000586070470004024000000240C3004CBF77
:10448000014B024B5860704700040240000002409C
:10449000C37810B5F3B1154B4178DB688478DB4302
:1044A000C3F30223C3F1040201FA02F10F2222FA3C
:1044B00003F222400A430E4B01781201CB18D2B20C
:1044C00083F8002303780122590903F01F0302FA3D
:1044D00003F307E003780122590903F01F0302FAEE
:1044E00003F32031024A42F8213010BD00ED00E014
:1044F00000E100E00F4AD36813F0010F0D4BFAD131
:10450000DA68920601D52022DA601A6942F00202C6
:104510001A6158611A6942F040021A61054AD1686D
:10452000044B8906FBD52022DA601A6922F00202C8
:104530001A61704700200240034B044A5A6002F19E
:1045400088325A60704700BF00200240230167454F
:10455000024B1A6942F080021A6170470020024043
:10456000124AD36813F0010F104BFAD1DA689206A1
:1045700001D52022DA601A6942F001021A618BB279
:1045800003800A4BDA6812F0200F084AFAD0202381
:10459000090CD3604180D168044B8906FBD52022E9
:1045A000DA601A6922F001021A61704700200240A5
:1045B00070B572B6114CFFF7BFFF4FF4CE701049C3
:1045C000002200F0BDFC20680E49002200F0B8FC7B
:1045D0000D48FFF78FFF0C4D0C4E2B1903F178435C
:1045E000A3F5F233284619680435FFF7B9FFB54241
:1045F000F3D1FFF7ADFF62B670BD00BFA806002083
:10460000EF600008F660000800E401089CE501087E
:1046100010B5074B0749084A58181C6800F1784044
:104620000433A0F5F23093420460F5D1012010BDAF
:1046300000E40108A80600209CE5010870B50468A4
:104640000E468C4201D3944211D90A4B00251D70AD
:1046500009492A4600F074FC204608492A4600F021
:104660006FFC074807492A4600F06AFC344620469A
:1046700070BD00BF70020020FC60000813610008DC
:1046800000EC01082561000810B5184C6068FFF7C0
:1046900031FF60682168FFF763FFE068A168FFF7FA
:1046A0005FFF60692169FFF75BFFE069A169FFF7C0
:1046B00057FF606A216AFFF753FFE06AA16AFFF7BC
:1046C0004FFF606B216BFFF74BFFE06BA16BFFF7B8
:1046D00047FF606C216CFFF743FFE06CA16CFFF7B4
:1046E0003FFF034800F0ECFB10BD00BF04000020BA
:1046F0003C61000810B5184C6068FFF7FBFE60686D
:104700002168FFF72DFFE068A168FFF729FF6069C6
:104710002169FFF725FFE069A169FFF721FF606AC2
:10472000216AFFF71DFFE06AA16AFFF719FF606BBE
:10473000216BFFF715FFE06BA16BFFF711FF606CBA
:10474000216CFFF70DFFE06CA16CFFF709FF034838
:1047500000F0B6FB10BD00BF5C01002055610008F1
:1047600038B5224C002160684FF48072FFF766FF75
:10477000002120604FF47A72E068FFF75FFF0021AC
:10478000A0604FF47A726069FFF758FF184D2061FE
:104790000A212A46E069FFF751FF0A21A0612A4653
:1047A000606AFFF74BFF0A2120622A46E06AFFF7A2
:1047B00045FF0A21A0622A46606BFFF73FFF0A21EE
:1047C00020632A46E06BFFF739FF4621A063C82229
:1047D000606CFFF733FF0A212064C822E06CFFF70A
:1047E0002DFFA064034800F06BFB38BD04000020DF
:1047F000A08601007561000838B5224C0021606870
:104800004FF48072FFF71AFF002120604FF47A7294
:10481000E068FFF713FF0021A0604FF47A7260692F
:10482000FFF70CFF184D20610A212A46E069FFF7C7
:1048300005FF0A21A0612A46606AFFF7FFFE0A21F0
:1048400020622A46E06AFFF7F9FE0A21A0622A46A2
:10485000606BFFF7F3FE0A2120632A46E06BFFF747
:10486000EDFE4621A063C822606CFFF7E7FE0A2137
:104870002064C822E06CFFF7E1FEA064034800F06A
:104880001FFB38BDAC010020A08601008F6100082D
:1048900010B5144C6068FFF72DFE60682168FFF7C3
:1048A0005FFEE068A168FFF75BFE60692169FFF7C2
:1048B00057FEE069A169FFF753FE606A216AFFF7BE
:1048C0004FFEE06AA16AFFF74BFE606B216BFFF7BA
:1048D00047FEE06BA16BFFF743FE034800F0F0FAE0
:1048E00010BD00BF54000020B261000810B5144C88
:1048F0006068FFF7FFFD60682168FFF731FEE06840
:10490000A168FFF72DFE60692169FFF729FEE069C4
:10491000A169FFF725FE606A216AFFF721FEE06AC0
:10492000A16AFFF71DFE606B216BFFF719FEE06BBC
:10493000A16BFFF715FE034800F0C2FA10BD00BFDF
:10494000DC000020C861000838B51D4C00216068FB
:104950004FF48072FFF772FE012120600A22E068A6
:10496000FFF76CFE0121A0604FF47A726069FFF7D7
:1049700065FE012120614FF47A62E069FFF75EFE77
:104980000121A0614FF47A62606AFFF757FE42F29C
:104990001075206200212A46E06AFFF74FFE0021D1
:1049A000A0622A46606BFFF749FE00212063642263
:1049B000E06BFFF743FEA063024800F081FA38BDC8
:1049C00054000020E561000838B51D4C00216068E6
:1049D0004FF48072FFF732FE012120600A22E06866
:1049E000FFF72CFE0121A0604FF47A726069FFF797
:1049F00025FE012120614FF47A62E069FFF71EFE77
:104A00000121A0614FF47A62606AFFF717FE42F25B
:104A10001075206200212A46E06AFFF70FFE002190
:104A2000A0622A46606BFFF709FE00212063642222
:104A3000E06BFFF703FEA063024800F041FA38BDC7
:104A40001C010020FC61000810B50A4C6068FFF7EB
:104A500051FD60682168FFF783FDE068A168FFF7FA
:104A60007FFD60692169FFF77BFD034800F028FAAC
:104A700010BD00BFAC0000204962000838B50C4CE6
:104A8000002160684FF48072FFF7D8FD094D206067
:104A900000212A46E068FFF7D1FD0021A0602A46E8
:104AA0006069FFF7CBFD2061034800F009FA38BDCB
:104AB0009400002000286BEE7062000838B50C4CA2
:104AC000002160684FF48072FFF7B8FD094D206047
:104AD00000212A46E068FFF7B1FD0021A0602A46C8
:104AE0006069FFF7ABFD2061034800F0E9F938BDCC
:104AF000C400002000286BEE8F62000870B50C4DDA
:104B000001242C7072B6FFF7B9FFFFF71DFFFFF706
:104B100027FE62B62E782EB9064800F0D1F92C7027
:104B2000304670BD044800F0CBF92C70204670BDB3
:104B300070020020B7620008D0620008F0B5C1B072
:104B400007460D461446684608494FF4807200F047
:104B50000FFA6E4617F8013B013D5C40EDB2345D43
:104B6000002DF7D1204641B0F0BD00BFEF5F000837
:104B700038B572B6FFF7E0FC4C2100223448FFF74D
:104B8000DDFF344B04461860FFF7B4FDFFF734FE39
:104B90004C2100223048FFF7D1FF844203D12F4837
:104BA00000F08EF904E02E4800F08AF9FFF7A2FD2C
:104BB0003C2100222B48FFF7C1FF00222A4904466E
:104BC00000F0BEF9002229493C2000F0B9F9284B39
:104BD0001C60FFF78BFEFFF7F7FE3C210022254803
:104BE000FFF7ACFF00222049054600F0A9F93C2060
:104BF00000221E4900F0A4F9AC4203D11E4800F087
:104C00005FF904E01D4800F05BF9FFF76FFE142127
:104C100000221B48FFF792FF1A4B04461860FFF76B
:104C200013FFFFF74BFF142100221748FFF786FF01
:104C3000844203D1154800F043F904E0144800F021
:104C40003FF9FFF701FFFFF783FC62B638BD00BFF5
:104C5000600100205C010020B0010020EB62000830
:104C600010630008E0000020406300084B63000868
:104C7000DC00002020010020576300087963000851
:104C8000B0000020AC000020C8000020A66300088F
:104C9000D063000838B572B63C2100221948FFF7EE
:104CA0004DFF00221849044600F04AF90022174936
:104CB0003C2000F045F9164B1C60FFF73DFCFFF768
:104CC000E7FDFFF781FE3C2100221248FFF736FF87
:104CD00000220D49054600F033F93C2000220B4923
:104CE00000F02EF9AC4203D10B4800F0E9F804E0E3
:104CF0000A4800F0E5F8FFF7CBFDFFF729FC62B6A4
:104D0000012038BD58000020416300084C630008B2
:104D10005400002020010020586300087A63000836
:104D200010B572B64C2100221048FFF707FF104B58
:104D300004461860FFF700FCFFF7A6FCFFF75CFDD8
:104D40004C2100220B48FFF7F9FE844203D10A48A8
:104D500000F0B6F804E0094800F0B2F8FFF794FC60
:104D6000FFF7F6FB62B6012010BD00BF080000206F
:104D700004000020B0010020EC620008116300086C
:104D800030B54FF4164387B0009300231C46ADF8AE
:104D90000430ADF80630ADF80830ADF80C30042022
:104DA0000C230121ADF80A30FEF7A8FE01214FF4D3
:104DB0008040FEF7A3FE4FF4C063154DADF81030F0
:104DC00018238DF8133004A9032312488DF81230EC
:104DD000FBF76AFF69462846FFF7A8F825238DF8F8
:104DE00014308DF816402223012405A88DF81530C3
:104DF0008DF81740FFF74CFB28462146FFF7EEF8E9
:104E0000284640F225512246FFF7F4F807B030BD9E
:104E100000380140000801400A4B1A78C72A0FD811
:104E20005A78094988541A780132D2B21A705A78DD
:104E30000132D2B25A705A78C82A01D100225A706F
:104E4000704700BF9D0600205808002010B5194C7F
:104E50002388980603D5A088C0B2FFF7DDFF23881A
:104E6000144A19061AD5144B997889B1D978134880
:104E7000415C91809A78013AD2B29A70DA78013224
:104E8000D2B2DA70DA78C82A08D10022DA7005E0E6
:104E9000938923F080031B041B0C9381054A13881C
:104EA0005B0605D5138823F040031B041B0C1380FD
:104EB00010BD00BF003801409D06002020090020E1
:104EC00010B504460AE00D488021FFF7B0F800282D
:104ED000F9D014F8011B0948FFF7A5F82378002B37
:104EE000F1D106488021FFF7A2F80028F9D0034845
:104EF0000A21BDE81040FFF796B800BF0038014016
:104F000082B0064B8DF807001A885206FCD59DF832
:104F10000720024B9A8002B0704700BF0038014062
:104F2000064B1A4605E019884906FCD510F8011B06
:104F3000918001780029F6D1704700BF0038014008
:104F400037B501900C46019812B9FFF777F802E0E7
:104F50001146FFF7E7F805462046FFF7E1FF284630
:104F6000FFF7DEFF0A2003B0BDE83040FFF7C8BFFF
:104F70000F2AF0B43AD941EA00039B0738D10C4616
:104F8000034615462668103D1E6066685E60A6688A
:104F90009E60E6681034DE6010330F2DF2D8A2F167
:104FA000100424F00F0402F00F021034032A00EB67
:104FB0000403214411D90E461D46144656F8047BBD
:104FC000043C032C45F8047BF8D8141F24F0030498
:104FD000043402F0030209191B192AB111F8014B1C
:104FE000013A03F8014BF9D1F0BC70470346F4E7EE
:104FF0000346F3E70000000000000000000000008E
:1050000000000000000000000000000069693A2074
:1050100000513A20004352432843616C6962726137
:1050200074696F6E29203D0043616C69627261741E
:10503000696F6E3056616C7565466F72437572723A
:10504000656E74203D0043616C6962726174696FC2
:105050006E3056616C7565466F7243757272656E1F
:105060007431203D0043616C6962726174696F6ED6
:1050700056616C7565466F7243757272656E742009
:105080003D0043616C6962726174696F6E56616C58
:105090007565466F7243757272656E7431203D009E
:1050A00043616C6962726174696F6E56616C75659B
:1050B000466F72566F6C74616765203D0043616C8A
:1050C0006962726174696F6E56616C7565466F7264
:1050D000566F6C7461676531203D0043616C696295
:1050E000726174696F6E56616C7565466F72566F4A
:1050F0006C7461676532203D005265736973746139
:105100006E6365436F6D705F497368756E745F574A
:1051100069726573203D00526573697374616E63D3
:1051200065436F6D705F4D4F53464554203D0043BE
:1051300052432853657474696E67734461746129BE
:10514000203D004F7074696F6E31286D656E75205B
:10515000706F736974696F6E29203D0043686172D6
:10516000676554696D65203D004C6F77566F6C74B0
:10517000616765203D004D6178566F6C74616765AD
:10518000203D004368617267654164617074203D31
:10519000005377696E675F436872675F74696D6516
:1051A000203D005377696E675F44436872675F74A0
:1051B000696D65203D004352432853617665446123
:1051C00074615768656E506F7765724F6666292007
:1051D0003D00426174746572794361706163697402
:1051E0007944697363686172676550726576696F47
:1051F000757356616C7565203D004261747465720B
:105200007943617061636974794469736368617239
:10521000676543757272656E74203D00F44F000837
:10522000F44F0008F44F00088C5B000800000000F9
:1052300000000000202020202020202020202020EE
:105240002020202000000000F44F0008F44F000848
:10525000F44F0008605B0008000000000000000040
:10526000202020202020202020202020202020203E
:1052700000000000F44F0008F44F0008F44F00084D
:10528000345B000800000000910D00082020202061
:10529000202020202020202020202020000000008E
:1052A000F44F0008F44F0008F44F0008085B0008B2
:1052B00000000000910D0008202020202020202048
:1052C000202020202020202000000000F44F000893
:1052D000F44F0008F44F0008DC5A000800000000FA
:1052E000ED0D00082020202020202020202020203C
:1052F0002020202000000000F44F0008F44F000898
:10530000F44F0008845A000800000000000000006C
:10531000202020202020202020202020202020208D
:1053200000000000F44F0008F44F0008F44F00089C
:10533000585A000800000000000000002020202033
:1053400020202020202020202020202000000000DD
:10535000F44F0008F44F0008F44F0008B05A00085A
:10536000000000000000000020202020202020203D
:10537000202020202020202000000000F44F0008E2
:10538000F44F0008F44F00082C5A000800000000F9
:10539000000000002020202020202020202020208D
:1053A0002020202000000000F44F0008F44F0008E7
:1053B000F44F0008005A000800000000610D0008CA
:1053C00020202020202020202020202020202020DD
:1053D00000000000F44F0008F44F0008F44F0008EC
:1053E000F057000800000000710D00082020202068
:1053F000202020202020202020202020000000002D
:10540000F44F0008F44F0008F44F00081C5800083F
:1054100000000000710D0008202020202020202006
:10542000202020202020202000000000F44F000831
:10543000F44F0008F44F00089857000800000000DF
:10544000710D000820202020202020202020202056
:105450002020202000000000F44F0008F44F000836
:10546000F44F0008C457000800000000710D000848
:10547000202020202020202020202020202020202C
:1054800000000000F44F0008F44F0008F44F00083B
:105490001457000800000000710D00080000000013
:1054A000F44F0008F44F0008F44F0008405700087C
:1054B00000000000710D0008202020202020202066
:1054C000202020202020202000000000F44F000891
:1054D000F44F0008F44F00086C570008000000006B
:1054E000710D0008202020202020202020202020B6
:1054F0002020202000000000F44F0008F44F000896
:10550000F44F0008E856000800000000710D000884
:1055100000000000F44F0008F44F0008F44F0008AA
:10552000BC56000800000000000000000000000061
:10553000F44F0008F44F0008F44F0008A859000881
:10554000000000006D0D00082020202020202020D9
:10555000202020202020202000000000F44F000800
:10556000F44F0008F44F00087C59000800000000C8
:10557000890E00082020202020202020202020200C
:105580002020202000000000F44F0008F44F000805
:10559000F44F000850590008000000006D0D00088D
:1055A00020202020202020202020202020202020FB
:1055B00000000000F44F0008F44F0008F44F00080A
:1055C00024590008000000006D0D00082020202054
:1055D000202020202020202020202020000000004B
:1055E000F44F0008F44F0008F44F0008F858000882
:1055F000000000006D0D0008202020202020202029
:10560000202020202020202000000000F44F00084F
:10561000F44F0008F44F0008CC58000800000000C8
:105620006D0D000820202020202020202020202078
:105630002020202000000000F44F0008F44F000854
:10564000F44F0008A0580008000000006D0D00088D
:10565000202020202020202020202020202020204A
:1056600000000000F44F0008F44F0008F44F000859
:105670007458000800000000590E00082020202067
:10568000202020202020202020202020000000009A
:105690001C580008BC560008F44F0008D4590008F4
:1056A00000000000000000004F4B20746F20657860
:1056B000697420202020202000000000905600085F
:1056C000E8560008F44F00081455000800000000D8
:1056D000000000004261636B20746F2046616374B8
:1056E0006F72792000000000BC56000814570008B3
:1056F000F44F0008F854000800000000000000000B
:1057000052657369737420636F6D70203556314133
:1057100000000000E856000840570008F44F000859
:10572000845400080000000000000000566F6C74F4
:1057300061676520496E20202020202000000000A5
:10574000145700086C570008F44F0008A0540008D4
:105750000000000000000000566F6C746167652057
:105760004F757420202020200000000040570008C2
:1057700098570008F44F0008CC54000800000000BF
:1057800000000000566F6C74616765205053202044
:1057900020202020000000006C570008C45700089B
:1057A000F44F00082C540008000000000000000026
:1057B00043555252454E54204C6F616420202020A6
:1057C0000000000098570008F0570008F44F000848
:1057D00058540008000000000000000043555252D9
:1057E000454E54204F7574202020202000000000DA
:1057F000C45700081C580008F44F0008D453000890
:10580000000000000000000043555252454E542055
:105810004C6F616420746F3000000000F057000886
:1058200090560008F44F00080054000800000000E3
:105830000000000043555252454E54204F757420CD
:10584000746F203000000000A85900087458000848
:10585000F44F0008B85B00080000000000000000E2
:105860004F4B20746F206578697420202020202001
:105870000000000048580008A0580008F44F000835
:1058800064560008000000000000000030383A5361
:10589000617665204D656E7520506F7300000000C5
:1058A00074580008CC580008F44F00083856000817
:1058B000000000000000000030373A436861726762
:1058C000652061646461707400000000A0580008E5
:1058D000F8580008F44F00080C56000800000000BB
:1058E0000000000030363A53776E674469734368AE
:1058F0007267205400000000CC58000824590008AA
:10590000F44F0008E055000800000000000000000F
:1059100030353A5377696E67204368726720546D5B
:1059200000000000F858000850590008F44F000823
:10593000B4550008000000000000000030343A4D6B
:10594000617820566F6C746167652020000000004C
:10595000245900087C590008F44F000888550008B5
:10596000000000000000000030333A4C6F772056F2
:105970006F6C7461676520200000000050590008BA
:10598000A8590008F44F00085C550008000000000A
:105990000000000030323A426174746572792074FC
:1059A00079706520000000007C5900084858000804
:1059B000F44F00083055000800000000000000000F
:1059C00030313A4368617267652074696D652020E3
:1059D00000000000B85B0008005A0008F44F0008FF
:1059E0001C580008000000000000000043414C4922
:1059F00042524154494F4E202020202000000000F8
:105A0000D45900082C5A0008F44F0008A853000885
:105A100000000000000000004C4F47202020202004
:105A2000202020202020202000000000005A000814
:105A3000585A0008F44F00087C530008000000008A
:105A400000000000444941474E4F53544943202031
:105A500020202020000000002C5A0008845A000852
:105A6000F44F00082453000800000000000000006C
:105A70005377696E672020202020202020202020BE
:105A800000000000585A0008B05A0008F44F0008FF
:105A9000F852000800000000000000005472616924
:105AA0006E696E672020202020202020000000004A
:105AB000845A0008DC5A0008F44F000850530008CC
:105AC0000000000000000000436865636B696E67BA
:105AD000436170616369747900000000B05A000886
